{
  "contractName": "ERC721RaribleUser",
  "abi": [
    {
      "anonymous": false,
      "inputs": [
        {
          "indexed": true,
          "internalType": "address",
          "name": "owner",
          "type": "address"
        },
        {
          "indexed": true,
          "internalType": "address",
          "name": "approved",
          "type": "address"
        },
        {
          "indexed": true,
          "internalType": "uint256",
          "name": "tokenId",
          "type": "uint256"
        }
      ],
      "name": "Approval",
      "type": "event"
    },
    {
      "anonymous": false,
      "inputs": [
        {
          "indexed": true,
          "internalType": "address",
          "name": "owner",
          "type": "address"
        },
        {
          "indexed": true,
          "internalType": "address",
          "name": "operator",
          "type": "address"
        },
        {
          "indexed": false,
          "internalType": "bool",
          "name": "approved",
          "type": "bool"
        }
      ],
      "name": "ApprovalForAll",
      "type": "event"
    },
    {
      "anonymous": false,
      "inputs": [
        {
          "indexed": false,
          "internalType": "address",
          "name": "owner",
          "type": "address"
        },
        {
          "indexed": false,
          "internalType": "string",
          "name": "name",
          "type": "string"
        },
        {
          "indexed": false,
          "internalType": "string",
          "name": "symbol",
          "type": "string"
        }
      ],
      "name": "CreateERC721RaribleUser",
      "type": "event"
    },
    {
      "anonymous": false,
      "inputs": [
        {
          "indexed": false,
          "internalType": "uint256",
          "name": "tokenId",
          "type": "uint256"
        },
        {
          "indexed": false,
          "internalType": "string",
          "name": "uri",
          "type": "string"
        },
        {
          "components": [
            {
              "internalType": "address payable",
              "name": "account",
              "type": "address"
            },
            {
              "internalType": "uint96",
              "name": "value",
              "type": "uint96"
            }
          ],
          "indexed": false,
          "internalType": "struct LibPart.Part[]",
          "name": "creators",
          "type": "tuple[]"
        }
      ],
      "name": "Mint",
      "type": "event"
    },
    {
      "anonymous": false,
      "inputs": [
        {
          "indexed": true,
          "internalType": "address",
          "name": "previousOwner",
          "type": "address"
        },
        {
          "indexed": true,
          "internalType": "address",
          "name": "newOwner",
          "type": "address"
        }
      ],
      "name": "OwnershipTransferred",
      "type": "event"
    },
    {
      "anonymous": false,
      "inputs": [
        {
          "indexed": false,
          "internalType": "uint256",
          "name": "tokenId",
          "type": "uint256"
        },
        {
          "components": [
            {
              "internalType": "address payable",
              "name": "account",
              "type": "address"
            },
            {
              "internalType": "uint96",
              "name": "value",
              "type": "uint96"
            }
          ],
          "indexed": false,
          "internalType": "struct LibPart.Part[]",
          "name": "royalties",
          "type": "tuple[]"
        }
      ],
      "name": "RoyaltiesSet",
      "type": "event"
    },
    {
      "anonymous": false,
      "inputs": [
        {
          "indexed": true,
          "internalType": "address",
          "name": "from",
          "type": "address"
        },
        {
          "indexed": true,
          "internalType": "address",
          "name": "to",
          "type": "address"
        },
        {
          "indexed": true,
          "internalType": "uint256",
          "name": "tokenId",
          "type": "uint256"
        }
      ],
      "name": "Transfer",
      "type": "event"
    },
    {
      "inputs": [
        {
          "internalType": "address",
          "name": "to",
          "type": "address"
        },
        {
          "internalType": "uint256",
          "name": "tokenId",
          "type": "uint256"
        }
      ],
      "name": "approve",
      "outputs": [],
      "stateMutability": "nonpayable",
      "type": "function"
    },
    {
      "inputs": [
        {
          "internalType": "address",
          "name": "owner",
          "type": "address"
        }
      ],
      "name": "balanceOf",
      "outputs": [
        {
          "internalType": "uint256",
          "name": "",
          "type": "uint256"
        }
      ],
      "stateMutability": "view",
      "type": "function"
    },
    {
      "inputs": [],
      "name": "baseURI",
      "outputs": [
        {
          "internalType": "string",
          "name": "",
          "type": "string"
        }
      ],
      "stateMutability": "view",
      "type": "function"
    },
    {
      "inputs": [
        {
          "internalType": "uint256",
          "name": "tokenId",
          "type": "uint256"
        }
      ],
      "name": "burn",
      "outputs": [],
      "stateMutability": "nonpayable",
      "type": "function"
    },
    {
      "inputs": [],
      "name": "contractURI",
      "outputs": [
        {
          "internalType": "string",
          "name": "",
          "type": "string"
        }
      ],
      "stateMutability": "view",
      "type": "function"
    },
    {
      "inputs": [
        {
          "internalType": "uint256",
          "name": "tokenId",
          "type": "uint256"
        }
      ],
      "name": "getApproved",
      "outputs": [
        {
          "internalType": "address",
          "name": "",
          "type": "address"
        }
      ],
      "stateMutability": "view",
      "type": "function"
    },
    {
      "inputs": [
        {
          "internalType": "uint256",
          "name": "_id",
          "type": "uint256"
        }
      ],
      "name": "getCreators",
      "outputs": [
        {
          "components": [
            {
              "internalType": "address payable",
              "name": "account",
              "type": "address"
            },
            {
              "internalType": "uint96",
              "name": "value",
              "type": "uint96"
            }
          ],
          "internalType": "struct LibPart.Part[]",
          "name": "",
          "type": "tuple[]"
        }
      ],
      "stateMutability": "view",
      "type": "function"
    },
    {
      "inputs": [
        {
          "internalType": "uint256",
          "name": "id",
          "type": "uint256"
        }
      ],
      "name": "getRoyalties",
      "outputs": [
        {
          "components": [
            {
              "internalType": "address payable",
              "name": "account",
              "type": "address"
            },
            {
              "internalType": "uint96",
              "name": "value",
              "type": "uint96"
            }
          ],
          "internalType": "struct LibPart.Part[]",
          "name": "",
          "type": "tuple[]"
        }
      ],
      "stateMutability": "view",
      "type": "function"
    },
    {
      "inputs": [
        {
          "internalType": "address",
          "name": "owner",
          "type": "address"
        },
        {
          "internalType": "address",
          "name": "operator",
          "type": "address"
        }
      ],
      "name": "isApprovedForAll",
      "outputs": [
        {
          "internalType": "bool",
          "name": "",
          "type": "bool"
        }
      ],
      "stateMutability": "view",
      "type": "function"
    },
    {
      "inputs": [],
      "name": "name",
      "outputs": [
        {
          "internalType": "string",
          "name": "",
          "type": "string"
        }
      ],
      "stateMutability": "view",
      "type": "function"
    },
    {
      "inputs": [],
      "name": "owner",
      "outputs": [
        {
          "internalType": "address",
          "name": "",
          "type": "address"
        }
      ],
      "stateMutability": "view",
      "type": "function"
    },
    {
      "inputs": [
        {
          "internalType": "uint256",
          "name": "tokenId",
          "type": "uint256"
        }
      ],
      "name": "ownerOf",
      "outputs": [
        {
          "internalType": "address",
          "name": "",
          "type": "address"
        }
      ],
      "stateMutability": "view",
      "type": "function"
    },
    {
      "inputs": [],
      "name": "renounceOwnership",
      "outputs": [],
      "stateMutability": "nonpayable",
      "type": "function"
    },
    {
      "inputs": [
        {
          "internalType": "uint256",
          "name": "",
          "type": "uint256"
        },
        {
          "internalType": "uint256",
          "name": "",
          "type": "uint256"
        }
      ],
      "name": "royalties",
      "outputs": [
        {
          "internalType": "address payable",
          "name": "account",
          "type": "address"
        },
        {
          "internalType": "uint96",
          "name": "value",
          "type": "uint96"
        }
      ],
      "stateMutability": "view",
      "type": "function"
    },
    {
      "inputs": [
        {
          "internalType": "address",
          "name": "from",
          "type": "address"
        },
        {
          "internalType": "address",
          "name": "to",
          "type": "address"
        },
        {
          "internalType": "uint256",
          "name": "tokenId",
          "type": "uint256"
        }
      ],
      "name": "safeTransferFrom",
      "outputs": [],
      "stateMutability": "nonpayable",
      "type": "function"
    },
    {
      "inputs": [
        {
          "internalType": "address",
          "name": "from",
          "type": "address"
        },
        {
          "internalType": "address",
          "name": "to",
          "type": "address"
        },
        {
          "internalType": "uint256",
          "name": "tokenId",
          "type": "uint256"
        },
        {
          "internalType": "bytes",
          "name": "_data",
          "type": "bytes"
        }
      ],
      "name": "safeTransferFrom",
      "outputs": [],
      "stateMutability": "nonpayable",
      "type": "function"
    },
    {
      "inputs": [
        {
          "internalType": "address",
          "name": "operator",
          "type": "address"
        },
        {
          "internalType": "bool",
          "name": "approved",
          "type": "bool"
        }
      ],
      "name": "setApprovalForAll",
      "outputs": [],
      "stateMutability": "nonpayable",
      "type": "function"
    },
    {
      "inputs": [
        {
          "internalType": "bytes4",
          "name": "interfaceId",
          "type": "bytes4"
        }
      ],
      "name": "supportsInterface",
      "outputs": [
        {
          "internalType": "bool",
          "name": "",
          "type": "bool"
        }
      ],
      "stateMutability": "view",
      "type": "function"
    },
    {
      "inputs": [],
      "name": "symbol",
      "outputs": [
        {
          "internalType": "string",
          "name": "",
          "type": "string"
        }
      ],
      "stateMutability": "view",
      "type": "function"
    },
    {
      "inputs": [
        {
          "internalType": "uint256",
          "name": "index",
          "type": "uint256"
        }
      ],
      "name": "tokenByIndex",
      "outputs": [
        {
          "internalType": "uint256",
          "name": "",
          "type": "uint256"
        }
      ],
      "stateMutability": "view",
      "type": "function"
    },
    {
      "inputs": [
        {
          "internalType": "address",
          "name": "owner",
          "type": "address"
        },
        {
          "internalType": "uint256",
          "name": "index",
          "type": "uint256"
        }
      ],
      "name": "tokenOfOwnerByIndex",
      "outputs": [
        {
          "internalType": "uint256",
          "name": "",
          "type": "uint256"
        }
      ],
      "stateMutability": "view",
      "type": "function"
    },
    {
      "inputs": [
        {
          "internalType": "uint256",
          "name": "tokenId",
          "type": "uint256"
        }
      ],
      "name": "tokenURI",
      "outputs": [
        {
          "internalType": "string",
          "name": "",
          "type": "string"
        }
      ],
      "stateMutability": "view",
      "type": "function"
    },
    {
      "inputs": [],
      "name": "totalSupply",
      "outputs": [
        {
          "internalType": "uint256",
          "name": "",
          "type": "uint256"
        }
      ],
      "stateMutability": "view",
      "type": "function"
    },
    {
      "inputs": [
        {
          "internalType": "address",
          "name": "from",
          "type": "address"
        },
        {
          "internalType": "address",
          "name": "to",
          "type": "address"
        },
        {
          "internalType": "uint256",
          "name": "tokenId",
          "type": "uint256"
        }
      ],
      "name": "transferFrom",
      "outputs": [],
      "stateMutability": "nonpayable",
      "type": "function"
    },
    {
      "inputs": [
        {
          "components": [
            {
              "internalType": "uint256",
              "name": "tokenId",
              "type": "uint256"
            },
            {
              "internalType": "string",
              "name": "uri",
              "type": "string"
            },
            {
              "components": [
                {
                  "internalType": "address payable",
                  "name": "account",
                  "type": "address"
                },
                {
                  "internalType": "uint96",
                  "name": "value",
                  "type": "uint96"
                }
              ],
              "internalType": "struct LibPart.Part[]",
              "name": "creators",
              "type": "tuple[]"
            },
            {
              "components": [
                {
                  "internalType": "address payable",
                  "name": "account",
                  "type": "address"
                },
                {
                  "internalType": "uint96",
                  "name": "value",
                  "type": "uint96"
                }
              ],
              "internalType": "struct LibPart.Part[]",
              "name": "royalties",
              "type": "tuple[]"
            },
            {
              "internalType": "bytes[]",
              "name": "signatures",
              "type": "bytes[]"
            }
          ],
          "internalType": "struct LibERC721LazyMint.Mint721Data",
          "name": "data",
          "type": "tuple"
        },
        {
          "internalType": "address",
          "name": "from",
          "type": "address"
        },
        {
          "internalType": "address",
          "name": "to",
          "type": "address"
        }
      ],
      "name": "transferFromOrMint",
      "outputs": [],
      "stateMutability": "nonpayable",
      "type": "function"
    },
    {
      "inputs": [
        {
          "internalType": "address",
          "name": "newOwner",
          "type": "address"
        }
      ],
      "name": "transferOwnership",
      "outputs": [],
      "stateMutability": "nonpayable",
      "type": "function"
    },
    {
      "inputs": [
        {
          "internalType": "uint256",
          "name": "_id",
          "type": "uint256"
        },
        {
          "internalType": "address",
          "name": "_from",
          "type": "address"
        },
        {
          "internalType": "address",
          "name": "_to",
          "type": "address"
        }
      ],
      "name": "updateAccount",
      "outputs": [],
      "stateMutability": "nonpayable",
      "type": "function"
    },
    {
      "inputs": [
        {
          "internalType": "string",
          "name": "_name",
          "type": "string"
        },
        {
          "internalType": "string",
          "name": "_symbol",
          "type": "string"
        },
        {
          "internalType": "string",
          "name": "baseURI",
          "type": "string"
        },
        {
          "internalType": "string",
          "name": "contractURI",
          "type": "string"
        },
        {
          "internalType": "address[]",
          "name": "operators",
          "type": "address[]"
        }
      ],
      "name": "__ERC721RaribleUser_init",
      "outputs": [],
      "stateMutability": "nonpayable",
      "type": "function"
    },
    {
      "inputs": [
        {
          "components": [
            {
              "internalType": "uint256",
              "name": "tokenId",
              "type": "uint256"
            },
            {
              "internalType": "string",
              "name": "uri",
              "type": "string"
            },
            {
              "components": [
                {
                  "internalType": "address payable",
                  "name": "account",
                  "type": "address"
                },
                {
                  "internalType": "uint96",
                  "name": "value",
                  "type": "uint96"
                }
              ],
              "internalType": "struct LibPart.Part[]",
              "name": "creators",
              "type": "tuple[]"
            },
            {
              "components": [
                {
                  "internalType": "address payable",
                  "name": "account",
                  "type": "address"
                },
                {
                  "internalType": "uint96",
                  "name": "value",
                  "type": "uint96"
                }
              ],
              "internalType": "struct LibPart.Part[]",
              "name": "royalties",
              "type": "tuple[]"
            },
            {
              "internalType": "bytes[]",
              "name": "signatures",
              "type": "bytes[]"
            }
          ],
          "internalType": "struct LibERC721LazyMint.Mint721Data",
          "name": "data",
          "type": "tuple"
        },
        {
          "internalType": "address",
          "name": "to",
          "type": "address"
        }
      ],
      "name": "mintAndTransfer",
      "outputs": [],
      "stateMutability": "nonpayable",
      "type": "function"
    }
  ],
  "bytecode": "0x608060405234801561001057600080fd5b506166aa80620000216000396000f3fe608060405234801561001057600080fd5b50600436106101cf5760003560e01c8063715018a611610104578063b88d4fde116100a2578063e07f231911610071578063e07f231914610551578063e8a3d4851461056d578063e985e9c51461058b578063f2fde38b146105bb576101cf565b8063b88d4fde146104b9578063bb3bafd6146104d5578063c4552e2414610505578063c87b56dd14610521576101cf565b80638924af74116100de5780638924af74146104305780638da5cb5b1461046157806395d89b411461047f578063a22cb4651461049d576101cf565b8063715018a6146103da578063832fbb29146103e4578063891be97414610400576101cf565b80632f745c59116101715780634f6ccce71161014b5780634f6ccce71461032c5780636352211e1461035c5780636c0360eb1461038c57806370a08231146103aa576101cf565b80632f745c59146102c457806342842e0e146102f457806342966c6814610310576101cf565b8063095ea7b3116101ad578063095ea7b31461025257806318160ddd1461026e57806322a775b61461028c57806323b872dd146102a8576101cf565b806301ffc9a7146101d457806306fdde0314610204578063081812fc14610222575b600080fd5b6101ee60048036038101906101e991906157b3565b6105d7565b6040516101fb9190615e16565b60405180910390f35b61020c61063f565b6040516102199190615e31565b60405180910390f35b61023c60048036038101906102379190615986565b6106e1565b6040516102499190615d6b565b60405180910390f35b61026c60048036038101906102679190615777565b61077c565b005b6102766108c0565b6040516102839190615ed3565b60405180910390f35b6102a660048036038101906102a191906158cb565b6108d1565b005b6102c260048036038101906102bd9190615671565b610970565b005b6102de60048036038101906102d99190615777565b6109e6565b6040516102eb9190615ed3565b60405180910390f35b61030e60048036038101906103099190615671565b610a41565b005b61032a60048036038101906103259190615986565b610a61565b005b61034660048036038101906103419190615986565b610ad3565b6040516103539190615ed3565b60405180910390f35b61037660048036038101906103719190615986565b610af6565b6040516103839190615d6b565b60405180910390f35b610394610b2d565b6040516103a19190615e31565b60405180910390f35b6103c460048036038101906103bf919061560c565b610bcf565b6040516103d19190615ed3565b60405180910390f35b6103e2610ca4565b005b6103fe60048036038101906103f9919061591f565b610e14565b005b61041a60048036038101906104159190615986565b610e4a565b6040516104279190615df4565b60405180910390f35b61044a600480360381019061044591906159fe565b610f4d565b604051610458929190615dcb565b60405180910390f35b610469610fc3565b6040516104769190615d6b565b60405180910390f35b610487610fed565b6040516104949190615e31565b60405180910390f35b6104b760048036038101906104b2919061573b565b61108f565b005b6104d360048036038101906104ce91906156c0565b611245565b005b6104ef60048036038101906104ea9190615986565b6112bd565b6040516104fc9190615df4565b60405180910390f35b61051f600480360381019061051a91906157dc565b6113c0565b005b61053b60048036038101906105369190615986565b611591565b6040516105489190615e31565b60405180910390f35b61056b600480360381019061056691906159af565b611862565b005b6105756118e7565b6040516105829190615e31565b60405180910390f35b6105a560048036038101906105a09190615635565b611986565b6040516105b29190615e16565b60405180910390f35b6105d560048036038101906105d0919061560c565b611a1a565b005b600060656000837bffffffffffffffffffffffffffffffffffffffffffffffffffffffff19167bffffffffffffffffffffffffffffffffffffffffffffffffffffffff1916815260200190815260200160002060009054906101000a900460ff169050919050565b6060609c8054600181600116156101000203166002900480601f0160208091040260200160405190810160405280929190818152602001828054600181600116156101000203166002900480156106d75780601f106106ac576101008083540402835291602001916106d7565b820191906000526020600020905b8154815290600101906020018083116106ba57829003601f168201915b5050505050905090565b60006106ec82611c0f565b610741576040517f08c379a000000000000000000000000000000000000000000000000000000000815260040180806020018281038252602c815260200180616543602c913960400191505060405180910390fd5b609a600083815260200190815260200160002060009054906101000a900473ffffffffffffffffffffffffffffffffffffffff169050919050565b600061078782610af6565b90508073ffffffffffffffffffffffffffffffffffffffff168373ffffffffffffffffffffffffffffffffffffffff16141561080e576040517f08c379a00000000000000000000000000000000000000000000000000000000081526004018080602001828103825260218152602001806165f36021913960400191505060405180910390fd5b8073ffffffffffffffffffffffffffffffffffffffff1661082d611c2c565b73ffffffffffffffffffffffffffffffffffffffff16148061085c575061085b81610856611c2c565b611986565b5b6108b1576040517f08c379a00000000000000000000000000000000000000000000000000000000081526004018080602001828103825260388152602001806164466038913960400191505060405180910390fd5b6108bb8383611c34565b505050565b60006108cc6098611ced565b905090565b81604001516000815181106108e257fe5b60200260200101516000015173ffffffffffffffffffffffffffffffffffffffff1661090c610fc3565b73ffffffffffffffffffffffffffffffffffffffff1614610962576040517f08c379a000000000000000000000000000000000000000000000000000000000815260040161095990615e53565b60405180910390fd5b61096c8282611d02565b5050565b61098161097b611c2c565b8261202b565b6109d6576040517f08c379a00000000000000000000000000000000000000000000000000000000081526004018080602001828103825260318152602001806166146031913960400191505060405180910390fd5b6109e183838361211f565b505050565b6000610a3982609760008673ffffffffffffffffffffffffffffffffffffffff1673ffffffffffffffffffffffffffffffffffffffff16815260200190815260200160002061236290919063ffffffff16565b905092915050565b610a5c83838360405180602001604052806000815250611245565b505050565b610a72610a6c611c2c565b8261202b565b610ac7576040517f08c379a00000000000000000000000000000000000000000000000000000000081526004018080602001828103825260308152602001806166456030913960400191505060405180910390fd5b610ad08161237c565b50565b600080610aea8360986124b690919063ffffffff16565b50905080915050919050565b6000610b26826040518060600160405280602981526020016164a86029913960986124e29092919063ffffffff16565b9050919050565b6060609f8054600181600116156101000203166002900480601f016020809104026020016040519081016040528092919081815260200182805460018160011615610100020316600290048015610bc55780601f10610b9a57610100808354040283529160200191610bc5565b820191906000526020600020905b815481529060010190602001808311610ba857829003601f168201915b5050505050905090565b60008073ffffffffffffffffffffffffffffffffffffffff168273ffffffffffffffffffffffffffffffffffffffff161415610c56576040517f08c379a000000000000000000000000000000000000000000000000000000000815260040180806020018281038252602a81526020018061647e602a913960400191505060405180910390fd5b610c9d609760008473ffffffffffffffffffffffffffffffffffffffff1673ffffffffffffffffffffffffffffffffffffffff168152602001908152602001600020612501565b9050919050565b610cac611c2c565b73ffffffffffffffffffffffffffffffffffffffff16610cca610fc3565b73ffffffffffffffffffffffffffffffffffffffff1614610d53576040517f08c379a00000000000000000000000000000000000000000000000000000000081526004018080602001828103825260208152602001807f4f776e61626c653a2063616c6c6572206973206e6f7420746865206f776e657281525060200191505060405180910390fd5b600073ffffffffffffffffffffffffffffffffffffffff16603360009054906101000a900473ffffffffffffffffffffffffffffffffffffffff1673ffffffffffffffffffffffffffffffffffffffff167f8be0079c531659141344cd1fd0a4f28419497f9722a3daafe3b4186f6b6457e060405160405180910390a36000603360006101000a81548173ffffffffffffffffffffffffffffffffffffffff021916908373ffffffffffffffffffffffffffffffffffffffff160217905550565b610e218360000151611c0f565b15610e3a57610e3582828560000151610a41565b610e45565b610e4483826108d1565b5b505050565b60606101946000838152602001908152602001600020805480602002602001604051908101604052809291908181526020016000905b82821015610f42578382906000526020600020016040518060400160405290816000820160009054906101000a900473ffffffffffffffffffffffffffffffffffffffff1673ffffffffffffffffffffffffffffffffffffffff1673ffffffffffffffffffffffffffffffffffffffff1681526020016000820160149054906101000a90046bffffffffffffffffffffffff166bffffffffffffffffffffffff166bffffffffffffffffffffffff168152505081526020019060010190610e80565b505050509050919050565b6101936020528160005260406000208181548110610f6a57600080fd5b90600052602060002001600091509150508060000160009054906101000a900473ffffffffffffffffffffffffffffffffffffffff16908060000160149054906101000a90046bffffffffffffffffffffffff16905082565b6000603360009054906101000a900473ffffffffffffffffffffffffffffffffffffffff16905090565b6060609d8054600181600116156101000203166002900480601f0160208091040260200160405190810160405280929190818152602001828054600181600116156101000203166002900480156110855780601f1061105a57610100808354040283529160200191611085565b820191906000526020600020905b81548152906001019060200180831161106857829003601f168201915b5050505050905090565b611097611c2c565b73ffffffffffffffffffffffffffffffffffffffff168273ffffffffffffffffffffffffffffffffffffffff161415611138576040517f08c379a00000000000000000000000000000000000000000000000000000000081526004018080602001828103825260198152602001807f4552433732313a20617070726f766520746f2063616c6c65720000000000000081525060200191505060405180910390fd5b80609b6000611145611c2c565b73ffffffffffffffffffffffffffffffffffffffff1673ffffffffffffffffffffffffffffffffffffffff16815260200190815260200160002060008473ffffffffffffffffffffffffffffffffffffffff1673ffffffffffffffffffffffffffffffffffffffff16815260200190815260200160002060006101000a81548160ff0219169083151502179055508173ffffffffffffffffffffffffffffffffffffffff166111f2611c2c565b73ffffffffffffffffffffffffffffffffffffffff167f17307eab39ab6107e8899845ad3d59bd9653f200f220920489ca2b5937696c318360405180821515815260200191505060405180910390a35050565b611256611250611c2c565b8361202b565b6112ab576040517f08c379a00000000000000000000000000000000000000000000000000000000081526004018080602001828103825260318152602001806166146031913960400191505060405180910390fd5b6112b784848484612516565b50505050565b60606101936000838152602001908152602001600020805480602002602001604051908101604052809291908181526020016000905b828210156113b5578382906000526020600020016040518060400160405290816000820160009054906101000a900473ffffffffffffffffffffffffffffffffffffffff1673ffffffffffffffffffffffffffffffffffffffff1673ffffffffffffffffffffffffffffffffffffffff1681526020016000820160149054906101000a90046bffffffffffffffffffffffff166bffffffffffffffffffffffff166bffffffffffffffffffffffff1681525050815260200190600101906112f3565b505050509050919050565b600060019054906101000a900460ff16806113df57506113de612588565b5b806113f5575060008054906101000a900460ff16155b61144a576040517f08c379a000000000000000000000000000000000000000000000000000000000815260040180806020018281038252602e8152602001806164d1602e913960400191505060405180910390fd5b60008060019054906101000a900460ff16159050801561149a576001600060016101000a81548160ff02191690831515021790555060016000806101000a81548160ff0219169083151502179055505b6114a384612599565b6114ab6125b3565b6114b36126c1565b6114bb6127bf565b6114c36128cd565b6114cb612a74565b6114d3612b72565b6114dc83612ce4565b6114e4612e0b565b6114ee8686612f19565b60005b82518110156115255761151883828151811061150957fe5b6020026020010151600161108f565b80806001019150506114f1565b507fd901a467fa419f379a67636a1de44cc2ed772beb43a0c05fa1ddcad5d59e991361154f611c2c565b878760405161156093929190615d86565b60405180910390a180156115895760008060016101000a81548160ff0219169083151502179055505b505050505050565b606061159c82611c0f565b6115f1576040517f08c379a000000000000000000000000000000000000000000000000000000000815260040180806020018281038252602f8152602001806165c4602f913960400191505060405180910390fd5b6000609e60008481526020019081526020016000208054600181600116156101000203166002900480601f01602080910402602001604051908101604052809291908181526020018280546001816001161561010002031660029004801561169a5780601f1061166f5761010080835404028352916020019161169a565b820191906000526020600020905b81548152906001019060200180831161167d57829003601f168201915b5050505050905060006116ab610b2d565b90506000815114156116c157819250505061185d565b6000825111156117925780826040516020018083805190602001908083835b6020831061170357805182526020820191506020810190506020830392506116e0565b6001836020036101000a03801982511681845116808217855250505050505090500182805190602001908083835b602083106117545780518252602082019150602081019050602083039250611731565b6001836020036101000a038019825116818451168082178552505050505050905001925050506040516020818303038152906040529250505061185d565b8061179c85613077565b6040516020018083805190602001908083835b602083106117d257805182526020820191506020810190506020830392506117af565b6001836020036101000a03801982511681845116808217855250505050505090500182805190602001908083835b602083106118235780518252602082019150602081019050602083039250611800565b6001836020036101000a03801982511681845116808217855250505050505090500192505050604051602081830303815290604052925050505b919050565b8173ffffffffffffffffffffffffffffffffffffffff16611881611c2c565b73ffffffffffffffffffffffffffffffffffffffff16146118d7576040517f08c379a00000000000000000000000000000000000000000000000000000000081526004016118ce90615e93565b60405180910390fd5b6118e28383836131be565b505050565b6101c78054600181600116156101000203166002900480601f01602080910402602001604051908101604052809291908181526020018280546001816001161561010002031660029004801561197e5780601f106119535761010080835404028352916020019161197e565b820191906000526020600020905b81548152906001019060200180831161196157829003601f168201915b505050505081565b6000609b60008473ffffffffffffffffffffffffffffffffffffffff1673ffffffffffffffffffffffffffffffffffffffff16815260200190815260200160002060008373ffffffffffffffffffffffffffffffffffffffff1673ffffffffffffffffffffffffffffffffffffffff16815260200190815260200160002060009054906101000a900460ff16905092915050565b611a22611c2c565b73ffffffffffffffffffffffffffffffffffffffff16611a40610fc3565b73ffffffffffffffffffffffffffffffffffffffff1614611ac9576040517f08c379a00000000000000000000000000000000000000000000000000000000081526004018080602001828103825260208152602001807f4f776e61626c653a2063616c6c6572206973206e6f7420746865206f776e657281525060200191505060405180910390fd5b600073ffffffffffffffffffffffffffffffffffffffff168173ffffffffffffffffffffffffffffffffffffffff161415611b4f576040517f08c379a00000000000000000000000000000000000000000000000000000000081526004018080602001828103825260268152602001806163886026913960400191505060405180910390fd5b8073ffffffffffffffffffffffffffffffffffffffff16603360009054906101000a900473ffffffffffffffffffffffffffffffffffffffff1673ffffffffffffffffffffffffffffffffffffffff167f8be0079c531659141344cd1fd0a4f28419497f9722a3daafe3b4186f6b6457e060405160405180910390a380603360006101000a81548173ffffffffffffffffffffffffffffffffffffffff021916908373ffffffffffffffffffffffffffffffffffffffff16021790555050565b6000611c258260986132e590919063ffffffff16565b9050919050565b600033905090565b81609a600083815260200190815260200160002060006101000a81548173ffffffffffffffffffffffffffffffffffffffff021916908373ffffffffffffffffffffffffffffffffffffffff160217905550808273ffffffffffffffffffffffffffffffffffffffff16611ca783610af6565b73ffffffffffffffffffffffffffffffffffffffff167f8c5be1e5ebec7d5bd14f71427d1e84f3dd0314c0f7b2291e5b200ac8c7c3b92560405160405180910390a45050565b6000611cfb826000016132ff565b9050919050565b600060608360000151901c90506000611d19611c2c565b90508360400151600081518110611d2c57fe5b60200260200101516000015173ffffffffffffffffffffffffffffffffffffffff168273ffffffffffffffffffffffffffffffffffffffff1614611da5576040517f08c379a0000000000000000000000000000000000000000000000000000000008152600401611d9c90615e73565b60405180910390fd5b83608001515184604001515114611dbb57600080fd5b8073ffffffffffffffffffffffffffffffffffffffff168273ffffffffffffffffffffffffffffffffffffffff161480611dfb5750611dfa8282611986565b5b611e3a576040517f08c379a0000000000000000000000000000000000000000000000000000000008152600401611e3190615eb3565b60405180910390fd5b60005b846040015151811015611eb657600085604001518281518110611e5c57fe5b60200260200101516000015190508273ffffffffffffffffffffffffffffffffffffffff168173ffffffffffffffffffffffffffffffffffffffff1614611ea857611ea78683613310565b5b508080600101915050611e3d565b50611ec5838560000151613359565b611ed78460000151856020015161354d565b611ee9846000015185606001516135d7565b6000610194600086600001518152602001908152602001600020905060005b856040015151811015611fe0578186604001518281518110611f2657fe5b60200260200101519080600181540180825580915050600190039060005260206000200160009091909190915060008201518160000160006101000a81548173ffffffffffffffffffffffffffffffffffffffff021916908373ffffffffffffffffffffffffffffffffffffffff16021790555060208201518160000160146101000a8154816bffffffffffffffffffffffff02191690836bffffffffffffffffffffffff16021790555050508080600101915050611f08565b507fcb10f3b697f9095d6743bc3598a9bb59bf489e1bc755aa78ab0483fae5776db0856000015186602001518360405161201c93929190615f1e565b60405180910390a15050505050565b600061203682611c0f565b61208b576040517f08c379a000000000000000000000000000000000000000000000000000000000815260040180806020018281038252602c81526020018061641a602c913960400191505060405180910390fd5b600061209683610af6565b90508073ffffffffffffffffffffffffffffffffffffffff168473ffffffffffffffffffffffffffffffffffffffff16148061210557508373ffffffffffffffffffffffffffffffffffffffff166120ed846106e1565b73ffffffffffffffffffffffffffffffffffffffff16145b8061211657506121158185611986565b5b91505092915050565b8273ffffffffffffffffffffffffffffffffffffffff1661213f82610af6565b73ffffffffffffffffffffffffffffffffffffffff16146121ab576040517f08c379a000000000000000000000000000000000000000000000000000000000815260040180806020018281038252602981526020018061659b6029913960400191505060405180910390fd5b600073ffffffffffffffffffffffffffffffffffffffff168273ffffffffffffffffffffffffffffffffffffffff161415612231576040517f08c379a00000000000000000000000000000000000000000000000000000000081526004018080602001828103825260248152602001806163ae6024913960400191505060405180910390fd5b61223c838383613822565b612247600082611c34565b61229881609760008673ffffffffffffffffffffffffffffffffffffffff1673ffffffffffffffffffffffffffffffffffffffff16815260200190815260200160002061382790919063ffffffff16565b506122ea81609760008573ffffffffffffffffffffffffffffffffffffffff1673ffffffffffffffffffffffffffffffffffffffff16815260200190815260200160002061384190919063ffffffff16565b506123018183609861385b9092919063ffffffff16565b50808273ffffffffffffffffffffffffffffffffffffffff168473ffffffffffffffffffffffffffffffffffffffff167fddf252ad1be2c89b69c2b068fc378daa952ba7f163c4a11628f55a4df523b3ef60405160405180910390a4505050565b60006123718360000183613890565b60001c905092915050565b600061238782610af6565b905061239581600084613822565b6123a0600083611c34565b6000609e6000848152602001908152602001600020805460018160011615610100020316600290049050146123ef57609e600083815260200190815260200160002060006123ee91906150e4565b5b61244082609760008473ffffffffffffffffffffffffffffffffffffffff1673ffffffffffffffffffffffffffffffffffffffff16815260200190815260200160002061382790919063ffffffff16565b5061245582609861391390919063ffffffff16565b5081600073ffffffffffffffffffffffffffffffffffffffff168273ffffffffffffffffffffffffffffffffffffffff167fddf252ad1be2c89b69c2b068fc378daa952ba7f163c4a11628f55a4df523b3ef60405160405180910390a45050565b6000806000806124c9866000018661392d565b915091508160001c8160001c9350935050509250929050565b60006124f5846000018460001b846139c6565b60001c90509392505050565b600061250f82600001613abc565b9050919050565b61252184848461211f565b61252d84848484613acd565b612582576040517f08c379a00000000000000000000000000000000000000000000000000000000081526004018080602001828103825260328152602001806163566032913960400191505060405180910390fd5b50505050565b600061259330613ce6565b15905090565b80609f90805190602001906125af92919061512c565b5050565b600060019054906101000a900460ff16806125d257506125d1612588565b5b806125e8575060008054906101000a900460ff16155b61263d576040517f08c379a000000000000000000000000000000000000000000000000000000000815260040180806020018281038252602e8152602001806164d1602e913960400191505060405180910390fd5b60008060019054906101000a900460ff16159050801561268d576001600060016101000a81548160ff02191690831515021790555060016000806101000a81548160ff0219169083151502179055505b61269d638486f69f60e01b613cf9565b80156126be5760008060016101000a81548160ff0219169083151502179055505b50565b600060019054906101000a900460ff16806126e057506126df612588565b5b806126f6575060008054906101000a900460ff16155b61274b576040517f08c379a000000000000000000000000000000000000000000000000000000000815260040180806020018281038252602e8152602001806164d1602e913960400191505060405180910390fd5b60008060019054906101000a900460ff16159050801561279b576001600060016101000a81548160ff02191690831515021790555060016000806101000a81548160ff0219169083151502179055505b80156127bc5760008060016101000a81548160ff0219169083151502179055505b50565b600060019054906101000a900460ff16806127de57506127dd612588565b5b806127f4575060008054906101000a900460ff16155b612849576040517f08c379a000000000000000000000000000000000000000000000000000000000815260040180806020018281038252602e8152602001806164d1602e913960400191505060405180910390fd5b60008060019054906101000a900460ff161590508015612899576001600060016101000a81548160ff02191690831515021790555060016000806101000a81548160ff0219169083151502179055505b6128a96301ffc9a760e01b613cf9565b80156128ca5760008060016101000a81548160ff0219169083151502179055505b50565b600060019054906101000a900460ff16806128ec57506128eb612588565b5b80612902575060008054906101000a900460ff16155b612957576040517f08c379a000000000000000000000000000000000000000000000000000000000815260040180806020018281038252602e8152602001806164d1602e913960400191505060405180910390fd5b60008060019054906101000a900460ff1615905080156129a7576001600060016101000a81548160ff02191690831515021790555060016000806101000a81548160ff0219169083151502179055505b60006129b1611c2c565b905080603360006101000a81548173ffffffffffffffffffffffffffffffffffffffff021916908373ffffffffffffffffffffffffffffffffffffffff1602179055508073ffffffffffffffffffffffffffffffffffffffff16600073ffffffffffffffffffffffffffffffffffffffff167f8be0079c531659141344cd1fd0a4f28419497f9722a3daafe3b4186f6b6457e060405160405180910390a3508015612a715760008060016101000a81548160ff0219169083151502179055505b50565b600060019054906101000a900460ff1680612a935750612a92612588565b5b80612aa9575060008054906101000a900460ff16155b612afe576040517f08c379a000000000000000000000000000000000000000000000000000000000815260040180806020018281038252602e8152602001806164d1602e913960400191505060405180910390fd5b60008060019054906101000a900460ff161590508015612b4e576001600060016101000a81548160ff02191690831515021790555060016000806101000a81548160ff0219169083151502179055505b8015612b6f5760008060016101000a81548160ff0219169083151502179055505b50565b600060019054906101000a900460ff1680612b915750612b90612588565b5b80612ba7575060008054906101000a900460ff16155b612bfc576040517f08c379a000000000000000000000000000000000000000000000000000000000815260040180806020018281038252602e8152602001806164d1602e913960400191505060405180910390fd5b60008060019054906101000a900460ff161590508015612c4c576001600060016101000a81548160ff02191690831515021790555060016000806101000a81548160ff0219169083151502179055505b612cc06040518060400160405280600781526020017f4d696e74373231000000000000000000000000000000000000000000000000008152506040518060400160405280600181526020017f3100000000000000000000000000000000000000000000000000000000000000815250613e02565b8015612ce15760008060016101000a81548160ff0219169083151502179055505b50565b600060019054906101000a900460ff1680612d035750612d02612588565b5b80612d19575060008054906101000a900460ff16155b612d6e576040517f08c379a000000000000000000000000000000000000000000000000000000000815260040180806020018281038252602e8152602001806164d1602e913960400191505060405180910390fd5b60008060019054906101000a900460ff161590508015612dbe576001600060016101000a81548160ff02191690831515021790555060016000806101000a81548160ff0219169083151502179055505b816101c79080519060200190612dd592919061512c565b50612de663e8a3d48560e01b613cf9565b8015612e075760008060016101000a81548160ff0219169083151502179055505b5050565b600060019054906101000a900460ff1680612e2a5750612e29612588565b5b80612e40575060008054906101000a900460ff16155b612e95576040517f08c379a000000000000000000000000000000000000000000000000000000000815260040180806020018281038252602e8152602001806164d1602e913960400191505060405180910390fd5b60008060019054906101000a900460ff161590508015612ee5576001600060016101000a81548160ff02191690831515021790555060016000806101000a81548160ff0219169083151502179055505b612ef56344c74bcc60e01b613cf9565b8015612f165760008060016101000a81548160ff0219169083151502179055505b50565b600060019054906101000a900460ff1680612f385750612f37612588565b5b80612f4e575060008054906101000a900460ff16155b612fa3576040517f08c379a000000000000000000000000000000000000000000000000000000000815260040180806020018281038252602e8152602001806164d1602e913960400191505060405180910390fd5b60008060019054906101000a900460ff161590508015612ff3576001600060016101000a81548160ff02191690831515021790555060016000806101000a81548160ff0219169083151502179055505b82609c908051906020019061300992919061512c565b5081609d908051906020019061302092919061512c565b506130316380ac58cd60e01b613cf9565b613041635b5e139f60e01b613cf9565b61305163780e9d6360e01b613cf9565b80156130725760008060016101000a81548160ff0219169083151502179055505b505050565b606060008214156130bf576040518060400160405280600181526020017f300000000000000000000000000000000000000000000000000000000000000081525090506131b9565b600082905060005b600082146130e9578080600101915050600a82816130e157fe5b0491506130c7565b60008167ffffffffffffffff8111801561310257600080fd5b506040519080825280601f01601f1916602001820160405280156131355781602001600182028036833780820191505090505b50905060006001830390508593505b600084146131b157600a848161315657fe5b0660300160f81b8282806001900393508151811061317057fe5b60200101907effffffffffffffffffffffffffffffffffffffffffffffffffffffffffffff1916908160001a905350600a84816131a957fe5b049350613144565b819450505050505b919050565b6000610193600085815260200190815260200160002080549050905060005b818110156132de578373ffffffffffffffffffffffffffffffffffffffff166101936000878152602001908152602001600020828154811061321b57fe5b9060005260206000200160000160009054906101000a900473ffffffffffffffffffffffffffffffffffffffff1673ffffffffffffffffffffffffffffffffffffffff1614156132d157826101936000878152602001908152602001600020828154811061328557fe5b9060005260206000200160000160006101000a81548173ffffffffffffffffffffffffffffffffffffffff021916908373ffffffffffffffffffffffffffffffffffffffff1602179055505b80806001019150506131dd565b5050505050565b60006132f7836000018360001b613f0c565b905092915050565b600081600001805490509050919050565b6133558260400151828151811061332357fe5b60200260200101516000015161333884613f2f565b8460800151848151811061334857fe5b60200260200101516141a1565b5050565b600073ffffffffffffffffffffffffffffffffffffffff168273ffffffffffffffffffffffffffffffffffffffff1614156133fc576040517f08c379a00000000000000000000000000000000000000000000000000000000081526004018080602001828103825260208152602001807f4552433732313a206d696e7420746f20746865207a65726f206164647265737381525060200191505060405180910390fd5b61340581611c0f565b15613478576040517f08c379a000000000000000000000000000000000000000000000000000000000815260040180806020018281038252601c8152602001807f4552433732313a20746f6b656e20616c7265616479206d696e7465640000000081525060200191505060405180910390fd5b61348460008383613822565b6134d581609760008573ffffffffffffffffffffffffffffffffffffffff1673ffffffffffffffffffffffffffffffffffffffff16815260200190815260200160002061384190919063ffffffff16565b506134ec8183609861385b9092919063ffffffff16565b50808273ffffffffffffffffffffffffffffffffffffffff16600073ffffffffffffffffffffffffffffffffffffffff167fddf252ad1be2c89b69c2b068fc378daa952ba7f163c4a11628f55a4df523b3ef60405160405180910390a45050565b61355682611c0f565b6135ab576040517f08c379a000000000000000000000000000000000000000000000000000000000815260040180806020018281038252602c81526020018061656f602c913960400191505060405180910390fd5b80609e600084815260200190815260200160002090805190602001906135d292919061512c565b505050565b60005b815181101561381357600073ffffffffffffffffffffffffffffffffffffffff1682828151811061360757fe5b60200260200101516000015173ffffffffffffffffffffffffffffffffffffffff16141561369d576040517f08c379a000000000000000000000000000000000000000000000000000000000815260040180806020018281038252601b8152602001807f526563697069656e742073686f756c642062652070726573656e74000000000081525060200191505060405180910390fd5b60008282815181106136ab57fe5b6020026020010151602001516bffffffffffffffffffffffff161415613739576040517f08c379a00000000000000000000000000000000000000000000000000000000081526004018080602001828103825260208152602001807f526f79616c74792076616c75652073686f756c6420626520706f73697469766581525060200191505060405180910390fd5b610193600084815260200190815260200160002082828151811061375957fe5b60200260200101519080600181540180825580915050600190039060005260206000200160009091909190915060008201518160000160006101000a81548173ffffffffffffffffffffffffffffffffffffffff021916908373ffffffffffffffffffffffffffffffffffffffff16021790555060208201518160000160146101000a8154816bffffffffffffffffffffffff02191690836bffffffffffffffffffffffff160217905550505080806001019150506135da565b5061381e8282614519565b5050565b505050565b6000613839836000018360001b614556565b905092915050565b6000613853836000018360001b61463e565b905092915050565b6000613887846000018460001b8473ffffffffffffffffffffffffffffffffffffffff1660001b6146ae565b90509392505050565b6000818360000180549050116138f1576040517f08c379a00000000000000000000000000000000000000000000000000000000081526004018080602001828103825260228152602001806163346022913960400191505060405180910390fd5b82600001828154811061390057fe5b9060005260206000200154905092915050565b6000613925836000018360001b61478a565b905092915050565b6000808284600001805490501161398f576040517f08c379a00000000000000000000000000000000000000000000000000000000081526004018080602001828103825260228152602001806165216022913960400191505060405180910390fd5b60008460000184815481106139a057fe5b906000526020600020906002020190508060000154816001015492509250509250929050565b60008084600101600085815260200190815260200160002054905060008114158390613a8d576040517f08c379a00000000000000000000000000000000000000000000000000000000081526004018080602001828103825283818151815260200191508051906020019080838360005b83811015613a52578082015181840152602081019050613a37565b50505050905090810190601f168015613a7f5780820380516001836020036101000a031916815260200191505b509250505060405180910390fd5b50846000016001820381548110613aa057fe5b9060005260206000209060020201600101549150509392505050565b600081600001805490509050919050565b6000613aee8473ffffffffffffffffffffffffffffffffffffffff16613ce6565b613afb5760019050613cde565b6000613c6563150b7a0260e01b613b10611c2c565b888787604051602401808573ffffffffffffffffffffffffffffffffffffffff1681526020018473ffffffffffffffffffffffffffffffffffffffff16815260200183815260200180602001828103825283818151815260200191508051906020019080838360005b83811015613b94578082015181840152602081019050613b79565b50505050905090810190601f168015613bc15780820380516001836020036101000a031916815260200191505b5095505050505050604051602081830303815290604052907bffffffffffffffffffffffffffffffffffffffffffffffffffffffff19166020820180517bffffffffffffffffffffffffffffffffffffffffffffffffffffffff8381831617835250505050604051806060016040528060328152602001616356603291398773ffffffffffffffffffffffffffffffffffffffff166148a39092919063ffffffff16565b90506000818060200190516020811015613c7e57600080fd5b8101908080519060200190929190505050905063150b7a0260e01b7bffffffffffffffffffffffffffffffffffffffffffffffffffffffff1916817bffffffffffffffffffffffffffffffffffffffffffffffffffffffff191614925050505b949350505050565b600080823b905060008111915050919050565b63ffffffff60e01b817bffffffffffffffffffffffffffffffffffffffffffffffffffffffff19161415613d95576040517f08c379a000000000000000000000000000000000000000000000000000000000815260040180806020018281038252601c8152602001807f4552433136353a20696e76616c696420696e746572666163652069640000000081525060200191505060405180910390fd5b600160656000837bffffffffffffffffffffffffffffffffffffffffffffffffffffffff19167bffffffffffffffffffffffffffffffffffffffffffffffffffffffff1916815260200190815260200160002060006101000a81548160ff02191690831515021790555050565b600060019054906101000a900460ff1680613e215750613e20612588565b5b80613e37575060008054906101000a900460ff16155b613e8c576040517f08c379a000000000000000000000000000000000000000000000000000000000815260040180806020018281038252602e8152602001806164d1602e913960400191505060405180910390fd5b60008060019054906101000a900460ff161590508015613edc576001600060016101000a81548160ff02191690831515021790555060016000806101000a81548160ff0219169083151502179055505b613ee683836148bb565b8015613f075760008060016101000a81548160ff0219169083151502179055505b505050565b600080836001016000848152602001908152602001600020541415905092915050565b60008082606001515167ffffffffffffffff81118015613f4e57600080fd5b50604051908082528060200260200182016040528015613f7d5781602001602082028036833780820191505090505b50905060005b836060015151811015613fd557613fb084606001518281518110613fa357fe5b60200260200101516149e3565b828281518110613fbc57fe5b6020026020010181815250508080600101915050613f83565b50600083604001515167ffffffffffffffff81118015613ff457600080fd5b506040519080825280602002602001820160405280156140235781602001602082028036833780820191505090505b50905060005b84604001515181101561407b576140568560400151828151811061404957fe5b60200260200101516149e3565b82828151811061406257fe5b6020026020010181815250508080600101915050614029565b507ff64326045af5fd7e15297ba939f85b550474d3899daa47d2bc1ffbdb9ced344e84600001518560200151805190602001208360405160200180828051906020019060200280838360005b838110156140e25780820151818401526020810190506140c7565b50505050905001915050604051602081830303815290604052805190602001208560405160200180828051906020019060200280838360005b8381101561413657808201518184015260208101905061411b565b505050509050019150506040516020818303038152906040528051906020012060405160200180868152602001858152602001848152602001838152602001828152602001955050505050506040516020818303038152906040528051906020012092505050919050565b60006141ac83614a6f565b90506141cd8473ffffffffffffffffffffffffffffffffffffffff16613ce6565b156143f457631626ba7e60e01b7bffffffffffffffffffffffffffffffffffffffffffffffffffffffff19168473ffffffffffffffffffffffffffffffffffffffff16631626ba7e83856040518363ffffffff1660e01b81526004018083815260200180602001828103825283818151815260200191508051906020019080838360005b8381101561426c578082015181840152602081019050614251565b50505050905090810190601f1680156142995780820380516001836020036101000a031916815260200191505b50935050505060206040518083038186803b1580156142b757600080fd5b505afa1580156142cb573d6000803e3d6000fd5b505050506040513d60208110156142e157600080fd5b81019080805190602001909291905050507bffffffffffffffffffffffffffffffffffffffffffffffffffffffff1916146040518060400160405280601c81526020017f7369676e617475726520766572696669636174696f6e206572726f7200000000815250906143ee576040517f08c379a00000000000000000000000000000000000000000000000000000000081526004018080602001828103825283818151815260200191508051906020019080838360005b838110156143b3578082015181840152602081019050614398565b50505050905090810190601f1680156143e05780820380516001836020036101000a031916815260200191505b509250505060405180910390fd5b50614513565b8373ffffffffffffffffffffffffffffffffffffffff1661441e8383614ad690919063ffffffff16565b73ffffffffffffffffffffffffffffffffffffffff16146040518060400160405280601c81526020017f7369676e617475726520766572696669636174696f6e206572726f720000000081525090614511576040517f08c379a00000000000000000000000000000000000000000000000000000000081526004018080602001828103825283818151815260200191508051906020019080838360005b838110156144d65780820151818401526020810190506144bb565b50505050905090810190601f1680156145035780820380516001836020036101000a031916815260200191505b509250505060405180910390fd5b505b50505050565b7f3fa96d7b6bcbfe71ef171666d84db3cf52fa2d1c8afdb1cc8e486177f208b7df828260405161454a929190615eee565b60405180910390a15050565b6000808360010160008481526020019081526020016000205490506000811461463257600060018203905060006001866000018054905003905060008660000182815481106145a157fe5b90600052602060002001549050808760000184815481106145be57fe5b90600052602060002001819055506001830187600101600083815260200190815260200160002081905550866000018054806145f657fe5b60019003818190600052602060002001600090559055866001016000878152602001908152602001600020600090556001945050505050614638565b60009150505b92915050565b600061464a8383614b83565b6146a35782600001829080600181540180825580915050600190039060005260206000200160009091909190915055826000018054905083600101600084815260200190815260200160002081905550600190506146a8565b600090505b92915050565b600080846001016000858152602001908152602001600020549050600081141561475557846000016040518060400160405280868152602001858152509080600181540180825580915050600190039060005260206000209060020201600090919091909150600082015181600001556020820151816001015550508460000180549050856001016000868152602001908152602001600020819055506001915050614783565b8285600001600183038154811061476857fe5b90600052602060002090600202016001018190555060009150505b9392505050565b6000808360010160008481526020019081526020016000205490506000811461489757600060018203905060006001866000018054905003905060008660000182815481106147d557fe5b90600052602060002090600202019050808760000184815481106147f557fe5b906000526020600020906002020160008201548160000155600182015481600101559050506001830187600101600083600001548152602001908152602001600020819055508660000180548061484857fe5b600190038181906000526020600020906002020160008082016000905560018201600090555050905586600101600087815260200190815260200160002060009055600194505050505061489d565b60009150505b92915050565b60606148b28484600085614ba6565b90509392505050565b600060019054906101000a900460ff16806148da57506148d9612588565b5b806148f0575060008054906101000a900460ff16155b614945576040517f08c379a000000000000000000000000000000000000000000000000000000000815260040180806020018281038252602e8152602001806164d1602e913960400191505060405180910390fd5b60008060019054906101000a900460ff161590508015614995576001600060016101000a81548160ff02191690831515021790555060016000806101000a81548160ff0219169083151502179055505b6000838051906020012090506000838051906020012090508160fb819055508060fc81905550505080156149de5760008060016101000a81548160ff0219169083151502179055505b505050565b60007f397e04204c1e1a60ee8724b71f8244e10ab5f2e9009854d80f602bda21b59ebb82600001518360200151604051602001808481526020018373ffffffffffffffffffffffffffffffffffffffff168152602001826bffffffffffffffffffffffff1681526020019350505050604051602081830303815290604052805190602001209050919050565b6000614a79614d4e565b8260405160200180807f190100000000000000000000000000000000000000000000000000000000000081525060020183815260200182815260200192505050604051602081830303815290604052805190602001209050919050565b60006041825114614b4f576040517f08c379a000000000000000000000000000000000000000000000000000000000815260040180806020018281038252601f8152602001807f45434453413a20696e76616c6964207369676e6174757265206c656e6774680081525060200191505060405180910390fd5b60008060006020850151925060408501519150606085015160001a9050614b7886828585614d8e565b935050505092915050565b600080836001016000848152602001908152602001600020541415905092915050565b606082471015614c01576040517f08c379a00000000000000000000000000000000000000000000000000000000081526004018080602001828103825260268152602001806163f46026913960400191505060405180910390fd5b614c0a85613ce6565b614c7c576040517f08c379a000000000000000000000000000000000000000000000000000000000815260040180806020018281038252601d8152602001807f416464726573733a2063616c6c20746f206e6f6e2d636f6e747261637400000081525060200191505060405180910390fd5b6000808673ffffffffffffffffffffffffffffffffffffffff1685876040518082805190602001908083835b60208310614ccb5780518252602082019150602081019050602083039250614ca8565b6001836020036101000a03801982511681845116808217855250505050505090500191505060006040518083038185875af1925050503d8060008114614d2d576040519150601f19603f3d011682016040523d82523d6000602084013e614d32565b606091505b5091509150614d42828286614f8d565b92505050949350505050565b6000614d897f8b73c3c69bb8fe3d512ecc4cf759cc79239f7b179b0ffacaa9a75d522b39400f614d7c615059565b614d84615063565b61506d565b905090565b60007f7fffffffffffffffffffffffffffffff5d576e7357a4501ddfe92f46681b20a08260001c1115614e0c576040517f08c379a00000000000000000000000000000000000000000000000000000000081526004018080602001828103825260228152602001806163d26022913960400191505060405180910390fd5b601b8460ff161480614e215750601c8460ff16145b614e76576040517f08c379a00000000000000000000000000000000000000000000000000000000081526004018080602001828103825260228152602001806164ff6022913960400191505060405180910390fd5b600060018686868660405160008152602001604052604051808581526020018460ff1681526020018381526020018281526020019450505050506020604051602081039080840390855afa158015614ed2573d6000803e3d6000fd5b505050602060405103519050600073ffffffffffffffffffffffffffffffffffffffff168173ffffffffffffffffffffffffffffffffffffffff161415614f81576040517f08c379a00000000000000000000000000000000000000000000000000000000081526004018080602001828103825260188152602001807f45434453413a20696e76616c6964207369676e6174757265000000000000000081525060200191505060405180910390fd5b80915050949350505050565b60608315614f9d57829050615052565b600083511115614fb05782518084602001fd5b816040517f08c379a00000000000000000000000000000000000000000000000000000000081526004018080602001828103825283818151815260200191508051906020019080838360005b83811015615017578082015181840152602081019050614ffc565b50505050905090810190601f1680156150445780820380516001836020036101000a031916815260200191505b509250505060405180910390fd5b9392505050565b600060fb54905090565b600060fc54905090565b600083838361507a6150dc565b30604051602001808681526020018581526020018481526020018381526020018273ffffffffffffffffffffffffffffffffffffffff168152602001955050505050506040516020818303038152906040528051906020012090509392505050565b600046905090565b50805460018160011615610100020316600290046000825580601f1061510a5750615129565b601f01602090049060005260206000209081019061512891906151ba565b5b50565b828054600181600116156101000203166002900490600052602060002090601f01602090048101928261516257600085556151a9565b82601f1061517b57805160ff19168380011785556151a9565b828001600101855582156151a9579182015b828111156151a857825182559160200191906001019061518d565b5b5090506151b691906151ba565b5090565b5b808211156151d35760008160009055506001016151bb565b5090565b60006151ea6151e584615f94565b615f63565b9050808382526020820190508285602086028201111561520957600080fd5b60005b85811015615239578161521f8882615388565b84526020840193506020830192505060018101905061520c565b5050509392505050565b600061525661525184615fc0565b615f63565b9050808382526020820190508260005b85811015615296578135850161527c888261545a565b845260208401935060208301925050600181019050615266565b5050509392505050565b60006152b36152ae84615fec565b615f63565b905080838252602082019050828560408602820111156152d257600080fd5b60005b8581101561530257816152e88882615596565b8452602084019350604083019250506001810190506152d5565b5050509392505050565b600061531f61531a84616018565b615f63565b90508281526020810184848401111561533757600080fd5b615342848285616206565b509392505050565b600061535d61535884616048565b615f63565b90508281526020810184848401111561537557600080fd5b615380848285616206565b509392505050565b600081359050615397816162a9565b92915050565b6000813590506153ac816162c0565b92915050565b600082601f8301126153c357600080fd5b81356153d38482602086016151d7565b91505092915050565b600082601f8301126153ed57600080fd5b81356153fd848260208601615243565b91505092915050565b600082601f83011261541757600080fd5b81356154278482602086016152a0565b91505092915050565b60008135905061543f816162d7565b92915050565b600081359050615454816162ee565b92915050565b600082601f83011261546b57600080fd5b813561547b84826020860161530c565b91505092915050565b600082601f83011261549557600080fd5b81356154a584826020860161534a565b91505092915050565b600060a082840312156154c057600080fd5b6154ca60a0615f63565b905060006154da848285016155e2565b600083015250602082013567ffffffffffffffff8111156154fa57600080fd5b61550684828501615484565b602083015250604082013567ffffffffffffffff81111561552657600080fd5b61553284828501615406565b604083015250606082013567ffffffffffffffff81111561555257600080fd5b61555e84828501615406565b606083015250608082013567ffffffffffffffff81111561557e57600080fd5b61558a848285016153dc565b60808301525092915050565b6000604082840312156155a857600080fd5b6155b26040615f63565b905060006155c28482850161539d565b60008301525060206155d6848285016155f7565b60208301525092915050565b6000813590506155f181616305565b92915050565b6000813590506156068161631c565b92915050565b60006020828403121561561e57600080fd5b600061562c84828501615388565b91505092915050565b6000806040838503121561564857600080fd5b600061565685828601615388565b925050602061566785828601615388565b9150509250929050565b60008060006060848603121561568657600080fd5b600061569486828701615388565b93505060206156a586828701615388565b92505060406156b6868287016155e2565b9150509250925092565b600080600080608085870312156156d657600080fd5b60006156e487828801615388565b94505060206156f587828801615388565b9350506040615706878288016155e2565b925050606085013567ffffffffffffffff81111561572357600080fd5b61572f8782880161545a565b91505092959194509250565b6000806040838503121561574e57600080fd5b600061575c85828601615388565b925050602061576d85828601615430565b9150509250929050565b6000806040838503121561578a57600080fd5b600061579885828601615388565b92505060206157a9858286016155e2565b9150509250929050565b6000602082840312156157c557600080fd5b60006157d384828501615445565b91505092915050565b600080600080600060a086880312156157f457600080fd5b600086013567ffffffffffffffff81111561580e57600080fd5b61581a88828901615484565b955050602086013567ffffffffffffffff81111561583757600080fd5b61584388828901615484565b945050604086013567ffffffffffffffff81111561586057600080fd5b61586c88828901615484565b935050606086013567ffffffffffffffff81111561588957600080fd5b61589588828901615484565b925050608086013567ffffffffffffffff8111156158b257600080fd5b6158be888289016153b2565b9150509295509295909350565b600080604083850312156158de57600080fd5b600083013567ffffffffffffffff8111156158f857600080fd5b615904858286016154ae565b925050602061591585828601615388565b9150509250929050565b60008060006060848603121561593457600080fd5b600084013567ffffffffffffffff81111561594e57600080fd5b61595a868287016154ae565b935050602061596b86828701615388565b925050604061597c86828701615388565b9150509250925092565b60006020828403121561599857600080fd5b60006159a6848285016155e2565b91505092915050565b6000806000606084860312156159c457600080fd5b60006159d2868287016155e2565b93505060206159e386828701615388565b92505060406159f486828701615388565b9150509250925092565b60008060408385031215615a1157600080fd5b6000615a1f858286016155e2565b9250506020615a30858286016155e2565b9150509250929050565b6000615a468383615ccf565b60408301905092915050565b6000615a5e8383615cfe565b60408301905092915050565b615a73816161d0565b82525050565b615a8281616144565b82525050565b615a9181616144565b82525050565b615aa081616132565b82525050565b6000615ab18261609d565b615abb81856160d8565b9350615ac683616078565b8060005b83811015615af7578151615ade8882615a3a565b9750615ae9836160be565b925050600181019050615aca565b5085935050505092915050565b6000615b0f826160a8565b615b1981856160d8565b9350615b2483616088565b8060005b83811015615b545781615b3b8882615a52565b9750615b46836160cb565b925050600181019050615b28565b5085935050505092915050565b615b6a81616156565b82525050565b6000615b7b826160b3565b615b8581856160e9565b9350615b95818560208601616215565b615b9e8161627e565b840191505092915050565b6000615bb66017836160e9565b91507f6d696e746572206973206e6f7420746865206f776e65720000000000000000006000830152602082019050919050565b6000615bf66011836160e9565b91507f746f6b656e496420696e636f72726563740000000000000000000000000000006000830152602082019050919050565b6000615c36600b836160e9565b91507f6e6f7420616c6c6f7765640000000000000000000000000000000000000000006000830152602082019050919050565b6000615c766031836160e9565b91507f4552433732313a207472616e736665722063616c6c6572206973206e6f74206f60008301527f776e6572206e6f7220617070726f7665640000000000000000000000000000006020830152604082019050919050565b604082016000820151615ce56000850182615a79565b506020820151615cf86020850182615d4d565b50505050565b604082016000808301549050615d1381616248565b615d206000860182615a79565b50615d2a81616262565b615d376020860182615d4d565b5050505050565b615d47816161ae565b82525050565b615d56816161b8565b82525050565b615d65816161b8565b82525050565b6000602082019050615d806000830184615a97565b92915050565b6000606082019050615d9b6000830186615a6a565b8181036020830152615dad8185615b70565b90508181036040830152615dc18184615b70565b9050949350505050565b6000604082019050615de06000830185615a88565b615ded6020830184615d5c565b9392505050565b60006020820190508181036000830152615e0e8184615aa6565b905092915050565b6000602082019050615e2b6000830184615b61565b92915050565b60006020820190508181036000830152615e4b8184615b70565b905092915050565b60006020820190508181036000830152615e6c81615ba9565b9050919050565b60006020820190508181036000830152615e8c81615be9565b9050919050565b60006020820190508181036000830152615eac81615c29565b9050919050565b60006020820190508181036000830152615ecc81615c69565b9050919050565b6000602082019050615ee86000830184615d3e565b92915050565b6000604082019050615f036000830185615d3e565b8181036020830152615f158184615aa6565b90509392505050565b6000606082019050615f336000830186615d3e565b8181036020830152615f458185615b70565b90508181036040830152615f598184615b04565b9050949350505050565b6000604051905081810181811067ffffffffffffffff82111715615f8a57615f8961627c565b5b8060405250919050565b600067ffffffffffffffff821115615faf57615fae61627c565b5b602082029050602081019050919050565b600067ffffffffffffffff821115615fdb57615fda61627c565b5b602082029050602081019050919050565b600067ffffffffffffffff8211156160075761600661627c565b5b602082029050602081019050919050565b600067ffffffffffffffff8211156160335761603261627c565b5b601f19601f8301169050602081019050919050565b600067ffffffffffffffff8211156160635761606261627c565b5b601f19601f8301169050602081019050919050565b6000819050602082019050919050565b60008190508160005260206000209050919050565b600081519050919050565b600081549050919050565b600081519050919050565b6000602082019050919050565b6000600182019050919050565b600082825260208201905092915050565b600082825260208201905092915050565b600073ffffffffffffffffffffffffffffffffffffffff82169050919050565b60006bffffffffffffffffffffffff82169050919050565b600061613d8261618e565b9050919050565b600061614f8261618e565b9050919050565b60008115159050919050565b60007fffffffff0000000000000000000000000000000000000000000000000000000082169050919050565b600073ffffffffffffffffffffffffffffffffffffffff82169050919050565b6000819050919050565b60006bffffffffffffffffffffffff82169050919050565b60006161db826161e2565b9050919050565b60006161ed826161f4565b9050919050565b60006161ff8261618e565b9050919050565b82818337600083830152505050565b60005b83811015616233578082015181840152602081019050616218565b83811115616242576000848401525b50505050565b600061625b6162568361628f565b6160fa565b9050919050565b60006162756162708361629c565b61611a565b9050919050565bfe5b6000601f19601f8301169050919050565b60008160001c9050919050565b60008160a01c9050919050565b6162b281616132565b81146162bd57600080fd5b50565b6162c981616144565b81146162d457600080fd5b50565b6162e081616156565b81146162eb57600080fd5b50565b6162f781616162565b811461630257600080fd5b50565b61630e816161ae565b811461631957600080fd5b50565b616325816161b8565b811461633057600080fd5b5056fe456e756d657261626c655365743a20696e646578206f7574206f6620626f756e64734552433732313a207472616e7366657220746f206e6f6e20455243373231526563656976657220696d706c656d656e7465724f776e61626c653a206e6577206f776e657220697320746865207a65726f20616464726573734552433732313a207472616e7366657220746f20746865207a65726f206164647265737345434453413a20696e76616c6964207369676e6174757265202773272076616c7565416464726573733a20696e73756666696369656e742062616c616e636520666f722063616c6c4552433732313a206f70657261746f7220717565727920666f72206e6f6e6578697374656e7420746f6b656e4552433732313a20617070726f76652063616c6c6572206973206e6f74206f776e6572206e6f7220617070726f76656420666f7220616c6c4552433732313a2062616c616e636520717565727920666f7220746865207a65726f20616464726573734552433732313a206f776e657220717565727920666f72206e6f6e6578697374656e7420746f6b656e496e697469616c697a61626c653a20636f6e747261637420697320616c726561647920696e697469616c697a656445434453413a20696e76616c6964207369676e6174757265202776272076616c7565456e756d657261626c654d61703a20696e646578206f7574206f6620626f756e64734552433732313a20617070726f76656420717565727920666f72206e6f6e6578697374656e7420746f6b656e4552433732314d657461646174613a2055524920736574206f66206e6f6e6578697374656e7420746f6b656e4552433732313a207472616e73666572206f6620746f6b656e2074686174206973206e6f74206f776e4552433732314d657461646174613a2055524920717565727920666f72206e6f6e6578697374656e7420746f6b656e4552433732313a20617070726f76616c20746f2063757272656e74206f776e65724552433732313a207472616e736665722063616c6c6572206973206e6f74206f776e6572206e6f7220617070726f7665644552433732314275726e61626c653a2063616c6c6572206973206e6f74206f776e6572206e6f7220617070726f766564a2646970667358221220b176f1c11f6b12ad8c9a3b6d49ac33fda85d39fa7ead8af7cc395701c27723ea64736f6c63430007060033",
  "immutableReferences": {},
  "source": "// SPDX-License-Identifier: MIT\r\n\r\npragma solidity >=0.6.2 <0.8.0;\r\npragma abicoder v2;\r\n\r\nimport \"@openzeppelin/contracts-upgradeable/access/OwnableUpgradeable.sol\";\r\nimport \"@openzeppelin/contracts-upgradeable/token/ERC721/ERC721BurnableUpgradeable.sol\";\r\nimport \"./ERC721Lazy.sol\";\r\nimport \"../HasContractURI.sol\";\r\n\r\ncontract ERC721RaribleUser is OwnableUpgradeable, ERC721BurnableUpgradeable, ERC721Lazy, HasContractURI {\r\n\r\n    event CreateERC721RaribleUser(address owner, string name, string symbol);\r\n\r\n    function __ERC721RaribleUser_init(string memory _name, string memory _symbol, string memory baseURI, string memory contractURI, address[] memory operators) external initializer {\r\n        _setBaseURI(baseURI);\r\n        __ERC721Lazy_init_unchained();\r\n        __Context_init_unchained();\r\n        __ERC165_init_unchained();\r\n        __Ownable_init_unchained();\r\n        __ERC721Burnable_init_unchained();\r\n        __Mint721Validator_init_unchained();\r\n        __HasContractURI_init_unchained(contractURI);\r\n        __RoyaltiesV2Upgradeable_init_unchained();\r\n        __ERC721_init_unchained(_name, _symbol);\r\n        for(uint i = 0; i < operators.length; i++) {\r\n            setApprovalForAll(operators[i], true);\r\n        }\r\n        emit CreateERC721RaribleUser(_msgSender(), _name, _symbol);\r\n    }\r\n\r\n    function mintAndTransfer(LibERC721LazyMint.Mint721Data memory data, address to) public override virtual {\r\n        require(owner() == data.creators[0].account, \"minter is not the owner\");\r\n        super.mintAndTransfer(data, to);\r\n    }\r\n    uint256[50] private __gap;\r\n}",
  "sourcePath": "D:/Posao - Stefan/Stefan - razno/Gitcoin/Hackathon - Rarible/nft-ticketize/contracts/rarible-contracts/erc-721/ERC721RaribleUser.sol",
  "compiler": {
    "name": "solc",
    "version": "0.7.6+commit.7338295f.Emscripten.clang"
  },
  "schemaVersion": "3.4.1",
  "updatedAt": "2021-06-28T22:54:49.359Z",
  "devdoc": {
    "kind": "dev",
    "methods": {
      "approve(address,uint256)": {
        "details": "See {IERC721-approve}."
      },
      "balanceOf(address)": {
        "details": "See {IERC721-balanceOf}."
      },
      "baseURI()": {
        "details": "Returns the base URI set via {_setBaseURI}. This will be automatically added as a prefix in {tokenURI} to each token's URI, or to the token ID if no specific URI is set for that token ID."
      },
      "burn(uint256)": {
        "details": "Burns `tokenId`. See {ERC721-_burn}. Requirements: - The caller must own `tokenId` or be an approved operator."
      },
      "getApproved(uint256)": {
        "details": "See {IERC721-getApproved}."
      },
      "isApprovedForAll(address,address)": {
        "details": "See {IERC721-isApprovedForAll}."
      },
      "name()": {
        "details": "See {IERC721Metadata-name}."
      },
      "owner()": {
        "details": "Returns the address of the current owner."
      },
      "ownerOf(uint256)": {
        "details": "See {IERC721-ownerOf}."
      },
      "renounceOwnership()": {
        "details": "Leaves the contract without owner. It will not be possible to call `onlyOwner` functions anymore. Can only be called by the current owner. NOTE: Renouncing ownership will leave the contract without an owner, thereby removing any functionality that is only available to the owner."
      },
      "safeTransferFrom(address,address,uint256)": {
        "details": "See {IERC721-safeTransferFrom}."
      },
      "safeTransferFrom(address,address,uint256,bytes)": {
        "details": "See {IERC721-safeTransferFrom}."
      },
      "setApprovalForAll(address,bool)": {
        "details": "See {IERC721-setApprovalForAll}."
      },
      "supportsInterface(bytes4)": {
        "details": "See {IERC165-supportsInterface}. Time complexity O(1), guaranteed to always use less than 30 000 gas."
      },
      "symbol()": {
        "details": "See {IERC721Metadata-symbol}."
      },
      "tokenByIndex(uint256)": {
        "details": "See {IERC721Enumerable-tokenByIndex}."
      },
      "tokenOfOwnerByIndex(address,uint256)": {
        "details": "See {IERC721Enumerable-tokenOfOwnerByIndex}."
      },
      "tokenURI(uint256)": {
        "details": "See {IERC721Metadata-tokenURI}."
      },
      "totalSupply()": {
        "details": "See {IERC721Enumerable-totalSupply}."
      },
      "transferFrom(address,address,uint256)": {
        "details": "See {IERC721-transferFrom}."
      },
      "transferOwnership(address)": {
        "details": "Transfers ownership of the contract to a new account (`newOwner`). Can only be called by the current owner."
      }
    },
    "version": 1
  },
  "userdoc": {
    "kind": "user",
    "methods": {},
    "version": 1
  }
}