{
  "contractName": "NFTicketize",
  "abi": [
    {
      "inputs": [],
      "stateMutability": "nonpayable",
      "type": "constructor"
    },
    {
      "anonymous": false,
      "inputs": [
        {
          "indexed": true,
          "internalType": "address",
          "name": "owner",
          "type": "address"
        },
        {
          "indexed": true,
          "internalType": "address",
          "name": "approved",
          "type": "address"
        },
        {
          "indexed": true,
          "internalType": "uint256",
          "name": "tokenId",
          "type": "uint256"
        }
      ],
      "name": "Approval",
      "type": "event"
    },
    {
      "anonymous": false,
      "inputs": [
        {
          "indexed": true,
          "internalType": "address",
          "name": "owner",
          "type": "address"
        },
        {
          "indexed": true,
          "internalType": "address",
          "name": "operator",
          "type": "address"
        },
        {
          "indexed": false,
          "internalType": "bool",
          "name": "approved",
          "type": "bool"
        }
      ],
      "name": "ApprovalForAll",
      "type": "event"
    },
    {
      "anonymous": false,
      "inputs": [
        {
          "indexed": false,
          "internalType": "uint256",
          "name": "id",
          "type": "uint256"
        },
        {
          "indexed": false,
          "internalType": "address",
          "name": "creator",
          "type": "address"
        },
        {
          "indexed": false,
          "internalType": "uint256",
          "name": "startDate",
          "type": "uint256"
        },
        {
          "indexed": false,
          "internalType": "string",
          "name": "metadataIpfsCid",
          "type": "string"
        }
      ],
      "name": "NewEvent",
      "type": "event"
    },
    {
      "anonymous": false,
      "inputs": [
        {
          "indexed": false,
          "internalType": "uint256",
          "name": "eventId",
          "type": "uint256"
        },
        {
          "indexed": false,
          "internalType": "uint256",
          "name": "ticketCategoryId",
          "type": "uint256"
        },
        {
          "indexed": false,
          "internalType": "uint256",
          "name": "id",
          "type": "uint256"
        },
        {
          "indexed": false,
          "internalType": "uint32",
          "name": "forBid",
          "type": "uint32"
        }
      ],
      "name": "NewTicket",
      "type": "event"
    },
    {
      "anonymous": false,
      "inputs": [
        {
          "indexed": false,
          "internalType": "uint256",
          "name": "eventId",
          "type": "uint256"
        },
        {
          "indexed": false,
          "internalType": "uint256",
          "name": "id",
          "type": "uint256"
        },
        {
          "indexed": false,
          "internalType": "uint32",
          "name": "currentMintTickets",
          "type": "uint32"
        },
        {
          "indexed": false,
          "internalType": "uint32",
          "name": "maxTickets",
          "type": "uint32"
        },
        {
          "indexed": false,
          "internalType": "uint256",
          "name": "ticketPrice",
          "type": "uint256"
        },
        {
          "indexed": false,
          "internalType": "uint256",
          "name": "resellTicketValue",
          "type": "uint256"
        },
        {
          "indexed": false,
          "internalType": "string",
          "name": "metadataIpfsCid",
          "type": "string"
        }
      ],
      "name": "NewTicketCategory",
      "type": "event"
    },
    {
      "anonymous": false,
      "inputs": [
        {
          "indexed": false,
          "internalType": "uint256",
          "name": "tokenId",
          "type": "uint256"
        },
        {
          "components": [
            {
              "internalType": "address payable",
              "name": "account",
              "type": "address"
            },
            {
              "internalType": "uint96",
              "name": "value",
              "type": "uint96"
            }
          ],
          "indexed": false,
          "internalType": "struct LibPart.Part[]",
          "name": "royalties",
          "type": "tuple[]"
        }
      ],
      "name": "RoyaltiesSet",
      "type": "event"
    },
    {
      "anonymous": false,
      "inputs": [
        {
          "indexed": true,
          "internalType": "address",
          "name": "from",
          "type": "address"
        },
        {
          "indexed": true,
          "internalType": "address",
          "name": "to",
          "type": "address"
        },
        {
          "indexed": true,
          "internalType": "uint256",
          "name": "tokenId",
          "type": "uint256"
        }
      ],
      "name": "Transfer",
      "type": "event"
    },
    {
      "anonymous": false,
      "inputs": [
        {
          "indexed": false,
          "internalType": "uint256",
          "name": "eventId",
          "type": "uint256"
        },
        {
          "indexed": false,
          "internalType": "uint256",
          "name": "ticketCategoryId",
          "type": "uint256"
        },
        {
          "indexed": false,
          "internalType": "uint256",
          "name": "id",
          "type": "uint256"
        },
        {
          "indexed": false,
          "internalType": "uint32",
          "name": "forBid",
          "type": "uint32"
        }
      ],
      "name": "UpdateTicket",
      "type": "event"
    },
    {
      "anonymous": false,
      "inputs": [
        {
          "indexed": false,
          "internalType": "uint256",
          "name": "eventId",
          "type": "uint256"
        },
        {
          "indexed": false,
          "internalType": "uint256",
          "name": "id",
          "type": "uint256"
        },
        {
          "indexed": false,
          "internalType": "uint32",
          "name": "currentMintTickets",
          "type": "uint32"
        },
        {
          "indexed": false,
          "internalType": "uint32",
          "name": "maxTickets",
          "type": "uint32"
        },
        {
          "indexed": false,
          "internalType": "uint256",
          "name": "ticketPrice",
          "type": "uint256"
        },
        {
          "indexed": false,
          "internalType": "uint256",
          "name": "resellTicketValue",
          "type": "uint256"
        },
        {
          "indexed": false,
          "internalType": "string",
          "name": "metadataIpfsCid",
          "type": "string"
        }
      ],
      "name": "UpdateTicketCategory",
      "type": "event"
    },
    {
      "inputs": [
        {
          "internalType": "address",
          "name": "to",
          "type": "address"
        },
        {
          "internalType": "uint256",
          "name": "tokenId",
          "type": "uint256"
        }
      ],
      "name": "approve",
      "outputs": [],
      "stateMutability": "nonpayable",
      "type": "function"
    },
    {
      "inputs": [
        {
          "internalType": "address",
          "name": "owner",
          "type": "address"
        }
      ],
      "name": "balanceOf",
      "outputs": [
        {
          "internalType": "uint256",
          "name": "",
          "type": "uint256"
        }
      ],
      "stateMutability": "view",
      "type": "function"
    },
    {
      "inputs": [],
      "name": "baseURI",
      "outputs": [
        {
          "internalType": "string",
          "name": "",
          "type": "string"
        }
      ],
      "stateMutability": "view",
      "type": "function"
    },
    {
      "inputs": [
        {
          "internalType": "uint256",
          "name": "",
          "type": "uint256"
        }
      ],
      "name": "events",
      "outputs": [
        {
          "internalType": "address payable",
          "name": "creator",
          "type": "address"
        },
        {
          "internalType": "uint256",
          "name": "startDate",
          "type": "uint256"
        },
        {
          "internalType": "string",
          "name": "metadataIpfsCid",
          "type": "string"
        },
        {
          "internalType": "bool",
          "name": "exist",
          "type": "bool"
        }
      ],
      "stateMutability": "view",
      "type": "function"
    },
    {
      "inputs": [
        {
          "internalType": "uint256",
          "name": "tokenId",
          "type": "uint256"
        }
      ],
      "name": "getApproved",
      "outputs": [
        {
          "internalType": "address",
          "name": "",
          "type": "address"
        }
      ],
      "stateMutability": "view",
      "type": "function"
    },
    {
      "inputs": [
        {
          "internalType": "uint256",
          "name": "id",
          "type": "uint256"
        }
      ],
      "name": "getRoyalties",
      "outputs": [
        {
          "components": [
            {
              "internalType": "address payable",
              "name": "account",
              "type": "address"
            },
            {
              "internalType": "uint96",
              "name": "value",
              "type": "uint96"
            }
          ],
          "internalType": "struct LibPart.Part[]",
          "name": "",
          "type": "tuple[]"
        }
      ],
      "stateMutability": "view",
      "type": "function"
    },
    {
      "inputs": [
        {
          "internalType": "address",
          "name": "owner",
          "type": "address"
        },
        {
          "internalType": "address",
          "name": "operator",
          "type": "address"
        }
      ],
      "name": "isApprovedForAll",
      "outputs": [
        {
          "internalType": "bool",
          "name": "",
          "type": "bool"
        }
      ],
      "stateMutability": "view",
      "type": "function"
    },
    {
      "inputs": [],
      "name": "name",
      "outputs": [
        {
          "internalType": "string",
          "name": "",
          "type": "string"
        }
      ],
      "stateMutability": "view",
      "type": "function"
    },
    {
      "inputs": [
        {
          "internalType": "uint256",
          "name": "tokenId",
          "type": "uint256"
        }
      ],
      "name": "ownerOf",
      "outputs": [
        {
          "internalType": "address",
          "name": "",
          "type": "address"
        }
      ],
      "stateMutability": "view",
      "type": "function"
    },
    {
      "inputs": [
        {
          "internalType": "uint256",
          "name": "",
          "type": "uint256"
        },
        {
          "internalType": "uint256",
          "name": "",
          "type": "uint256"
        }
      ],
      "name": "royalties",
      "outputs": [
        {
          "internalType": "address payable",
          "name": "account",
          "type": "address"
        },
        {
          "internalType": "uint96",
          "name": "value",
          "type": "uint96"
        }
      ],
      "stateMutability": "view",
      "type": "function"
    },
    {
      "inputs": [
        {
          "internalType": "address",
          "name": "from",
          "type": "address"
        },
        {
          "internalType": "address",
          "name": "to",
          "type": "address"
        },
        {
          "internalType": "uint256",
          "name": "tokenId",
          "type": "uint256"
        }
      ],
      "name": "safeTransferFrom",
      "outputs": [],
      "stateMutability": "nonpayable",
      "type": "function"
    },
    {
      "inputs": [
        {
          "internalType": "address",
          "name": "from",
          "type": "address"
        },
        {
          "internalType": "address",
          "name": "to",
          "type": "address"
        },
        {
          "internalType": "uint256",
          "name": "tokenId",
          "type": "uint256"
        },
        {
          "internalType": "bytes",
          "name": "_data",
          "type": "bytes"
        }
      ],
      "name": "safeTransferFrom",
      "outputs": [],
      "stateMutability": "nonpayable",
      "type": "function"
    },
    {
      "inputs": [
        {
          "internalType": "address",
          "name": "operator",
          "type": "address"
        },
        {
          "internalType": "bool",
          "name": "approved",
          "type": "bool"
        }
      ],
      "name": "setApprovalForAll",
      "outputs": [],
      "stateMutability": "nonpayable",
      "type": "function"
    },
    {
      "inputs": [
        {
          "internalType": "bytes4",
          "name": "interfaceId",
          "type": "bytes4"
        }
      ],
      "name": "supportsInterface",
      "outputs": [
        {
          "internalType": "bool",
          "name": "",
          "type": "bool"
        }
      ],
      "stateMutability": "view",
      "type": "function"
    },
    {
      "inputs": [],
      "name": "symbol",
      "outputs": [
        {
          "internalType": "string",
          "name": "",
          "type": "string"
        }
      ],
      "stateMutability": "view",
      "type": "function"
    },
    {
      "inputs": [
        {
          "internalType": "uint256",
          "name": "",
          "type": "uint256"
        }
      ],
      "name": "ticketCategories",
      "outputs": [
        {
          "internalType": "uint256",
          "name": "eventId",
          "type": "uint256"
        },
        {
          "internalType": "uint32",
          "name": "currentMintTickets",
          "type": "uint32"
        },
        {
          "internalType": "uint32",
          "name": "maxTickets",
          "type": "uint32"
        },
        {
          "internalType": "uint256",
          "name": "ticketPrice",
          "type": "uint256"
        },
        {
          "internalType": "uint256",
          "name": "resellTicketValue",
          "type": "uint256"
        },
        {
          "internalType": "string",
          "name": "metadataIpfsCid",
          "type": "string"
        },
        {
          "internalType": "bool",
          "name": "exist",
          "type": "bool"
        }
      ],
      "stateMutability": "view",
      "type": "function"
    },
    {
      "inputs": [
        {
          "internalType": "uint256",
          "name": "",
          "type": "uint256"
        }
      ],
      "name": "tickets",
      "outputs": [
        {
          "internalType": "uint256",
          "name": "eventId",
          "type": "uint256"
        },
        {
          "internalType": "uint256",
          "name": "ticketCategoryId",
          "type": "uint256"
        },
        {
          "internalType": "uint32",
          "name": "forBid",
          "type": "uint32"
        }
      ],
      "stateMutability": "view",
      "type": "function"
    },
    {
      "inputs": [
        {
          "internalType": "uint256",
          "name": "index",
          "type": "uint256"
        }
      ],
      "name": "tokenByIndex",
      "outputs": [
        {
          "internalType": "uint256",
          "name": "",
          "type": "uint256"
        }
      ],
      "stateMutability": "view",
      "type": "function"
    },
    {
      "inputs": [
        {
          "internalType": "address",
          "name": "owner",
          "type": "address"
        },
        {
          "internalType": "uint256",
          "name": "index",
          "type": "uint256"
        }
      ],
      "name": "tokenOfOwnerByIndex",
      "outputs": [
        {
          "internalType": "uint256",
          "name": "",
          "type": "uint256"
        }
      ],
      "stateMutability": "view",
      "type": "function"
    },
    {
      "inputs": [
        {
          "internalType": "uint256",
          "name": "tokenId",
          "type": "uint256"
        }
      ],
      "name": "tokenURI",
      "outputs": [
        {
          "internalType": "string",
          "name": "",
          "type": "string"
        }
      ],
      "stateMutability": "view",
      "type": "function"
    },
    {
      "inputs": [],
      "name": "totalSupply",
      "outputs": [
        {
          "internalType": "uint256",
          "name": "",
          "type": "uint256"
        }
      ],
      "stateMutability": "view",
      "type": "function"
    },
    {
      "inputs": [
        {
          "internalType": "address",
          "name": "from",
          "type": "address"
        },
        {
          "internalType": "address",
          "name": "to",
          "type": "address"
        },
        {
          "internalType": "uint256",
          "name": "tokenId",
          "type": "uint256"
        }
      ],
      "name": "transferFrom",
      "outputs": [],
      "stateMutability": "nonpayable",
      "type": "function"
    },
    {
      "inputs": [
        {
          "internalType": "uint256",
          "name": "_startDate",
          "type": "uint256"
        },
        {
          "internalType": "string",
          "name": "_metadataIpfsCid",
          "type": "string"
        }
      ],
      "name": "createEvent",
      "outputs": [],
      "stateMutability": "nonpayable",
      "type": "function"
    },
    {
      "inputs": [
        {
          "internalType": "uint256",
          "name": "_eventId",
          "type": "uint256"
        },
        {
          "internalType": "uint32",
          "name": "_maxTickets",
          "type": "uint32"
        },
        {
          "internalType": "uint256",
          "name": "_ticketPrice",
          "type": "uint256"
        },
        {
          "internalType": "uint256",
          "name": "_resellTicketValue",
          "type": "uint256"
        },
        {
          "internalType": "string",
          "name": "_metadataIpfsCid",
          "type": "string"
        }
      ],
      "name": "createTicketCategory",
      "outputs": [],
      "stateMutability": "nonpayable",
      "type": "function"
    },
    {
      "inputs": [
        {
          "internalType": "uint256",
          "name": "_eventId",
          "type": "uint256"
        },
        {
          "internalType": "uint256",
          "name": "_ticketCategoryId",
          "type": "uint256"
        },
        {
          "internalType": "uint256[]",
          "name": "_tokenIdsForMint",
          "type": "uint256[]"
        }
      ],
      "name": "fillInformationsAboutTicket",
      "outputs": [],
      "stateMutability": "payable",
      "type": "function"
    },
    {
      "inputs": [
        {
          "components": [
            {
              "internalType": "uint256",
              "name": "tokenId",
              "type": "uint256"
            },
            {
              "internalType": "string",
              "name": "uri",
              "type": "string"
            },
            {
              "components": [
                {
                  "internalType": "address payable",
                  "name": "account",
                  "type": "address"
                },
                {
                  "internalType": "uint96",
                  "name": "value",
                  "type": "uint96"
                }
              ],
              "internalType": "struct LibPart.Part[]",
              "name": "creators",
              "type": "tuple[]"
            },
            {
              "components": [
                {
                  "internalType": "address payable",
                  "name": "account",
                  "type": "address"
                },
                {
                  "internalType": "uint96",
                  "name": "value",
                  "type": "uint96"
                }
              ],
              "internalType": "struct LibPart.Part[]",
              "name": "royalties",
              "type": "tuple[]"
            },
            {
              "internalType": "bytes[]",
              "name": "signatures",
              "type": "bytes[]"
            }
          ],
          "internalType": "struct LibERC721LazyMint.Mint721Data",
          "name": "data",
          "type": "tuple"
        },
        {
          "internalType": "address",
          "name": "to",
          "type": "address"
        }
      ],
      "name": "mintAndTransfer",
      "outputs": [],
      "stateMutability": "nonpayable",
      "type": "function"
    },
    {
      "inputs": [
        {
          "components": [
            {
              "internalType": "uint256",
              "name": "tokenId",
              "type": "uint256"
            },
            {
              "internalType": "string",
              "name": "uri",
              "type": "string"
            },
            {
              "components": [
                {
                  "internalType": "address payable",
                  "name": "account",
                  "type": "address"
                },
                {
                  "internalType": "uint96",
                  "name": "value",
                  "type": "uint96"
                }
              ],
              "internalType": "struct LibPart.Part[]",
              "name": "creators",
              "type": "tuple[]"
            },
            {
              "components": [
                {
                  "internalType": "address payable",
                  "name": "account",
                  "type": "address"
                },
                {
                  "internalType": "uint96",
                  "name": "value",
                  "type": "uint96"
                }
              ],
              "internalType": "struct LibPart.Part[]",
              "name": "royalties",
              "type": "tuple[]"
            },
            {
              "internalType": "bytes[]",
              "name": "signatures",
              "type": "bytes[]"
            }
          ],
          "internalType": "struct LibERC721LazyMint.Mint721Data",
          "name": "_data",
          "type": "tuple"
        },
        {
          "internalType": "address",
          "name": "_from",
          "type": "address"
        },
        {
          "internalType": "address payable",
          "name": "_to",
          "type": "address"
        }
      ],
      "name": "transferFromOrMint",
      "outputs": [],
      "stateMutability": "nonpayable",
      "type": "function"
    },
    {
      "inputs": [
        {
          "internalType": "uint256",
          "name": "_tokenId",
          "type": "uint256"
        },
        {
          "internalType": "uint32",
          "name": "_value",
          "type": "uint32"
        }
      ],
      "name": "setTicketForBid",
      "outputs": [],
      "stateMutability": "nonpayable",
      "type": "function"
    }
  ],
  "bytecode": "0x60806040526000600d556000600f553480156200001b57600080fd5b506040518060400160405280600b81526020017f4e465469636b6574697a650000000000000000000000000000000000000000008152506040518060400160405280600881526020017f4e465449434b4554000000000000000000000000000000000000000000000000815250620000a06301ffc9a760e01b6200012260201b60201c565b8160069080519060200190620000b89291906200022b565b508060079080519060200190620000d19291906200022b565b50620000ea6380ac58cd60e01b6200012260201b60201c565b62000102635b5e139f60e01b6200012260201b60201c565b6200011a63780e9d6360e01b6200012260201b60201c565b5050620002e1565b63ffffffff60e01b817bffffffffffffffffffffffffffffffffffffffffffffffffffffffff19161415620001bf576040517f08c379a000000000000000000000000000000000000000000000000000000000815260040180806020018281038252601c8152602001807f4552433136353a20696e76616c696420696e746572666163652069640000000081525060200191505060405180910390fd5b6001600080837bffffffffffffffffffffffffffffffffffffffffffffffffffffffff19167bffffffffffffffffffffffffffffffffffffffffffffffffffffffff1916815260200190815260200160002060006101000a81548160ff02191690831515021790555050565b828054600181600116156101000203166002900490600052602060002090601f016020900481019282620002635760008555620002af565b82601f106200027e57805160ff1916838001178555620002af565b82800160010185558215620002af579182015b82811115620002ae57825182559160200191906001019062000291565b5b509050620002be9190620002c2565b5090565b5b80821115620002dd576000816000905550600101620002c3565b5090565b6152fb80620002f16000396000f3fe6080604052600436106101b75760003560e01c80636c0360eb116100ec578063a22cb4651161008a578063bb3bafd611610064578063bb3bafd614610649578063c87b56dd14610686578063cef2646d146106c3578063e985e9c514610706576101b7565b8063a22cb465146105db578063afc15adf14610604578063b88d4fde14610620576101b7565b80638924af74116100c65780638924af741461052057806391e66d311461055e57806395d89b4114610587578063a1d255e1146105b2576101b7565b80636c0360eb1461048f57806370a08231146104ba578063832fbb29146104f7576101b7565b806323b872dd116101595780634f6ccce7116101335780634f6ccce7146103ad57806350b44712146103ea578063584e3998146104295780636352211e14610452576101b7565b806323b872dd1461031e5780632f745c591461034757806342842e0e14610384576101b7565b8063095ea7b311610195578063095ea7b3146102615780630b7914301461028a57806318160ddd146102ca57806322a775b6146102f5576101b7565b806301ffc9a7146101bc57806306fdde03146101f9578063081812fc14610224575b600080fd5b3480156101c857600080fd5b506101e360048036038101906101de9190613fde565b610743565b6040516101f091906148c4565b60405180910390f35b34801561020557600080fd5b5061020e6107aa565b60405161021b91906148df565b60405180910390f35b34801561023057600080fd5b5061024b600480360381019061024691906140c2565b61084c565b6040516102589190614812565b60405180910390f35b34801561026d57600080fd5b5061028860048036038101906102839190613fa2565b6108e7565b005b34801561029657600080fd5b506102b160048036038101906102ac91906140c2565b610a2b565b6040516102c1949392919061482d565b60405180910390f35b3480156102d657600080fd5b506102df610b20565b6040516102ec91906149d1565b60405180910390f35b34801561030157600080fd5b5061031c60048036038101906103179190614007565b610b31565b005b34801561032a57600080fd5b5061034560048036038101906103409190613e9c565b610b55565b005b34801561035357600080fd5b5061036e60048036038101906103699190613fa2565b610bcb565b60405161037b91906149d1565b60405180910390f35b34801561039057600080fd5b506103ab60048036038101906103a69190613e9c565b610c26565b005b3480156103b957600080fd5b506103d460048036038101906103cf91906140c2565b610c46565b6040516103e191906149d1565b60405180910390f35b3480156103f657600080fd5b50610411600480360381019061040c91906140c2565b610c69565b60405161042093929190614b68565b60405180910390f35b34801561043557600080fd5b50610450600480360381019061044b91906141e2565b610ca3565b005b34801561045e57600080fd5b50610479600480360381019061047491906140c2565b610db3565b6040516104869190614812565b60405180910390f35b34801561049b57600080fd5b506104a4610dea565b6040516104b191906148df565b60405180910390f35b3480156104c657600080fd5b506104e160048036038101906104dc9190613e37565b610e8c565b6040516104ee91906149d1565b60405180910390f35b34801561050357600080fd5b5061051e6004803603810190610519919061405b565b610f61565b005b34801561052c57600080fd5b506105476004803603810190610542919061413f565b610ffa565b604051610555929190614879565b60405180910390f35b34801561056a57600080fd5b506105856004803603810190610580919061421e565b61106f565b005b34801561059357600080fd5b5061059c61141f565b6040516105a991906148df565b60405180910390f35b3480156105be57600080fd5b506105d960048036038101906105d491906140eb565b6114c1565b005b3480156105e757600080fd5b5061060260048036038101906105fd9190613f66565b611626565b005b61061e6004803603810190610619919061417b565b6117dc565b005b34801561062c57600080fd5b5061064760048036038101906106429190613eeb565b611cb2565b005b34801561065557600080fd5b50610670600480360381019061066b91906140c2565b611d2a565b60405161067d91906148a2565b60405180910390f35b34801561069257600080fd5b506106ad60048036038101906106a891906140c2565b611e2c565b6040516106ba91906148df565b60405180910390f35b3480156106cf57600080fd5b506106ea60048036038101906106e591906140c2565b6120fd565b6040516106fd9796959493929190614c15565b60405180910390f35b34801561071257600080fd5b5061072d60048036038101906107289190613e60565b612204565b60405161073a91906148c4565b60405180910390f35b6000806000837bffffffffffffffffffffffffffffffffffffffffffffffffffffffff19167bffffffffffffffffffffffffffffffffffffffffffffffffffffffff1916815260200190815260200160002060009054906101000a900460ff169050919050565b606060068054600181600116156101000203166002900480601f0160208091040260200160405190810160405280929190818152602001828054600181600116156101000203166002900480156108425780601f1061081757610100808354040283529160200191610842565b820191906000526020600020905b81548152906001019060200180831161082557829003601f168201915b5050505050905090565b600061085782612298565b6108ac576040517f08c379a000000000000000000000000000000000000000000000000000000000815260040180806020018281038252602c8152602001806151f0602c913960400191505060405180910390fd5b6004600083815260200190815260200160002060009054906101000a900473ffffffffffffffffffffffffffffffffffffffff169050919050565b60006108f282610db3565b90508073ffffffffffffffffffffffffffffffffffffffff168373ffffffffffffffffffffffffffffffffffffffff161415610979576040517f08c379a00000000000000000000000000000000000000000000000000000000081526004018080602001828103825260218152602001806152746021913960400191505060405180910390fd5b8073ffffffffffffffffffffffffffffffffffffffff166109986122b5565b73ffffffffffffffffffffffffffffffffffffffff1614806109c757506109c6816109c16122b5565b612204565b5b610a1c576040517f08c379a00000000000000000000000000000000000000000000000000000000081526004018080602001828103825260388152602001806151436038913960400191505060405180910390fd5b610a2683836122bd565b505050565b600c6020528060005260406000206000915090508060000160009054906101000a900473ffffffffffffffffffffffffffffffffffffffff1690806001015490806002018054600181600116156101000203166002900480601f016020809104026020016040519081016040528092919081815260200182805460018160011615610100020316600290048015610b035780601f10610ad857610100808354040283529160200191610b03565b820191906000526020600020905b815481529060010190602001808311610ae657829003601f168201915b5050505050908060030160009054906101000a900460ff16905084565b6000610b2c6002612376565b905090565b610b3f81836000015161238b565b610b518260000151836060015161257f565b5050565b610b66610b606122b5565b826127c9565b610bbb576040517f08c379a00000000000000000000000000000000000000000000000000000000081526004018080602001828103825260318152602001806152956031913960400191505060405180910390fd5b610bc68383836128bd565b505050565b6000610c1e82600160008673ffffffffffffffffffffffffffffffffffffffff1673ffffffffffffffffffffffffffffffffffffffff168152602001908152602001600020612b0090919063ffffffff16565b905092915050565b610c4183838360405180602001604052806000815250611cb2565b505050565b600080610c5d836002612b1a90919063ffffffff16565b50905080915050919050565b60106020528060005260406000206000915090508060000154908060010154908060020160009054906101000a900463ffffffff16905083565b60006010600084815260200190815260200160002060405180606001604052908160008201548152602001600182015481526020016002820160009054906101000a900463ffffffff1663ffffffff1663ffffffff1681525050905081816040019063ffffffff16908163ffffffff16815250508060106000858152602001908152602001600020600082015181600001556020820151816001015560408201518160020160006101000a81548163ffffffff021916908363ffffffff1602179055509050507f06f0da989accae54eb958826008bf8db38b34cfcc6b76e5e74837f99d24e73ed816000015182602001518585604051610da69493929190614b23565b60405180910390a1505050565b6000610de3826040518060600160405280602981526020016151a5602991396002612b469092919063ffffffff16565b9050919050565b606060098054600181600116156101000203166002900480601f016020809104026020016040519081016040528092919081815260200182805460018160011615610100020316600290048015610e825780601f10610e5757610100808354040283529160200191610e82565b820191906000526020600020905b815481529060010190602001808311610e6557829003601f168201915b5050505050905090565b60008073ffffffffffffffffffffffffffffffffffffffff168273ffffffffffffffffffffffffffffffffffffffff161415610f13576040517f08c379a000000000000000000000000000000000000000000000000000000000815260040180806020018281038252602a81526020018061517b602a913960400191505060405180910390fd5b610f5a600160008473ffffffffffffffffffffffffffffffffffffffff1673ffffffffffffffffffffffffffffffffffffffff168152602001908152602001600020612b65565b9050919050565b610f6e8360000151612298565b15610f8757610f8282828560000151610c26565b610ff5565b3073ffffffffffffffffffffffffffffffffffffffff166322a775b684836040518363ffffffff1660e01b8152600401610fc29291906149a1565b600060405180830381600087803b158015610fdc57600080fd5b505af1158015610ff0573d6000803e3d6000fd5b505050505b505050565b600a602052816000526040600020818154811061101657600080fd5b90600052602060002001600091509150508060000160009054906101000a900473ffffffffffffffffffffffffffffffffffffffff16908060000160149054906101000a90046bffffffffffffffffffffffff16905082565b84600c600082815260200190815260200160002060030160009054906101000a900460ff166110d3576040517f08c379a00000000000000000000000000000000000000000000000000000000081526004016110ca90614961565b60405180910390fd5b856000600c60008381526020019081526020016000206040518060800160405290816000820160009054906101000a900473ffffffffffffffffffffffffffffffffffffffff1673ffffffffffffffffffffffffffffffffffffffff1673ffffffffffffffffffffffffffffffffffffffff16815260200160018201548152602001600282018054600181600116156101000203166002900480601f0160208091040260200160405190810160405280929190818152602001828054600181600116156101000203166002900480156111ed5780601f106111c2576101008083540402835291602001916111ed565b820191906000526020600020905b8154815290600101906020018083116111d057829003601f168201915b505050505081526020016003820160009054906101000a900460ff1615151515815250509050806000015173ffffffffffffffffffffffffffffffffffffffff163373ffffffffffffffffffffffffffffffffffffffff1614611285576040517f08c379a000000000000000000000000000000000000000000000000000000000815260040161127c90614921565b60405180910390fd5b6000600f549050611294613890565b898160000181815250506000816020019063ffffffff16908163ffffffff168152505088816040019063ffffffff16908163ffffffff16815250508781606001818152505086816080018181525050858160a0018190525060018160c001901515908115158152505080600e60008481526020019081526020016000206000820151816000015560208201518160010160006101000a81548163ffffffff021916908363ffffffff16021790555060408201518160010160046101000a81548163ffffffff021916908363ffffffff160217905550606082015181600201556080820151816003015560a08201518160040190805190602001906113999291906138db565b5060c08201518160050160006101000a81548160ff021916908315150217905550905050600f600081548092919060010191905055507f54a5ed645baa4fbcbc77989a189b3d5d9477e99c137f569cc205f255031aebf58a8360008c8c8c8c60405161140b9796959493929190614a68565b60405180910390a150505050505050505050565b606060078054600181600116156101000203166002900480601f0160208091040260200160405190810160405280929190818152602001828054600181600116156101000203166002900480156114b75780601f1061148c576101008083540402835291602001916114b7565b820191906000526020600020905b81548152906001019060200180831161149a57829003601f168201915b5050505050905090565b6000600d5490506114d0613969565b33816000019073ffffffffffffffffffffffffffffffffffffffff16908173ffffffffffffffffffffffffffffffffffffffff168152505083816020018181525050828160400181905250600181606001901515908115158152505080600c600084815260200190815260200160002060008201518160000160006101000a81548173ffffffffffffffffffffffffffffffffffffffff021916908373ffffffffffffffffffffffffffffffffffffffff1602179055506020820151816001015560408201518160020190805190602001906115ad9291906138db565b5060608201518160030160006101000a81548160ff021916908315150217905550905050600d600081548092919060010191905055507f4dbfa2164915d724b7563de7ec811eea5545dec52bafbf05aa172af5da90e5868233868660405161161894939291906149ec565b60405180910390a150505050565b61162e6122b5565b73ffffffffffffffffffffffffffffffffffffffff168273ffffffffffffffffffffffffffffffffffffffff1614156116cf576040517f08c379a00000000000000000000000000000000000000000000000000000000081526004018080602001828103825260198152602001807f4552433732313a20617070726f766520746f2063616c6c65720000000000000081525060200191505060405180910390fd5b80600560006116dc6122b5565b73ffffffffffffffffffffffffffffffffffffffff1673ffffffffffffffffffffffffffffffffffffffff16815260200190815260200160002060008473ffffffffffffffffffffffffffffffffffffffff1673ffffffffffffffffffffffffffffffffffffffff16815260200190815260200160002060006101000a81548160ff0219169083151502179055508173ffffffffffffffffffffffffffffffffffffffff166117896122b5565b73ffffffffffffffffffffffffffffffffffffffff167f17307eab39ab6107e8899845ad3d59bd9653f200f220920489ca2b5937696c318360405180821515815260200191505060405180910390a35050565b82600c600082815260200190815260200160002060030160009054906101000a900460ff16611840576040517f08c379a000000000000000000000000000000000000000000000000000000000815260040161183790614961565b60405180910390fd5b82600e600082815260200190815260200160002060050160009054906101000a900460ff166118a4576040517f08c379a000000000000000000000000000000000000000000000000000000000815260040161189b90614981565b60405180910390fd5b848481600e600083815260200190815260200160002060000154146118fe576040517f08c379a00000000000000000000000000000000000000000000000000000000081526004016118f590614981565b60405180910390fd5b866000600c60008381526020019081526020016000206040518060800160405290816000820160009054906101000a900473ffffffffffffffffffffffffffffffffffffffff1673ffffffffffffffffffffffffffffffffffffffff1673ffffffffffffffffffffffffffffffffffffffff16815260200160018201548152602001600282018054600181600116156101000203166002900480601f016020809104026020016040519081016040528092919081815260200182805460018160011615610100020316600290048015611a185780601f106119ed57610100808354040283529160200191611a18565b820191906000526020600020905b8154815290600101906020018083116119fb57829003601f168201915b505050505081526020016003820160009054906101000a900460ff1615151515815250509050806000015173ffffffffffffffffffffffffffffffffffffffff163373ffffffffffffffffffffffffffffffffffffffff161415611ab1576040517f08c379a0000000000000000000000000000000000000000000000000000000008152600401611aa890614901565b60405180910390fd5b600080600c60008c815260200190815260200160002060000160009054906101000a900473ffffffffffffffffffffffffffffffffffffffff1673ffffffffffffffffffffffffffffffffffffffff1634604051611b0e906147fd565b60006040518083038185875af1925050503d8060008114611b4b576040519150601f19603f3d011682016040523d82523d6000602084013e611b50565b606091505b509150915081611b95576040517f08c379a0000000000000000000000000000000000000000000000000000000008152600401611b8c90614941565b60405180910390fd5b60005b8951811015611ca457611ba96139a9565b8c8160000181815250508b8160200181815250506000816040019063ffffffff16908163ffffffff168152505080601060008d8581518110611be757fe5b60200260200101518152602001908152602001600020600082015181600001556020820151816001015560408201518160020160006101000a81548163ffffffff021916908363ffffffff1602179055509050507fc254c33300fd50dacbf0912a3dec7083573a4c6ae859eb74787cc4b96b9d024d8d8d8d8581518110611c6a57fe5b60200260200101516000604051611c849493929190614ade565b60405180910390a1611c968d8d612b7a565b508080600101915050611b98565b505050505050505050505050565b611cc3611cbd6122b5565b836127c9565b611d18576040517f08c379a00000000000000000000000000000000000000000000000000000000081526004018080602001828103825260318152602001806152956031913960400191505060405180910390fd5b611d2484848484612cac565b50505050565b6060600a6000838152602001908152602001600020805480602002602001604051908101604052809291908181526020016000905b82821015611e21578382906000526020600020016040518060400160405290816000820160009054906101000a900473ffffffffffffffffffffffffffffffffffffffff1673ffffffffffffffffffffffffffffffffffffffff1673ffffffffffffffffffffffffffffffffffffffff1681526020016000820160149054906101000a90046bffffffffffffffffffffffff166bffffffffffffffffffffffff166bffffffffffffffffffffffff168152505081526020019060010190611d5f565b505050509050919050565b6060611e3782612298565b611e8c576040517f08c379a000000000000000000000000000000000000000000000000000000000815260040180806020018281038252602f815260200180615245602f913960400191505060405180910390fd5b6000600860008481526020019081526020016000208054600181600116156101000203166002900480601f016020809104026020016040519081016040528092919081815260200182805460018160011615610100020316600290048015611f355780601f10611f0a57610100808354040283529160200191611f35565b820191906000526020600020905b815481529060010190602001808311611f1857829003601f168201915b505050505090506000611f46610dea565b9050600081511415611f5c5781925050506120f8565b60008251111561202d5780826040516020018083805190602001908083835b60208310611f9e5780518252602082019150602081019050602083039250611f7b565b6001836020036101000a03801982511681845116808217855250505050505090500182805190602001908083835b60208310611fef5780518252602082019150602081019050602083039250611fcc565b6001836020036101000a03801982511681845116808217855250505050505090500192505050604051602081830303815290604052925050506120f8565b8061203785612d1e565b6040516020018083805190602001908083835b6020831061206d578051825260208201915060208101905060208303925061204a565b6001836020036101000a03801982511681845116808217855250505050505090500182805190602001908083835b602083106120be578051825260208201915060208101905060208303925061209b565b6001836020036101000a03801982511681845116808217855250505050505090500192505050604051602081830303815290604052925050505b919050565b600e6020528060005260406000206000915090508060000154908060010160009054906101000a900463ffffffff16908060010160049054906101000a900463ffffffff1690806002015490806003015490806004018054600181600116156101000203166002900480601f0160208091040260200160405190810160405280929190818152602001828054600181600116156101000203166002900480156121e75780601f106121bc576101008083540402835291602001916121e7565b820191906000526020600020905b8154815290600101906020018083116121ca57829003601f168201915b5050505050908060050160009054906101000a900460ff16905087565b6000600560008473ffffffffffffffffffffffffffffffffffffffff1673ffffffffffffffffffffffffffffffffffffffff16815260200190815260200160002060008373ffffffffffffffffffffffffffffffffffffffff1673ffffffffffffffffffffffffffffffffffffffff16815260200190815260200160002060009054906101000a900460ff16905092915050565b60006122ae826002612e6590919063ffffffff16565b9050919050565b600033905090565b816004600083815260200190815260200160002060006101000a81548173ffffffffffffffffffffffffffffffffffffffff021916908373ffffffffffffffffffffffffffffffffffffffff160217905550808273ffffffffffffffffffffffffffffffffffffffff1661233083610db3565b73ffffffffffffffffffffffffffffffffffffffff167f8c5be1e5ebec7d5bd14f71427d1e84f3dd0314c0f7b2291e5b200ac8c7c3b92560405160405180910390a45050565b600061238482600001612e7f565b9050919050565b600073ffffffffffffffffffffffffffffffffffffffff168273ffffffffffffffffffffffffffffffffffffffff16141561242e576040517f08c379a00000000000000000000000000000000000000000000000000000000081526004018080602001828103825260208152602001807f4552433732313a206d696e7420746f20746865207a65726f206164647265737381525060200191505060405180910390fd5b61243781612298565b156124aa576040517f08c379a000000000000000000000000000000000000000000000000000000000815260040180806020018281038252601c8152602001807f4552433732313a20746f6b656e20616c7265616479206d696e7465640000000081525060200191505060405180910390fd5b6124b660008383612e90565b61250781600160008573ffffffffffffffffffffffffffffffffffffffff1673ffffffffffffffffffffffffffffffffffffffff168152602001908152602001600020612e9590919063ffffffff16565b5061251e81836002612eaf9092919063ffffffff16565b50808273ffffffffffffffffffffffffffffffffffffffff16600073ffffffffffffffffffffffffffffffffffffffff167fddf252ad1be2c89b69c2b068fc378daa952ba7f163c4a11628f55a4df523b3ef60405160405180910390a45050565b60005b81518110156127ba57600073ffffffffffffffffffffffffffffffffffffffff168282815181106125af57fe5b60200260200101516000015173ffffffffffffffffffffffffffffffffffffffff161415612645576040517f08c379a000000000000000000000000000000000000000000000000000000000815260040180806020018281038252601b8152602001807f526563697069656e742073686f756c642062652070726573656e74000000000081525060200191505060405180910390fd5b600082828151811061265357fe5b6020026020010151602001516bffffffffffffffffffffffff1614156126e1576040517f08c379a00000000000000000000000000000000000000000000000000000000081526004018080602001828103825260208152602001807f526f79616c74792076616c75652073686f756c6420626520706f73697469766581525060200191505060405180910390fd5b600a600084815260200190815260200160002082828151811061270057fe5b60200260200101519080600181540180825580915050600190039060005260206000200160009091909190915060008201518160000160006101000a81548173ffffffffffffffffffffffffffffffffffffffff021916908373ffffffffffffffffffffffffffffffffffffffff16021790555060208201518160000160146101000a8154816bffffffffffffffffffffffff02191690836bffffffffffffffffffffffff16021790555050508080600101915050612582565b506127c58282612ee4565b5050565b60006127d482612298565b612829576040517f08c379a000000000000000000000000000000000000000000000000000000000815260040180806020018281038252602c815260200180615117602c913960400191505060405180910390fd5b600061283483610db3565b90508073ffffffffffffffffffffffffffffffffffffffff168473ffffffffffffffffffffffffffffffffffffffff1614806128a357508373ffffffffffffffffffffffffffffffffffffffff1661288b8461084c565b73ffffffffffffffffffffffffffffffffffffffff16145b806128b457506128b38185612204565b5b91505092915050565b8273ffffffffffffffffffffffffffffffffffffffff166128dd82610db3565b73ffffffffffffffffffffffffffffffffffffffff1614612949576040517f08c379a000000000000000000000000000000000000000000000000000000000815260040180806020018281038252602981526020018061521c6029913960400191505060405180910390fd5b600073ffffffffffffffffffffffffffffffffffffffff168273ffffffffffffffffffffffffffffffffffffffff1614156129cf576040517f08c379a00000000000000000000000000000000000000000000000000000000081526004018080602001828103825260248152602001806150cd6024913960400191505060405180910390fd5b6129da838383612e90565b6129e56000826122bd565b612a3681600160008673ffffffffffffffffffffffffffffffffffffffff1673ffffffffffffffffffffffffffffffffffffffff168152602001908152602001600020612f2190919063ffffffff16565b50612a8881600160008573ffffffffffffffffffffffffffffffffffffffff1673ffffffffffffffffffffffffffffffffffffffff168152602001908152602001600020612e9590919063ffffffff16565b50612a9f81836002612eaf9092919063ffffffff16565b50808273ffffffffffffffffffffffffffffffffffffffff168473ffffffffffffffffffffffffffffffffffffffff167fddf252ad1be2c89b69c2b068fc378daa952ba7f163c4a11628f55a4df523b3ef60405160405180910390a4505050565b6000612b0f8360000183612f3b565b60001c905092915050565b600080600080612b2d8660000186612fbe565b915091508160001c8160001c9350935050509250929050565b6000612b59846000018460001b84613057565b60001c90509392505050565b6000612b738260000161314d565b9050919050565b6001600e600083815260200190815260200160002060010160009054906101000a900463ffffffff1601600e600083815260200190815260200160002060010160006101000a81548163ffffffff021916908363ffffffff1602179055507faf98034c24425c884368b23a0ab3244e9ededc404a820522d2fc84c60ebdc6ce8282600e600085815260200190815260200160002060010160009054906101000a900463ffffffff16600e600086815260200190815260200160002060010160049054906101000a900463ffffffff16600e600087815260200190815260200160002060020154600e600088815260200190815260200160002060030154600e6000898152602001908152602001600020600401604051612ca09796959493929190614b9f565b60405180910390a15050565b612cb78484846128bd565b612cc38484848461315e565b612d18576040517f08c379a000000000000000000000000000000000000000000000000000000000815260040180806020018281038252603281526020018061509b6032913960400191505060405180910390fd5b50505050565b60606000821415612d66576040518060400160405280600181526020017f30000000000000000000000000000000000000000000000000000000000000008152509050612e60565b600082905060005b60008214612d90578080600101915050600a8281612d8857fe5b049150612d6e565b60008167ffffffffffffffff81118015612da957600080fd5b506040519080825280601f01601f191660200182016040528015612ddc5781602001600182028036833780820191505090505b50905060006001830390508593505b60008414612e5857600a8481612dfd57fe5b0660300160f81b82828060019003935081518110612e1757fe5b60200101907effffffffffffffffffffffffffffffffffffffffffffffffffffffffffffff1916908160001a905350600a8481612e5057fe5b049350612deb565b819450505050505b919050565b6000612e77836000018360001b613377565b905092915050565b600081600001805490509050919050565b505050565b6000612ea7836000018360001b61339a565b905092915050565b6000612edb846000018460001b8473ffffffffffffffffffffffffffffffffffffffff1660001b61340a565b90509392505050565b7f3fa96d7b6bcbfe71ef171666d84db3cf52fa2d1c8afdb1cc8e486177f208b7df8282604051612f15929190614a38565b60405180910390a15050565b6000612f33836000018360001b6134e6565b905092915050565b600081836000018054905011612f9c576040517f08c379a00000000000000000000000000000000000000000000000000000000081526004018080602001828103825260228152602001806150796022913960400191505060405180910390fd5b826000018281548110612fab57fe5b9060005260206000200154905092915050565b60008082846000018054905011613020576040517f08c379a00000000000000000000000000000000000000000000000000000000081526004018080602001828103825260228152602001806151ce6022913960400191505060405180910390fd5b600084600001848154811061303157fe5b906000526020600020906002020190508060000154816001015492509250509250929050565b6000808460010160008581526020019081526020016000205490506000811415839061311e576040517f08c379a00000000000000000000000000000000000000000000000000000000081526004018080602001828103825283818151815260200191508051906020019080838360005b838110156130e35780820151818401526020810190506130c8565b50505050905090810190601f1680156131105780820380516001836020036101000a031916815260200191505b509250505060405180910390fd5b5084600001600182038154811061313157fe5b9060005260206000209060020201600101549150509392505050565b600081600001805490509050919050565b600061317f8473ffffffffffffffffffffffffffffffffffffffff166135ce565b61318c576001905061336f565b60006132f663150b7a0260e01b6131a16122b5565b888787604051602401808573ffffffffffffffffffffffffffffffffffffffff1681526020018473ffffffffffffffffffffffffffffffffffffffff16815260200183815260200180602001828103825283818151815260200191508051906020019080838360005b8381101561322557808201518184015260208101905061320a565b50505050905090810190601f1680156132525780820380516001836020036101000a031916815260200191505b5095505050505050604051602081830303815290604052907bffffffffffffffffffffffffffffffffffffffffffffffffffffffff19166020820180517bffffffffffffffffffffffffffffffffffffffffffffffffffffffff838183161783525050505060405180606001604052806032815260200161509b603291398773ffffffffffffffffffffffffffffffffffffffff166135e19092919063ffffffff16565b9050600081806020019051602081101561330f57600080fd5b8101908080519060200190929190505050905063150b7a0260e01b7bffffffffffffffffffffffffffffffffffffffffffffffffffffffff1916817bffffffffffffffffffffffffffffffffffffffffffffffffffffffff191614925050505b949350505050565b600080836001016000848152602001908152602001600020541415905092915050565b60006133a683836135f9565b6133ff578260000182908060018154018082558091505060019003906000526020600020016000909190919091505582600001805490508360010160008481526020019081526020016000208190555060019050613404565b600090505b92915050565b60008084600101600085815260200190815260200160002054905060008114156134b1578460000160405180604001604052808681526020018581525090806001815401808255809150506001900390600052602060002090600202016000909190919091506000820151816000015560208201518160010155505084600001805490508560010160008681526020019081526020016000208190555060019150506134df565b828560000160018303815481106134c457fe5b90600052602060002090600202016001018190555060009150505b9392505050565b600080836001016000848152602001908152602001600020549050600081146135c2576000600182039050600060018660000180549050039050600086600001828154811061353157fe5b906000526020600020015490508087600001848154811061354e57fe5b906000526020600020018190555060018301876001016000838152602001908152602001600020819055508660000180548061358657fe5b600190038181906000526020600020016000905590558660010160008781526020019081526020016000206000905560019450505050506135c8565b60009150505b92915050565b600080823b905060008111915050919050565b60606135f0848460008561361c565b90509392505050565b600080836001016000848152602001908152602001600020541415905092915050565b606082471015613677576040517f08c379a00000000000000000000000000000000000000000000000000000000081526004018080602001828103825260268152602001806150f16026913960400191505060405180910390fd5b613680856135ce565b6136f2576040517f08c379a000000000000000000000000000000000000000000000000000000000815260040180806020018281038252601d8152602001807f416464726573733a2063616c6c20746f206e6f6e2d636f6e747261637400000081525060200191505060405180910390fd5b6000808673ffffffffffffffffffffffffffffffffffffffff1685876040518082805190602001908083835b60208310613741578051825260208201915060208101905060208303925061371e565b6001836020036101000a03801982511681845116808217855250505050505090500191505060006040518083038185875af1925050503d80600081146137a3576040519150601f19603f3d011682016040523d82523d6000602084013e6137a8565b606091505b50915091506137b88282866137c4565b92505050949350505050565b606083156137d457829050613889565b6000835111156137e75782518084602001fd5b816040517f08c379a00000000000000000000000000000000000000000000000000000000081526004018080602001828103825283818151815260200191508051906020019080838360005b8381101561384e578082015181840152602081019050613833565b50505050905090810190601f16801561387b5780820380516001836020036101000a031916815260200191505b509250505060405180910390fd5b9392505050565b6040518060e0016040528060008152602001600063ffffffff168152602001600063ffffffff1681526020016000815260200160008152602001606081526020016000151581525090565b828054600181600116156101000203166002900490600052602060002090601f0160209004810192826139115760008555613958565b82601f1061392a57805160ff1916838001178555613958565b82800160010185558215613958579182015b8281111561395757825182559160200191906001019061393c565b5b50905061396591906139d0565b5090565b6040518060800160405280600073ffffffffffffffffffffffffffffffffffffffff16815260200160008152602001606081526020016000151581525090565b60405180606001604052806000815260200160008152602001600063ffffffff1681525090565b5b808211156139e95760008160009055506001016139d1565b5090565b6000613a006139fb84614cbc565b614c8b565b9050808382526020820190508260005b85811015613a405781358501613a268882613c70565b845260208401935060208301925050600181019050613a10565b5050509392505050565b6000613a5d613a5884614ce8565b614c8b565b90508083825260208201905082856040860282011115613a7c57600080fd5b60005b85811015613aac5781613a928882613dac565b845260208401935060408301925050600181019050613a7f565b5050509392505050565b6000613ac9613ac484614d14565b614c8b565b90508083825260208201905082856020860282011115613ae857600080fd5b60005b85811015613b185781613afe8882613df8565b845260208401935060208301925050600181019050613aeb565b5050509392505050565b6000613b35613b3084614d40565b614c8b565b905082815260208101848484011115613b4d57600080fd5b613b58848285614f82565b509392505050565b6000613b73613b6e84614d70565b614c8b565b905082815260208101848484011115613b8b57600080fd5b613b96848285614f82565b509392505050565b600081359050613bad81614fd7565b92915050565b600081359050613bc281614fee565b92915050565b600082601f830112613bd957600080fd5b8135613be98482602086016139ed565b91505092915050565b600082601f830112613c0357600080fd5b8135613c13848260208601613a4a565b91505092915050565b600082601f830112613c2d57600080fd5b8135613c3d848260208601613ab6565b91505092915050565b600081359050613c5581615005565b92915050565b600081359050613c6a8161501c565b92915050565b600082601f830112613c8157600080fd5b8135613c91848260208601613b22565b91505092915050565b600082601f830112613cab57600080fd5b8135613cbb848260208601613b60565b91505092915050565b600060a08284031215613cd657600080fd5b613ce060a0614c8b565b90506000613cf084828501613df8565b600083015250602082013567ffffffffffffffff811115613d1057600080fd5b613d1c84828501613c9a565b602083015250604082013567ffffffffffffffff811115613d3c57600080fd5b613d4884828501613bf2565b604083015250606082013567ffffffffffffffff811115613d6857600080fd5b613d7484828501613bf2565b606083015250608082013567ffffffffffffffff811115613d9457600080fd5b613da084828501613bc8565b60808301525092915050565b600060408284031215613dbe57600080fd5b613dc86040614c8b565b90506000613dd884828501613bb3565b6000830152506020613dec84828501613e22565b60208301525092915050565b600081359050613e0781615033565b92915050565b600081359050613e1c8161504a565b92915050565b600081359050613e3181615061565b92915050565b600060208284031215613e4957600080fd5b6000613e5784828501613b9e565b91505092915050565b60008060408385031215613e7357600080fd5b6000613e8185828601613b9e565b9250506020613e9285828601613b9e565b9150509250929050565b600080600060608486031215613eb157600080fd5b6000613ebf86828701613b9e565b9350506020613ed086828701613b9e565b9250506040613ee186828701613df8565b9150509250925092565b60008060008060808587031215613f0157600080fd5b6000613f0f87828801613b9e565b9450506020613f2087828801613b9e565b9350506040613f3187828801613df8565b925050606085013567ffffffffffffffff811115613f4e57600080fd5b613f5a87828801613c70565b91505092959194509250565b60008060408385031215613f7957600080fd5b6000613f8785828601613b9e565b9250506020613f9885828601613c46565b9150509250929050565b60008060408385031215613fb557600080fd5b6000613fc385828601613b9e565b9250506020613fd485828601613df8565b9150509250929050565b600060208284031215613ff057600080fd5b6000613ffe84828501613c5b565b91505092915050565b6000806040838503121561401a57600080fd5b600083013567ffffffffffffffff81111561403457600080fd5b61404085828601613cc4565b925050602061405185828601613b9e565b9150509250929050565b60008060006060848603121561407057600080fd5b600084013567ffffffffffffffff81111561408a57600080fd5b61409686828701613cc4565b93505060206140a786828701613b9e565b92505060406140b886828701613bb3565b9150509250925092565b6000602082840312156140d457600080fd5b60006140e284828501613df8565b91505092915050565b600080604083850312156140fe57600080fd5b600061410c85828601613df8565b925050602083013567ffffffffffffffff81111561412957600080fd5b61413585828601613c9a565b9150509250929050565b6000806040838503121561415257600080fd5b600061416085828601613df8565b925050602061417185828601613df8565b9150509250929050565b60008060006060848603121561419057600080fd5b600061419e86828701613df8565b93505060206141af86828701613df8565b925050604084013567ffffffffffffffff8111156141cc57600080fd5b6141d886828701613c1c565b9150509250925092565b600080604083850312156141f557600080fd5b600061420385828601613df8565b925050602061421485828601613e0d565b9150509250929050565b600080600080600060a0868803121561423657600080fd5b600061424488828901613df8565b955050602061425588828901613e0d565b945050604061426688828901613df8565b935050606061427788828901613df8565b925050608086013567ffffffffffffffff81111561429457600080fd5b6142a088828901613c9a565b9150509295509295909350565b60006142b98383614455565b905092915050565b60006142cd8383614783565b60408301905092915050565b6142e281614f3a565b82525050565b6142f181614e9e565b82525050565b61430081614e9e565b82525050565b61430f81614e8c565b82525050565b600061432082614dd5565b61432a8185614e1b565b93508360208202850161433c85614da0565b8060005b85811015614378578484038952815161435985826142ad565b945061436483614e01565b925060208a01995050600181019050614340565b50829750879550505050505092915050565b600061439582614de0565b61439f8185614e2c565b93506143aa83614db0565b8060005b838110156143db5781516143c288826142c1565b97506143cd83614e0e565b9250506001810190506143ae565b5085935050505092915050565b60006143f382614de0565b6143fd8185614e3d565b935061440883614db0565b8060005b8381101561443957815161442088826142c1565b975061442b83614e0e565b92505060018101905061440c565b5085935050505092915050565b61444f81614eb0565b82525050565b600061446082614deb565b61446a8185614e4e565b935061447a818560208601614f91565b61448381614fc6565b840191505092915050565b61449781614f4c565b82525050565b60006144a882614df6565b6144b28185614e6a565b93506144c2818560208601614f91565b6144cb81614fc6565b840191505092915050565b60006144e182614df6565b6144eb8185614e7b565b93506144fb818560208601614f91565b61450481614fc6565b840191505092915050565b60008154600181166000811461452c576001811461455257614596565b607f600283041661453d8187614e7b565b955060ff198316865260208601935050614596565b600282046145608187614e7b565b955061456b85614dc0565b60005b8281101561458d5781548189015260018201915060208101905061456e565b80880195505050505b505092915050565b60006145ab601683614e7b565b91507f43616c6c6572206973206576656e74206f776e65722e000000000000000000006000830152602082019050919050565b60006145eb601083614e7b565b91507f4e6f74206576656e74206f776e65722e000000000000000000000000000000006000830152602082019050919050565b600061462b601483614e7b565b91507f4661696c656420746f2073656e642045746865720000000000000000000000006000830152602082019050919050565b600061466b601583614e7b565b91507f4576656e7420646f6573206e6f742065786973742e00000000000000000000006000830152602082019050919050565b60006146ab600083614e5f565b9150600082019050919050565b60006146c5601f83614e7b565b91507f5469636b65742063617465676f727920646f6573206e6f742065786973742e006000830152602082019050919050565b600060a08301600083015161471060008601826147b2565b5060208301518482036020860152614728828261449d565b91505060408301518482036040860152614742828261438a565b9150506060830151848203606086015261475c828261438a565b915050608083015184820360808601526147768282614315565b9150508091505092915050565b60408201600082015161479960008501826142e8565b5060208201516147ac60208501826147df565b50505050565b6147bb81614f08565b82525050565b6147ca81614f08565b82525050565b6147d981614f12565b82525050565b6147e881614f22565b82525050565b6147f781614f22565b82525050565b60006148088261469e565b9150819050919050565b60006020820190506148276000830184614306565b92915050565b600060808201905061484260008301876142f7565b61484f60208301866147c1565b818103604083015261486181856144d6565b90506148706060830184614446565b95945050505050565b600060408201905061488e60008301856142f7565b61489b60208301846147ee565b9392505050565b600060208201905081810360008301526148bc81846143e8565b905092915050565b60006020820190506148d96000830184614446565b92915050565b600060208201905081810360008301526148f981846144d6565b905092915050565b6000602082019050818103600083015261491a8161459e565b9050919050565b6000602082019050818103600083015261493a816145de565b9050919050565b6000602082019050818103600083015261495a8161461e565b9050919050565b6000602082019050818103600083015261497a8161465e565b9050919050565b6000602082019050818103600083015261499a816146b8565b9050919050565b600060408201905081810360008301526149bb81856146f8565b90506149ca60208301846142d9565b9392505050565b60006020820190506149e660008301846147c1565b92915050565b6000608082019050614a0160008301876147c1565b614a0e60208301866142d9565b614a1b60408301856147c1565b8181036060830152614a2d81846144d6565b905095945050505050565b6000604082019050614a4d60008301856147c1565b8181036020830152614a5f81846143e8565b90509392505050565b600060e082019050614a7d600083018a6147c1565b614a8a60208301896147c1565b614a97604083018861448e565b614aa460608301876147d0565b614ab160808301866147c1565b614abe60a08301856147c1565b81810360c0830152614ad081846144d6565b905098975050505050505050565b6000608082019050614af360008301876147c1565b614b0060208301866147c1565b614b0d60408301856147c1565b614b1a606083018461448e565b95945050505050565b6000608082019050614b3860008301876147c1565b614b4560208301866147c1565b614b5260408301856147c1565b614b5f60608301846147d0565b95945050505050565b6000606082019050614b7d60008301866147c1565b614b8a60208301856147c1565b614b9760408301846147d0565b949350505050565b600060e082019050614bb4600083018a6147c1565b614bc160208301896147c1565b614bce60408301886147d0565b614bdb60608301876147d0565b614be860808301866147c1565b614bf560a08301856147c1565b81810360c0830152614c07818461450f565b905098975050505050505050565b600060e082019050614c2a600083018a6147c1565b614c3760208301896147d0565b614c4460408301886147d0565b614c5160608301876147c1565b614c5e60808301866147c1565b81810360a0830152614c7081856144d6565b9050614c7f60c0830184614446565b98975050505050505050565b6000604051905081810181811067ffffffffffffffff82111715614cb257614cb1614fc4565b5b8060405250919050565b600067ffffffffffffffff821115614cd757614cd6614fc4565b5b602082029050602081019050919050565b600067ffffffffffffffff821115614d0357614d02614fc4565b5b602082029050602081019050919050565b600067ffffffffffffffff821115614d2f57614d2e614fc4565b5b602082029050602081019050919050565b600067ffffffffffffffff821115614d5b57614d5a614fc4565b5b601f19601f8301169050602081019050919050565b600067ffffffffffffffff821115614d8b57614d8a614fc4565b5b601f19601f8301169050602081019050919050565b6000819050602082019050919050565b6000819050602082019050919050565b60008190508160005260206000209050919050565b600081519050919050565b600081519050919050565b600081519050919050565b600081519050919050565b6000602082019050919050565b6000602082019050919050565b600082825260208201905092915050565b600082825260208201905092915050565b600082825260208201905092915050565b600082825260208201905092915050565b600081905092915050565b600082825260208201905092915050565b600082825260208201905092915050565b6000614e9782614ee8565b9050919050565b6000614ea982614ee8565b9050919050565b60008115159050919050565b60007fffffffff0000000000000000000000000000000000000000000000000000000082169050919050565b600073ffffffffffffffffffffffffffffffffffffffff82169050919050565b6000819050919050565b600063ffffffff82169050919050565b60006bffffffffffffffffffffffff82169050919050565b6000614f4582614f5e565b9050919050565b6000614f5782614f12565b9050919050565b6000614f6982614f70565b9050919050565b6000614f7b82614ee8565b9050919050565b82818337600083830152505050565b60005b83811015614faf578082015181840152602081019050614f94565b83811115614fbe576000848401525b50505050565bfe5b6000601f19601f8301169050919050565b614fe081614e8c565b8114614feb57600080fd5b50565b614ff781614e9e565b811461500257600080fd5b50565b61500e81614eb0565b811461501957600080fd5b50565b61502581614ebc565b811461503057600080fd5b50565b61503c81614f08565b811461504757600080fd5b50565b61505381614f12565b811461505e57600080fd5b50565b61506a81614f22565b811461507557600080fd5b5056fe456e756d657261626c655365743a20696e646578206f7574206f6620626f756e64734552433732313a207472616e7366657220746f206e6f6e20455243373231526563656976657220696d706c656d656e7465724552433732313a207472616e7366657220746f20746865207a65726f2061646472657373416464726573733a20696e73756666696369656e742062616c616e636520666f722063616c6c4552433732313a206f70657261746f7220717565727920666f72206e6f6e6578697374656e7420746f6b656e4552433732313a20617070726f76652063616c6c6572206973206e6f74206f776e6572206e6f7220617070726f76656420666f7220616c6c4552433732313a2062616c616e636520717565727920666f7220746865207a65726f20616464726573734552433732313a206f776e657220717565727920666f72206e6f6e6578697374656e7420746f6b656e456e756d657261626c654d61703a20696e646578206f7574206f6620626f756e64734552433732313a20617070726f76656420717565727920666f72206e6f6e6578697374656e7420746f6b656e4552433732313a207472616e73666572206f6620746f6b656e2074686174206973206e6f74206f776e4552433732314d657461646174613a2055524920717565727920666f72206e6f6e6578697374656e7420746f6b656e4552433732313a20617070726f76616c20746f2063757272656e74206f776e65724552433732313a207472616e736665722063616c6c6572206973206e6f74206f776e6572206e6f7220617070726f766564a264697066735822122006bbab59e11083115c09236614bc87aee7692da696123af69b133f1c4c8f139464736f6c63430007060033",
  "immutableReferences": {},
  "source": "// SPDX-License-Identifier: GNU General Public License v3.0\npragma solidity ^0.7.6;\npragma abicoder v2;\n\nimport \"@openzeppelin/contracts/token/ERC721/ERC721.sol\";\nimport \"@openzeppelin/contracts/utils/Counters.sol\";\nimport \"@rarible/royalties/contracts/impl/RoyaltiesV2Impl.sol\";\nimport \"@rarible/lazy-mint/contracts/erc-721/LibERC721LazyMint.sol\";\n\ncontract NFTicketize is ERC721 , RoyaltiesV2Impl  {\n\n    using Counters for Counters.Counter;\n    Counters.Counter private _tokenIds;\n\n    event NewEvent(uint256 id, address creator, uint256 startDate, string metadataIpfsCid);\n\n    event NewTicketCategory(uint256 eventId, uint256 id, uint32 currentMintTickets, uint32 maxTickets, uint256 ticketPrice, uint256 resellTicketValue, string metadataIpfsCid);\n    \n    event UpdateTicketCategory(uint256 eventId, uint256 id, uint32 currentMintTickets, uint32 maxTickets, uint256 ticketPrice, uint256 resellTicketValue, string metadataIpfsCid);\n    \n    event NewTicket(uint256 eventId, uint256 ticketCategoryId, uint256 id, uint32 forBid);\n\n    event UpdateTicket(uint256 eventId, uint256 ticketCategoryId, uint256 id, uint32 forBid);\n\n    struct Event {\n        address payable creator;\n        uint256 startDate;\n        string metadataIpfsCid;\n        bool exist;\n    }\n\n    struct TicketCategory {\n        uint256 eventId;\n        uint32 currentMintTickets;\n        uint32 maxTickets;\n        uint256 ticketPrice;\n        uint256 resellTicketValue;\n        string metadataIpfsCid;\n        bool exist;\n    }\n\n    struct Ticket {\n        uint256 eventId;\n        uint256 ticketCategoryId;\n        uint32 forBid;\n    }\n\n    mapping(uint256 => Event) public events;\n    uint256 eventCounter = 0;\n    \n    mapping(uint256 => TicketCategory) public ticketCategories;\n    uint256 ticketCategoryCounter = 0;\n\n    mapping(uint256 => Ticket) public tickets;\n\n    constructor() ERC721(\"NFTicketize\", \"NFTICKET\") {\n    \n    }\n\n    //Modifier to check if event exist\n    modifier eventExists(uint256 _eventId) {\n        require(events[_eventId].exist, \"Event does not exist.\");\n        _;\n    }\n\n    //Modified to check if ticket category exist \n    modifier ticketCategoryExist(uint256 _ticketCategory) {\n        require(ticketCategories[_ticketCategory].exist, \"Ticket category does not exist.\");\n        _;\n    }\n\n    //Modified to check if ticket category is for that event \n    modifier ticketCategoryEventExist(uint256 _eventId, uint256 _ticketCategory) {\n        require(ticketCategories[_ticketCategory].eventId == _eventId, \"Ticket category does not exist.\");\n        _;\n    }\n\n    // Modifier to check that the caller is the owner of event\n    modifier onlyEventOwner(uint256 _eventId) {\n        Event memory _event = events[_eventId];\n        require(msg.sender == _event.creator, \"Not event owner.\");\n        _;\n    }\n\n    // Modifier to check that the caller is not the owner of event\n    modifier isNotEventOwner(uint256 _eventId) {\n        Event memory _event = events[_eventId];\n        require(msg.sender != _event.creator, \"Caller is event owner.\");\n        _;\n    }\n\n    // Update ticket number\n    function updateTicketCategoryNewTicket(uint256 _eventId, uint256 _ticketCategoryId) internal {\n        ticketCategories[_ticketCategoryId].currentMintTickets = ticketCategories[_ticketCategoryId].currentMintTickets + 1;\n        emit UpdateTicketCategory(_eventId, _ticketCategoryId, ticketCategories[_ticketCategoryId].currentMintTickets, \n                ticketCategories[_ticketCategoryId].maxTickets,ticketCategories[_ticketCategoryId].ticketPrice, \n                ticketCategories[_ticketCategoryId].resellTicketValue, ticketCategories[_ticketCategoryId].metadataIpfsCid);\n    }\n\n/*\n    function initialize() initializer public {\n       __ERC721_init(\"NFTicketize\", \"NFTICKET\");\n    }*/\n\n    // Create new event\n    function createEvent(uint256 _startDate, string memory _metadataIpfsCid) public {\n        uint256 currentEventCounter = eventCounter;\n        Event memory _event;\n        _event.creator = msg.sender;\n        _event.startDate = _startDate;\n        _event.metadataIpfsCid = _metadataIpfsCid;\n        _event.exist = true;\n        events[currentEventCounter] = _event;\n        eventCounter++;\n        \n        emit NewEvent(currentEventCounter, msg.sender, _startDate, _metadataIpfsCid);\n    }\n\n    // Create new ticket category\n    function createTicketCategory(uint256 _eventId, \n            uint32 _maxTickets, \n            uint256 _ticketPrice, \n            uint256 _resellTicketValue, \n            string memory _metadataIpfsCid\n    ) public \n            eventExists(_eventId) \n            onlyEventOwner(_eventId) {\n        uint256 currentTicketCategoryCounter = ticketCategoryCounter;\n        TicketCategory memory _ticketCategory;\n        _ticketCategory.eventId = _eventId;\n        _ticketCategory.currentMintTickets = 0;\n        _ticketCategory.maxTickets = _maxTickets;\n        _ticketCategory.ticketPrice = _ticketPrice;\n        _ticketCategory.resellTicketValue = _resellTicketValue;\n        _ticketCategory.metadataIpfsCid = _metadataIpfsCid;\n        _ticketCategory.exist = true;\n        ticketCategories[currentTicketCategoryCounter] = _ticketCategory;\n        ticketCategoryCounter++;\n        \n        emit NewTicketCategory(_eventId, currentTicketCategoryCounter, 0, _maxTickets, _ticketPrice, _resellTicketValue, _metadataIpfsCid);\n    }\n\n    function fillInformationsAboutTicket(\n            uint256 _eventId,\n            uint256 _ticketCategoryId,\n            uint256[] memory _tokenIdsForMint\n    ) external payable \n            eventExists(_eventId) \n            ticketCategoryExist(_ticketCategoryId)\n            ticketCategoryEventExist(_eventId, _ticketCategoryId)\n            isNotEventOwner(_eventId) {\n\n        (bool sent, bytes memory data) = events[_eventId].creator.call{value: msg.value}(\"\");\n        require(sent, \"Failed to send Ether\");\n\n        for (uint counter = 0; counter < _tokenIdsForMint.length; counter++) {\n            Ticket memory _ticket;\n            _ticket.eventId = _eventId;\n            _ticket.ticketCategoryId = _ticketCategoryId;\n            _ticket.forBid = 0;\n            tickets[_tokenIdsForMint[counter]] = _ticket;\n            emit NewTicket(_eventId, _ticketCategoryId, _tokenIdsForMint[counter], 0);\n            \n            //Update current tickets for ticketCategory\n            updateTicketCategoryNewTicket(_eventId, _ticketCategoryId);\n        }\n    }\n    \n     function mintAndTransfer(\n        LibERC721LazyMint.Mint721Data memory data,\n        address to\n    ) external {\n        _mint(to, data.tokenId);\n        _saveRoyalties(data.tokenId, data.royalties);\n    }\n    \n    function transferFromOrMint(\n        LibERC721LazyMint.Mint721Data memory _data,\n        address _from,\n        address payable _to\n    ) external {\n        if (_exists(_data.tokenId)) {\n            safeTransferFrom(_from, _to, _data.tokenId);\n        } else {\n            this.mintAndTransfer(_data, _to);\n        }\n    }\n\n    function setTicketForBid(uint256 _tokenId, uint32 _value) public {\n        Ticket memory _ticket = tickets[_tokenId];\n        _ticket.forBid = _value;\n        tickets[_tokenId] = _ticket;\n\n        emit UpdateTicket(_ticket.eventId, _ticket.ticketCategoryId, _tokenId, _value);\n    }\n}",
  "sourcePath": "D:/Posao - Stefan/Stefan - razno/Gitcoin/Hackathon - Rarible/NFTicketize/contracts/NFTicketize.sol",
  "compiler": {
    "name": "solc",
    "version": "0.7.6+commit.7338295f.Emscripten.clang"
  },
  "schemaVersion": "3.4.1",
  "updatedAt": "2021-07-04T18:22:33.939Z",
  "devdoc": {
    "kind": "dev",
    "methods": {
      "approve(address,uint256)": {
        "details": "See {IERC721-approve}."
      },
      "balanceOf(address)": {
        "details": "See {IERC721-balanceOf}."
      },
      "baseURI()": {
        "details": "Returns the base URI set via {_setBaseURI}. This will be automatically added as a prefix in {tokenURI} to each token's URI, or to the token ID if no specific URI is set for that token ID."
      },
      "getApproved(uint256)": {
        "details": "See {IERC721-getApproved}."
      },
      "isApprovedForAll(address,address)": {
        "details": "See {IERC721-isApprovedForAll}."
      },
      "name()": {
        "details": "See {IERC721Metadata-name}."
      },
      "ownerOf(uint256)": {
        "details": "See {IERC721-ownerOf}."
      },
      "safeTransferFrom(address,address,uint256)": {
        "details": "See {IERC721-safeTransferFrom}."
      },
      "safeTransferFrom(address,address,uint256,bytes)": {
        "details": "See {IERC721-safeTransferFrom}."
      },
      "setApprovalForAll(address,bool)": {
        "details": "See {IERC721-setApprovalForAll}."
      },
      "supportsInterface(bytes4)": {
        "details": "See {IERC165-supportsInterface}. Time complexity O(1), guaranteed to always use less than 30 000 gas."
      },
      "symbol()": {
        "details": "See {IERC721Metadata-symbol}."
      },
      "tokenByIndex(uint256)": {
        "details": "See {IERC721Enumerable-tokenByIndex}."
      },
      "tokenOfOwnerByIndex(address,uint256)": {
        "details": "See {IERC721Enumerable-tokenOfOwnerByIndex}."
      },
      "tokenURI(uint256)": {
        "details": "See {IERC721Metadata-tokenURI}."
      },
      "totalSupply()": {
        "details": "See {IERC721Enumerable-totalSupply}."
      },
      "transferFrom(address,address,uint256)": {
        "details": "See {IERC721-transferFrom}."
      }
    },
    "version": 1
  },
  "userdoc": {
    "kind": "user",
    "methods": {},
    "version": 1
  }
}