{
  "contractName": "ERC721Rarible",
  "abi": [
    {
      "anonymous": false,
      "inputs": [
        {
          "indexed": true,
          "internalType": "address",
          "name": "owner",
          "type": "address"
        },
        {
          "indexed": true,
          "internalType": "address",
          "name": "approved",
          "type": "address"
        },
        {
          "indexed": true,
          "internalType": "uint256",
          "name": "tokenId",
          "type": "uint256"
        }
      ],
      "name": "Approval",
      "type": "event"
    },
    {
      "anonymous": false,
      "inputs": [
        {
          "indexed": true,
          "internalType": "address",
          "name": "owner",
          "type": "address"
        },
        {
          "indexed": true,
          "internalType": "address",
          "name": "operator",
          "type": "address"
        },
        {
          "indexed": false,
          "internalType": "bool",
          "name": "approved",
          "type": "bool"
        }
      ],
      "name": "ApprovalForAll",
      "type": "event"
    },
    {
      "anonymous": false,
      "inputs": [
        {
          "indexed": false,
          "internalType": "address",
          "name": "owner",
          "type": "address"
        },
        {
          "indexed": false,
          "internalType": "string",
          "name": "name",
          "type": "string"
        },
        {
          "indexed": false,
          "internalType": "string",
          "name": "symbol",
          "type": "string"
        }
      ],
      "name": "CreateERC721Rarible",
      "type": "event"
    },
    {
      "anonymous": false,
      "inputs": [
        {
          "indexed": true,
          "internalType": "address",
          "name": "operator",
          "type": "address"
        },
        {
          "indexed": false,
          "internalType": "bool",
          "name": "hasApproval",
          "type": "bool"
        }
      ],
      "name": "DefaultApproval",
      "type": "event"
    },
    {
      "anonymous": false,
      "inputs": [
        {
          "indexed": false,
          "internalType": "uint256",
          "name": "tokenId",
          "type": "uint256"
        },
        {
          "indexed": false,
          "internalType": "string",
          "name": "uri",
          "type": "string"
        },
        {
          "components": [
            {
              "internalType": "address payable",
              "name": "account",
              "type": "address"
            },
            {
              "internalType": "uint96",
              "name": "value",
              "type": "uint96"
            }
          ],
          "indexed": false,
          "internalType": "struct LibPart.Part[]",
          "name": "creators",
          "type": "tuple[]"
        }
      ],
      "name": "Mint",
      "type": "event"
    },
    {
      "anonymous": false,
      "inputs": [
        {
          "indexed": true,
          "internalType": "address",
          "name": "previousOwner",
          "type": "address"
        },
        {
          "indexed": true,
          "internalType": "address",
          "name": "newOwner",
          "type": "address"
        }
      ],
      "name": "OwnershipTransferred",
      "type": "event"
    },
    {
      "anonymous": false,
      "inputs": [
        {
          "indexed": false,
          "internalType": "uint256",
          "name": "tokenId",
          "type": "uint256"
        },
        {
          "components": [
            {
              "internalType": "address payable",
              "name": "account",
              "type": "address"
            },
            {
              "internalType": "uint96",
              "name": "value",
              "type": "uint96"
            }
          ],
          "indexed": false,
          "internalType": "struct LibPart.Part[]",
          "name": "royalties",
          "type": "tuple[]"
        }
      ],
      "name": "RoyaltiesSet",
      "type": "event"
    },
    {
      "anonymous": false,
      "inputs": [
        {
          "indexed": true,
          "internalType": "address",
          "name": "from",
          "type": "address"
        },
        {
          "indexed": true,
          "internalType": "address",
          "name": "to",
          "type": "address"
        },
        {
          "indexed": true,
          "internalType": "uint256",
          "name": "tokenId",
          "type": "uint256"
        }
      ],
      "name": "Transfer",
      "type": "event"
    },
    {
      "inputs": [
        {
          "internalType": "address",
          "name": "to",
          "type": "address"
        },
        {
          "internalType": "uint256",
          "name": "tokenId",
          "type": "uint256"
        }
      ],
      "name": "approve",
      "outputs": [],
      "stateMutability": "nonpayable",
      "type": "function"
    },
    {
      "inputs": [
        {
          "internalType": "address",
          "name": "owner",
          "type": "address"
        }
      ],
      "name": "balanceOf",
      "outputs": [
        {
          "internalType": "uint256",
          "name": "",
          "type": "uint256"
        }
      ],
      "stateMutability": "view",
      "type": "function"
    },
    {
      "inputs": [],
      "name": "baseURI",
      "outputs": [
        {
          "internalType": "string",
          "name": "",
          "type": "string"
        }
      ],
      "stateMutability": "view",
      "type": "function"
    },
    {
      "inputs": [
        {
          "internalType": "uint256",
          "name": "tokenId",
          "type": "uint256"
        }
      ],
      "name": "burn",
      "outputs": [],
      "stateMutability": "nonpayable",
      "type": "function"
    },
    {
      "inputs": [],
      "name": "contractURI",
      "outputs": [
        {
          "internalType": "string",
          "name": "",
          "type": "string"
        }
      ],
      "stateMutability": "view",
      "type": "function"
    },
    {
      "inputs": [
        {
          "internalType": "uint256",
          "name": "tokenId",
          "type": "uint256"
        }
      ],
      "name": "getApproved",
      "outputs": [
        {
          "internalType": "address",
          "name": "",
          "type": "address"
        }
      ],
      "stateMutability": "view",
      "type": "function"
    },
    {
      "inputs": [
        {
          "internalType": "uint256",
          "name": "_id",
          "type": "uint256"
        }
      ],
      "name": "getCreators",
      "outputs": [
        {
          "components": [
            {
              "internalType": "address payable",
              "name": "account",
              "type": "address"
            },
            {
              "internalType": "uint96",
              "name": "value",
              "type": "uint96"
            }
          ],
          "internalType": "struct LibPart.Part[]",
          "name": "",
          "type": "tuple[]"
        }
      ],
      "stateMutability": "view",
      "type": "function"
    },
    {
      "inputs": [
        {
          "internalType": "uint256",
          "name": "id",
          "type": "uint256"
        }
      ],
      "name": "getRoyalties",
      "outputs": [
        {
          "components": [
            {
              "internalType": "address payable",
              "name": "account",
              "type": "address"
            },
            {
              "internalType": "uint96",
              "name": "value",
              "type": "uint96"
            }
          ],
          "internalType": "struct LibPart.Part[]",
          "name": "",
          "type": "tuple[]"
        }
      ],
      "stateMutability": "view",
      "type": "function"
    },
    {
      "inputs": [
        {
          "internalType": "address",
          "name": "owner",
          "type": "address"
        },
        {
          "internalType": "address",
          "name": "operator",
          "type": "address"
        }
      ],
      "name": "isApprovedForAll",
      "outputs": [
        {
          "internalType": "bool",
          "name": "",
          "type": "bool"
        }
      ],
      "stateMutability": "view",
      "type": "function"
    },
    {
      "inputs": [
        {
          "components": [
            {
              "internalType": "uint256",
              "name": "tokenId",
              "type": "uint256"
            },
            {
              "internalType": "string",
              "name": "uri",
              "type": "string"
            },
            {
              "components": [
                {
                  "internalType": "address payable",
                  "name": "account",
                  "type": "address"
                },
                {
                  "internalType": "uint96",
                  "name": "value",
                  "type": "uint96"
                }
              ],
              "internalType": "struct LibPart.Part[]",
              "name": "creators",
              "type": "tuple[]"
            },
            {
              "components": [
                {
                  "internalType": "address payable",
                  "name": "account",
                  "type": "address"
                },
                {
                  "internalType": "uint96",
                  "name": "value",
                  "type": "uint96"
                }
              ],
              "internalType": "struct LibPart.Part[]",
              "name": "royalties",
              "type": "tuple[]"
            },
            {
              "internalType": "bytes[]",
              "name": "signatures",
              "type": "bytes[]"
            }
          ],
          "internalType": "struct LibERC721LazyMint.Mint721Data",
          "name": "data",
          "type": "tuple"
        },
        {
          "internalType": "address",
          "name": "to",
          "type": "address"
        }
      ],
      "name": "mintAndTransfer",
      "outputs": [],
      "stateMutability": "nonpayable",
      "type": "function"
    },
    {
      "inputs": [],
      "name": "name",
      "outputs": [
        {
          "internalType": "string",
          "name": "",
          "type": "string"
        }
      ],
      "stateMutability": "view",
      "type": "function"
    },
    {
      "inputs": [],
      "name": "owner",
      "outputs": [
        {
          "internalType": "address",
          "name": "",
          "type": "address"
        }
      ],
      "stateMutability": "view",
      "type": "function"
    },
    {
      "inputs": [
        {
          "internalType": "uint256",
          "name": "tokenId",
          "type": "uint256"
        }
      ],
      "name": "ownerOf",
      "outputs": [
        {
          "internalType": "address",
          "name": "",
          "type": "address"
        }
      ],
      "stateMutability": "view",
      "type": "function"
    },
    {
      "inputs": [],
      "name": "renounceOwnership",
      "outputs": [],
      "stateMutability": "nonpayable",
      "type": "function"
    },
    {
      "inputs": [
        {
          "internalType": "uint256",
          "name": "",
          "type": "uint256"
        },
        {
          "internalType": "uint256",
          "name": "",
          "type": "uint256"
        }
      ],
      "name": "royalties",
      "outputs": [
        {
          "internalType": "address payable",
          "name": "account",
          "type": "address"
        },
        {
          "internalType": "uint96",
          "name": "value",
          "type": "uint96"
        }
      ],
      "stateMutability": "view",
      "type": "function"
    },
    {
      "inputs": [
        {
          "internalType": "address",
          "name": "from",
          "type": "address"
        },
        {
          "internalType": "address",
          "name": "to",
          "type": "address"
        },
        {
          "internalType": "uint256",
          "name": "tokenId",
          "type": "uint256"
        }
      ],
      "name": "safeTransferFrom",
      "outputs": [],
      "stateMutability": "nonpayable",
      "type": "function"
    },
    {
      "inputs": [
        {
          "internalType": "address",
          "name": "from",
          "type": "address"
        },
        {
          "internalType": "address",
          "name": "to",
          "type": "address"
        },
        {
          "internalType": "uint256",
          "name": "tokenId",
          "type": "uint256"
        },
        {
          "internalType": "bytes",
          "name": "_data",
          "type": "bytes"
        }
      ],
      "name": "safeTransferFrom",
      "outputs": [],
      "stateMutability": "nonpayable",
      "type": "function"
    },
    {
      "inputs": [
        {
          "internalType": "address",
          "name": "operator",
          "type": "address"
        },
        {
          "internalType": "bool",
          "name": "approved",
          "type": "bool"
        }
      ],
      "name": "setApprovalForAll",
      "outputs": [],
      "stateMutability": "nonpayable",
      "type": "function"
    },
    {
      "inputs": [
        {
          "internalType": "address",
          "name": "operator",
          "type": "address"
        },
        {
          "internalType": "bool",
          "name": "hasApproval",
          "type": "bool"
        }
      ],
      "name": "setDefaultApproval",
      "outputs": [],
      "stateMutability": "nonpayable",
      "type": "function"
    },
    {
      "inputs": [
        {
          "internalType": "bytes4",
          "name": "interfaceId",
          "type": "bytes4"
        }
      ],
      "name": "supportsInterface",
      "outputs": [
        {
          "internalType": "bool",
          "name": "",
          "type": "bool"
        }
      ],
      "stateMutability": "view",
      "type": "function"
    },
    {
      "inputs": [],
      "name": "symbol",
      "outputs": [
        {
          "internalType": "string",
          "name": "",
          "type": "string"
        }
      ],
      "stateMutability": "view",
      "type": "function"
    },
    {
      "inputs": [
        {
          "internalType": "uint256",
          "name": "index",
          "type": "uint256"
        }
      ],
      "name": "tokenByIndex",
      "outputs": [
        {
          "internalType": "uint256",
          "name": "",
          "type": "uint256"
        }
      ],
      "stateMutability": "view",
      "type": "function"
    },
    {
      "inputs": [
        {
          "internalType": "address",
          "name": "owner",
          "type": "address"
        },
        {
          "internalType": "uint256",
          "name": "index",
          "type": "uint256"
        }
      ],
      "name": "tokenOfOwnerByIndex",
      "outputs": [
        {
          "internalType": "uint256",
          "name": "",
          "type": "uint256"
        }
      ],
      "stateMutability": "view",
      "type": "function"
    },
    {
      "inputs": [
        {
          "internalType": "uint256",
          "name": "tokenId",
          "type": "uint256"
        }
      ],
      "name": "tokenURI",
      "outputs": [
        {
          "internalType": "string",
          "name": "",
          "type": "string"
        }
      ],
      "stateMutability": "view",
      "type": "function"
    },
    {
      "inputs": [],
      "name": "totalSupply",
      "outputs": [
        {
          "internalType": "uint256",
          "name": "",
          "type": "uint256"
        }
      ],
      "stateMutability": "view",
      "type": "function"
    },
    {
      "inputs": [
        {
          "internalType": "address",
          "name": "from",
          "type": "address"
        },
        {
          "internalType": "address",
          "name": "to",
          "type": "address"
        },
        {
          "internalType": "uint256",
          "name": "tokenId",
          "type": "uint256"
        }
      ],
      "name": "transferFrom",
      "outputs": [],
      "stateMutability": "nonpayable",
      "type": "function"
    },
    {
      "inputs": [
        {
          "components": [
            {
              "internalType": "uint256",
              "name": "tokenId",
              "type": "uint256"
            },
            {
              "internalType": "string",
              "name": "uri",
              "type": "string"
            },
            {
              "components": [
                {
                  "internalType": "address payable",
                  "name": "account",
                  "type": "address"
                },
                {
                  "internalType": "uint96",
                  "name": "value",
                  "type": "uint96"
                }
              ],
              "internalType": "struct LibPart.Part[]",
              "name": "creators",
              "type": "tuple[]"
            },
            {
              "components": [
                {
                  "internalType": "address payable",
                  "name": "account",
                  "type": "address"
                },
                {
                  "internalType": "uint96",
                  "name": "value",
                  "type": "uint96"
                }
              ],
              "internalType": "struct LibPart.Part[]",
              "name": "royalties",
              "type": "tuple[]"
            },
            {
              "internalType": "bytes[]",
              "name": "signatures",
              "type": "bytes[]"
            }
          ],
          "internalType": "struct LibERC721LazyMint.Mint721Data",
          "name": "data",
          "type": "tuple"
        },
        {
          "internalType": "address",
          "name": "from",
          "type": "address"
        },
        {
          "internalType": "address",
          "name": "to",
          "type": "address"
        }
      ],
      "name": "transferFromOrMint",
      "outputs": [],
      "stateMutability": "nonpayable",
      "type": "function"
    },
    {
      "inputs": [
        {
          "internalType": "address",
          "name": "newOwner",
          "type": "address"
        }
      ],
      "name": "transferOwnership",
      "outputs": [],
      "stateMutability": "nonpayable",
      "type": "function"
    },
    {
      "inputs": [
        {
          "internalType": "uint256",
          "name": "_id",
          "type": "uint256"
        },
        {
          "internalType": "address",
          "name": "_from",
          "type": "address"
        },
        {
          "internalType": "address",
          "name": "_to",
          "type": "address"
        }
      ],
      "name": "updateAccount",
      "outputs": [],
      "stateMutability": "nonpayable",
      "type": "function"
    },
    {
      "inputs": [
        {
          "internalType": "string",
          "name": "_name",
          "type": "string"
        },
        {
          "internalType": "string",
          "name": "_symbol",
          "type": "string"
        },
        {
          "internalType": "string",
          "name": "baseURI",
          "type": "string"
        },
        {
          "internalType": "string",
          "name": "contractURI",
          "type": "string"
        }
      ],
      "name": "__ERC721Rarible_init",
      "outputs": [],
      "stateMutability": "nonpayable",
      "type": "function"
    }
  ],
  "bytecode": "0x608060405234801561001057600080fd5b5061670f80620000216000396000f3fe608060405234801561001057600080fd5b50600436106101da5760003560e01c806370a0823111610104578063a22cb465116100a2578063e07f231911610071578063e07f231914610578578063e8a3d48514610594578063e985e9c5146105b2578063f2fde38b146105e2576101da565b8063a22cb465146104e0578063b88d4fde146104fc578063bb3bafd614610518578063c87b56dd14610548576101da565b8063891be974116100de578063891be974146104435780638924af74146104735780638da5cb5b146104a457806395d89b41146104c2576101da565b806370a08231146103ed578063715018a61461041d578063832fbb2914610427576101da565b806323b872dd1161017c57806342966c681161014b57806342966c68146103535780634f6ccce71461036f5780636352211e1461039f5780636c0360eb146103cf576101da565b806323b872dd146102cf5780632a839963146102eb5780632f745c591461030757806342842e0e14610337576101da565b8063095ea7b3116101b8578063095ea7b31461025d57806318054c371461027957806318160ddd1461029557806322a775b6146102b3576101da565b806301ffc9a7146101df57806306fdde031461020f578063081812fc1461022d575b600080fd5b6101f960048036038101906101f491906158d0565b6105fe565b6040516102069190615ec7565b60405180910390f35b610217610666565b6040516102249190615ee2565b60405180910390f35b61024760048036038101906102429190615a77565b610708565b6040516102549190615e1c565b60405180910390f35b61027760048036038101906102729190615894565b6107a3565b005b610293600480360381019061028e9190615858565b6108e7565b005b61029d6109a4565b6040516102aa9190615f64565b60405180910390f35b6102cd60048036038101906102c891906159bc565b6109b5565b005b6102e960048036038101906102e4919061578e565b610cde565b005b610305600480360381019061030091906158f9565b610d54565b005b610321600480360381019061031c9190615894565b610eec565b60405161032e9190615f64565b60405180910390f35b610351600480360381019061034c919061578e565b610f47565b005b61036d60048036038101906103689190615a77565b610f67565b005b61038960048036038101906103849190615a77565b610fd9565b6040516103969190615f64565b60405180910390f35b6103b960048036038101906103b49190615a77565b610ffc565b6040516103c69190615e1c565b60405180910390f35b6103d7611033565b6040516103e49190615ee2565b60405180910390f35b61040760048036038101906104029190615729565b6110d5565b6040516104149190615f64565b60405180910390f35b6104256111aa565b005b610441600480360381019061043c9190615a10565b61131a565b005b61045d60048036038101906104589190615a77565b611350565b60405161046a9190615ea5565b60405180910390f35b61048d60048036038101906104889190615aef565b611453565b60405161049b929190615e7c565b60405180910390f35b6104ac6114c9565b6040516104b99190615e1c565b60405180910390f35b6104ca6114f3565b6040516104d79190615ee2565b60405180910390f35b6104fa60048036038101906104f59190615858565b611595565b005b610516600480360381019061051191906157dd565b61174b565b005b610532600480360381019061052d9190615a77565b6117c3565b60405161053f9190615ea5565b60405180910390f35b610562600480360381019061055d9190615a77565b6118c6565b60405161056f9190615ee2565b60405180910390f35b610592600480360381019061058d9190615aa0565b611b97565b005b61059c611c1c565b6040516105a99190615ee2565b60405180910390f35b6105cc60048036038101906105c79190615752565b611cbb565b6040516105d99190615ec7565b60405180910390f35b6105fc60048036038101906105f79190615729565b611ccf565b005b600060656000837bffffffffffffffffffffffffffffffffffffffffffffffffffffffff19167bffffffffffffffffffffffffffffffffffffffffffffffffffffffff1916815260200190815260200160002060009054906101000a900460ff169050919050565b6060609c8054600181600116156101000203166002900480601f0160208091040260200160405190810160405280929190818152602001828054600181600116156101000203166002900480156106fe5780601f106106d3576101008083540402835291602001916106fe565b820191906000526020600020905b8154815290600101906020018083116106e157829003601f168201915b5050505050905090565b600061071382611ec4565b610768576040517f08c379a000000000000000000000000000000000000000000000000000000000815260040180806020018281038252602c8152602001806165a8602c913960400191505060405180910390fd5b609a600083815260200190815260200160002060009054906101000a900473ffffffffffffffffffffffffffffffffffffffff169050919050565b60006107ae82610ffc565b90508073ffffffffffffffffffffffffffffffffffffffff168373ffffffffffffffffffffffffffffffffffffffff161415610835576040517f08c379a00000000000000000000000000000000000000000000000000000000081526004018080602001828103825260218152602001806166586021913960400191505060405180910390fd5b8073ffffffffffffffffffffffffffffffffffffffff16610854611ee1565b73ffffffffffffffffffffffffffffffffffffffff16148061088357506108828161087d611ee1565b611ee9565b5b6108d8576040517f08c379a00000000000000000000000000000000000000000000000000000000081526004018080602001828103825260388152602001806164ab6038913960400191505060405180910390fd5b6108e28383611f7d565b505050565b6108ef611ee1565b73ffffffffffffffffffffffffffffffffffffffff1661090d6114c9565b73ffffffffffffffffffffffffffffffffffffffff1614610996576040517f08c379a00000000000000000000000000000000000000000000000000000000081526004018080602001828103825260208152602001807f4f776e61626c653a2063616c6c6572206973206e6f7420746865206f776e657281525060200191505060405180910390fd5b6109a08282612036565b5050565b60006109b060986120e1565b905090565b600060608360000151901c905060006109cc611ee1565b905083604001516000815181106109df57fe5b60200260200101516000015173ffffffffffffffffffffffffffffffffffffffff168273ffffffffffffffffffffffffffffffffffffffff1614610a58576040517f08c379a0000000000000000000000000000000000000000000000000000000008152600401610a4f90615f04565b60405180910390fd5b83608001515184604001515114610a6e57600080fd5b8073ffffffffffffffffffffffffffffffffffffffff168273ffffffffffffffffffffffffffffffffffffffff161480610aae5750610aad8282611cbb565b5b610aed576040517f08c379a0000000000000000000000000000000000000000000000000000000008152600401610ae490615f44565b60405180910390fd5b60005b846040015151811015610b6957600085604001518281518110610b0f57fe5b60200260200101516000015190508273ffffffffffffffffffffffffffffffffffffffff168173ffffffffffffffffffffffffffffffffffffffff1614610b5b57610b5a86836120f6565b5b508080600101915050610af0565b50610b7883856000015161213f565b610b8a84600001518560200151612333565b610b9c846000015185606001516123bd565b60006101c7600086600001518152602001908152602001600020905060005b856040015151811015610c93578186604001518281518110610bd957fe5b60200260200101519080600181540180825580915050600190039060005260206000200160009091909190915060008201518160000160006101000a81548173ffffffffffffffffffffffffffffffffffffffff021916908373ffffffffffffffffffffffffffffffffffffffff16021790555060208201518160000160146101000a8154816bffffffffffffffffffffffff02191690836bffffffffffffffffffffffff16021790555050508080600101915050610bbb565b507fcb10f3b697f9095d6743bc3598a9bb59bf489e1bc755aa78ab0483fae5776db08560000151866020015183604051610ccf93929190615faf565b60405180910390a15050505050565b610cef610ce9611ee1565b82612608565b610d44576040517f08c379a00000000000000000000000000000000000000000000000000000000081526004018080602001828103825260318152602001806166796031913960400191505060405180910390fd5b610d4f83838361261c565b505050565b600060019054906101000a900460ff1680610d735750610d7261285f565b5b80610d89575060008054906101000a900460ff16155b610dde576040517f08c379a000000000000000000000000000000000000000000000000000000000815260040180806020018281038252602e815260200180616536602e913960400191505060405180910390fd5b60008060019054906101000a900460ff161590508015610e2e576001600060016101000a81548160ff02191690831515021790555060016000806101000a81548160ff0219169083151502179055505b610e3783612870565b610e3f61288a565b610e47612998565b610e4f612aa6565b610e57612ba4565b610e5f612cb2565b610e67612e59565b610e6f612f57565b610e78826130c9565b610e8285856131f0565b7ff05e55f0a9d205977ca8cc02236338b6a361376f404cf0b3019b2111964a01fd610eab611ee1565b8686604051610ebc93929190615e37565b60405180910390a18015610ee55760008060016101000a81548160ff0219169083151502179055505b5050505050565b6000610f3f82609760008673ffffffffffffffffffffffffffffffffffffffff1673ffffffffffffffffffffffffffffffffffffffff16815260200190815260200160002061334e90919063ffffffff16565b905092915050565b610f628383836040518060200160405280600081525061174b565b505050565b610f78610f72611ee1565b82612608565b610fcd576040517f08c379a00000000000000000000000000000000000000000000000000000000081526004018080602001828103825260308152602001806166aa6030913960400191505060405180910390fd5b610fd681613368565b50565b600080610ff08360986134a290919063ffffffff16565b50905080915050919050565b600061102c8260405180606001604052806029815260200161650d6029913960986134ce9092919063ffffffff16565b9050919050565b6060609f8054600181600116156101000203166002900480601f0160208091040260200160405190810160405280929190818152602001828054600181600116156101000203166002900480156110cb5780601f106110a0576101008083540402835291602001916110cb565b820191906000526020600020905b8154815290600101906020018083116110ae57829003601f168201915b5050505050905090565b60008073ffffffffffffffffffffffffffffffffffffffff168273ffffffffffffffffffffffffffffffffffffffff16141561115c576040517f08c379a000000000000000000000000000000000000000000000000000000000815260040180806020018281038252602a8152602001806164e3602a913960400191505060405180910390fd5b6111a3609760008473ffffffffffffffffffffffffffffffffffffffff1673ffffffffffffffffffffffffffffffffffffffff1681526020019081526020016000206134ed565b9050919050565b6111b2611ee1565b73ffffffffffffffffffffffffffffffffffffffff166111d06114c9565b73ffffffffffffffffffffffffffffffffffffffff1614611259576040517f08c379a00000000000000000000000000000000000000000000000000000000081526004018080602001828103825260208152602001807f4f776e61626c653a2063616c6c6572206973206e6f7420746865206f776e657281525060200191505060405180910390fd5b600073ffffffffffffffffffffffffffffffffffffffff16603360009054906101000a900473ffffffffffffffffffffffffffffffffffffffff1673ffffffffffffffffffffffffffffffffffffffff167f8be0079c531659141344cd1fd0a4f28419497f9722a3daafe3b4186f6b6457e060405160405180910390a36000603360006101000a81548173ffffffffffffffffffffffffffffffffffffffff021916908373ffffffffffffffffffffffffffffffffffffffff160217905550565b6113278360000151611ec4565b156113405761133b82828560000151610f47565b61134b565b61134a83826109b5565b5b505050565b60606101c76000838152602001908152602001600020805480602002602001604051908101604052809291908181526020016000905b82821015611448578382906000526020600020016040518060400160405290816000820160009054906101000a900473ffffffffffffffffffffffffffffffffffffffff1673ffffffffffffffffffffffffffffffffffffffff1673ffffffffffffffffffffffffffffffffffffffff1681526020016000820160149054906101000a90046bffffffffffffffffffffffff166bffffffffffffffffffffffff166bffffffffffffffffffffffff168152505081526020019060010190611386565b505050509050919050565b6101c6602052816000526040600020818154811061147057600080fd5b90600052602060002001600091509150508060000160009054906101000a900473ffffffffffffffffffffffffffffffffffffffff16908060000160149054906101000a90046bffffffffffffffffffffffff16905082565b6000603360009054906101000a900473ffffffffffffffffffffffffffffffffffffffff16905090565b6060609d8054600181600116156101000203166002900480601f01602080910402602001604051908101604052809291908181526020018280546001816001161561010002031660029004801561158b5780601f106115605761010080835404028352916020019161158b565b820191906000526020600020905b81548152906001019060200180831161156e57829003601f168201915b5050505050905090565b61159d611ee1565b73ffffffffffffffffffffffffffffffffffffffff168273ffffffffffffffffffffffffffffffffffffffff16141561163e576040517f08c379a00000000000000000000000000000000000000000000000000000000081526004018080602001828103825260198152602001807f4552433732313a20617070726f766520746f2063616c6c65720000000000000081525060200191505060405180910390fd5b80609b600061164b611ee1565b73ffffffffffffffffffffffffffffffffffffffff1673ffffffffffffffffffffffffffffffffffffffff16815260200190815260200160002060008473ffffffffffffffffffffffffffffffffffffffff1673ffffffffffffffffffffffffffffffffffffffff16815260200190815260200160002060006101000a81548160ff0219169083151502179055508173ffffffffffffffffffffffffffffffffffffffff166116f8611ee1565b73ffffffffffffffffffffffffffffffffffffffff167f17307eab39ab6107e8899845ad3d59bd9653f200f220920489ca2b5937696c318360405180821515815260200191505060405180910390a35050565b61175c611756611ee1565b83612608565b6117b1576040517f08c379a00000000000000000000000000000000000000000000000000000000081526004018080602001828103825260318152602001806166796031913960400191505060405180910390fd5b6117bd84848484613502565b50505050565b60606101c66000838152602001908152602001600020805480602002602001604051908101604052809291908181526020016000905b828210156118bb578382906000526020600020016040518060400160405290816000820160009054906101000a900473ffffffffffffffffffffffffffffffffffffffff1673ffffffffffffffffffffffffffffffffffffffff1673ffffffffffffffffffffffffffffffffffffffff1681526020016000820160149054906101000a90046bffffffffffffffffffffffff166bffffffffffffffffffffffff166bffffffffffffffffffffffff1681525050815260200190600101906117f9565b505050509050919050565b60606118d182611ec4565b611926576040517f08c379a000000000000000000000000000000000000000000000000000000000815260040180806020018281038252602f815260200180616629602f913960400191505060405180910390fd5b6000609e60008481526020019081526020016000208054600181600116156101000203166002900480601f0160208091040260200160405190810160405280929190818152602001828054600181600116156101000203166002900480156119cf5780601f106119a4576101008083540402835291602001916119cf565b820191906000526020600020905b8154815290600101906020018083116119b257829003601f168201915b5050505050905060006119e0611033565b90506000815114156119f6578192505050611b92565b600082511115611ac75780826040516020018083805190602001908083835b60208310611a385780518252602082019150602081019050602083039250611a15565b6001836020036101000a03801982511681845116808217855250505050505090500182805190602001908083835b60208310611a895780518252602082019150602081019050602083039250611a66565b6001836020036101000a0380198251168184511680821785525050505050509050019250505060405160208183030381529060405292505050611b92565b80611ad185613574565b6040516020018083805190602001908083835b60208310611b075780518252602082019150602081019050602083039250611ae4565b6001836020036101000a03801982511681845116808217855250505050505090500182805190602001908083835b60208310611b585780518252602082019150602081019050602083039250611b35565b6001836020036101000a03801982511681845116808217855250505050505090500192505050604051602081830303815290604052925050505b919050565b8173ffffffffffffffffffffffffffffffffffffffff16611bb6611ee1565b73ffffffffffffffffffffffffffffffffffffffff1614611c0c576040517f08c379a0000000000000000000000000000000000000000000000000000000008152600401611c0390615f24565b60405180910390fd5b611c178383836136bb565b505050565b6101fa8054600181600116156101000203166002900480601f016020809104026020016040519081016040528092919081815260200182805460018160011615610100020316600290048015611cb35780601f10611c8857610100808354040283529160200191611cb3565b820191906000526020600020905b815481529060010190602001808311611c9657829003601f168201915b505050505081565b6000611cc783836137e2565b905092915050565b611cd7611ee1565b73ffffffffffffffffffffffffffffffffffffffff16611cf56114c9565b73ffffffffffffffffffffffffffffffffffffffff1614611d7e576040517f08c379a00000000000000000000000000000000000000000000000000000000081526004018080602001828103825260208152602001807f4f776e61626c653a2063616c6c6572206973206e6f7420746865206f776e657281525060200191505060405180910390fd5b600073ffffffffffffffffffffffffffffffffffffffff168173ffffffffffffffffffffffffffffffffffffffff161415611e04576040517f08c379a00000000000000000000000000000000000000000000000000000000081526004018080602001828103825260268152602001806163ed6026913960400191505060405180910390fd5b8073ffffffffffffffffffffffffffffffffffffffff16603360009054906101000a900473ffffffffffffffffffffffffffffffffffffffff1673ffffffffffffffffffffffffffffffffffffffff167f8be0079c531659141344cd1fd0a4f28419497f9722a3daafe3b4186f6b6457e060405160405180910390a380603360006101000a81548173ffffffffffffffffffffffffffffffffffffffff021916908373ffffffffffffffffffffffffffffffffffffffff16021790555050565b6000611eda82609861384a90919063ffffffff16565b9050919050565b600033905090565b6000609b60008473ffffffffffffffffffffffffffffffffffffffff1673ffffffffffffffffffffffffffffffffffffffff16815260200190815260200160002060008373ffffffffffffffffffffffffffffffffffffffff1673ffffffffffffffffffffffffffffffffffffffff16815260200190815260200160002060009054906101000a900460ff16905092915050565b81609a600083815260200190815260200160002060006101000a81548173ffffffffffffffffffffffffffffffffffffffff021916908373ffffffffffffffffffffffffffffffffffffffff160217905550808273ffffffffffffffffffffffffffffffffffffffff16611ff083610ffc565b73ffffffffffffffffffffffffffffffffffffffff167f8c5be1e5ebec7d5bd14f71427d1e84f3dd0314c0f7b2291e5b200ac8c7c3b92560405160405180910390a45050565b8060c960008473ffffffffffffffffffffffffffffffffffffffff1673ffffffffffffffffffffffffffffffffffffffff16815260200190815260200160002060006101000a81548160ff0219169083151502179055508173ffffffffffffffffffffffffffffffffffffffff167f270dbb8ba4292910ae92862466486be25c355c837270a3d8824b36a8bc7c653b8260405180821515815260200191505060405180910390a25050565b60006120ef82600001613864565b9050919050565b61213b8260400151828151811061210957fe5b60200260200101516000015161211e84613875565b8460800151848151811061212e57fe5b6020026020010151613ae7565b5050565b600073ffffffffffffffffffffffffffffffffffffffff168273ffffffffffffffffffffffffffffffffffffffff1614156121e2576040517f08c379a00000000000000000000000000000000000000000000000000000000081526004018080602001828103825260208152602001807f4552433732313a206d696e7420746f20746865207a65726f206164647265737381525060200191505060405180910390fd5b6121eb81611ec4565b1561225e576040517f08c379a000000000000000000000000000000000000000000000000000000000815260040180806020018281038252601c8152602001807f4552433732313a20746f6b656e20616c7265616479206d696e7465640000000081525060200191505060405180910390fd5b61226a60008383613e5f565b6122bb81609760008573ffffffffffffffffffffffffffffffffffffffff1673ffffffffffffffffffffffffffffffffffffffff168152602001908152602001600020613e6490919063ffffffff16565b506122d281836098613e7e9092919063ffffffff16565b50808273ffffffffffffffffffffffffffffffffffffffff16600073ffffffffffffffffffffffffffffffffffffffff167fddf252ad1be2c89b69c2b068fc378daa952ba7f163c4a11628f55a4df523b3ef60405160405180910390a45050565b61233c82611ec4565b612391576040517f08c379a000000000000000000000000000000000000000000000000000000000815260040180806020018281038252602c8152602001806165d4602c913960400191505060405180910390fd5b80609e600084815260200190815260200160002090805190602001906123b8929190615297565b505050565b60005b81518110156125f957600073ffffffffffffffffffffffffffffffffffffffff168282815181106123ed57fe5b60200260200101516000015173ffffffffffffffffffffffffffffffffffffffff161415612483576040517f08c379a000000000000000000000000000000000000000000000000000000000815260040180806020018281038252601b8152602001807f526563697069656e742073686f756c642062652070726573656e74000000000081525060200191505060405180910390fd5b600082828151811061249157fe5b6020026020010151602001516bffffffffffffffffffffffff16141561251f576040517f08c379a00000000000000000000000000000000000000000000000000000000081526004018080602001828103825260208152602001807f526f79616c74792076616c75652073686f756c6420626520706f73697469766581525060200191505060405180910390fd5b6101c6600084815260200190815260200160002082828151811061253f57fe5b60200260200101519080600181540180825580915050600190039060005260206000200160009091909190915060008201518160000160006101000a81548173ffffffffffffffffffffffffffffffffffffffff021916908373ffffffffffffffffffffffffffffffffffffffff16021790555060208201518160000160146101000a8154816bffffffffffffffffffffffff02191690836bffffffffffffffffffffffff160217905550505080806001019150506123c0565b506126048282613eb3565b5050565b60006126148383613ef0565b905092915050565b8273ffffffffffffffffffffffffffffffffffffffff1661263c82610ffc565b73ffffffffffffffffffffffffffffffffffffffff16146126a8576040517f08c379a00000000000000000000000000000000000000000000000000000000081526004018080602001828103825260298152602001806166006029913960400191505060405180910390fd5b600073ffffffffffffffffffffffffffffffffffffffff168273ffffffffffffffffffffffffffffffffffffffff16141561272e576040517f08c379a00000000000000000000000000000000000000000000000000000000081526004018080602001828103825260248152602001806164136024913960400191505060405180910390fd5b612739838383613e5f565b612744600082611f7d565b61279581609760008673ffffffffffffffffffffffffffffffffffffffff1673ffffffffffffffffffffffffffffffffffffffff168152602001908152602001600020613f5890919063ffffffff16565b506127e781609760008573ffffffffffffffffffffffffffffffffffffffff1673ffffffffffffffffffffffffffffffffffffffff168152602001908152602001600020613e6490919063ffffffff16565b506127fe81836098613e7e9092919063ffffffff16565b50808273ffffffffffffffffffffffffffffffffffffffff168473ffffffffffffffffffffffffffffffffffffffff167fddf252ad1be2c89b69c2b068fc378daa952ba7f163c4a11628f55a4df523b3ef60405160405180910390a4505050565b600061286a30613f72565b15905090565b80609f9080519060200190612886929190615297565b5050565b600060019054906101000a900460ff16806128a957506128a861285f565b5b806128bf575060008054906101000a900460ff16155b612914576040517f08c379a000000000000000000000000000000000000000000000000000000000815260040180806020018281038252602e815260200180616536602e913960400191505060405180910390fd5b60008060019054906101000a900460ff161590508015612964576001600060016101000a81548160ff02191690831515021790555060016000806101000a81548160ff0219169083151502179055505b612974638486f69f60e01b613f85565b80156129955760008060016101000a81548160ff0219169083151502179055505b50565b600060019054906101000a900460ff16806129b757506129b661285f565b5b806129cd575060008054906101000a900460ff16155b612a22576040517f08c379a000000000000000000000000000000000000000000000000000000000815260040180806020018281038252602e815260200180616536602e913960400191505060405180910390fd5b60008060019054906101000a900460ff161590508015612a72576001600060016101000a81548160ff02191690831515021790555060016000806101000a81548160ff0219169083151502179055505b612a826344c74bcc60e01b613f85565b8015612aa35760008060016101000a81548160ff0219169083151502179055505b50565b600060019054906101000a900460ff1680612ac55750612ac461285f565b5b80612adb575060008054906101000a900460ff16155b612b30576040517f08c379a000000000000000000000000000000000000000000000000000000000815260040180806020018281038252602e815260200180616536602e913960400191505060405180910390fd5b60008060019054906101000a900460ff161590508015612b80576001600060016101000a81548160ff02191690831515021790555060016000806101000a81548160ff0219169083151502179055505b8015612ba15760008060016101000a81548160ff0219169083151502179055505b50565b600060019054906101000a900460ff1680612bc35750612bc261285f565b5b80612bd9575060008054906101000a900460ff16155b612c2e576040517f08c379a000000000000000000000000000000000000000000000000000000000815260040180806020018281038252602e815260200180616536602e913960400191505060405180910390fd5b60008060019054906101000a900460ff161590508015612c7e576001600060016101000a81548160ff02191690831515021790555060016000806101000a81548160ff0219169083151502179055505b612c8e6301ffc9a760e01b613f85565b8015612caf5760008060016101000a81548160ff0219169083151502179055505b50565b600060019054906101000a900460ff1680612cd15750612cd061285f565b5b80612ce7575060008054906101000a900460ff16155b612d3c576040517f08c379a000000000000000000000000000000000000000000000000000000000815260040180806020018281038252602e815260200180616536602e913960400191505060405180910390fd5b60008060019054906101000a900460ff161590508015612d8c576001600060016101000a81548160ff02191690831515021790555060016000806101000a81548160ff0219169083151502179055505b6000612d96611ee1565b905080603360006101000a81548173ffffffffffffffffffffffffffffffffffffffff021916908373ffffffffffffffffffffffffffffffffffffffff1602179055508073ffffffffffffffffffffffffffffffffffffffff16600073ffffffffffffffffffffffffffffffffffffffff167f8be0079c531659141344cd1fd0a4f28419497f9722a3daafe3b4186f6b6457e060405160405180910390a3508015612e565760008060016101000a81548160ff0219169083151502179055505b50565b600060019054906101000a900460ff1680612e785750612e7761285f565b5b80612e8e575060008054906101000a900460ff16155b612ee3576040517f08c379a000000000000000000000000000000000000000000000000000000000815260040180806020018281038252602e815260200180616536602e913960400191505060405180910390fd5b60008060019054906101000a900460ff161590508015612f33576001600060016101000a81548160ff02191690831515021790555060016000806101000a81548160ff0219169083151502179055505b8015612f545760008060016101000a81548160ff0219169083151502179055505b50565b600060019054906101000a900460ff1680612f765750612f7561285f565b5b80612f8c575060008054906101000a900460ff16155b612fe1576040517f08c379a000000000000000000000000000000000000000000000000000000000815260040180806020018281038252602e815260200180616536602e913960400191505060405180910390fd5b60008060019054906101000a900460ff161590508015613031576001600060016101000a81548160ff02191690831515021790555060016000806101000a81548160ff0219169083151502179055505b6130a56040518060400160405280600781526020017f4d696e74373231000000000000000000000000000000000000000000000000008152506040518060400160405280600181526020017f310000000000000000000000000000000000000000000000000000000000000081525061408e565b80156130c65760008060016101000a81548160ff0219169083151502179055505b50565b600060019054906101000a900460ff16806130e857506130e761285f565b5b806130fe575060008054906101000a900460ff16155b613153576040517f08c379a000000000000000000000000000000000000000000000000000000000815260040180806020018281038252602e815260200180616536602e913960400191505060405180910390fd5b60008060019054906101000a900460ff1615905080156131a3576001600060016101000a81548160ff02191690831515021790555060016000806101000a81548160ff0219169083151502179055505b816101fa90805190602001906131ba929190615297565b506131cb63e8a3d48560e01b613f85565b80156131ec5760008060016101000a81548160ff0219169083151502179055505b5050565b600060019054906101000a900460ff168061320f575061320e61285f565b5b80613225575060008054906101000a900460ff16155b61327a576040517f08c379a000000000000000000000000000000000000000000000000000000000815260040180806020018281038252602e815260200180616536602e913960400191505060405180910390fd5b60008060019054906101000a900460ff1615905080156132ca576001600060016101000a81548160ff02191690831515021790555060016000806101000a81548160ff0219169083151502179055505b82609c90805190602001906132e0929190615297565b5081609d90805190602001906132f7929190615297565b506133086380ac58cd60e01b613f85565b613318635b5e139f60e01b613f85565b61332863780e9d6360e01b613f85565b80156133495760008060016101000a81548160ff0219169083151502179055505b505050565b600061335d8360000183614198565b60001c905092915050565b600061337382610ffc565b905061338181600084613e5f565b61338c600083611f7d565b6000609e6000848152602001908152602001600020805460018160011615610100020316600290049050146133db57609e600083815260200190815260200160002060006133da9190615325565b5b61342c82609760008473ffffffffffffffffffffffffffffffffffffffff1673ffffffffffffffffffffffffffffffffffffffff168152602001908152602001600020613f5890919063ffffffff16565b5061344182609861421b90919063ffffffff16565b5081600073ffffffffffffffffffffffffffffffffffffffff168273ffffffffffffffffffffffffffffffffffffffff167fddf252ad1be2c89b69c2b068fc378daa952ba7f163c4a11628f55a4df523b3ef60405160405180910390a45050565b6000806000806134b58660000186614235565b915091508160001c8160001c9350935050509250929050565b60006134e1846000018460001b846142ce565b60001c90509392505050565b60006134fb826000016143c4565b9050919050565b61350d84848461261c565b613519848484846143d5565b61356e576040517f08c379a00000000000000000000000000000000000000000000000000000000081526004018080602001828103825260328152602001806163bb6032913960400191505060405180910390fd5b50505050565b606060008214156135bc576040518060400160405280600181526020017f300000000000000000000000000000000000000000000000000000000000000081525090506136b6565b600082905060005b600082146135e6578080600101915050600a82816135de57fe5b0491506135c4565b60008167ffffffffffffffff811180156135ff57600080fd5b506040519080825280601f01601f1916602001820160405280156136325781602001600182028036833780820191505090505b50905060006001830390508593505b600084146136ae57600a848161365357fe5b0660300160f81b8282806001900393508151811061366d57fe5b60200101907effffffffffffffffffffffffffffffffffffffffffffffffffffffffffffff1916908160001a905350600a84816136a657fe5b049350613641565b819450505050505b919050565b60006101c6600085815260200190815260200160002080549050905060005b818110156137db578373ffffffffffffffffffffffffffffffffffffffff166101c66000878152602001908152602001600020828154811061371857fe5b9060005260206000200160000160009054906101000a900473ffffffffffffffffffffffffffffffffffffffff1673ffffffffffffffffffffffffffffffffffffffff1614156137ce57826101c66000878152602001908152602001600020828154811061378257fe5b9060005260206000200160000160006101000a81548173ffffffffffffffffffffffffffffffffffffffff021916908373ffffffffffffffffffffffffffffffffffffffff1602179055505b80806001019150506136da565b5050505050565b600060c960008373ffffffffffffffffffffffffffffffffffffffff1673ffffffffffffffffffffffffffffffffffffffff16815260200190815260200160002060009054906101000a900460ff168061384257506138418383611ee9565b5b905092915050565b600061385c836000018360001b6145ee565b905092915050565b600081600001805490509050919050565b60008082606001515167ffffffffffffffff8111801561389457600080fd5b506040519080825280602002602001820160405280156138c35781602001602082028036833780820191505090505b50905060005b83606001515181101561391b576138f6846060015182815181106138e957fe5b6020026020010151614611565b82828151811061390257fe5b60200260200101818152505080806001019150506138c9565b50600083604001515167ffffffffffffffff8111801561393a57600080fd5b506040519080825280602002602001820160405280156139695781602001602082028036833780820191505090505b50905060005b8460400151518110156139c15761399c8560400151828151811061398f57fe5b6020026020010151614611565b8282815181106139a857fe5b602002602001018181525050808060010191505061396f565b507ff64326045af5fd7e15297ba939f85b550474d3899daa47d2bc1ffbdb9ced344e84600001518560200151805190602001208360405160200180828051906020019060200280838360005b83811015613a28578082015181840152602081019050613a0d565b50505050905001915050604051602081830303815290604052805190602001208560405160200180828051906020019060200280838360005b83811015613a7c578082015181840152602081019050613a61565b505050509050019150506040516020818303038152906040528051906020012060405160200180868152602001858152602001848152602001838152602001828152602001955050505050506040516020818303038152906040528051906020012092505050919050565b6000613af28361469d565b9050613b138473ffffffffffffffffffffffffffffffffffffffff16613f72565b15613d3a57631626ba7e60e01b7bffffffffffffffffffffffffffffffffffffffffffffffffffffffff19168473ffffffffffffffffffffffffffffffffffffffff16631626ba7e83856040518363ffffffff1660e01b81526004018083815260200180602001828103825283818151815260200191508051906020019080838360005b83811015613bb2578082015181840152602081019050613b97565b50505050905090810190601f168015613bdf5780820380516001836020036101000a031916815260200191505b50935050505060206040518083038186803b158015613bfd57600080fd5b505afa158015613c11573d6000803e3d6000fd5b505050506040513d6020811015613c2757600080fd5b81019080805190602001909291905050507bffffffffffffffffffffffffffffffffffffffffffffffffffffffff1916146040518060400160405280601c81526020017f7369676e617475726520766572696669636174696f6e206572726f720000000081525090613d34576040517f08c379a00000000000000000000000000000000000000000000000000000000081526004018080602001828103825283818151815260200191508051906020019080838360005b83811015613cf9578082015181840152602081019050613cde565b50505050905090810190601f168015613d265780820380516001836020036101000a031916815260200191505b509250505060405180910390fd5b50613e59565b8373ffffffffffffffffffffffffffffffffffffffff16613d64838361470490919063ffffffff16565b73ffffffffffffffffffffffffffffffffffffffff16146040518060400160405280601c81526020017f7369676e617475726520766572696669636174696f6e206572726f720000000081525090613e57576040517f08c379a00000000000000000000000000000000000000000000000000000000081526004018080602001828103825283818151815260200191508051906020019080838360005b83811015613e1c578082015181840152602081019050613e01565b50505050905090810190601f168015613e495780820380516001836020036101000a031916815260200191505b509250505060405180910390fd5b505b50505050565b505050565b6000613e76836000018360001b6147b1565b905092915050565b6000613eaa846000018460001b8473ffffffffffffffffffffffffffffffffffffffff1660001b614821565b90509392505050565b7f3fa96d7b6bcbfe71ef171666d84db3cf52fa2d1c8afdb1cc8e486177f208b7df8282604051613ee4929190615f7f565b60405180910390a15050565b600060c960008473ffffffffffffffffffffffffffffffffffffffff1673ffffffffffffffffffffffffffffffffffffffff16815260200190815260200160002060009054906101000a900460ff1680613f505750613f4f83836148fd565b5b905092915050565b6000613f6a836000018360001b6149f1565b905092915050565b600080823b905060008111915050919050565b63ffffffff60e01b817bffffffffffffffffffffffffffffffffffffffffffffffffffffffff19161415614021576040517f08c379a000000000000000000000000000000000000000000000000000000000815260040180806020018281038252601c8152602001807f4552433136353a20696e76616c696420696e746572666163652069640000000081525060200191505060405180910390fd5b600160656000837bffffffffffffffffffffffffffffffffffffffffffffffffffffffff19167bffffffffffffffffffffffffffffffffffffffffffffffffffffffff1916815260200190815260200160002060006101000a81548160ff02191690831515021790555050565b600060019054906101000a900460ff16806140ad57506140ac61285f565b5b806140c3575060008054906101000a900460ff16155b614118576040517f08c379a000000000000000000000000000000000000000000000000000000000815260040180806020018281038252602e815260200180616536602e913960400191505060405180910390fd5b60008060019054906101000a900460ff161590508015614168576001600060016101000a81548160ff02191690831515021790555060016000806101000a81548160ff0219169083151502179055505b6141728383614ad9565b80156141935760008060016101000a81548160ff0219169083151502179055505b505050565b6000818360000180549050116141f9576040517f08c379a00000000000000000000000000000000000000000000000000000000081526004018080602001828103825260228152602001806163996022913960400191505060405180910390fd5b82600001828154811061420857fe5b9060005260206000200154905092915050565b600061422d836000018360001b614c03565b905092915050565b60008082846000018054905011614297576040517f08c379a00000000000000000000000000000000000000000000000000000000081526004018080602001828103825260228152602001806165866022913960400191505060405180910390fd5b60008460000184815481106142a857fe5b906000526020600020906002020190508060000154816001015492509250509250929050565b60008084600101600085815260200190815260200160002054905060008114158390614395576040517f08c379a00000000000000000000000000000000000000000000000000000000081526004018080602001828103825283818151815260200191508051906020019080838360005b8381101561435a57808201518184015260208101905061433f565b50505050905090810190601f1680156143875780820380516001836020036101000a031916815260200191505b509250505060405180910390fd5b508460000160018203815481106143a857fe5b9060005260206000209060020201600101549150509392505050565b600081600001805490509050919050565b60006143f68473ffffffffffffffffffffffffffffffffffffffff16613f72565b61440357600190506145e6565b600061456d63150b7a0260e01b614418611ee1565b888787604051602401808573ffffffffffffffffffffffffffffffffffffffff1681526020018473ffffffffffffffffffffffffffffffffffffffff16815260200183815260200180602001828103825283818151815260200191508051906020019080838360005b8381101561449c578082015181840152602081019050614481565b50505050905090810190601f1680156144c95780820380516001836020036101000a031916815260200191505b5095505050505050604051602081830303815290604052907bffffffffffffffffffffffffffffffffffffffffffffffffffffffff19166020820180517bffffffffffffffffffffffffffffffffffffffffffffffffffffffff83818316178352505050506040518060600160405280603281526020016163bb603291398773ffffffffffffffffffffffffffffffffffffffff16614d1c9092919063ffffffff16565b9050600081806020019051602081101561458657600080fd5b8101908080519060200190929190505050905063150b7a0260e01b7bffffffffffffffffffffffffffffffffffffffffffffffffffffffff1916817bffffffffffffffffffffffffffffffffffffffffffffffffffffffff191614925050505b949350505050565b600080836001016000848152602001908152602001600020541415905092915050565b60007f397e04204c1e1a60ee8724b71f8244e10ab5f2e9009854d80f602bda21b59ebb82600001518360200151604051602001808481526020018373ffffffffffffffffffffffffffffffffffffffff168152602001826bffffffffffffffffffffffff1681526020019350505050604051602081830303815290604052805190602001209050919050565b60006146a7614d34565b8260405160200180807f190100000000000000000000000000000000000000000000000000000000000081525060020183815260200182815260200192505050604051602081830303815290604052805190602001209050919050565b6000604182511461477d576040517f08c379a000000000000000000000000000000000000000000000000000000000815260040180806020018281038252601f8152602001807f45434453413a20696e76616c6964207369676e6174757265206c656e6774680081525060200191505060405180910390fd5b60008060006020850151925060408501519150606085015160001a90506147a686828585614d74565b935050505092915050565b60006147bd8383614f73565b61481657826000018290806001815401808255809150506001900390600052602060002001600090919091909150558260000180549050836001016000848152602001908152602001600020819055506001905061481b565b600090505b92915050565b60008084600101600085815260200190815260200160002054905060008114156148c8578460000160405180604001604052808681526020018581525090806001815401808255809150506001900390600052602060002090600202016000909190919091506000820151816000015560208201518160010155505084600001805490508560010160008681526020019081526020016000208190555060019150506148f6565b828560000160018303815481106148db57fe5b90600052602060002090600202016001018190555060009150505b9392505050565b600061490882611ec4565b61495d576040517f08c379a000000000000000000000000000000000000000000000000000000000815260040180806020018281038252602c81526020018061647f602c913960400191505060405180910390fd5b600061496883610ffc565b90508073ffffffffffffffffffffffffffffffffffffffff168473ffffffffffffffffffffffffffffffffffffffff1614806149d757508373ffffffffffffffffffffffffffffffffffffffff166149bf84610708565b73ffffffffffffffffffffffffffffffffffffffff16145b806149e857506149e78185611ee9565b5b91505092915050565b60008083600101600084815260200190815260200160002054905060008114614acd5760006001820390506000600186600001805490500390506000866000018281548110614a3c57fe5b9060005260206000200154905080876000018481548110614a5957fe5b9060005260206000200181905550600183018760010160008381526020019081526020016000208190555086600001805480614a9157fe5b60019003818190600052602060002001600090559055866001016000878152602001908152602001600020600090556001945050505050614ad3565b60009150505b92915050565b600060019054906101000a900460ff1680614af85750614af761285f565b5b80614b0e575060008054906101000a900460ff16155b614b63576040517f08c379a000000000000000000000000000000000000000000000000000000000815260040180806020018281038252602e815260200180616536602e913960400191505060405180910390fd5b60008060019054906101000a900460ff161590508015614bb3576001600060016101000a81548160ff02191690831515021790555060016000806101000a81548160ff0219169083151502179055505b6000838051906020012090506000838051906020012090508161012e819055508061012f8190555050508015614bfe5760008060016101000a81548160ff0219169083151502179055505b505050565b60008083600101600084815260200190815260200160002054905060008114614d105760006001820390506000600186600001805490500390506000866000018281548110614c4e57fe5b9060005260206000209060020201905080876000018481548110614c6e57fe5b9060005260206000209060020201600082015481600001556001820154816001015590505060018301876001016000836000015481526020019081526020016000208190555086600001805480614cc157fe5b6001900381819060005260206000209060020201600080820160009055600182016000905550509055866001016000878152602001908152602001600020600090556001945050505050614d16565b60009150505b92915050565b6060614d2b8484600085614f96565b90509392505050565b6000614d6f7f8b73c3c69bb8fe3d512ecc4cf759cc79239f7b179b0ffacaa9a75d522b39400f614d6261513e565b614d6a615149565b615154565b905090565b60007f7fffffffffffffffffffffffffffffff5d576e7357a4501ddfe92f46681b20a08260001c1115614df2576040517f08c379a00000000000000000000000000000000000000000000000000000000081526004018080602001828103825260228152602001806164376022913960400191505060405180910390fd5b601b8460ff161480614e075750601c8460ff16145b614e5c576040517f08c379a00000000000000000000000000000000000000000000000000000000081526004018080602001828103825260228152602001806165646022913960400191505060405180910390fd5b600060018686868660405160008152602001604052604051808581526020018460ff1681526020018381526020018281526020019450505050506020604051602081039080840390855afa158015614eb8573d6000803e3d6000fd5b505050602060405103519050600073ffffffffffffffffffffffffffffffffffffffff168173ffffffffffffffffffffffffffffffffffffffff161415614f67576040517f08c379a00000000000000000000000000000000000000000000000000000000081526004018080602001828103825260188152602001807f45434453413a20696e76616c6964207369676e6174757265000000000000000081525060200191505060405180910390fd5b80915050949350505050565b600080836001016000848152602001908152602001600020541415905092915050565b606082471015614ff1576040517f08c379a00000000000000000000000000000000000000000000000000000000081526004018080602001828103825260268152602001806164596026913960400191505060405180910390fd5b614ffa85613f72565b61506c576040517f08c379a000000000000000000000000000000000000000000000000000000000815260040180806020018281038252601d8152602001807f416464726573733a2063616c6c20746f206e6f6e2d636f6e747261637400000081525060200191505060405180910390fd5b6000808673ffffffffffffffffffffffffffffffffffffffff1685876040518082805190602001908083835b602083106150bb5780518252602082019150602081019050602083039250615098565b6001836020036101000a03801982511681845116808217855250505050505090500191505060006040518083038185875af1925050503d806000811461511d576040519150601f19603f3d011682016040523d82523d6000602084013e615122565b606091505b50915091506151328282866151c3565b92505050949350505050565b600061012e54905090565b600061012f54905090565b600083838361516161528f565b30604051602001808681526020018581526020018481526020018381526020018273ffffffffffffffffffffffffffffffffffffffff168152602001955050505050506040516020818303038152906040528051906020012090509392505050565b606083156151d357829050615288565b6000835111156151e65782518084602001fd5b816040517f08c379a00000000000000000000000000000000000000000000000000000000081526004018080602001828103825283818151815260200191508051906020019080838360005b8381101561524d578082015181840152602081019050615232565b50505050905090810190601f16801561527a5780820380516001836020036101000a031916815260200191505b509250505060405180910390fd5b9392505050565b600046905090565b828054600181600116156101000203166002900490600052602060002090601f0160209004810192826152cd5760008555615314565b82601f106152e657805160ff1916838001178555615314565b82800160010185558215615314579182015b828111156153135782518255916020019190600101906152f8565b5b509050615321919061536d565b5090565b50805460018160011615610100020316600290046000825580601f1061534b575061536a565b601f016020900490600052602060002090810190615369919061536d565b5b50565b5b8082111561538657600081600090555060010161536e565b5090565b600061539d61539884616025565b615ff4565b9050808382526020820190508260005b858110156153dd57813585016153c38882615577565b8452602084019350602083019250506001810190506153ad565b5050509392505050565b60006153fa6153f584616051565b615ff4565b9050808382526020820190508285604086028201111561541957600080fd5b60005b85811015615449578161542f88826156b3565b84526020840193506040830192505060018101905061541c565b5050509392505050565b60006154666154618461607d565b615ff4565b90508281526020810184848401111561547e57600080fd5b61548984828561626b565b509392505050565b60006154a461549f846160ad565b615ff4565b9050828152602081018484840111156154bc57600080fd5b6154c784828561626b565b509392505050565b6000813590506154de8161630e565b92915050565b6000813590506154f381616325565b92915050565b600082601f83011261550a57600080fd5b813561551a84826020860161538a565b91505092915050565b600082601f83011261553457600080fd5b81356155448482602086016153e7565b91505092915050565b60008135905061555c8161633c565b92915050565b60008135905061557181616353565b92915050565b600082601f83011261558857600080fd5b8135615598848260208601615453565b91505092915050565b600082601f8301126155b257600080fd5b81356155c2848260208601615491565b91505092915050565b600060a082840312156155dd57600080fd5b6155e760a0615ff4565b905060006155f7848285016156ff565b600083015250602082013567ffffffffffffffff81111561561757600080fd5b615623848285016155a1565b602083015250604082013567ffffffffffffffff81111561564357600080fd5b61564f84828501615523565b604083015250606082013567ffffffffffffffff81111561566f57600080fd5b61567b84828501615523565b606083015250608082013567ffffffffffffffff81111561569b57600080fd5b6156a7848285016154f9565b60808301525092915050565b6000604082840312156156c557600080fd5b6156cf6040615ff4565b905060006156df848285016154e4565b60008301525060206156f384828501615714565b60208301525092915050565b60008135905061570e8161636a565b92915050565b60008135905061572381616381565b92915050565b60006020828403121561573b57600080fd5b6000615749848285016154cf565b91505092915050565b6000806040838503121561576557600080fd5b6000615773858286016154cf565b9250506020615784858286016154cf565b9150509250929050565b6000806000606084860312156157a357600080fd5b60006157b1868287016154cf565b93505060206157c2868287016154cf565b92505060406157d3868287016156ff565b9150509250925092565b600080600080608085870312156157f357600080fd5b6000615801878288016154cf565b9450506020615812878288016154cf565b9350506040615823878288016156ff565b925050606085013567ffffffffffffffff81111561584057600080fd5b61584c87828801615577565b91505092959194509250565b6000806040838503121561586b57600080fd5b6000615879858286016154cf565b925050602061588a8582860161554d565b9150509250929050565b600080604083850312156158a757600080fd5b60006158b5858286016154cf565b92505060206158c6858286016156ff565b9150509250929050565b6000602082840312156158e257600080fd5b60006158f084828501615562565b91505092915050565b6000806000806080858703121561590f57600080fd5b600085013567ffffffffffffffff81111561592957600080fd5b615935878288016155a1565b945050602085013567ffffffffffffffff81111561595257600080fd5b61595e878288016155a1565b935050604085013567ffffffffffffffff81111561597b57600080fd5b615987878288016155a1565b925050606085013567ffffffffffffffff8111156159a457600080fd5b6159b0878288016155a1565b91505092959194509250565b600080604083850312156159cf57600080fd5b600083013567ffffffffffffffff8111156159e957600080fd5b6159f5858286016155cb565b9250506020615a06858286016154cf565b9150509250929050565b600080600060608486031215615a2557600080fd5b600084013567ffffffffffffffff811115615a3f57600080fd5b615a4b868287016155cb565b9350506020615a5c868287016154cf565b9250506040615a6d868287016154cf565b9150509250925092565b600060208284031215615a8957600080fd5b6000615a97848285016156ff565b91505092915050565b600080600060608486031215615ab557600080fd5b6000615ac3868287016156ff565b9350506020615ad4868287016154cf565b9250506040615ae5868287016154cf565b9150509250925092565b60008060408385031215615b0257600080fd5b6000615b10858286016156ff565b9250506020615b21858286016156ff565b9150509250929050565b6000615b378383615d80565b60408301905092915050565b6000615b4f8383615daf565b60408301905092915050565b615b6481616235565b82525050565b615b73816161a9565b82525050565b615b82816161a9565b82525050565b615b9181616197565b82525050565b6000615ba282616102565b615bac818561613d565b9350615bb7836160dd565b8060005b83811015615be8578151615bcf8882615b2b565b9750615bda83616123565b925050600181019050615bbb565b5085935050505092915050565b6000615c008261610d565b615c0a818561613d565b9350615c15836160ed565b8060005b83811015615c455781615c2c8882615b43565b9750615c3783616130565b925050600181019050615c19565b5085935050505092915050565b615c5b816161bb565b82525050565b6000615c6c82616118565b615c76818561614e565b9350615c8681856020860161627a565b615c8f816162e3565b840191505092915050565b6000615ca760118361614e565b91507f746f6b656e496420696e636f72726563740000000000000000000000000000006000830152602082019050919050565b6000615ce7600b8361614e565b91507f6e6f7420616c6c6f7765640000000000000000000000000000000000000000006000830152602082019050919050565b6000615d2760318361614e565b91507f4552433732313a207472616e736665722063616c6c6572206973206e6f74206f60008301527f776e6572206e6f7220617070726f7665640000000000000000000000000000006020830152604082019050919050565b604082016000820151615d966000850182615b6a565b506020820151615da96020850182615dfe565b50505050565b604082016000808301549050615dc4816162ad565b615dd16000860182615b6a565b50615ddb816162c7565b615de86020860182615dfe565b5050505050565b615df881616213565b82525050565b615e078161621d565b82525050565b615e168161621d565b82525050565b6000602082019050615e316000830184615b88565b92915050565b6000606082019050615e4c6000830186615b5b565b8181036020830152615e5e8185615c61565b90508181036040830152615e728184615c61565b9050949350505050565b6000604082019050615e916000830185615b79565b615e9e6020830184615e0d565b9392505050565b60006020820190508181036000830152615ebf8184615b97565b905092915050565b6000602082019050615edc6000830184615c52565b92915050565b60006020820190508181036000830152615efc8184615c61565b905092915050565b60006020820190508181036000830152615f1d81615c9a565b9050919050565b60006020820190508181036000830152615f3d81615cda565b9050919050565b60006020820190508181036000830152615f5d81615d1a565b9050919050565b6000602082019050615f796000830184615def565b92915050565b6000604082019050615f946000830185615def565b8181036020830152615fa68184615b97565b90509392505050565b6000606082019050615fc46000830186615def565b8181036020830152615fd68185615c61565b90508181036040830152615fea8184615bf5565b9050949350505050565b6000604051905081810181811067ffffffffffffffff8211171561601b5761601a6162e1565b5b8060405250919050565b600067ffffffffffffffff8211156160405761603f6162e1565b5b602082029050602081019050919050565b600067ffffffffffffffff82111561606c5761606b6162e1565b5b602082029050602081019050919050565b600067ffffffffffffffff821115616098576160976162e1565b5b601f19601f8301169050602081019050919050565b600067ffffffffffffffff8211156160c8576160c76162e1565b5b601f19601f8301169050602081019050919050565b6000819050602082019050919050565b60008190508160005260206000209050919050565b600081519050919050565b600081549050919050565b600081519050919050565b6000602082019050919050565b6000600182019050919050565b600082825260208201905092915050565b600082825260208201905092915050565b600073ffffffffffffffffffffffffffffffffffffffff82169050919050565b60006bffffffffffffffffffffffff82169050919050565b60006161a2826161f3565b9050919050565b60006161b4826161f3565b9050919050565b60008115159050919050565b60007fffffffff0000000000000000000000000000000000000000000000000000000082169050919050565b600073ffffffffffffffffffffffffffffffffffffffff82169050919050565b6000819050919050565b60006bffffffffffffffffffffffff82169050919050565b600061624082616247565b9050919050565b600061625282616259565b9050919050565b6000616264826161f3565b9050919050565b82818337600083830152505050565b60005b8381101561629857808201518184015260208101905061627d565b838111156162a7576000848401525b50505050565b60006162c06162bb836162f4565b61615f565b9050919050565b60006162da6162d583616301565b61617f565b9050919050565bfe5b6000601f19601f8301169050919050565b60008160001c9050919050565b60008160a01c9050919050565b61631781616197565b811461632257600080fd5b50565b61632e816161a9565b811461633957600080fd5b50565b616345816161bb565b811461635057600080fd5b50565b61635c816161c7565b811461636757600080fd5b50565b61637381616213565b811461637e57600080fd5b50565b61638a8161621d565b811461639557600080fd5b5056fe456e756d657261626c655365743a20696e646578206f7574206f6620626f756e64734552433732313a207472616e7366657220746f206e6f6e20455243373231526563656976657220696d706c656d656e7465724f776e61626c653a206e6577206f776e657220697320746865207a65726f20616464726573734552433732313a207472616e7366657220746f20746865207a65726f206164647265737345434453413a20696e76616c6964207369676e6174757265202773272076616c7565416464726573733a20696e73756666696369656e742062616c616e636520666f722063616c6c4552433732313a206f70657261746f7220717565727920666f72206e6f6e6578697374656e7420746f6b656e4552433732313a20617070726f76652063616c6c6572206973206e6f74206f776e6572206e6f7220617070726f76656420666f7220616c6c4552433732313a2062616c616e636520717565727920666f7220746865207a65726f20616464726573734552433732313a206f776e657220717565727920666f72206e6f6e6578697374656e7420746f6b656e496e697469616c697a61626c653a20636f6e747261637420697320616c726561647920696e697469616c697a656445434453413a20696e76616c6964207369676e6174757265202776272076616c7565456e756d657261626c654d61703a20696e646578206f7574206f6620626f756e64734552433732313a20617070726f76656420717565727920666f72206e6f6e6578697374656e7420746f6b656e4552433732314d657461646174613a2055524920736574206f66206e6f6e6578697374656e7420746f6b656e4552433732313a207472616e73666572206f6620746f6b656e2074686174206973206e6f74206f776e4552433732314d657461646174613a2055524920717565727920666f72206e6f6e6578697374656e7420746f6b656e4552433732313a20617070726f76616c20746f2063757272656e74206f776e65724552433732313a207472616e736665722063616c6c6572206973206e6f74206f776e6572206e6f7220617070726f7665644552433732314275726e61626c653a2063616c6c6572206973206e6f74206f776e6572206e6f7220617070726f766564a2646970667358221220a1626f40720f2b6183ff52023e306f88b32af5bd405d38a1765f9d3b1b68fa5964736f6c63430007060033",
  "immutableReferences": {},
  "source": "// SPDX-License-Identifier: MIT\r\n\r\npragma solidity >=0.6.2 <0.8.0;\r\npragma abicoder v2;\r\n\r\nimport \"./ERC721Base.sol\";\r\n\r\ncontract ERC721Rarible is ERC721Base {\r\n\r\n    event CreateERC721Rarible(address owner, string name, string symbol);\r\n\r\n    function __ERC721Rarible_init(string memory _name, string memory _symbol, string memory baseURI, string memory contractURI) external initializer {\r\n        _setBaseURI(baseURI);\r\n        __ERC721Lazy_init_unchained();\r\n        __RoyaltiesV2Upgradeable_init_unchained();\r\n        __Context_init_unchained();\r\n        __ERC165_init_unchained();\r\n        __Ownable_init_unchained();\r\n        __ERC721Burnable_init_unchained();\r\n        __Mint721Validator_init_unchained();\r\n        __HasContractURI_init_unchained(contractURI);\r\n        __ERC721_init_unchained(_name, _symbol);\r\n        emit CreateERC721Rarible(_msgSender(), _name, _symbol);\r\n    }\r\n    uint256[50] private __gap;\r\n}",
  "sourcePath": "D:/Posao - Stefan/Stefan - razno/Gitcoin/Hackathon - Rarible/nft-ticketize/contracts/rarible-contracts/erc-721/ERC721Rarible.sol",
  "compiler": {
    "name": "solc",
    "version": "0.7.6+commit.7338295f.Emscripten.clang"
  },
  "schemaVersion": "3.4.1",
  "updatedAt": "2021-06-28T23:13:32.654Z",
  "devdoc": {
    "kind": "dev",
    "methods": {
      "approve(address,uint256)": {
        "details": "See {IERC721-approve}."
      },
      "balanceOf(address)": {
        "details": "See {IERC721-balanceOf}."
      },
      "baseURI()": {
        "details": "Returns the base URI set via {_setBaseURI}. This will be automatically added as a prefix in {tokenURI} to each token's URI, or to the token ID if no specific URI is set for that token ID."
      },
      "burn(uint256)": {
        "details": "Burns `tokenId`. See {ERC721-_burn}. Requirements: - The caller must own `tokenId` or be an approved operator."
      },
      "getApproved(uint256)": {
        "details": "See {IERC721-getApproved}."
      },
      "name()": {
        "details": "See {IERC721Metadata-name}."
      },
      "owner()": {
        "details": "Returns the address of the current owner."
      },
      "ownerOf(uint256)": {
        "details": "See {IERC721-ownerOf}."
      },
      "renounceOwnership()": {
        "details": "Leaves the contract without owner. It will not be possible to call `onlyOwner` functions anymore. Can only be called by the current owner. NOTE: Renouncing ownership will leave the contract without an owner, thereby removing any functionality that is only available to the owner."
      },
      "safeTransferFrom(address,address,uint256)": {
        "details": "See {IERC721-safeTransferFrom}."
      },
      "safeTransferFrom(address,address,uint256,bytes)": {
        "details": "See {IERC721-safeTransferFrom}."
      },
      "setApprovalForAll(address,bool)": {
        "details": "See {IERC721-setApprovalForAll}."
      },
      "supportsInterface(bytes4)": {
        "details": "See {IERC165-supportsInterface}. Time complexity O(1), guaranteed to always use less than 30 000 gas."
      },
      "symbol()": {
        "details": "See {IERC721Metadata-symbol}."
      },
      "tokenByIndex(uint256)": {
        "details": "See {IERC721Enumerable-tokenByIndex}."
      },
      "tokenOfOwnerByIndex(address,uint256)": {
        "details": "See {IERC721Enumerable-tokenOfOwnerByIndex}."
      },
      "tokenURI(uint256)": {
        "details": "See {IERC721Metadata-tokenURI}."
      },
      "totalSupply()": {
        "details": "See {IERC721Enumerable-totalSupply}."
      },
      "transferFrom(address,address,uint256)": {
        "details": "See {IERC721-transferFrom}."
      },
      "transferOwnership(address)": {
        "details": "Transfers ownership of the contract to a new account (`newOwner`). Can only be called by the current owner."
      }
    },
    "version": 1
  },
  "userdoc": {
    "kind": "user",
    "methods": {},
    "version": 1
  }
}