{
  "contractName": "NFTicketize",
  "abi": [
    {
      "inputs": [],
      "stateMutability": "nonpayable",
      "type": "constructor"
    },
    {
      "anonymous": false,
      "inputs": [
        {
          "indexed": true,
          "internalType": "address",
          "name": "owner",
          "type": "address"
        },
        {
          "indexed": true,
          "internalType": "address",
          "name": "approved",
          "type": "address"
        },
        {
          "indexed": true,
          "internalType": "uint256",
          "name": "tokenId",
          "type": "uint256"
        }
      ],
      "name": "Approval",
      "type": "event"
    },
    {
      "anonymous": false,
      "inputs": [
        {
          "indexed": true,
          "internalType": "address",
          "name": "owner",
          "type": "address"
        },
        {
          "indexed": true,
          "internalType": "address",
          "name": "operator",
          "type": "address"
        },
        {
          "indexed": false,
          "internalType": "bool",
          "name": "approved",
          "type": "bool"
        }
      ],
      "name": "ApprovalForAll",
      "type": "event"
    },
    {
      "anonymous": false,
      "inputs": [
        {
          "indexed": false,
          "internalType": "uint256",
          "name": "id",
          "type": "uint256"
        },
        {
          "indexed": false,
          "internalType": "address",
          "name": "creator",
          "type": "address"
        },
        {
          "indexed": false,
          "internalType": "uint256",
          "name": "startDate",
          "type": "uint256"
        },
        {
          "indexed": false,
          "internalType": "string",
          "name": "metadataIpfsCid",
          "type": "string"
        }
      ],
      "name": "NewEvent",
      "type": "event"
    },
    {
      "anonymous": false,
      "inputs": [
        {
          "indexed": false,
          "internalType": "uint256",
          "name": "eventId",
          "type": "uint256"
        },
        {
          "indexed": false,
          "internalType": "uint256",
          "name": "id",
          "type": "uint256"
        },
        {
          "indexed": false,
          "internalType": "uint32",
          "name": "maxTickets",
          "type": "uint32"
        },
        {
          "indexed": false,
          "internalType": "uint256",
          "name": "ticketPrice",
          "type": "uint256"
        },
        {
          "indexed": false,
          "internalType": "uint32",
          "name": "resellTicketType",
          "type": "uint32"
        },
        {
          "indexed": false,
          "internalType": "uint256",
          "name": "resellTicketValue",
          "type": "uint256"
        },
        {
          "indexed": false,
          "internalType": "string",
          "name": "metadataIpfsCid",
          "type": "string"
        }
      ],
      "name": "NewTicketCategory",
      "type": "event"
    },
    {
      "anonymous": false,
      "inputs": [
        {
          "indexed": false,
          "internalType": "uint256",
          "name": "tokenId",
          "type": "uint256"
        },
        {
          "components": [
            {
              "internalType": "address payable",
              "name": "account",
              "type": "address"
            },
            {
              "internalType": "uint96",
              "name": "value",
              "type": "uint96"
            }
          ],
          "indexed": false,
          "internalType": "struct LibPart.Part[]",
          "name": "royalties",
          "type": "tuple[]"
        }
      ],
      "name": "RoyaltiesSet",
      "type": "event"
    },
    {
      "anonymous": false,
      "inputs": [
        {
          "indexed": true,
          "internalType": "address",
          "name": "from",
          "type": "address"
        },
        {
          "indexed": true,
          "internalType": "address",
          "name": "to",
          "type": "address"
        },
        {
          "indexed": true,
          "internalType": "uint256",
          "name": "tokenId",
          "type": "uint256"
        }
      ],
      "name": "Transfer",
      "type": "event"
    },
    {
      "inputs": [
        {
          "internalType": "address",
          "name": "to",
          "type": "address"
        },
        {
          "internalType": "uint256",
          "name": "tokenId",
          "type": "uint256"
        }
      ],
      "name": "approve",
      "outputs": [],
      "stateMutability": "nonpayable",
      "type": "function"
    },
    {
      "inputs": [
        {
          "internalType": "address",
          "name": "owner",
          "type": "address"
        }
      ],
      "name": "balanceOf",
      "outputs": [
        {
          "internalType": "uint256",
          "name": "",
          "type": "uint256"
        }
      ],
      "stateMutability": "view",
      "type": "function",
      "constant": true
    },
    {
      "inputs": [],
      "name": "baseURI",
      "outputs": [
        {
          "internalType": "string",
          "name": "",
          "type": "string"
        }
      ],
      "stateMutability": "view",
      "type": "function",
      "constant": true
    },
    {
      "inputs": [
        {
          "internalType": "uint256",
          "name": "",
          "type": "uint256"
        }
      ],
      "name": "events",
      "outputs": [
        {
          "internalType": "address",
          "name": "creator",
          "type": "address"
        },
        {
          "internalType": "uint256",
          "name": "startDate",
          "type": "uint256"
        },
        {
          "internalType": "string",
          "name": "metadataIpfsCid",
          "type": "string"
        }
      ],
      "stateMutability": "view",
      "type": "function",
      "constant": true
    },
    {
      "inputs": [
        {
          "internalType": "uint256",
          "name": "tokenId",
          "type": "uint256"
        }
      ],
      "name": "getApproved",
      "outputs": [
        {
          "internalType": "address",
          "name": "",
          "type": "address"
        }
      ],
      "stateMutability": "view",
      "type": "function",
      "constant": true
    },
    {
      "inputs": [
        {
          "internalType": "uint256",
          "name": "id",
          "type": "uint256"
        }
      ],
      "name": "getRoyalties",
      "outputs": [
        {
          "components": [
            {
              "internalType": "address payable",
              "name": "account",
              "type": "address"
            },
            {
              "internalType": "uint96",
              "name": "value",
              "type": "uint96"
            }
          ],
          "internalType": "struct LibPart.Part[]",
          "name": "",
          "type": "tuple[]"
        }
      ],
      "stateMutability": "view",
      "type": "function",
      "constant": true
    },
    {
      "inputs": [
        {
          "internalType": "address",
          "name": "owner",
          "type": "address"
        },
        {
          "internalType": "address",
          "name": "operator",
          "type": "address"
        }
      ],
      "name": "isApprovedForAll",
      "outputs": [
        {
          "internalType": "bool",
          "name": "",
          "type": "bool"
        }
      ],
      "stateMutability": "view",
      "type": "function",
      "constant": true
    },
    {
      "inputs": [],
      "name": "name",
      "outputs": [
        {
          "internalType": "string",
          "name": "",
          "type": "string"
        }
      ],
      "stateMutability": "view",
      "type": "function",
      "constant": true
    },
    {
      "inputs": [
        {
          "internalType": "uint256",
          "name": "tokenId",
          "type": "uint256"
        }
      ],
      "name": "ownerOf",
      "outputs": [
        {
          "internalType": "address",
          "name": "",
          "type": "address"
        }
      ],
      "stateMutability": "view",
      "type": "function",
      "constant": true
    },
    {
      "inputs": [
        {
          "internalType": "uint256",
          "name": "",
          "type": "uint256"
        },
        {
          "internalType": "uint256",
          "name": "",
          "type": "uint256"
        }
      ],
      "name": "royalties",
      "outputs": [
        {
          "internalType": "address payable",
          "name": "account",
          "type": "address"
        },
        {
          "internalType": "uint96",
          "name": "value",
          "type": "uint96"
        }
      ],
      "stateMutability": "view",
      "type": "function",
      "constant": true
    },
    {
      "inputs": [
        {
          "internalType": "address",
          "name": "from",
          "type": "address"
        },
        {
          "internalType": "address",
          "name": "to",
          "type": "address"
        },
        {
          "internalType": "uint256",
          "name": "tokenId",
          "type": "uint256"
        }
      ],
      "name": "safeTransferFrom",
      "outputs": [],
      "stateMutability": "nonpayable",
      "type": "function"
    },
    {
      "inputs": [
        {
          "internalType": "address",
          "name": "from",
          "type": "address"
        },
        {
          "internalType": "address",
          "name": "to",
          "type": "address"
        },
        {
          "internalType": "uint256",
          "name": "tokenId",
          "type": "uint256"
        },
        {
          "internalType": "bytes",
          "name": "_data",
          "type": "bytes"
        }
      ],
      "name": "safeTransferFrom",
      "outputs": [],
      "stateMutability": "nonpayable",
      "type": "function"
    },
    {
      "inputs": [
        {
          "internalType": "address",
          "name": "operator",
          "type": "address"
        },
        {
          "internalType": "bool",
          "name": "approved",
          "type": "bool"
        }
      ],
      "name": "setApprovalForAll",
      "outputs": [],
      "stateMutability": "nonpayable",
      "type": "function"
    },
    {
      "inputs": [
        {
          "internalType": "bytes4",
          "name": "interfaceId",
          "type": "bytes4"
        }
      ],
      "name": "supportsInterface",
      "outputs": [
        {
          "internalType": "bool",
          "name": "",
          "type": "bool"
        }
      ],
      "stateMutability": "view",
      "type": "function",
      "constant": true
    },
    {
      "inputs": [],
      "name": "symbol",
      "outputs": [
        {
          "internalType": "string",
          "name": "",
          "type": "string"
        }
      ],
      "stateMutability": "view",
      "type": "function",
      "constant": true
    },
    {
      "inputs": [
        {
          "internalType": "uint256",
          "name": "",
          "type": "uint256"
        }
      ],
      "name": "ticketCategories",
      "outputs": [
        {
          "internalType": "uint256",
          "name": "eventId",
          "type": "uint256"
        },
        {
          "internalType": "uint32",
          "name": "maxTickets",
          "type": "uint32"
        },
        {
          "internalType": "uint256",
          "name": "ticketPrice",
          "type": "uint256"
        },
        {
          "internalType": "uint32",
          "name": "resellTicketType",
          "type": "uint32"
        },
        {
          "internalType": "uint256",
          "name": "resellTicketValue",
          "type": "uint256"
        },
        {
          "internalType": "string",
          "name": "metadataIpfsCid",
          "type": "string"
        }
      ],
      "stateMutability": "view",
      "type": "function",
      "constant": true
    },
    {
      "inputs": [
        {
          "internalType": "uint256",
          "name": "index",
          "type": "uint256"
        }
      ],
      "name": "tokenByIndex",
      "outputs": [
        {
          "internalType": "uint256",
          "name": "",
          "type": "uint256"
        }
      ],
      "stateMutability": "view",
      "type": "function",
      "constant": true
    },
    {
      "inputs": [
        {
          "internalType": "address",
          "name": "owner",
          "type": "address"
        },
        {
          "internalType": "uint256",
          "name": "index",
          "type": "uint256"
        }
      ],
      "name": "tokenOfOwnerByIndex",
      "outputs": [
        {
          "internalType": "uint256",
          "name": "",
          "type": "uint256"
        }
      ],
      "stateMutability": "view",
      "type": "function",
      "constant": true
    },
    {
      "inputs": [
        {
          "internalType": "uint256",
          "name": "tokenId",
          "type": "uint256"
        }
      ],
      "name": "tokenURI",
      "outputs": [
        {
          "internalType": "string",
          "name": "",
          "type": "string"
        }
      ],
      "stateMutability": "view",
      "type": "function",
      "constant": true
    },
    {
      "inputs": [],
      "name": "totalSupply",
      "outputs": [
        {
          "internalType": "uint256",
          "name": "",
          "type": "uint256"
        }
      ],
      "stateMutability": "view",
      "type": "function",
      "constant": true
    },
    {
      "inputs": [
        {
          "internalType": "address",
          "name": "from",
          "type": "address"
        },
        {
          "internalType": "address",
          "name": "to",
          "type": "address"
        },
        {
          "internalType": "uint256",
          "name": "tokenId",
          "type": "uint256"
        }
      ],
      "name": "transferFrom",
      "outputs": [],
      "stateMutability": "nonpayable",
      "type": "function"
    },
    {
      "inputs": [
        {
          "internalType": "uint256",
          "name": "_startDate",
          "type": "uint256"
        },
        {
          "internalType": "string",
          "name": "_metadataIpfsCid",
          "type": "string"
        }
      ],
      "name": "createEvent",
      "outputs": [],
      "stateMutability": "nonpayable",
      "type": "function"
    },
    {
      "inputs": [
        {
          "internalType": "uint256",
          "name": "_eventId",
          "type": "uint256"
        },
        {
          "internalType": "uint32",
          "name": "_maxTickets",
          "type": "uint32"
        },
        {
          "internalType": "uint256",
          "name": "_ticketPrice",
          "type": "uint256"
        },
        {
          "internalType": "uint32",
          "name": "_resellTicketType",
          "type": "uint32"
        },
        {
          "internalType": "uint256",
          "name": "_resellTicketValue",
          "type": "uint256"
        },
        {
          "internalType": "string",
          "name": "_metadataIpfsCid",
          "type": "string"
        }
      ],
      "name": "createTicketCategory",
      "outputs": [],
      "stateMutability": "nonpayable",
      "type": "function"
    },
    {
      "inputs": [
        {
          "components": [
            {
              "internalType": "uint256",
              "name": "tokenId",
              "type": "uint256"
            },
            {
              "internalType": "string",
              "name": "uri",
              "type": "string"
            },
            {
              "components": [
                {
                  "internalType": "address payable",
                  "name": "account",
                  "type": "address"
                },
                {
                  "internalType": "uint96",
                  "name": "value",
                  "type": "uint96"
                }
              ],
              "internalType": "struct LibPart.Part[]",
              "name": "creators",
              "type": "tuple[]"
            },
            {
              "components": [
                {
                  "internalType": "address payable",
                  "name": "account",
                  "type": "address"
                },
                {
                  "internalType": "uint96",
                  "name": "value",
                  "type": "uint96"
                }
              ],
              "internalType": "struct LibPart.Part[]",
              "name": "royalties",
              "type": "tuple[]"
            },
            {
              "internalType": "bytes[]",
              "name": "signatures",
              "type": "bytes[]"
            }
          ],
          "internalType": "struct LibERC721LazyMint.Mint721Data",
          "name": "data",
          "type": "tuple"
        },
        {
          "internalType": "address",
          "name": "to",
          "type": "address"
        }
      ],
      "name": "mintAndTransfer",
      "outputs": [],
      "stateMutability": "nonpayable",
      "type": "function"
    },
    {
      "inputs": [
        {
          "components": [
            {
              "internalType": "uint256",
              "name": "tokenId",
              "type": "uint256"
            },
            {
              "internalType": "string",
              "name": "uri",
              "type": "string"
            },
            {
              "components": [
                {
                  "internalType": "address payable",
                  "name": "account",
                  "type": "address"
                },
                {
                  "internalType": "uint96",
                  "name": "value",
                  "type": "uint96"
                }
              ],
              "internalType": "struct LibPart.Part[]",
              "name": "creators",
              "type": "tuple[]"
            },
            {
              "components": [
                {
                  "internalType": "address payable",
                  "name": "account",
                  "type": "address"
                },
                {
                  "internalType": "uint96",
                  "name": "value",
                  "type": "uint96"
                }
              ],
              "internalType": "struct LibPart.Part[]",
              "name": "royalties",
              "type": "tuple[]"
            },
            {
              "internalType": "bytes[]",
              "name": "signatures",
              "type": "bytes[]"
            }
          ],
          "internalType": "struct LibERC721LazyMint.Mint721Data",
          "name": "data",
          "type": "tuple"
        },
        {
          "internalType": "address",
          "name": "from",
          "type": "address"
        },
        {
          "internalType": "address",
          "name": "to",
          "type": "address"
        }
      ],
      "name": "transferFromOrMint",
      "outputs": [],
      "stateMutability": "nonpayable",
      "type": "function"
    }
  ],
  "bytecode": "0x60806040526000600d556000600f553480156200001b57600080fd5b50604080518082018252600b81526a4e465469636b6574697a6560a81b602080830191909152825180840190935260088352671391951250d2d15560c21b9083015290620000706301ffc9a760e01b620000da565b8151620000859060069060208501906200015f565b5080516200009b9060079060208401906200015f565b50620000ae6380ac58cd60e01b620000da565b620000c0635b5e139f60e01b620000da565b620000d263780e9d6360e01b620000da565b50506200020b565b6001600160e01b031980821614156200013a576040805162461bcd60e51b815260206004820152601c60248201527f4552433136353a20696e76616c696420696e7465726661636520696400000000604482015290519081900360640190fd5b6001600160e01b0319166000908152602081905260409020805460ff19166001179055565b828054600181600116156101000203166002900490600052602060002090601f016020900481019282620001975760008555620001e2565b82601f10620001b257805160ff1916838001178555620001e2565b82800160010185558215620001e2579182015b82811115620001e2578251825591602001919060010190620001c5565b50620001f0929150620001f4565b5090565b5b80821115620001f05760008155600101620001f5565b612b5a806200021b6000396000f3fe608060405234801561001057600080fd5b50600436106101a35760003560e01c80636c0360eb116100ee578063a22cb46511610097578063c87b56dd11610071578063c87b56dd14610374578063cef2646d14610387578063e985e9c5146103ac578063f55434cc146103bf576101a3565b8063a22cb4651461032e578063b88d4fde14610341578063bb3bafd614610354576101a3565b80638924af74116100c85780638924af74146102f257806395d89b4114610313578063a1d255e11461031b576101a3565b80636c0360eb146102c457806370a08231146102cc578063832fbb29146102df576101a3565b806322a775b61161015057806342842e0e1161012a57806342842e0e1461028b5780634f6ccce71461029e5780636352211e146102b1576101a3565b806322a775b61461025257806323b872dd146102655780632f745c5914610278576101a3565b8063095ea7b311610181578063095ea7b3146102065780630b7914301461021b57806318160ddd1461023d576101a3565b806301ffc9a7146101a857806306fdde03146101d1578063081812fc146101e6575b600080fd5b6101bb6101b63660046123b7565b6103d2565b6040516101c891906126c7565b60405180910390f35b6101d961040d565b6040516101c891906126d2565b6101f96101f436600461249e565b6104a3565b6040516101c89190612648565b61021961021436600461238c565b610505565b005b61022e61022936600461249e565b6105db565b6040516101c893929190612683565b610245610691565b6040516101c891906127b4565b6102196102603660046123f7565b6106a2565b6102196102733660046122b1565b6106c6565b61024561028636600461238c565b61071d565b6102196102993660046122b1565b610748565b6102456102ac36600461249e565b610763565b6101f96102bf36600461249e565b610779565b6101d96107a1565b6102456102da36600461225d565b610802565b6102196102ed36600461243c565b61086a565b6103056103003660046124fb565b610903565b6040516101c892919061265c565b6101d9610951565b6102196103293660046124b6565b6109b2565b61021961033c36600461235b565b610a73565b61021961034f3660046122f1565b610b78565b61036761036236600461249e565b610bd6565b6040516101c891906126b4565b6101d961038236600461249e565b610c6a565b61039a61039536600461249e565b610eeb565b6040516101c89695949392919061285c565b6101bb6103ba366004612279565b610fb4565b6102196103cd36600461251c565b610fe2565b7fffffffff00000000000000000000000000000000000000000000000000000000811660009081526020819052604090205460ff165b919050565b60068054604080516020601f60026000196101006001881615020190951694909404938401819004810282018101909252828152606093909290918301828280156104995780601f1061046e57610100808354040283529160200191610499565b820191906000526020600020905b81548152906001019060200180831161047c57829003601f168201915b5050505050905090565b60006104ae826110dc565b6104e95760405162461bcd60e51b815260040180806020018281038252602c815260200180612a4f602c913960400191505060405180910390fd5b506000908152600460205260409020546001600160a01b031690565b600061051082610779565b9050806001600160a01b0316836001600160a01b031614156105635760405162461bcd60e51b8152600401808060200182810382526021815260200180612ad36021913960400191505060405180910390fd5b806001600160a01b03166105756110e9565b6001600160a01b031614806105915750610591816103ba6110e9565b6105cc5760405162461bcd60e51b81526004018080602001828103825260388152602001806129a26038913960400191505060405180910390fd5b6105d683836110ed565b505050565b600c6020908152600091825260409182902080546001808301546002808501805488516101009582161595909502600019011691909104601f81018790048702840187019097528683526001600160a01b039093169590949192918301828280156106875780601f1061065c57610100808354040283529160200191610687565b820191906000526020600020905b81548152906001019060200180831161066a57829003601f168201915b5050505050905083565b600061069d6002611168565b905090565b6106b0818360000151611173565b6106c2826000015183606001516112a1565b5050565b6106d76106d16110e9565b8261143d565b6107125760405162461bcd60e51b8152600401808060200182810382526031815260200180612af46031913960400191505060405180910390fd5b6105d68383836114e1565b6001600160a01b038216600090815260016020526040812061073f908361162d565b90505b92915050565b6105d683838360405180602001604052806000815250610b78565b600080610771600284611639565b509392505050565b600061074282604051806060016040528060298152602001612a046029913960029190611655565b60098054604080516020601f60026000196101006001881615020190951694909404938401819004810282018101909252828152606093909290918301828280156104995780601f1061046e57610100808354040283529160200191610499565b60006001600160a01b0382166108495760405162461bcd60e51b815260040180806020018281038252602a8152602001806129da602a913960400191505060405180910390fd5b6001600160a01b038216600090815260016020526040902061074290611168565b8251610875906110dc565b1561088e5761088982828560000151610748565b6105d6565b6040517f22a775b600000000000000000000000000000000000000000000000000000000815230906322a775b6906108cc90869085906004016126e5565b600060405180830381600087803b1580156108e657600080fd5b505af11580156108fa573d6000803e3d6000fd5b50505050505050565b600a602052816000526040600020818154811061091f57600080fd5b6000918252602090912001546001600160a01b0381169250600160a01b90046bffffffffffffffffffffffff16905082565b60078054604080516020601f60026000196101006001881615020190951694909404938401819004810282018101909252828152606093909290918301828280156104995780601f1061046e57610100808354040283529160200191610499565b600d546109bd611eeb565b338152602080820185815260408084018681526000868152600c8552919091208451815473ffffffffffffffffffffffffffffffffffffffff19166001600160a01b03909116178155915160018301555180518493610a23926002850192910190611f15565b5050600d80546001019055506040517f4dbfa2164915d724b7563de7ec811eea5545dec52bafbf05aa172af5da90e58690610a659084903390889088906127bd565b60405180910390a150505050565b610a7b6110e9565b6001600160a01b0316826001600160a01b03161415610ae1576040805162461bcd60e51b815260206004820152601960248201527f4552433732313a20617070726f766520746f2063616c6c657200000000000000604482015290519081900360640190fd5b8060056000610aee6110e9565b6001600160a01b03908116825260208083019390935260409182016000908120918716808252919093529120805460ff191692151592909217909155610b326110e9565b6001600160a01b03167f17307eab39ab6107e8899845ad3d59bd9653f200f220920489ca2b5937696c318360405180821515815260200191505060405180910390a35050565b610b89610b836110e9565b8361143d565b610bc45760405162461bcd60e51b8152600401808060200182810382526031815260200180612af46031913960400191505060405180910390fd5b610bd08484848461166c565b50505050565b6060600a6000838152602001908152602001600020805480602002602001604051908101604052809291908181526020016000905b82821015610c5f57600084815260209081902060408051808201909152908401546001600160a01b0381168252600160a01b90046bffffffffffffffffffffffff1681830152825260019092019101610c0b565b505050509050919050565b6060610c75826110dc565b610cb05760405162461bcd60e51b815260040180806020018281038252602f815260200180612aa4602f913960400191505060405180910390fd5b60008281526008602090815260408083208054825160026001831615610100026000190190921691909104601f810185900485028201850190935282815292909190830182828015610d435780601f10610d1857610100808354040283529160200191610d43565b820191906000526020600020905b815481529060010190602001808311610d2657829003601f168201915b505050505090506000610d546107a1565b9050805160001415610d6857509050610408565b815115610e295780826040516020018083805190602001908083835b60208310610da35780518252601f199092019160209182019101610d84565b51815160209384036101000a600019018019909216911617905285519190930192850191508083835b60208310610deb5780518252601f199092019160209182019101610dcc565b6001836020036101000a0380198251168184511680821785525050505050509050019250505060405160208183030381529060405292505050610408565b80610e33856116be565b6040516020018083805190602001908083835b60208310610e655780518252601f199092019160209182019101610e46565b51815160209384036101000a600019018019909216911617905285519190930192850191508083835b60208310610ead5780518252601f199092019160209182019101610e8e565b6001836020036101000a0380198251168184511680821785525050505050509050019250505060405160208183030381529060405292505050919050565b600e602090815260009182526040918290208054600180830154600280850154600386015460048701546005880180548b516101009882161598909802600019011694909404601f81018a90048a0287018a01909a52898652959863ffffffff9485169892979490911695949291830182828015610faa5780601f10610f7f57610100808354040283529160200191610faa565b820191906000526020600020905b815481529060010190602001808311610f8d57829003601f168201915b5050505050905086565b6001600160a01b03918216600090815260056020908152604080832093909416825291909152205460ff1690565b600f54610fed611fa1565b87815263ffffffff808816602080840191825260408085018a815289851660608701908152608087018a815260a088018a815260008a8152600e87529490942088518155955160018701805491891663ffffffff199283161790559251600287015590516003860180549190971692169190911790945592516004830155915180518493611082926005850192910190611f15565b5050600f80546001019055506040517f921beea2c3a9badf7c69cb893ae7424ae8aeb9f9730fd33d90f3daaa56805cc4906110ca908a9085908b908b908b908b908b9061280e565b60405180910390a15050505050505050565b60006107426002836117cd565b3390565b6000818152600460205260409020805473ffffffffffffffffffffffffffffffffffffffff19166001600160a01b038416908117909155819061112f82610779565b6001600160a01b03167f8c5be1e5ebec7d5bd14f71427d1e84f3dd0314c0f7b2291e5b200ac8c7c3b92560405160405180910390a45050565b6000610742826117d9565b6001600160a01b0382166111ce576040805162461bcd60e51b815260206004820181905260248201527f4552433732313a206d696e7420746f20746865207a65726f2061646472657373604482015290519081900360640190fd5b6111d7816110dc565b15611229576040805162461bcd60e51b815260206004820152601c60248201527f4552433732313a20746f6b656e20616c7265616479206d696e74656400000000604482015290519081900360640190fd5b611235600083836105d6565b6001600160a01b038216600090815260016020526040902061125790826117dd565b50611264600282846117e9565b5060405181906001600160a01b038416906000907fddf252ad1be2c89b69c2b068fc378daa952ba7f163c4a11628f55a4df523b3ef908290a45050565b60005b81518110156114325760006001600160a01b03168282815181106112c457fe5b6020026020010151600001516001600160a01b0316141561132c576040805162461bcd60e51b815260206004820152601b60248201527f526563697069656e742073686f756c642062652070726573656e740000000000604482015290519081900360640190fd5b81818151811061133857fe5b6020026020010151602001516bffffffffffffffffffffffff16600014156113a7576040805162461bcd60e51b815260206004820181905260248201527f526f79616c74792076616c75652073686f756c6420626520706f736974697665604482015290519081900360640190fd5b6000838152600a6020526040902082518390839081106113c357fe5b60209081029190910181015182546001818101855560009485529383902082519101805492909301516bffffffffffffffffffffffff16600160a01b026001600160a01b0391821673ffffffffffffffffffffffffffffffffffffffff199093169290921716179055016112a4565b506106c282826117ff565b6000611448826110dc565b6114835760405162461bcd60e51b815260040180806020018281038252602c815260200180612976602c913960400191505060405180910390fd5b600061148e83610779565b9050806001600160a01b0316846001600160a01b031614806114c95750836001600160a01b03166114be846104a3565b6001600160a01b0316145b806114d957506114d98185610fb4565b949350505050565b826001600160a01b03166114f482610779565b6001600160a01b0316146115395760405162461bcd60e51b8152600401808060200182810382526029815260200180612a7b6029913960400191505060405180910390fd5b6001600160a01b03821661157e5760405162461bcd60e51b81526004018080602001828103825260248152602001806129526024913960400191505060405180910390fd5b6115898383836105d6565b6115946000826110ed565b6001600160a01b03831660009081526001602052604090206115b6908261183c565b506001600160a01b03821660009081526001602052604090206115d990826117dd565b506115e6600282846117e9565b5080826001600160a01b0316846001600160a01b03167fddf252ad1be2c89b69c2b068fc378daa952ba7f163c4a11628f55a4df523b3ef60405160405180910390a4505050565b600061073f8383611848565b600080808061164886866118ac565b9097909650945050505050565b6000611662848484611927565b90505b9392505050565b6116778484846114e1565b611683848484846119f1565b610bd05760405162461bcd60e51b81526004018080602001828103825260328152602001806129206032913960400191505060405180910390fd5b6060816116ff575060408051808201909152600181527f30000000000000000000000000000000000000000000000000000000000000006020820152610408565b8160005b811561171757600101600a82049150611703565b60008167ffffffffffffffff8111801561173057600080fd5b506040519080825280601f01601f19166020018201604052801561175b576020820181803683370190505b50859350905060001982015b83156117c457600a840660300160f81b8282806001900393508151811061178a57fe5b60200101907effffffffffffffffffffffffffffffffffffffffffffffffffffffffffffff1916908160001a905350600a84049350611767565b50949350505050565b600061073f8383611b9b565b5490565b600061073f8383611bb3565b600061166284846001600160a01b038516611bfd565b7f3fa96d7b6bcbfe71ef171666d84db3cf52fa2d1c8afdb1cc8e486177f208b7df82826040516118309291906127f5565b60405180910390a15050565b600061073f8383611c94565b8154600090821061188a5760405162461bcd60e51b81526004018080602001828103825260228152602001806128fe6022913960400191505060405180910390fd5b82600001828154811061189957fe5b9060005260206000200154905092915050565b8154600090819083106118f05760405162461bcd60e51b8152600401808060200182810382526022815260200180612a2d6022913960400191505060405180910390fd5b600084600001848154811061190157fe5b906000526020600020906002020190508060000154816001015492509250509250929050565b600082815260018401602052604081205482816119c25760405162461bcd60e51b81526004018080602001828103825283818151815260200191508051906020019080838360005b8381101561198757818101518382015260200161196f565b50505050905090810190601f1680156119b45780820380516001836020036101000a031916815260200191505b509250505060405180910390fd5b508460000160018203815481106119d557fe5b9060005260206000209060020201600101549150509392505050565b6000611a05846001600160a01b0316611d5a565b611a11575060016114d9565b6000611b49630a85bd0160e11b611a266110e9565b88878760405160240180856001600160a01b03168152602001846001600160a01b0316815260200183815260200180602001828103825283818151815260200191508051906020019080838360005b83811015611a8d578181015183820152602001611a75565b50505050905090810190601f168015611aba5780820380516001836020036101000a031916815260200191505b5095505050505050604051602081830303815290604052907bffffffffffffffffffffffffffffffffffffffffffffffffffffffff19166020820180517bffffffffffffffffffffffffffffffffffffffffffffffffffffffff8381831617835250505050604051806060016040528060328152602001612920603291396001600160a01b0388169190611d60565b90506000818060200190516020811015611b6257600080fd5b50517fffffffff0000000000000000000000000000000000000000000000000000000016630a85bd0160e11b1492505050949350505050565b60009081526001919091016020526040902054151590565b6000611bbf8383611b9b565b611bf557508154600181810184556000848152602080822090930184905584548482528286019093526040902091909155610742565b506000610742565b600082815260018401602052604081205480611c62575050604080518082018252838152602080820184815286546001818101895560008981528481209551600290930290950191825591519082015586548684528188019092529290912055611665565b82856000016001830381548110611c7557fe5b9060005260206000209060020201600101819055506000915050611665565b60008181526001830160205260408120548015611d505783546000198083019190810190600090879083908110611cc757fe5b9060005260206000200154905080876000018481548110611ce457fe5b600091825260208083209091019290925582815260018981019092526040902090840190558654879080611d1457fe5b60019003818190600052602060002001600090559055866001016000878152602001908152602001600020600090556001945050505050610742565b6000915050610742565b3b151590565b6060611662848460008585611d7485611d5a565b611dc5576040805162461bcd60e51b815260206004820152601d60248201527f416464726573733a2063616c6c20746f206e6f6e2d636f6e7472616374000000604482015290519081900360640190fd5b600080866001600160a01b031685876040518082805190602001908083835b60208310611e035780518252601f199092019160209182019101611de4565b6001836020036101000a03801982511681845116808217855250505050505090500191505060006040518083038185875af1925050503d8060008114611e65576040519150601f19603f3d011682016040523d82523d6000602084013e611e6a565b606091505b5091509150611e7a828286611e85565b979650505050505050565b60608315611e94575081611665565b825115611ea45782518084602001fd5b60405162461bcd60e51b815260206004820181815284516024840152845185939192839260440191908501908083836000831561198757818101518382015260200161196f565b604051806060016040528060006001600160a01b0316815260200160008152602001606081525090565b828054600181600116156101000203166002900490600052602060002090601f016020900481019282611f4b5760008555611f91565b82601f10611f6457805160ff1916838001178555611f91565b82800160010185558215611f91579182015b82811115611f91578251825591602001919060010190611f76565b50611f9d929150611fe3565b5090565b6040518060c0016040528060008152602001600063ffffffff16815260200160008152602001600063ffffffff16815260200160008152602001606081525090565b5b80821115611f9d5760008155600101611fe4565b600082601f830112612008578081fd5b8135602061201d612018836128c7565b6128a3565b82815281810190858301855b8581101561205257612040898684358b0101612120565b84529284019290840190600101612029565b5090979650505050505050565b600082601f83011261206f578081fd5b8135602061207f612018836128c7565b8281528181019085830160408086028801850189101561209d578687fd5b865b868110156121125781838b0312156120b5578788fd5b815182810181811067ffffffffffffffff821117156120d057fe5b835283356120dd816128e5565b8152838701356bffffffffffffffffffffffff811681146120fc57898afd5b818801528552938501939181019160010161209f565b509198975050505050505050565b600082601f830112612130578081fd5b813567ffffffffffffffff81111561214457fe5b612157601f8201601f19166020016128a3565b81815284602083860101111561216b578283fd5b816020850160208301379081016020019190915292915050565b600060a08284031215612196578081fd5b6121a060a06128a3565b905081358152602082013567ffffffffffffffff808211156121c157600080fd5b6121cd85838601612120565b602084015260408401359150808211156121e657600080fd5b6121f28583860161205f565b6040840152606084013591508082111561220b57600080fd5b6122178583860161205f565b6060840152608084013591508082111561223057600080fd5b5061223d84828501611ff8565b60808301525092915050565b803563ffffffff8116811461040857600080fd5b60006020828403121561226e578081fd5b8135611665816128e5565b6000806040838503121561228b578081fd5b8235612296816128e5565b915060208301356122a6816128e5565b809150509250929050565b6000806000606084860312156122c5578081fd5b83356122d0816128e5565b925060208401356122e0816128e5565b929592945050506040919091013590565b60008060008060808587031215612306578081fd5b8435612311816128e5565b93506020850135612321816128e5565b925060408501359150606085013567ffffffffffffffff811115612343578182fd5b61234f87828801612120565b91505092959194509250565b6000806040838503121561236d578182fd5b8235612378816128e5565b9150602083013580151581146122a6578182fd5b6000806040838503121561239e578182fd5b82356123a9816128e5565b946020939093013593505050565b6000602082840312156123c8578081fd5b81357fffffffff0000000000000000000000000000000000000000000000000000000081168114611665578182fd5b60008060408385031215612409578182fd5b823567ffffffffffffffff81111561241f578283fd5b61242b85828601612185565b92505060208301356122a6816128e5565b600080600060608486031215612450578081fd5b833567ffffffffffffffff811115612466578182fd5b61247286828701612185565b9350506020840135612483816128e5565b91506040840135612493816128e5565b809150509250925092565b6000602082840312156124af578081fd5b5035919050565b600080604083850312156124c8578182fd5b82359150602083013567ffffffffffffffff8111156124e5578182fd5b6124f185828601612120565b9150509250929050565b6000806040838503121561250d578182fd5b50508035926020909101359150565b60008060008060008060c08789031215612534578384fd5b8635955061254460208801612249565b94506040870135935061255960608801612249565b92506080870135915060a087013567ffffffffffffffff81111561257b578182fd5b61258789828a01612120565b9150509295509295509295565b6001600160a01b03169052565b6000815180845260208085019450808401835b838110156125f257815180516001600160a01b031688528301516bffffffffffffffffffffffff1683880152604090960195908201906001016125b4565b509495945050505050565b60008151808452815b8181101561262257602081850181015186830182015201612606565b818111156126335782602083870101525b50601f01601f19169290920160200192915050565b6001600160a01b0391909116815260200190565b6001600160a01b039290921682526bffffffffffffffffffffffff16602082015260400190565b60006001600160a01b0385168252836020830152606060408301526126ab60608301846125fd565b95945050505050565b60006020825261073f60208301846125a1565b901515815260200190565b60006020825261073f60208301846125fd565b6000604082528351604083015260208085015160a0606085015261270c60e08501826125fd565b90506040860151603f198086840301608087015261272a83836125a1565b925060608801519150808684030160a087015261274783836125a1565b608089015187820390920160c0880152815180825290935090840191508383019084810284018501865b8281101561279f57601f1986830301845261278d8286516125fd565b94870194938701939150600101612771565b50809650505050505061077181840185612594565b90815260200190565b60008582526001600160a01b0385166020830152836040830152608060608301526127eb60808301846125fd565b9695505050505050565b60008382526040602083015261166260408301846125a1565b600088825287602083015263ffffffff80881660408401528660608401528086166080840152508360a083015260e060c083015261284f60e08301846125fd565b9998505050505050505050565b600087825263ffffffff808816602084015286604084015280861660608401525083608083015260c060a083015261289760c08301846125fd565b98975050505050505050565b60405181810167ffffffffffffffff811182821017156128bf57fe5b604052919050565b600067ffffffffffffffff8211156128db57fe5b5060209081020190565b6001600160a01b03811681146128fa57600080fd5b5056fe456e756d657261626c655365743a20696e646578206f7574206f6620626f756e64734552433732313a207472616e7366657220746f206e6f6e20455243373231526563656976657220696d706c656d656e7465724552433732313a207472616e7366657220746f20746865207a65726f20616464726573734552433732313a206f70657261746f7220717565727920666f72206e6f6e6578697374656e7420746f6b656e4552433732313a20617070726f76652063616c6c6572206973206e6f74206f776e6572206e6f7220617070726f76656420666f7220616c6c4552433732313a2062616c616e636520717565727920666f7220746865207a65726f20616464726573734552433732313a206f776e657220717565727920666f72206e6f6e6578697374656e7420746f6b656e456e756d657261626c654d61703a20696e646578206f7574206f6620626f756e64734552433732313a20617070726f76656420717565727920666f72206e6f6e6578697374656e7420746f6b656e4552433732313a207472616e73666572206f6620746f6b656e2074686174206973206e6f74206f776e4552433732314d657461646174613a2055524920717565727920666f72206e6f6e6578697374656e7420746f6b656e4552433732313a20617070726f76616c20746f2063757272656e74206f776e65724552433732313a207472616e736665722063616c6c6572206973206e6f74206f776e6572206e6f7220617070726f766564a26469706673582212209e6de9b596ee83c75a84273df4a77dfb9e43c929f22153cf01da26514cb4f7e064736f6c63430007060033",
  "immutableReferences": {},
  "source": "// SPDX-License-Identifier: GNU General Public License v3.0\npragma solidity ^0.7.6;\npragma abicoder v2;\n\nimport \"@openzeppelin/contracts/token/ERC721/ERC721.sol\";\nimport \"@openzeppelin/contracts/utils/Counters.sol\";\nimport \"@rarible/lazy-mint/contracts/erc-721/LibERC721LazyMint.sol\";\nimport \"@rarible/royalties/contracts/impl/RoyaltiesV2Impl.sol\";\nimport \"@rarible/royalties-upgradeable/contracts/RoyaltiesV2Upgradeable.sol\";\n\ncontract NFTicketize is ERC721, RoyaltiesV2Impl {\n\n  using Counters for Counters.Counter;\n  Counters.Counter private _tokenIds;\n\n  enum ResellTicketType {\n    Fixed,\n    Percent\n  }\n\n  event NewEvent(uint256 id, address creator, uint256 startDate, string metadataIpfsCid);\n  event NewTicketCategory(uint256 eventId, uint256 id, uint32 maxTickets, uint256 ticketPrice, uint32 resellTicketType, uint256 resellTicketValue, string metadataIpfsCid);\n\n  struct Event {\n    address creator;\n    uint256 startDate;\n    string metadataIpfsCid;\n  }\n\n  struct TicketCategory {\n    uint256 eventId;\n    uint32 maxTickets;\n    uint256 ticketPrice;\n    uint32 resellTicketType;\n    uint256 resellTicketValue;\n    string metadataIpfsCid;\n  }\n\n  mapping(uint256 => Event) public events;\n  uint256 eventCounter = 0;\n  \n  mapping(uint256 => TicketCategory) public ticketCategories;\n  uint256 ticketCategoryCounter = 0;\n\n  constructor() ERC721(\"NFTicketize\", \"NFTICKET\") {\n  }\n\n  function createEvent(uint256 _startDate, string memory _metadataIpfsCid) public {\n      uint256 currentEventCounter = eventCounter;\n      Event memory _event;\n      _event.creator = msg.sender;\n      _event.startDate = _startDate;\n      _event.metadataIpfsCid = _metadataIpfsCid;\n      events[currentEventCounter] = _event;\n      eventCounter++;\n      \n      emit NewEvent(currentEventCounter, msg.sender, _startDate, _metadataIpfsCid);\n  }\n\n  function createTicketCategory(uint256 _eventId, uint32 _maxTickets, uint256 _ticketPrice, uint32 _resellTicketType, uint256 _resellTicketValue, string memory _metadataIpfsCid) public {\n      uint256 currentTicketCategoryCounter = ticketCategoryCounter;\n      TicketCategory memory _ticketCategory;\n      _ticketCategory.eventId = _eventId;\n      _ticketCategory.maxTickets = _maxTickets;\n      _ticketCategory.ticketPrice = _ticketPrice;\n      _ticketCategory.resellTicketType = _resellTicketType;\n      _ticketCategory.resellTicketValue = _resellTicketValue;\n      _ticketCategory.metadataIpfsCid = _metadataIpfsCid;\n      ticketCategories[currentTicketCategoryCounter] = _ticketCategory;\n      ticketCategoryCounter++;\n      \n      emit NewTicketCategory(_eventId, currentTicketCategoryCounter, _maxTickets, _ticketPrice, _resellTicketType, _resellTicketValue, _metadataIpfsCid);\n  }\n\n  function mintAndTransfer(\n        LibERC721LazyMint.Mint721Data memory data,\n        address to\n    ) external {\n        _mint(to, data.tokenId);\n        _saveRoyalties(data.tokenId, data.royalties);\n    }\n\n    function transferFromOrMint(\n        LibERC721LazyMint.Mint721Data memory data,\n        address from,\n        address to\n    ) external {\n        if (_exists(data.tokenId)) {\n            safeTransferFrom(from, to, data.tokenId);\n        } else {\n            this.mintAndTransfer(data, to);\n        }\n    }\n\n}",
  "sourcePath": "D:/Posao - Stefan/Stefan - razno/Gitcoin/Hackathon - Rarible/nft-ticketize/contracts/NFTicketize.sol",
  "compiler": {
    "name": "solc",
    "version": "0.7.6+commit.7338295f.Emscripten.clang"
  },
  "schemaVersion": "3.4.1",
  "updatedAt": "2021-06-28T23:44:20.839Z",
  "networkType": "ethereum",
  "devdoc": {
    "kind": "dev",
    "methods": {
      "approve(address,uint256)": {
        "details": "See {IERC721-approve}."
      },
      "balanceOf(address)": {
        "details": "See {IERC721-balanceOf}."
      },
      "baseURI()": {
        "details": "Returns the base URI set via {_setBaseURI}. This will be automatically added as a prefix in {tokenURI} to each token's URI, or to the token ID if no specific URI is set for that token ID."
      },
      "getApproved(uint256)": {
        "details": "See {IERC721-getApproved}."
      },
      "isApprovedForAll(address,address)": {
        "details": "See {IERC721-isApprovedForAll}."
      },
      "name()": {
        "details": "See {IERC721Metadata-name}."
      },
      "ownerOf(uint256)": {
        "details": "See {IERC721-ownerOf}."
      },
      "safeTransferFrom(address,address,uint256)": {
        "details": "See {IERC721-safeTransferFrom}."
      },
      "safeTransferFrom(address,address,uint256,bytes)": {
        "details": "See {IERC721-safeTransferFrom}."
      },
      "setApprovalForAll(address,bool)": {
        "details": "See {IERC721-setApprovalForAll}."
      },
      "supportsInterface(bytes4)": {
        "details": "See {IERC165-supportsInterface}. Time complexity O(1), guaranteed to always use less than 30 000 gas."
      },
      "symbol()": {
        "details": "See {IERC721Metadata-symbol}."
      },
      "tokenByIndex(uint256)": {
        "details": "See {IERC721Enumerable-tokenByIndex}."
      },
      "tokenOfOwnerByIndex(address,uint256)": {
        "details": "See {IERC721Enumerable-tokenOfOwnerByIndex}."
      },
      "tokenURI(uint256)": {
        "details": "See {IERC721Metadata-tokenURI}."
      },
      "totalSupply()": {
        "details": "See {IERC721Enumerable-totalSupply}."
      },
      "transferFrom(address,address,uint256)": {
        "details": "See {IERC721-transferFrom}."
      }
    },
    "version": 1
  },
  "userdoc": {
    "kind": "user",
    "methods": {},
    "version": 1
  }
}