{
  "contractName": "ERC1155RaribleUser",
  "abi": [
    {
      "anonymous": false,
      "inputs": [
        {
          "indexed": true,
          "internalType": "address",
          "name": "account",
          "type": "address"
        },
        {
          "indexed": true,
          "internalType": "address",
          "name": "operator",
          "type": "address"
        },
        {
          "indexed": false,
          "internalType": "bool",
          "name": "approved",
          "type": "bool"
        }
      ],
      "name": "ApprovalForAll",
      "type": "event"
    },
    {
      "anonymous": false,
      "inputs": [
        {
          "indexed": false,
          "internalType": "address",
          "name": "owner",
          "type": "address"
        },
        {
          "indexed": false,
          "internalType": "string",
          "name": "name",
          "type": "string"
        },
        {
          "indexed": false,
          "internalType": "string",
          "name": "symbol",
          "type": "string"
        }
      ],
      "name": "CreateERC1155RaribleUser",
      "type": "event"
    },
    {
      "anonymous": false,
      "inputs": [
        {
          "indexed": false,
          "internalType": "uint256",
          "name": "",
          "type": "uint256"
        },
        {
          "components": [
            {
              "internalType": "address payable",
              "name": "account",
              "type": "address"
            },
            {
              "internalType": "uint96",
              "name": "value",
              "type": "uint96"
            }
          ],
          "indexed": false,
          "internalType": "struct LibPart.Part[]",
          "name": "",
          "type": "tuple[]"
        }
      ],
      "name": "Creators",
      "type": "event"
    },
    {
      "anonymous": false,
      "inputs": [
        {
          "indexed": false,
          "internalType": "uint256",
          "name": "tokenId",
          "type": "uint256"
        },
        {
          "indexed": false,
          "internalType": "string",
          "name": "uri",
          "type": "string"
        },
        {
          "components": [
            {
              "internalType": "address payable",
              "name": "account",
              "type": "address"
            },
            {
              "internalType": "uint96",
              "name": "value",
              "type": "uint96"
            }
          ],
          "indexed": false,
          "internalType": "struct LibPart.Part[]",
          "name": "creators",
          "type": "tuple[]"
        },
        {
          "indexed": false,
          "internalType": "uint256",
          "name": "value",
          "type": "uint256"
        }
      ],
      "name": "Mint",
      "type": "event"
    },
    {
      "anonymous": false,
      "inputs": [
        {
          "indexed": true,
          "internalType": "address",
          "name": "previousOwner",
          "type": "address"
        },
        {
          "indexed": true,
          "internalType": "address",
          "name": "newOwner",
          "type": "address"
        }
      ],
      "name": "OwnershipTransferred",
      "type": "event"
    },
    {
      "anonymous": false,
      "inputs": [
        {
          "indexed": false,
          "internalType": "uint256",
          "name": "tokenId",
          "type": "uint256"
        },
        {
          "components": [
            {
              "internalType": "address payable",
              "name": "account",
              "type": "address"
            },
            {
              "internalType": "uint96",
              "name": "value",
              "type": "uint96"
            }
          ],
          "indexed": false,
          "internalType": "struct LibPart.Part[]",
          "name": "royalties",
          "type": "tuple[]"
        }
      ],
      "name": "RoyaltiesSet",
      "type": "event"
    },
    {
      "anonymous": false,
      "inputs": [
        {
          "indexed": false,
          "internalType": "uint256",
          "name": "",
          "type": "uint256"
        },
        {
          "indexed": false,
          "internalType": "uint256",
          "name": "",
          "type": "uint256"
        }
      ],
      "name": "Supply",
      "type": "event"
    },
    {
      "anonymous": false,
      "inputs": [
        {
          "indexed": true,
          "internalType": "address",
          "name": "operator",
          "type": "address"
        },
        {
          "indexed": true,
          "internalType": "address",
          "name": "from",
          "type": "address"
        },
        {
          "indexed": true,
          "internalType": "address",
          "name": "to",
          "type": "address"
        },
        {
          "indexed": false,
          "internalType": "uint256[]",
          "name": "ids",
          "type": "uint256[]"
        },
        {
          "indexed": false,
          "internalType": "uint256[]",
          "name": "values",
          "type": "uint256[]"
        }
      ],
      "name": "TransferBatch",
      "type": "event"
    },
    {
      "anonymous": false,
      "inputs": [
        {
          "indexed": true,
          "internalType": "address",
          "name": "operator",
          "type": "address"
        },
        {
          "indexed": true,
          "internalType": "address",
          "name": "from",
          "type": "address"
        },
        {
          "indexed": true,
          "internalType": "address",
          "name": "to",
          "type": "address"
        },
        {
          "indexed": false,
          "internalType": "uint256",
          "name": "id",
          "type": "uint256"
        },
        {
          "indexed": false,
          "internalType": "uint256",
          "name": "value",
          "type": "uint256"
        }
      ],
      "name": "TransferSingle",
      "type": "event"
    },
    {
      "anonymous": false,
      "inputs": [
        {
          "indexed": false,
          "internalType": "string",
          "name": "value",
          "type": "string"
        },
        {
          "indexed": true,
          "internalType": "uint256",
          "name": "id",
          "type": "uint256"
        }
      ],
      "name": "URI",
      "type": "event"
    },
    {
      "inputs": [
        {
          "internalType": "address",
          "name": "account",
          "type": "address"
        },
        {
          "internalType": "uint256",
          "name": "id",
          "type": "uint256"
        }
      ],
      "name": "balanceOf",
      "outputs": [
        {
          "internalType": "uint256",
          "name": "",
          "type": "uint256"
        }
      ],
      "stateMutability": "view",
      "type": "function"
    },
    {
      "inputs": [
        {
          "internalType": "address[]",
          "name": "accounts",
          "type": "address[]"
        },
        {
          "internalType": "uint256[]",
          "name": "ids",
          "type": "uint256[]"
        }
      ],
      "name": "balanceOfBatch",
      "outputs": [
        {
          "internalType": "uint256[]",
          "name": "",
          "type": "uint256[]"
        }
      ],
      "stateMutability": "view",
      "type": "function"
    },
    {
      "inputs": [],
      "name": "baseURI",
      "outputs": [
        {
          "internalType": "string",
          "name": "",
          "type": "string"
        }
      ],
      "stateMutability": "view",
      "type": "function"
    },
    {
      "inputs": [
        {
          "internalType": "address",
          "name": "account",
          "type": "address"
        },
        {
          "internalType": "uint256",
          "name": "id",
          "type": "uint256"
        },
        {
          "internalType": "uint256",
          "name": "value",
          "type": "uint256"
        }
      ],
      "name": "burn",
      "outputs": [],
      "stateMutability": "nonpayable",
      "type": "function"
    },
    {
      "inputs": [
        {
          "internalType": "address",
          "name": "account",
          "type": "address"
        },
        {
          "internalType": "uint256[]",
          "name": "ids",
          "type": "uint256[]"
        },
        {
          "internalType": "uint256[]",
          "name": "values",
          "type": "uint256[]"
        }
      ],
      "name": "burnBatch",
      "outputs": [],
      "stateMutability": "nonpayable",
      "type": "function"
    },
    {
      "inputs": [],
      "name": "contractURI",
      "outputs": [
        {
          "internalType": "string",
          "name": "",
          "type": "string"
        }
      ],
      "stateMutability": "view",
      "type": "function"
    },
    {
      "inputs": [
        {
          "internalType": "uint256",
          "name": "",
          "type": "uint256"
        },
        {
          "internalType": "uint256",
          "name": "",
          "type": "uint256"
        }
      ],
      "name": "creators",
      "outputs": [
        {
          "internalType": "address payable",
          "name": "account",
          "type": "address"
        },
        {
          "internalType": "uint96",
          "name": "value",
          "type": "uint96"
        }
      ],
      "stateMutability": "view",
      "type": "function"
    },
    {
      "inputs": [
        {
          "internalType": "uint256",
          "name": "_id",
          "type": "uint256"
        }
      ],
      "name": "getCreators",
      "outputs": [
        {
          "components": [
            {
              "internalType": "address payable",
              "name": "account",
              "type": "address"
            },
            {
              "internalType": "uint96",
              "name": "value",
              "type": "uint96"
            }
          ],
          "internalType": "struct LibPart.Part[]",
          "name": "",
          "type": "tuple[]"
        }
      ],
      "stateMutability": "view",
      "type": "function"
    },
    {
      "inputs": [
        {
          "internalType": "uint256",
          "name": "id",
          "type": "uint256"
        }
      ],
      "name": "getRoyalties",
      "outputs": [
        {
          "components": [
            {
              "internalType": "address payable",
              "name": "account",
              "type": "address"
            },
            {
              "internalType": "uint96",
              "name": "value",
              "type": "uint96"
            }
          ],
          "internalType": "struct LibPart.Part[]",
          "name": "",
          "type": "tuple[]"
        }
      ],
      "stateMutability": "view",
      "type": "function"
    },
    {
      "inputs": [
        {
          "internalType": "address",
          "name": "account",
          "type": "address"
        },
        {
          "internalType": "address",
          "name": "operator",
          "type": "address"
        }
      ],
      "name": "isApprovedForAll",
      "outputs": [
        {
          "internalType": "bool",
          "name": "",
          "type": "bool"
        }
      ],
      "stateMutability": "view",
      "type": "function"
    },
    {
      "inputs": [],
      "name": "name",
      "outputs": [
        {
          "internalType": "string",
          "name": "",
          "type": "string"
        }
      ],
      "stateMutability": "view",
      "type": "function"
    },
    {
      "inputs": [],
      "name": "owner",
      "outputs": [
        {
          "internalType": "address",
          "name": "",
          "type": "address"
        }
      ],
      "stateMutability": "view",
      "type": "function"
    },
    {
      "inputs": [],
      "name": "renounceOwnership",
      "outputs": [],
      "stateMutability": "nonpayable",
      "type": "function"
    },
    {
      "inputs": [
        {
          "internalType": "uint256",
          "name": "",
          "type": "uint256"
        },
        {
          "internalType": "uint256",
          "name": "",
          "type": "uint256"
        }
      ],
      "name": "royalties",
      "outputs": [
        {
          "internalType": "address payable",
          "name": "account",
          "type": "address"
        },
        {
          "internalType": "uint96",
          "name": "value",
          "type": "uint96"
        }
      ],
      "stateMutability": "view",
      "type": "function"
    },
    {
      "inputs": [
        {
          "internalType": "address",
          "name": "from",
          "type": "address"
        },
        {
          "internalType": "address",
          "name": "to",
          "type": "address"
        },
        {
          "internalType": "uint256[]",
          "name": "ids",
          "type": "uint256[]"
        },
        {
          "internalType": "uint256[]",
          "name": "amounts",
          "type": "uint256[]"
        },
        {
          "internalType": "bytes",
          "name": "data",
          "type": "bytes"
        }
      ],
      "name": "safeBatchTransferFrom",
      "outputs": [],
      "stateMutability": "nonpayable",
      "type": "function"
    },
    {
      "inputs": [
        {
          "internalType": "address",
          "name": "from",
          "type": "address"
        },
        {
          "internalType": "address",
          "name": "to",
          "type": "address"
        },
        {
          "internalType": "uint256",
          "name": "id",
          "type": "uint256"
        },
        {
          "internalType": "uint256",
          "name": "amount",
          "type": "uint256"
        },
        {
          "internalType": "bytes",
          "name": "data",
          "type": "bytes"
        }
      ],
      "name": "safeTransferFrom",
      "outputs": [],
      "stateMutability": "nonpayable",
      "type": "function"
    },
    {
      "inputs": [
        {
          "internalType": "address",
          "name": "operator",
          "type": "address"
        },
        {
          "internalType": "bool",
          "name": "approved",
          "type": "bool"
        }
      ],
      "name": "setApprovalForAll",
      "outputs": [],
      "stateMutability": "nonpayable",
      "type": "function"
    },
    {
      "inputs": [
        {
          "internalType": "bytes4",
          "name": "interfaceId",
          "type": "bytes4"
        }
      ],
      "name": "supportsInterface",
      "outputs": [
        {
          "internalType": "bool",
          "name": "",
          "type": "bool"
        }
      ],
      "stateMutability": "view",
      "type": "function"
    },
    {
      "inputs": [],
      "name": "symbol",
      "outputs": [
        {
          "internalType": "string",
          "name": "",
          "type": "string"
        }
      ],
      "stateMutability": "view",
      "type": "function"
    },
    {
      "inputs": [
        {
          "components": [
            {
              "internalType": "uint256",
              "name": "tokenId",
              "type": "uint256"
            },
            {
              "internalType": "string",
              "name": "uri",
              "type": "string"
            },
            {
              "internalType": "uint256",
              "name": "supply",
              "type": "uint256"
            },
            {
              "components": [
                {
                  "internalType": "address payable",
                  "name": "account",
                  "type": "address"
                },
                {
                  "internalType": "uint96",
                  "name": "value",
                  "type": "uint96"
                }
              ],
              "internalType": "struct LibPart.Part[]",
              "name": "creators",
              "type": "tuple[]"
            },
            {
              "components": [
                {
                  "internalType": "address payable",
                  "name": "account",
                  "type": "address"
                },
                {
                  "internalType": "uint96",
                  "name": "value",
                  "type": "uint96"
                }
              ],
              "internalType": "struct LibPart.Part[]",
              "name": "royalties",
              "type": "tuple[]"
            },
            {
              "internalType": "bytes[]",
              "name": "signatures",
              "type": "bytes[]"
            }
          ],
          "internalType": "struct LibERC1155LazyMint.Mint1155Data",
          "name": "data",
          "type": "tuple"
        },
        {
          "internalType": "address",
          "name": "from",
          "type": "address"
        },
        {
          "internalType": "address",
          "name": "to",
          "type": "address"
        },
        {
          "internalType": "uint256",
          "name": "amount",
          "type": "uint256"
        }
      ],
      "name": "transferFromOrMint",
      "outputs": [],
      "stateMutability": "nonpayable",
      "type": "function"
    },
    {
      "inputs": [
        {
          "internalType": "address",
          "name": "newOwner",
          "type": "address"
        }
      ],
      "name": "transferOwnership",
      "outputs": [],
      "stateMutability": "nonpayable",
      "type": "function"
    },
    {
      "inputs": [
        {
          "internalType": "string",
          "name": "_name",
          "type": "string"
        },
        {
          "internalType": "string",
          "name": "_symbol",
          "type": "string"
        },
        {
          "internalType": "string",
          "name": "baseURI",
          "type": "string"
        },
        {
          "internalType": "string",
          "name": "contractURI",
          "type": "string"
        },
        {
          "internalType": "address[]",
          "name": "operators",
          "type": "address[]"
        }
      ],
      "name": "__ERC1155RaribleUser_init",
      "outputs": [],
      "stateMutability": "nonpayable",
      "type": "function"
    },
    {
      "inputs": [
        {
          "internalType": "uint256",
          "name": "tokenId",
          "type": "uint256"
        }
      ],
      "name": "uri",
      "outputs": [
        {
          "internalType": "string",
          "name": "",
          "type": "string"
        }
      ],
      "stateMutability": "view",
      "type": "function"
    },
    {
      "inputs": [
        {
          "components": [
            {
              "internalType": "uint256",
              "name": "tokenId",
              "type": "uint256"
            },
            {
              "internalType": "string",
              "name": "uri",
              "type": "string"
            },
            {
              "internalType": "uint256",
              "name": "supply",
              "type": "uint256"
            },
            {
              "components": [
                {
                  "internalType": "address payable",
                  "name": "account",
                  "type": "address"
                },
                {
                  "internalType": "uint96",
                  "name": "value",
                  "type": "uint96"
                }
              ],
              "internalType": "struct LibPart.Part[]",
              "name": "creators",
              "type": "tuple[]"
            },
            {
              "components": [
                {
                  "internalType": "address payable",
                  "name": "account",
                  "type": "address"
                },
                {
                  "internalType": "uint96",
                  "name": "value",
                  "type": "uint96"
                }
              ],
              "internalType": "struct LibPart.Part[]",
              "name": "royalties",
              "type": "tuple[]"
            },
            {
              "internalType": "bytes[]",
              "name": "signatures",
              "type": "bytes[]"
            }
          ],
          "internalType": "struct LibERC1155LazyMint.Mint1155Data",
          "name": "data",
          "type": "tuple"
        },
        {
          "internalType": "address",
          "name": "to",
          "type": "address"
        },
        {
          "internalType": "uint256",
          "name": "_amount",
          "type": "uint256"
        }
      ],
      "name": "mintAndTransfer",
      "outputs": [],
      "stateMutability": "nonpayable",
      "type": "function"
    }
  ],
  "bytecode": "0x608060405234801561001057600080fd5b50616e6d80620000216000396000f3fe608060405234801561001057600080fd5b50600436106101575760003560e01c80638924af74116100c3578063e8a3d4851161007c578063e8a3d485146103ec578063e985e9c51461040a578063f242432a1461043a578063f2fde38b14610456578063f5298aca14610472578063ffc4e0a71461048e57610157565b80638924af74146103025780638da5cb5b1461033357806395d89b411461035157806398d0b4fb1461036f578063a22cb465146103a0578063bb3bafd6146103bc57610157565b80634e1273f4116101155780634e1273f414610242578063650e5ad7146102725780636b20c4541461028e5780636c0360eb146102aa578063715018a6146102c8578063891be974146102d257610157565b8062fdd58e1461015c57806301ffc9a71461018c57806306fdde03146101bc5780630e89341c146101da5780630eaead671461020a5780632eb2c2d614610226575b600080fd5b61017660048036038101906101719190615cec565b6104aa565b60405161018391906166d3565b60405180910390f35b6101a660048036038101906101a19190615de3565b61058a565b6040516101b39190616576565b60405180910390f35b6101c46105f2565b6040516101d19190616591565b60405180910390f35b6101f460048036038101906101ef9190615fdd565b610691565b6040516102019190616591565b60405180910390f35b610224600480360381019061021f9190615f76565b6106a3565b005b610240600480360381019061023b9190615ae3565b610744565b005b61025c60048036038101906102579190615d77565b610bcf565b6040516102699190616554565b60405180910390f35b61028c60048036038101906102879190615e0c565b610ce1565b005b6102a860048036038101906102a39190615c31565b610eca565b005b6102b2610f7d565b6040516102bf9190616591565b60405180910390f35b6102d061101f565b005b6102ec60048036038101906102e79190615fdd565b61118f565b6040516102f99190616532565b60405180910390f35b61031c60048036038101906103179190616006565b611292565b60405161032a929190616509565b60405180910390f35b61033b611308565b60405161034891906164a9565b60405180910390f35b610359611332565b6040516103669190616591565b60405180910390f35b61038960048036038101906103849190616006565b6113d1565b604051610397929190616509565b60405180910390f35b6103ba60048036038101906103b59190615cb0565b611447565b005b6103d660048036038101906103d19190615fdd565b6115e0565b6040516103e39190616532565b60405180910390f35b6103f46116e3565b6040516104019190616591565b60405180910390f35b610424600480360381019061041f9190615aa7565b611782565b6040516104319190616576565b60405180910390f35b610454600480360381019061044f9190615ba2565b611816565b005b610470600480360381019061046b9190615a7e565b611b8b565b005b61048c60048036038101906104879190615d28565b611d80565b005b6104a860048036038101906104a39190615efb565b611e33565b005b60008073ffffffffffffffffffffffffffffffffffffffff168373ffffffffffffffffffffffffffffffffffffffff161415610531576040517f08c379a000000000000000000000000000000000000000000000000000000000815260040180806020018281038252602b815260200180616be9602b913960400191505060405180910390fd5b6097600083815260200190815260200160002060008473ffffffffffffffffffffffffffffffffffffffff1673ffffffffffffffffffffffffffffffffffffffff16815260200190815260200160002054905092915050565b600060656000837bffffffffffffffffffffffffffffffffffffffffffffffffffffffff19167bffffffffffffffffffffffffffffffffffffffffffffffffffffffff1916815260200190815260200160002060009054906101000a900460ff169050919050565b61022f8054600181600116156101000203166002900480601f0160208091040260200160405190810160405280929190818152602001828054600181600116156101000203166002900480156106895780601f1061065e57610100808354040283529160200191610689565b820191906000526020600020905b81548152906001019060200180831161066c57829003601f168201915b505050505081565b606061069c82611ea7565b9050919050565b82606001516000815181106106b457fe5b60200260200101516000015173ffffffffffffffffffffffffffffffffffffffff166106de611308565b73ffffffffffffffffffffffffffffffffffffffff1614610734576040517f08c379a000000000000000000000000000000000000000000000000000000000815260040161072b906165b3565b60405180910390fd5b61073f83838361211a565b505050565b815183511461079e576040517f08c379a0000000000000000000000000000000000000000000000000000000008152600401808060200182810382526028815260200180616def6028913960400191505060405180910390fd5b600073ffffffffffffffffffffffffffffffffffffffff168473ffffffffffffffffffffffffffffffffffffffff161415610824576040517f08c379a0000000000000000000000000000000000000000000000000000000008152600401808060200182810382526025815260200180616ca96025913960400191505060405180910390fd5b61082c61240f565b73ffffffffffffffffffffffffffffffffffffffff168573ffffffffffffffffffffffffffffffffffffffff16148061087257506108718561086c61240f565b611782565b5b6108c7576040517f08c379a0000000000000000000000000000000000000000000000000000000008152600401808060200182810382526032815260200180616cce6032913960400191505060405180910390fd5b60006108d161240f565b90506108e1818787878787612417565b60005b8451811015610ab25760008582815181106108fb57fe5b60200260200101519050600085838151811061091357fe5b6020026020010151905061099a816040518060600160405280602a8152602001616d73602a91396097600086815260200190815260200160002060008d73ffffffffffffffffffffffffffffffffffffffff1673ffffffffffffffffffffffffffffffffffffffff1681526020019081526020016000205461241f9092919063ffffffff16565b6097600084815260200190815260200160002060008b73ffffffffffffffffffffffffffffffffffffffff1673ffffffffffffffffffffffffffffffffffffffff16815260200190815260200160002081905550610a51816097600085815260200190815260200160002060008b73ffffffffffffffffffffffffffffffffffffffff1673ffffffffffffffffffffffffffffffffffffffff168152602001908152602001600020546124d990919063ffffffff16565b6097600084815260200190815260200160002060008a73ffffffffffffffffffffffffffffffffffffffff1673ffffffffffffffffffffffffffffffffffffffff1681526020019081526020016000208190555050508060010190506108e4565b508473ffffffffffffffffffffffffffffffffffffffff168673ffffffffffffffffffffffffffffffffffffffff168273ffffffffffffffffffffffffffffffffffffffff167f4a39dc06d4c0dbc64b70af90fd698a233a518aa5d07e595d983b8c0526c8f7fb8787604051808060200180602001838103835285818151815260200191508051906020019060200280838360005b83811015610b62578082015181840152602081019050610b47565b50505050905001838103825284818151815260200191508051906020019060200280838360005b83811015610ba4578082015181840152602081019050610b89565b5050505090500194505050505060405180910390a4610bc7818787878787612561565b505050505050565b60608151835114610c2b576040517f08c379a0000000000000000000000000000000000000000000000000000000008152600401808060200182810382526029815260200180616dc66029913960400191505060405180910390fd5b6000835167ffffffffffffffff81118015610c4557600080fd5b50604051908082528060200260200182016040528015610c745781602001602082028036833780820191505090505b50905060005b8451811015610cd657610cb3858281518110610c9257fe5b6020026020010151858381518110610ca657fe5b60200260200101516104aa565b828281518110610cbf57fe5b602002602001018181525050806001019050610c7a565b508091505092915050565b600060019054906101000a900460ff1680610d005750610cff6128f0565b5b80610d16575060008054906101000a900460ff16155b610d6b576040517f08c379a000000000000000000000000000000000000000000000000000000000815260040180806020018281038252602e815260200180616d00602e913960400191505060405180910390fd5b60008060019054906101000a900460ff161590508015610dbb576001600060016101000a81548160ff02191690831515021790555060016000806101000a81548160ff0219169083151502179055505b610dc3612901565b610dcb612aa8565b610dd3612bb6565b610ddb612cc4565b610de3612dc2565b610dfb60405180602001604052806000815250612f34565b610e048361305c565b610e0c613183565b610e14613281565b610e1e868661338f565b610e27846134bf565b60005b8251811015610e5e57610e51838281518110610e4257fe5b60200260200101516001611447565b8080600101915050610e2a565b507f7da6bc204c8c4856a6aff786a6cb81c59477c782191dc51837d644a8ad50f2cc610e8861240f565b8787604051610e99939291906164c4565b60405180910390a18015610ec25760008060016101000a81548160ff0219169083151502179055505b505050505050565b610ed261240f565b73ffffffffffffffffffffffffffffffffffffffff168373ffffffffffffffffffffffffffffffffffffffff161480610f185750610f1783610f1261240f565b611782565b5b610f6d576040517f08c379a0000000000000000000000000000000000000000000000000000000008152600401808060200182810382526029815260200180616c5e6029913960400191505060405180910390fd5b610f788383836134d9565b505050565b606060fc8054600181600116156101000203166002900480601f0160208091040260200160405190810160405280929190818152602001828054600181600116156101000203166002900480156110155780601f10610fea57610100808354040283529160200191611015565b820191906000526020600020905b815481529060010190602001808311610ff857829003601f168201915b5050505050905090565b61102761240f565b73ffffffffffffffffffffffffffffffffffffffff16611045611308565b73ffffffffffffffffffffffffffffffffffffffff16146110ce576040517f08c379a00000000000000000000000000000000000000000000000000000000081526004018080602001828103825260208152602001807f4f776e61626c653a2063616c6c6572206973206e6f7420746865206f776e657281525060200191505060405180910390fd5b600073ffffffffffffffffffffffffffffffffffffffff16603360009054906101000a900473ffffffffffffffffffffffffffffffffffffffff1673ffffffffffffffffffffffffffffffffffffffff167f8be0079c531659141344cd1fd0a4f28419497f9722a3daafe3b4186f6b6457e060405160405180910390a36000603360006101000a81548173ffffffffffffffffffffffffffffffffffffffff021916908373ffffffffffffffffffffffffffffffffffffffff160217905550565b60606101c86000838152602001908152602001600020805480602002602001604051908101604052809291908181526020016000905b82821015611287578382906000526020600020016040518060400160405290816000820160009054906101000a900473ffffffffffffffffffffffffffffffffffffffff1673ffffffffffffffffffffffffffffffffffffffff1673ffffffffffffffffffffffffffffffffffffffff1681526020016000820160149054906101000a90046bffffffffffffffffffffffff166bffffffffffffffffffffffff166bffffffffffffffffffffffff1681525050815260200190600101906111c5565b505050509050919050565b6101c760205281600052604060002081815481106112af57600080fd5b90600052602060002001600091509150508060000160009054906101000a900473ffffffffffffffffffffffffffffffffffffffff16908060000160149054906101000a90046bffffffffffffffffffffffff16905082565b6000603360009054906101000a900473ffffffffffffffffffffffffffffffffffffffff16905090565b6102308054600181600116156101000203166002900480601f0160208091040260200160405190810160405280929190818152602001828054600181600116156101000203166002900480156113c95780601f1061139e576101008083540402835291602001916113c9565b820191906000526020600020905b8154815290600101906020018083116113ac57829003601f168201915b505050505081565b6101c860205281600052604060002081815481106113ee57600080fd5b90600052602060002001600091509150508060000160009054906101000a900473ffffffffffffffffffffffffffffffffffffffff16908060000160149054906101000a90046bffffffffffffffffffffffff16905082565b8173ffffffffffffffffffffffffffffffffffffffff1661146661240f565b73ffffffffffffffffffffffffffffffffffffffff1614156114d3576040517f08c379a0000000000000000000000000000000000000000000000000000000008152600401808060200182810382526029815260200180616d9d6029913960400191505060405180910390fd5b80609860006114e061240f565b73ffffffffffffffffffffffffffffffffffffffff1673ffffffffffffffffffffffffffffffffffffffff16815260200190815260200160002060008473ffffffffffffffffffffffffffffffffffffffff1673ffffffffffffffffffffffffffffffffffffffff16815260200190815260200160002060006101000a81548160ff0219169083151502179055508173ffffffffffffffffffffffffffffffffffffffff1661158d61240f565b73ffffffffffffffffffffffffffffffffffffffff167f17307eab39ab6107e8899845ad3d59bd9653f200f220920489ca2b5937696c318360405180821515815260200191505060405180910390a35050565b60606101c76000838152602001908152602001600020805480602002602001604051908101604052809291908181526020016000905b828210156116d8578382906000526020600020016040518060400160405290816000820160009054906101000a900473ffffffffffffffffffffffffffffffffffffffff1673ffffffffffffffffffffffffffffffffffffffff1673ffffffffffffffffffffffffffffffffffffffff1681526020016000820160149054906101000a90046bffffffffffffffffffffffff166bffffffffffffffffffffffff166bffffffffffffffffffffffff168152505081526020019060010190611616565b505050509050919050565b6101fd8054600181600116156101000203166002900480601f01602080910402602001604051908101604052809291908181526020018280546001816001161561010002031660029004801561177a5780601f1061174f5761010080835404028352916020019161177a565b820191906000526020600020905b81548152906001019060200180831161175d57829003601f168201915b505050505081565b6000609860008473ffffffffffffffffffffffffffffffffffffffff1673ffffffffffffffffffffffffffffffffffffffff16815260200190815260200160002060008373ffffffffffffffffffffffffffffffffffffffff1673ffffffffffffffffffffffffffffffffffffffff16815260200190815260200160002060009054906101000a900460ff16905092915050565b600073ffffffffffffffffffffffffffffffffffffffff168473ffffffffffffffffffffffffffffffffffffffff16141561189c576040517f08c379a0000000000000000000000000000000000000000000000000000000008152600401808060200182810382526025815260200180616ca96025913960400191505060405180910390fd5b6118a461240f565b73ffffffffffffffffffffffffffffffffffffffff168573ffffffffffffffffffffffffffffffffffffffff1614806118ea57506118e9856118e461240f565b611782565b5b61193f576040517f08c379a0000000000000000000000000000000000000000000000000000000008152600401808060200182810382526029815260200180616c5e6029913960400191505060405180910390fd5b600061194961240f565b905061196981878761195a88613814565b61196388613814565b87612417565b6119e6836040518060600160405280602a8152602001616d73602a91396097600088815260200190815260200160002060008a73ffffffffffffffffffffffffffffffffffffffff1673ffffffffffffffffffffffffffffffffffffffff1681526020019081526020016000205461241f9092919063ffffffff16565b6097600086815260200190815260200160002060008873ffffffffffffffffffffffffffffffffffffffff1673ffffffffffffffffffffffffffffffffffffffff16815260200190815260200160002081905550611a9d836097600087815260200190815260200160002060008873ffffffffffffffffffffffffffffffffffffffff1673ffffffffffffffffffffffffffffffffffffffff168152602001908152602001600020546124d990919063ffffffff16565b6097600086815260200190815260200160002060008773ffffffffffffffffffffffffffffffffffffffff1673ffffffffffffffffffffffffffffffffffffffff168152602001908152602001600020819055508473ffffffffffffffffffffffffffffffffffffffff168673ffffffffffffffffffffffffffffffffffffffff168273ffffffffffffffffffffffffffffffffffffffff167fc3d58168c5ae7397731d063d5bbf3d657854427343f4c083240f7aacaa2d0f628787604051808381526020018281526020019250505060405180910390a4611b83818787878787613885565b505050505050565b611b9361240f565b73ffffffffffffffffffffffffffffffffffffffff16611bb1611308565b73ffffffffffffffffffffffffffffffffffffffff1614611c3a576040517f08c379a00000000000000000000000000000000000000000000000000000000081526004018080602001828103825260208152602001807f4f776e61626c653a2063616c6c6572206973206e6f7420746865206f776e657281525060200191505060405180910390fd5b600073ffffffffffffffffffffffffffffffffffffffff168173ffffffffffffffffffffffffffffffffffffffff161415611cc0576040517f08c379a0000000000000000000000000000000000000000000000000000000008152600401808060200182810382526026815260200180616c146026913960400191505060405180910390fd5b8073ffffffffffffffffffffffffffffffffffffffff16603360009054906101000a900473ffffffffffffffffffffffffffffffffffffffff1673ffffffffffffffffffffffffffffffffffffffff167f8be0079c531659141344cd1fd0a4f28419497f9722a3daafe3b4186f6b6457e060405160405180910390a380603360006101000a81548173ffffffffffffffffffffffffffffffffffffffff021916908373ffffffffffffffffffffffffffffffffffffffff16021790555050565b611d8861240f565b73ffffffffffffffffffffffffffffffffffffffff168373ffffffffffffffffffffffffffffffffffffffff161480611dce5750611dcd83611dc861240f565b611782565b5b611e23576040517f08c379a0000000000000000000000000000000000000000000000000000000008152600401808060200182810382526029815260200180616c5e6029913960400191505060405180910390fd5b611e2e838383613b92565b505050565b6000611e438486600001516104aa565b9050600082905060008214611e8a57600083905083831015611e63578290505b611e83868689600001518460405180602001604052806000815250611816565b8084039150505b6000811115611e9f57611e9e8685836106a3565b5b505050505050565b6060600060fb60008481526020019081526020016000208054600181600116156101000203166002900480601f016020809104026020016040519081016040528092919081815260200182805460018160011615610100020316600290048015611f525780601f10611f2757610100808354040283529160200191611f52565b820191906000526020600020905b815481529060010190602001808311611f3557829003601f168201915b505050505090506000611f63610f7d565b9050600081511415611f79578192505050612115565b60008251111561204a5780826040516020018083805190602001908083835b60208310611fbb5780518252602082019150602081019050602083039250611f98565b6001836020036101000a03801982511681845116808217855250505050505090500182805190602001908083835b6020831061200c5780518252602082019150602081019050602083039250611fe9565b6001836020036101000a0380198251168184511680821785525050505050509050019250505060405160208183030381529060405292505050612115565b8061205485613dae565b6040516020018083805190602001908083835b6020831061208a5780518252602082019150602081019050602083039250612067565b6001836020036101000a03801982511681845116808217855250505050505090500182805190602001908083835b602083106120db57805182526020820191506020810190506020830392506120b8565b6001836020036101000a03801982511681845116808217855250505050505090500192505050604051602081830303815290604052925050505b919050565b600060608460000151901c9050600061213161240f565b90508073ffffffffffffffffffffffffffffffffffffffff168273ffffffffffffffffffffffffffffffffffffffff16148061217357506121728282611782565b5b6121b2576040517f08c379a00000000000000000000000000000000000000000000000000000000081526004016121a990616653565b60405180910390fd5b600083116121f5576040517f08c379a00000000000000000000000000000000000000000000000000000000081526004016121ec90616633565b60405180910390fd5b60006101c96000876000015181526020019081526020016000205414156123e957846060015160008151811061222757fe5b60200260200101516000015173ffffffffffffffffffffffffffffffffffffffff168273ffffffffffffffffffffffffffffffffffffffff16146122a0576040517f08c379a000000000000000000000000000000000000000000000000000000000815260040161229790616613565b60405180910390fd5b60008560400151116122e7576040517f08c379a00000000000000000000000000000000000000000000000000000000081526004016122de906165d3565b60405180910390fd5b8460a0015151856060015151146122fd57600080fd5b600061230886613ef5565b905060005b86606001515181101561239e5760008760600151828151811061232c57fe5b60200260200101516000015190508373ffffffffffffffffffffffffffffffffffffffff168173ffffffffffffffffffffffffffffffffffffffff16146123905761238f81848a60a00151858151811061238257fe5b6020026020010151614173565b5b50808060010191505061230d565b506123b186600001518760400151614183565b6123c3866000015187608001516141fa565b6123d586600001518760600151614445565b6123e7866000015187602001516146df565b505b61240884866000015185604051806020016040528060008152506147b0565b5050505050565b600033905090565b505050505050565b60008383111582906124cc576040517f08c379a00000000000000000000000000000000000000000000000000000000081526004018080602001828103825283818151815260200191508051906020019080838360005b83811015612491578082015181840152602081019050612476565b50505050905090810190601f1680156124be5780820380516001836020036101000a031916815260200191505b509250505060405180910390fd5b5082840390509392505050565b600080828401905083811015612557576040517f08c379a000000000000000000000000000000000000000000000000000000000815260040180806020018281038252601b8152602001807f536166654d6174683a206164646974696f6e206f766572666c6f77000000000081525060200191505060405180910390fd5b8091505092915050565b6125808473ffffffffffffffffffffffffffffffffffffffff166147c2565b156128e8578373ffffffffffffffffffffffffffffffffffffffff1663bc197c8187878686866040518663ffffffff1660e01b8152600401808673ffffffffffffffffffffffffffffffffffffffff1681526020018573ffffffffffffffffffffffffffffffffffffffff168152602001806020018060200180602001848103845287818151815260200191508051906020019060200280838360005b8381101561263857808201518184015260208101905061261d565b50505050905001848103835286818151815260200191508051906020019060200280838360005b8381101561267a57808201518184015260208101905061265f565b50505050905001848103825285818151815260200191508051906020019080838360005b838110156126b957808201518184015260208101905061269e565b50505050905090810190601f1680156126e65780820380516001836020036101000a031916815260200191505b5098505050505050505050602060405180830381600087803b15801561270b57600080fd5b505af192505050801561273f57506040513d602081101561272b57600080fd5b810190808051906020019092919050505060015b6128495761274b616a4c565b8061275657506127f8565b806040517f08c379a00000000000000000000000000000000000000000000000000000000081526004018080602001828103825283818151815260200191508051906020019080838360005b838110156127bd5780820151818401526020810190506127a2565b50505050905090810190601f1680156127ea5780820380516001836020036101000a031916815260200191505b509250505060405180910390fd5b6040517f08c379a0000000000000000000000000000000000000000000000000000000008152600401808060200182810382526034815260200180616b8d6034913960400191505060405180910390fd5b63bc197c8160e01b7bffffffffffffffffffffffffffffffffffffffffffffffffffffffff1916817bffffffffffffffffffffffffffffffffffffffffffffffffffffffff1916146128e6576040517f08c379a0000000000000000000000000000000000000000000000000000000008152600401808060200182810382526028815260200180616bc16028913960400191505060405180910390fd5b505b505050505050565b60006128fb306147c2565b15905090565b600060019054906101000a900460ff1680612920575061291f6128f0565b5b80612936575060008054906101000a900460ff16155b61298b576040517f08c379a000000000000000000000000000000000000000000000000000000000815260040180806020018281038252602e815260200180616d00602e913960400191505060405180910390fd5b60008060019054906101000a900460ff1615905080156129db576001600060016101000a81548160ff02191690831515021790555060016000806101000a81548160ff0219169083151502179055505b60006129e561240f565b905080603360006101000a81548173ffffffffffffffffffffffffffffffffffffffff021916908373ffffffffffffffffffffffffffffffffffffffff1602179055508073ffffffffffffffffffffffffffffffffffffffff16600073ffffffffffffffffffffffffffffffffffffffff167f8be0079c531659141344cd1fd0a4f28419497f9722a3daafe3b4186f6b6457e060405160405180910390a3508015612aa55760008060016101000a81548160ff0219169083151502179055505b50565b600060019054906101000a900460ff1680612ac75750612ac66128f0565b5b80612add575060008054906101000a900460ff16155b612b32576040517f08c379a000000000000000000000000000000000000000000000000000000000815260040180806020018281038252602e815260200180616d00602e913960400191505060405180910390fd5b60008060019054906101000a900460ff161590508015612b82576001600060016101000a81548160ff02191690831515021790555060016000806101000a81548160ff0219169083151502179055505b612b92636db15a0f60e01b6147d5565b8015612bb35760008060016101000a81548160ff0219169083151502179055505b50565b600060019054906101000a900460ff1680612bd55750612bd46128f0565b5b80612beb575060008054906101000a900460ff16155b612c40576040517f08c379a000000000000000000000000000000000000000000000000000000000815260040180806020018281038252602e815260200180616d00602e913960400191505060405180910390fd5b60008060019054906101000a900460ff161590508015612c90576001600060016101000a81548160ff02191690831515021790555060016000806101000a81548160ff0219169083151502179055505b612ca06301ffc9a760e01b6147d5565b8015612cc15760008060016101000a81548160ff0219169083151502179055505b50565b600060019054906101000a900460ff1680612ce35750612ce26128f0565b5b80612cf9575060008054906101000a900460ff16155b612d4e576040517f08c379a000000000000000000000000000000000000000000000000000000000815260040180806020018281038252602e815260200180616d00602e913960400191505060405180910390fd5b60008060019054906101000a900460ff161590508015612d9e576001600060016101000a81548160ff02191690831515021790555060016000806101000a81548160ff0219169083151502179055505b8015612dbf5760008060016101000a81548160ff0219169083151502179055505b50565b600060019054906101000a900460ff1680612de15750612de06128f0565b5b80612df7575060008054906101000a900460ff16155b612e4c576040517f08c379a000000000000000000000000000000000000000000000000000000000815260040180806020018281038252602e815260200180616d00602e913960400191505060405180910390fd5b60008060019054906101000a900460ff161590508015612e9c576001600060016101000a81548160ff02191690831515021790555060016000806101000a81548160ff0219169083151502179055505b612f106040518060400160405280600881526020017f4d696e74313135350000000000000000000000000000000000000000000000008152506040518060400160405280600181526020017f31000000000000000000000000000000000000000000000000000000000000008152506148de565b8015612f315760008060016101000a81548160ff0219169083151502179055505b50565b600060019054906101000a900460ff1680612f535750612f526128f0565b5b80612f69575060008054906101000a900460ff16155b612fbe576040517f08c379a000000000000000000000000000000000000000000000000000000000815260040180806020018281038252602e815260200180616d00602e913960400191505060405180910390fd5b60008060019054906101000a900460ff16159050801561300e576001600060016101000a81548160ff02191690831515021790555060016000806101000a81548160ff0219169083151502179055505b61301782614a08565b61302763d9b67a2660e01b6147d5565b613037630e89341c60e01b6147d5565b80156130585760008060016101000a81548160ff0219169083151502179055505b5050565b600060019054906101000a900460ff168061307b575061307a6128f0565b5b80613091575060008054906101000a900460ff16155b6130e6576040517f08c379a000000000000000000000000000000000000000000000000000000000815260040180806020018281038252602e815260200180616d00602e913960400191505060405180910390fd5b60008060019054906101000a900460ff161590508015613136576001600060016101000a81548160ff02191690831515021790555060016000806101000a81548160ff0219169083151502179055505b816101fd908051906020019061314d9291906154f4565b5061315e63e8a3d48560e01b6147d5565b801561317f5760008060016101000a81548160ff0219169083151502179055505b5050565b600060019054906101000a900460ff16806131a257506131a16128f0565b5b806131b8575060008054906101000a900460ff16155b61320d576040517f08c379a000000000000000000000000000000000000000000000000000000000815260040180806020018281038252602e815260200180616d00602e913960400191505060405180910390fd5b60008060019054906101000a900460ff16159050801561325d576001600060016101000a81548160ff02191690831515021790555060016000806101000a81548160ff0219169083151502179055505b801561327e5760008060016101000a81548160ff0219169083151502179055505b50565b600060019054906101000a900460ff16806132a0575061329f6128f0565b5b806132b6575060008054906101000a900460ff16155b61330b576040517f08c379a000000000000000000000000000000000000000000000000000000000815260040180806020018281038252602e815260200180616d00602e913960400191505060405180910390fd5b60008060019054906101000a900460ff16159050801561335b576001600060016101000a81548160ff02191690831515021790555060016000806101000a81548160ff0219169083151502179055505b61336b6344c74bcc60e01b6147d5565b801561338c5760008060016101000a81548160ff0219169083151502179055505b50565b600060019054906101000a900460ff16806133ae57506133ad6128f0565b5b806133c4575060008054906101000a900460ff16155b613419576040517f08c379a000000000000000000000000000000000000000000000000000000000815260040180806020018281038252602e815260200180616d00602e913960400191505060405180910390fd5b60008060019054906101000a900460ff161590508015613469576001600060016101000a81548160ff02191690831515021790555060016000806101000a81548160ff0219169083151502179055505b8261022f90805190602001906134809291906154f4565b508161023090805190602001906134989291906154f4565b5080156134ba5760008060016101000a81548160ff0219169083151502179055505b505050565b8060fc90805190602001906134d59291906154f4565b5050565b600073ffffffffffffffffffffffffffffffffffffffff168373ffffffffffffffffffffffffffffffffffffffff16141561355f576040517f08c379a0000000000000000000000000000000000000000000000000000000008152600401808060200182810382526023815260200180616d506023913960400191505060405180910390fd5b80518251146135b9576040517f08c379a0000000000000000000000000000000000000000000000000000000008152600401808060200182810382526028815260200180616def6028913960400191505060405180910390fd5b60006135c361240f565b90506135e381856000868660405180602001604052806000815250612417565b60005b8351811015613706576136928382815181106135fe57fe5b6020026020010151604051806060016040528060248152602001616c3a602491396097600088868151811061362f57fe5b6020026020010151815260200190815260200160002060008973ffffffffffffffffffffffffffffffffffffffff1673ffffffffffffffffffffffffffffffffffffffff1681526020019081526020016000205461241f9092919063ffffffff16565b609760008684815181106136a257fe5b6020026020010151815260200190815260200160002060008773ffffffffffffffffffffffffffffffffffffffff1673ffffffffffffffffffffffffffffffffffffffff1681526020019081526020016000208190555080806001019150506135e6565b50600073ffffffffffffffffffffffffffffffffffffffff168473ffffffffffffffffffffffffffffffffffffffff168273ffffffffffffffffffffffffffffffffffffffff167f4a39dc06d4c0dbc64b70af90fd698a233a518aa5d07e595d983b8c0526c8f7fb8686604051808060200180602001838103835285818151815260200191508051906020019060200280838360005b838110156137b757808201518184015260208101905061379c565b50505050905001838103825284818151815260200191508051906020019060200280838360005b838110156137f95780820151818401526020810190506137de565b5050505090500194505050505060405180910390a450505050565b60606000600167ffffffffffffffff8111801561383057600080fd5b5060405190808252806020026020018201604052801561385f5781602001602082028036833780820191505090505b509050828160008151811061387057fe5b60200260200101818152505080915050919050565b6138a48473ffffffffffffffffffffffffffffffffffffffff166147c2565b15613b8a578373ffffffffffffffffffffffffffffffffffffffff1663f23a6e6187878686866040518663ffffffff1660e01b8152600401808673ffffffffffffffffffffffffffffffffffffffff1681526020018573ffffffffffffffffffffffffffffffffffffffff16815260200184815260200183815260200180602001828103825283818151815260200191508051906020019080838360005b8381101561395d578082015181840152602081019050613942565b50505050905090810190601f16801561398a5780820380516001836020036101000a031916815260200191505b509650505050505050602060405180830381600087803b1580156139ad57600080fd5b505af19250505080156139e157506040513d60208110156139cd57600080fd5b810190808051906020019092919050505060015b613aeb576139ed616a4c565b806139f85750613a9a565b806040517f08c379a00000000000000000000000000000000000000000000000000000000081526004018080602001828103825283818151815260200191508051906020019080838360005b83811015613a5f578082015181840152602081019050613a44565b50505050905090810190601f168015613a8c5780820380516001836020036101000a031916815260200191505b509250505060405180910390fd5b6040517f08c379a0000000000000000000000000000000000000000000000000000000008152600401808060200182810382526034815260200180616b8d6034913960400191505060405180910390fd5b63f23a6e6160e01b7bffffffffffffffffffffffffffffffffffffffffffffffffffffffff1916817bffffffffffffffffffffffffffffffffffffffffffffffffffffffff191614613b88576040517f08c379a0000000000000000000000000000000000000000000000000000000008152600401808060200182810382526028815260200180616bc16028913960400191505060405180910390fd5b505b505050505050565b600073ffffffffffffffffffffffffffffffffffffffff168373ffffffffffffffffffffffffffffffffffffffff161415613c18576040517f08c379a0000000000000000000000000000000000000000000000000000000008152600401808060200182810382526023815260200180616d506023913960400191505060405180910390fd5b6000613c2261240f565b9050613c5281856000613c3487613814565b613c3d87613814565b60405180602001604052806000815250612417565b613ccf82604051806060016040528060248152602001616c3a602491396097600087815260200190815260200160002060008873ffffffffffffffffffffffffffffffffffffffff1673ffffffffffffffffffffffffffffffffffffffff1681526020019081526020016000205461241f9092919063ffffffff16565b6097600085815260200190815260200160002060008673ffffffffffffffffffffffffffffffffffffffff1673ffffffffffffffffffffffffffffffffffffffff16815260200190815260200160002081905550600073ffffffffffffffffffffffffffffffffffffffff168473ffffffffffffffffffffffffffffffffffffffff168273ffffffffffffffffffffffffffffffffffffffff167fc3d58168c5ae7397731d063d5bbf3d657854427343f4c083240f7aacaa2d0f628686604051808381526020018281526020019250505060405180910390a450505050565b60606000821415613df6576040518060400160405280600181526020017f30000000000000000000000000000000000000000000000000000000000000008152509050613ef0565b600082905060005b60008214613e20578080600101915050600a8281613e1857fe5b049150613dfe565b60008167ffffffffffffffff81118015613e3957600080fd5b506040519080825280601f01601f191660200182016040528015613e6c5781602001600182028036833780820191505090505b50905060006001830390508593505b60008414613ee857600a8481613e8d57fe5b0660300160f81b82828060019003935081518110613ea757fe5b60200101907effffffffffffffffffffffffffffffffffffffffffffffffffffffffffffff1916908160001a905350600a8481613ee057fe5b049350613e7b565b819450505050505b919050565b60008082608001515167ffffffffffffffff81118015613f1457600080fd5b50604051908082528060200260200182016040528015613f435781602001602082028036833780820191505090505b50905060005b836080015151811015613f9b57613f7684608001518281518110613f6957fe5b6020026020010151614a22565b828281518110613f8257fe5b6020026020010181815250508080600101915050613f49565b50600083606001515167ffffffffffffffff81118015613fba57600080fd5b50604051908082528060200260200182016040528015613fe95781602001602082028036833780820191505090505b50905060005b8460600151518110156140415761401c8560600151828151811061400f57fe5b6020026020010151614a22565b82828151811061402857fe5b6020026020010181815250508080600101915050613fef565b507ffb988707ebb338694f318760b0fd5cfe756d00a2ade251fda110b80c336a3c7f846000015185604001518660200151805190602001208460405160200180828051906020019060200280838360005b838110156140ad578082015181840152602081019050614092565b50505050905001915050604051602081830303815290604052805190602001208660405160200180828051906020019060200280838360005b838110156141015780820151818401526020810190506140e6565b50505050905001915050604051602081830303815290604052805190602001206040516020018087815260200186815260200185815260200184815260200183815260200182815260200196505050505050506040516020818303038152906040528051906020012092505050919050565b61417e838383614aae565b505050565b60006101c9600084815260200190815260200160002054146141a457600080fd5b806101c96000848152602001908152602001600020819055507f5e2aa66efd74cce82b21852e317e5490d9ecc9e6bb953ae24d90851258cc2f5c82826040516141ee92919061671e565b60405180910390a15050565b60005b815181101561443657600073ffffffffffffffffffffffffffffffffffffffff1682828151811061422a57fe5b60200260200101516000015173ffffffffffffffffffffffffffffffffffffffff1614156142c0576040517f08c379a000000000000000000000000000000000000000000000000000000000815260040180806020018281038252601b8152602001807f526563697069656e742073686f756c642062652070726573656e74000000000081525060200191505060405180910390fd5b60008282815181106142ce57fe5b6020026020010151602001516bffffffffffffffffffffffff16141561435c576040517f08c379a00000000000000000000000000000000000000000000000000000000081526004018080602001828103825260208152602001807f526f79616c74792076616c75652073686f756c6420626520706f73697469766581525060200191505060405180910390fd5b6101c7600084815260200190815260200160002082828151811061437c57fe5b60200260200101519080600181540180825580915050600190039060005260206000200160009091909190915060008201518160000160006101000a81548173ffffffffffffffffffffffffffffffffffffffff021916908373ffffffffffffffffffffffffffffffffffffffff16021790555060208201518160000160146101000a8154816bffffffffffffffffffffffff02191690836bffffffffffffffffffffffff160217905550505080806001019150506141fd565b506144418282614e26565b5050565b60006101c8600084815260200190815260200160002090506000805b835181101561465b57600073ffffffffffffffffffffffffffffffffffffffff1684828151811061448e57fe5b60200260200101516000015173ffffffffffffffffffffffffffffffffffffffff1614156144f1576040517f08c379a00000000000000000000000000000000000000000000000000000000081526004016144e890616693565b60405180910390fd5b60008482815181106144ff57fe5b6020026020010151602001516bffffffffffffffffffffffff16141561455a576040517f08c379a0000000000000000000000000000000000000000000000000000000008152600401614551906165f3565b60405180910390fd5b8284828151811061456757fe5b60200260200101519080600181540180825580915050600190039060005260206000200160009091909190915060008201518160000160006101000a81548173ffffffffffffffffffffffffffffffffffffffff021916908373ffffffffffffffffffffffffffffffffffffffff16021790555060208201518160000160146101000a8154816bffffffffffffffffffffffff02191690836bffffffffffffffffffffffff160217905550505061464c84828151811061462357fe5b6020026020010151602001516bffffffffffffffffffffffff16836124d990919063ffffffff16565b91508080600101915050614461565b5061271081146146a0576040517f08c379a0000000000000000000000000000000000000000000000000000000008152600401614697906166b3565b60405180910390fd5b7f841ffb90d4cabdd1f16034f3fa831d79060febbb8167bdd54a49269365bdf78f84846040516146d19291906166ee565b60405180910390a150505050565b8060fb600084815260200190815260200160002090805190602001906147069291906154f4565b50817f6bb7ff708619ba0610cba295a58592e0451dee2622938c8755667688daf3529b61473284611ea7565b6040518080602001828103825283818151815260200191508051906020019080838360005b83811015614772578082015181840152602081019050614757565b50505050905090810190601f16801561479f5780820380516001836020036101000a031916815260200191505b509250505060405180910390a25050565b6147bc84848484614e63565b50505050565b600080823b905060008111915050919050565b63ffffffff60e01b817bffffffffffffffffffffffffffffffffffffffffffffffffffffffff19161415614871576040517f08c379a000000000000000000000000000000000000000000000000000000000815260040180806020018281038252601c8152602001807f4552433136353a20696e76616c696420696e746572666163652069640000000081525060200191505060405180910390fd5b600160656000837bffffffffffffffffffffffffffffffffffffffffffffffffffffffff19167bffffffffffffffffffffffffffffffffffffffffffffffffffffffff1916815260200190815260200160002060006101000a81548160ff02191690831515021790555050565b600060019054906101000a900460ff16806148fd57506148fc6128f0565b5b80614913575060008054906101000a900460ff16155b614968576040517f08c379a000000000000000000000000000000000000000000000000000000000815260040180806020018281038252602e815260200180616d00602e913960400191505060405180910390fd5b60008060019054906101000a900460ff1615905080156149b8576001600060016101000a81548160ff02191690831515021790555060016000806101000a81548160ff0219169083151502179055505b6000838051906020012090506000838051906020012090508161012f81905550806101308190555050508015614a035760008060016101000a81548160ff0219169083151502179055505b505050565b8060999080519060200190614a1e9291906154f4565b5050565b60007f397e04204c1e1a60ee8724b71f8244e10ab5f2e9009854d80f602bda21b59ebb82600001518360200151604051602001808481526020018373ffffffffffffffffffffffffffffffffffffffff168152602001826bffffffffffffffffffffffff1681526020019350505050604051602081830303815290604052805190602001209050919050565b6000614ab983614f11565b9050614ada8473ffffffffffffffffffffffffffffffffffffffff166147c2565b15614d0157631626ba7e60e01b7bffffffffffffffffffffffffffffffffffffffffffffffffffffffff19168473ffffffffffffffffffffffffffffffffffffffff16631626ba7e83856040518363ffffffff1660e01b81526004018083815260200180602001828103825283818151815260200191508051906020019080838360005b83811015614b79578082015181840152602081019050614b5e565b50505050905090810190601f168015614ba65780820380516001836020036101000a031916815260200191505b50935050505060206040518083038186803b158015614bc457600080fd5b505afa158015614bd8573d6000803e3d6000fd5b505050506040513d6020811015614bee57600080fd5b81019080805190602001909291905050507bffffffffffffffffffffffffffffffffffffffffffffffffffffffff1916146040518060400160405280601c81526020017f7369676e617475726520766572696669636174696f6e206572726f720000000081525090614cfb576040517f08c379a00000000000000000000000000000000000000000000000000000000081526004018080602001828103825283818151815260200191508051906020019080838360005b83811015614cc0578082015181840152602081019050614ca5565b50505050905090810190601f168015614ced5780820380516001836020036101000a031916815260200191505b509250505060405180910390fd5b50614e20565b8373ffffffffffffffffffffffffffffffffffffffff16614d2b8383614f7890919063ffffffff16565b73ffffffffffffffffffffffffffffffffffffffff16146040518060400160405280601c81526020017f7369676e617475726520766572696669636174696f6e206572726f720000000081525090614e1e576040517f08c379a00000000000000000000000000000000000000000000000000000000081526004018080602001828103825283818151815260200191508051906020019080838360005b83811015614de3578082015181840152602081019050614dc8565b50505050905090810190601f168015614e105780820380516001836020036101000a031916815260200191505b509250505060405180910390fd5b505b50505050565b7f3fa96d7b6bcbfe71ef171666d84db3cf52fa2d1c8afdb1cc8e486177f208b7df8282604051614e579291906166ee565b60405180910390a15050565b6000614e8c6101ca600086815260200190815260200160002054846124d990919063ffffffff16565b90506101c9600085815260200190815260200160002054811115614ee5576040517f08c379a0000000000000000000000000000000000000000000000000000000008152600401614edc90616673565b60405180910390fd5b806101ca600086815260200190815260200160002081905550614f0a85858585615025565b5050505050565b6000614f1b615228565b8260405160200180807f190100000000000000000000000000000000000000000000000000000000000081525060020183815260200182815260200192505050604051602081830303815290604052805190602001209050919050565b60006041825114614ff1576040517f08c379a000000000000000000000000000000000000000000000000000000000815260040180806020018281038252601f8152602001807f45434453413a20696e76616c6964207369676e6174757265206c656e6774680081525060200191505060405180910390fd5b60008060006020850151925060408501519150606085015160001a905061501a86828585615268565b935050505092915050565b600073ffffffffffffffffffffffffffffffffffffffff168473ffffffffffffffffffffffffffffffffffffffff1614156150ab576040517f08c379a0000000000000000000000000000000000000000000000000000000008152600401808060200182810382526021815260200180616e176021913960400191505060405180910390fd5b60006150b561240f565b90506150d6816000876150c788613814565b6150d088613814565b87612417565b615139836097600087815260200190815260200160002060008873ffffffffffffffffffffffffffffffffffffffff1673ffffffffffffffffffffffffffffffffffffffff168152602001908152602001600020546124d990919063ffffffff16565b6097600086815260200190815260200160002060008773ffffffffffffffffffffffffffffffffffffffff1673ffffffffffffffffffffffffffffffffffffffff168152602001908152602001600020819055508473ffffffffffffffffffffffffffffffffffffffff16600073ffffffffffffffffffffffffffffffffffffffff168273ffffffffffffffffffffffffffffffffffffffff167fc3d58168c5ae7397731d063d5bbf3d657854427343f4c083240f7aacaa2d0f628787604051808381526020018281526020019250505060405180910390a461522181600087878787613885565b5050505050565b60006152637f8b73c3c69bb8fe3d512ecc4cf759cc79239f7b179b0ffacaa9a75d522b39400f615256615467565b61525e615472565b61547d565b905090565b60007f7fffffffffffffffffffffffffffffff5d576e7357a4501ddfe92f46681b20a08260001c11156152e6576040517f08c379a0000000000000000000000000000000000000000000000000000000008152600401808060200182810382526022815260200180616c876022913960400191505060405180910390fd5b601b8460ff1614806152fb5750601c8460ff16145b615350576040517f08c379a0000000000000000000000000000000000000000000000000000000008152600401808060200182810382526022815260200180616d2e6022913960400191505060405180910390fd5b600060018686868660405160008152602001604052604051808581526020018460ff1681526020018381526020018281526020019450505050506020604051602081039080840390855afa1580156153ac573d6000803e3d6000fd5b505050602060405103519050600073ffffffffffffffffffffffffffffffffffffffff168173ffffffffffffffffffffffffffffffffffffffff16141561545b576040517f08c379a00000000000000000000000000000000000000000000000000000000081526004018080602001828103825260188152602001807f45434453413a20696e76616c6964207369676e6174757265000000000000000081525060200191505060405180910390fd5b80915050949350505050565b600061012f54905090565b600061013054905090565b600083838361548a6154ec565b30604051602001808681526020018581526020018481526020018381526020018273ffffffffffffffffffffffffffffffffffffffff168152602001955050505050506040516020818303038152906040528051906020012090509392505050565b600046905090565b828054600181600116156101000203166002900490600052602060002090601f01602090048101928261552a5760008555615571565b82601f1061554357805160ff1916838001178555615571565b82800160010185558215615571579182015b82811115615570578251825591602001919060010190615555565b5b50905061557e9190615582565b5090565b5b8082111561559b576000816000905550600101615583565b5090565b60006155b26155ad84616778565b616747565b905080838252602082019050828560208602820111156155d157600080fd5b60005b8581101561560157816155e788826157bc565b8452602084019350602083019250506001810190506155d4565b5050509392505050565b600061561e615619846167a4565b616747565b9050808382526020820190508260005b8581101561565e578135850161564488826158b8565b84526020840193506020830192505060018101905061562e565b5050509392505050565b600061567b615676846167d0565b616747565b9050808382526020820190508285604086028201111561569a57600080fd5b60005b858110156156ca57816156b08882615a08565b84526020840193506040830192505060018101905061569d565b5050509392505050565b60006156e76156e2846167fc565b616747565b9050808382526020820190508285602086028201111561570657600080fd5b60005b85811015615736578161571c8882615a54565b845260208401935060208301925050600181019050615709565b5050509392505050565b600061575361574e84616828565b616747565b90508281526020810184848401111561576b57600080fd5b6157768482856169ea565b509392505050565b600061579161578c84616858565b616747565b9050828152602081018484840111156157a957600080fd5b6157b48482856169ea565b509392505050565b6000813590506157cb81616b02565b92915050565b6000813590506157e081616b19565b92915050565b600082601f8301126157f757600080fd5b813561580784826020860161559f565b91505092915050565b600082601f83011261582157600080fd5b813561583184826020860161560b565b91505092915050565b600082601f83011261584b57600080fd5b813561585b848260208601615668565b91505092915050565b600082601f83011261587557600080fd5b81356158858482602086016156d4565b91505092915050565b60008135905061589d81616b30565b92915050565b6000813590506158b281616b47565b92915050565b600082601f8301126158c957600080fd5b81356158d9848260208601615740565b91505092915050565b600082601f8301126158f357600080fd5b813561590384826020860161577e565b91505092915050565b600060c0828403121561591e57600080fd5b61592860c0616747565b9050600061593884828501615a54565b600083015250602082013567ffffffffffffffff81111561595857600080fd5b615964848285016158e2565b602083015250604061597884828501615a54565b604083015250606082013567ffffffffffffffff81111561599857600080fd5b6159a48482850161583a565b606083015250608082013567ffffffffffffffff8111156159c457600080fd5b6159d08482850161583a565b60808301525060a082013567ffffffffffffffff8111156159f057600080fd5b6159fc84828501615810565b60a08301525092915050565b600060408284031215615a1a57600080fd5b615a246040616747565b90506000615a34848285016157d1565b6000830152506020615a4884828501615a69565b60208301525092915050565b600081359050615a6381616b5e565b92915050565b600081359050615a7881616b75565b92915050565b600060208284031215615a9057600080fd5b6000615a9e848285016157bc565b91505092915050565b60008060408385031215615aba57600080fd5b6000615ac8858286016157bc565b9250506020615ad9858286016157bc565b9150509250929050565b600080600080600060a08688031215615afb57600080fd5b6000615b09888289016157bc565b9550506020615b1a888289016157bc565b945050604086013567ffffffffffffffff811115615b3757600080fd5b615b4388828901615864565b935050606086013567ffffffffffffffff811115615b6057600080fd5b615b6c88828901615864565b925050608086013567ffffffffffffffff811115615b8957600080fd5b615b95888289016158b8565b9150509295509295909350565b600080600080600060a08688031215615bba57600080fd5b6000615bc8888289016157bc565b9550506020615bd9888289016157bc565b9450506040615bea88828901615a54565b9350506060615bfb88828901615a54565b925050608086013567ffffffffffffffff811115615c1857600080fd5b615c24888289016158b8565b9150509295509295909350565b600080600060608486031215615c4657600080fd5b6000615c54868287016157bc565b935050602084013567ffffffffffffffff811115615c7157600080fd5b615c7d86828701615864565b925050604084013567ffffffffffffffff811115615c9a57600080fd5b615ca686828701615864565b9150509250925092565b60008060408385031215615cc357600080fd5b6000615cd1858286016157bc565b9250506020615ce28582860161588e565b9150509250929050565b60008060408385031215615cff57600080fd5b6000615d0d858286016157bc565b9250506020615d1e85828601615a54565b9150509250929050565b600080600060608486031215615d3d57600080fd5b6000615d4b868287016157bc565b9350506020615d5c86828701615a54565b9250506040615d6d86828701615a54565b9150509250925092565b60008060408385031215615d8a57600080fd5b600083013567ffffffffffffffff811115615da457600080fd5b615db0858286016157e6565b925050602083013567ffffffffffffffff811115615dcd57600080fd5b615dd985828601615864565b9150509250929050565b600060208284031215615df557600080fd5b6000615e03848285016158a3565b91505092915050565b600080600080600060a08688031215615e2457600080fd5b600086013567ffffffffffffffff811115615e3e57600080fd5b615e4a888289016158e2565b955050602086013567ffffffffffffffff811115615e6757600080fd5b615e73888289016158e2565b945050604086013567ffffffffffffffff811115615e9057600080fd5b615e9c888289016158e2565b935050606086013567ffffffffffffffff811115615eb957600080fd5b615ec5888289016158e2565b925050608086013567ffffffffffffffff811115615ee257600080fd5b615eee888289016157e6565b9150509295509295909350565b60008060008060808587031215615f1157600080fd5b600085013567ffffffffffffffff811115615f2b57600080fd5b615f378782880161590c565b9450506020615f48878288016157bc565b9350506040615f59878288016157bc565b9250506060615f6a87828801615a54565b91505092959194509250565b600080600060608486031215615f8b57600080fd5b600084013567ffffffffffffffff811115615fa557600080fd5b615fb18682870161590c565b9350506020615fc2868287016157bc565b9250506040615fd386828701615a54565b9150509250925092565b600060208284031215615fef57600080fd5b6000615ffd84828501615a54565b91505092915050565b6000806040838503121561601957600080fd5b600061602785828601615a54565b925050602061603885828601615a54565b9150509250929050565b600061604e838361643e565b60408301905092915050565b6000616066838361646d565b60208301905092915050565b61607b816169b4565b82525050565b61608a81616928565b82525050565b61609981616928565b82525050565b6160a881616916565b82525050565b60006160b9826168a8565b6160c381856168e3565b93506160ce83616888565b8060005b838110156160ff5781516160e68882616042565b97506160f1836168c9565b9250506001810190506160d2565b5085935050505092915050565b6000616117826168b3565b61612181856168f4565b935061612c83616898565b8060005b8381101561615d578151616144888261605a565b975061614f836168d6565b925050600181019050616130565b5085935050505092915050565b6161738161693a565b82525050565b6000616184826168be565b61618e8185616905565b935061619e8185602086016169f9565b6161a781616a2e565b840191505092915050565b60006161bf601783616905565b91507f6d696e746572206973206e6f7420746865206f776e65720000000000000000006000830152602082019050919050565b60006161ff601083616905565b91507f737570706c7920696e636f7272656374000000000000000000000000000000006000830152602082019050919050565b600061623f602083616905565b91507f43726561746f722073686172652073686f756c6420626520706f7369746976656000830152602082019050919050565b600061627f601183616905565b91507f746f6b656e496420696e636f72726563740000000000000000000000000000006000830152602082019050919050565b60006162bf601083616905565b91507f616d6f756e7420696e636f7272656374000000000000000000000000000000006000830152602082019050919050565b60006162ff602883616905565b91507f455243313135353a207472616e736665722063616c6c6572206973206e6f742060008301527f617070726f7665640000000000000000000000000000000000000000000000006020830152604082019050919050565b6000616365601083616905565b91507f6d6f7265207468616e20737570706c79000000000000000000000000000000006000830152602082019050919050565b60006163a5601983616905565b91507f4163636f756e742073686f756c642062652070726573656e74000000000000006000830152602082019050919050565b60006163e5602e83616905565b91507f746f74616c20616d6f756e74206f662063726561746f7273207368617265207360008301527f686f756c642062652031303030300000000000000000000000000000000000006020830152604082019050919050565b6040820160008201516164546000850182616081565b506020820151616467602085018261648b565b50505050565b61647681616992565b82525050565b61648581616992565b82525050565b6164948161699c565b82525050565b6164a38161699c565b82525050565b60006020820190506164be600083018461609f565b92915050565b60006060820190506164d96000830186616072565b81810360208301526164eb8185616179565b905081810360408301526164ff8184616179565b9050949350505050565b600060408201905061651e6000830185616090565b61652b602083018461649a565b9392505050565b6000602082019050818103600083015261654c81846160ae565b905092915050565b6000602082019050818103600083015261656e818461610c565b905092915050565b600060208201905061658b600083018461616a565b92915050565b600060208201905081810360008301526165ab8184616179565b905092915050565b600060208201905081810360008301526165cc816161b2565b9050919050565b600060208201905081810360008301526165ec816161f2565b9050919050565b6000602082019050818103600083015261660c81616232565b9050919050565b6000602082019050818103600083015261662c81616272565b9050919050565b6000602082019050818103600083015261664c816162b2565b9050919050565b6000602082019050818103600083015261666c816162f2565b9050919050565b6000602082019050818103600083015261668c81616358565b9050919050565b600060208201905081810360008301526166ac81616398565b9050919050565b600060208201905081810360008301526166cc816163d8565b9050919050565b60006020820190506166e8600083018461647c565b92915050565b6000604082019050616703600083018561647c565b818103602083015261671581846160ae565b90509392505050565b6000604082019050616733600083018561647c565b616740602083018461647c565b9392505050565b6000604051905081810181811067ffffffffffffffff8211171561676e5761676d616a2c565b5b8060405250919050565b600067ffffffffffffffff82111561679357616792616a2c565b5b602082029050602081019050919050565b600067ffffffffffffffff8211156167bf576167be616a2c565b5b602082029050602081019050919050565b600067ffffffffffffffff8211156167eb576167ea616a2c565b5b602082029050602081019050919050565b600067ffffffffffffffff82111561681757616816616a2c565b5b602082029050602081019050919050565b600067ffffffffffffffff82111561684357616842616a2c565b5b601f19601f8301169050602081019050919050565b600067ffffffffffffffff82111561687357616872616a2c565b5b601f19601f8301169050602081019050919050565b6000819050602082019050919050565b6000819050602082019050919050565b600081519050919050565b600081519050919050565b600081519050919050565b6000602082019050919050565b6000602082019050919050565b600082825260208201905092915050565b600082825260208201905092915050565b600082825260208201905092915050565b600061692182616972565b9050919050565b600061693382616972565b9050919050565b60008115159050919050565b60007fffffffff0000000000000000000000000000000000000000000000000000000082169050919050565b600073ffffffffffffffffffffffffffffffffffffffff82169050919050565b6000819050919050565b60006bffffffffffffffffffffffff82169050919050565b60006169bf826169c6565b9050919050565b60006169d1826169d8565b9050919050565b60006169e382616972565b9050919050565b82818337600083830152505050565b60005b83811015616a175780820151818401526020810190506169fc565b83811115616a26576000848401525b50505050565bfe5b6000601f19601f8301169050919050565b60008160e01c9050919050565b600060443d1015616a5c57616aff565b60046000803e616a6d600051616a3f565b6308c379a08114616a7e5750616aff565b60405160043d036004823e80513d602482011167ffffffffffffffff82111715616aaa57505050616aff565b808201805167ffffffffffffffff811115616ac9575050505050616aff565b8060208301013d8501811115616ae457505050505050616aff565b616aed82616a2e565b60208401016040528296505050505050505b90565b616b0b81616916565b8114616b1657600080fd5b50565b616b2281616928565b8114616b2d57600080fd5b50565b616b398161693a565b8114616b4457600080fd5b50565b616b5081616946565b8114616b5b57600080fd5b50565b616b6781616992565b8114616b7257600080fd5b50565b616b7e8161699c565b8114616b8957600080fd5b5056fe455243313135353a207472616e7366657220746f206e6f6e2045524331313535526563656976657220696d706c656d656e746572455243313135353a204552433131353552656365697665722072656a656374656420746f6b656e73455243313135353a2062616c616e636520717565727920666f7220746865207a65726f20616464726573734f776e61626c653a206e6577206f776e657220697320746865207a65726f2061646472657373455243313135353a206275726e20616d6f756e7420657863656564732062616c616e6365455243313135353a2063616c6c6572206973206e6f74206f776e6572206e6f7220617070726f76656445434453413a20696e76616c6964207369676e6174757265202773272076616c7565455243313135353a207472616e7366657220746f20746865207a65726f2061646472657373455243313135353a207472616e736665722063616c6c6572206973206e6f74206f776e6572206e6f7220617070726f766564496e697469616c697a61626c653a20636f6e747261637420697320616c726561647920696e697469616c697a656445434453413a20696e76616c6964207369676e6174757265202776272076616c7565455243313135353a206275726e2066726f6d20746865207a65726f2061646472657373455243313135353a20696e73756666696369656e742062616c616e636520666f72207472616e73666572455243313135353a2073657474696e6720617070726f76616c2073746174757320666f722073656c66455243313135353a206163636f756e747320616e6420696473206c656e677468206d69736d61746368455243313135353a2069647320616e6420616d6f756e7473206c656e677468206d69736d61746368455243313135353a206d696e7420746f20746865207a65726f2061646472657373a2646970667358221220e0e476811111488464fda96de64ecd0b087c60b531946a8f848adfa9433cc04664736f6c63430007060033",
  "immutableReferences": {},
  "source": "// SPDX-License-Identifier: MIT\n\npragma solidity >=0.6.2 <0.8.0;\npragma abicoder v2;\n\nimport \"@openzeppelin/contracts-upgradeable/access/OwnableUpgradeable.sol\";\nimport \"@openzeppelin/contracts-upgradeable/token/ERC1155/ERC1155BurnableUpgradeable.sol\";\nimport \"./ERC1155Lazy.sol\";\nimport \"../HasContractURI.sol\";\n\ncontract ERC1155RaribleUser is OwnableUpgradeable, ERC1155BurnableUpgradeable, ERC1155Lazy, HasContractURI {\n\n    event CreateERC1155RaribleUser(address owner, string name, string symbol);\n\n    string public name;\n    string public symbol;\n\n    function __ERC1155RaribleUser_init(string memory _name, string memory _symbol, string memory baseURI, string memory contractURI, address[] memory operators) external initializer {\n        __Ownable_init_unchained();\n        __ERC1155Lazy_init_unchained();\n        __ERC165_init_unchained();\n        __Context_init_unchained();\n        __Mint1155Validator_init_unchained();\n        __ERC1155_init_unchained(\"\");\n        __HasContractURI_init_unchained(contractURI);\n        __ERC1155Burnable_init_unchained();\n        __RoyaltiesV2Upgradeable_init_unchained();\n        __ERC1155RaribleUser_init_unchained(_name, _symbol);\n        _setBaseURI(baseURI);\n        for(uint i = 0; i < operators.length; i++) {\n            setApprovalForAll(operators[i], true);\n        }\n        emit CreateERC1155RaribleUser(_msgSender(), _name, _symbol);\n    }\n\n    function __ERC1155RaribleUser_init_unchained(string memory _name, string memory _symbol) internal initializer {\n        name = _name;\n        symbol = _symbol;\n    }\n\n    function _mint(address account, uint256 tokenId, uint256 amount, bytes memory data) internal virtual override(ERC1155Upgradeable, ERC1155Lazy) {\n        ERC1155Lazy._mint(account, tokenId, amount, data);\n    }\n\n    function uri(uint tokenId) external view override(ERC1155BaseURI, ERC1155Upgradeable) virtual returns (string memory) {\n        return _tokenURI(tokenId);\n    }\n\n    function mintAndTransfer(LibERC1155LazyMint.Mint1155Data memory data, address to, uint256 _amount) public override {\n        require(owner() == data.creators[0].account, \"minter is not the owner\");\n        super.mintAndTransfer(data, to, _amount);\n    }\n    uint256[50] private __gap;\n}\n",
  "sourcePath": "D:/Posao - Stefan/Stefan - razno/Gitcoin/Hackathon - Rarible/Nfticketizegraph/contracts/erc-1155/ERC1155RaribleUser.sol",
  "compiler": {
    "name": "solc",
    "version": "0.7.6+commit.7338295f.Emscripten.clang"
  },
  "schemaVersion": "3.4.1",
  "updatedAt": "2021-07-04T17:19:50.085Z",
  "devdoc": {
    "kind": "dev",
    "methods": {
      "balanceOf(address,uint256)": {
        "details": "See {IERC1155-balanceOf}. Requirements: - `account` cannot be the zero address."
      },
      "balanceOfBatch(address[],uint256[])": {
        "details": "See {IERC1155-balanceOfBatch}. Requirements: - `accounts` and `ids` must have the same length."
      },
      "baseURI()": {
        "details": "Returns the base URI set via {_setBaseURI}. This will be automatically added as a prefix in {tokenURI} to each token's URI, or to the token ID if no specific URI is set for that token ID."
      },
      "isApprovedForAll(address,address)": {
        "details": "See {IERC1155-isApprovedForAll}."
      },
      "owner()": {
        "details": "Returns the address of the current owner."
      },
      "renounceOwnership()": {
        "details": "Leaves the contract without owner. It will not be possible to call `onlyOwner` functions anymore. Can only be called by the current owner. NOTE: Renouncing ownership will leave the contract without an owner, thereby removing any functionality that is only available to the owner."
      },
      "safeBatchTransferFrom(address,address,uint256[],uint256[],bytes)": {
        "details": "See {IERC1155-safeBatchTransferFrom}."
      },
      "safeTransferFrom(address,address,uint256,uint256,bytes)": {
        "details": "See {IERC1155-safeTransferFrom}."
      },
      "setApprovalForAll(address,bool)": {
        "details": "See {IERC1155-setApprovalForAll}."
      },
      "supportsInterface(bytes4)": {
        "details": "See {IERC165-supportsInterface}. Time complexity O(1), guaranteed to always use less than 30 000 gas."
      },
      "transferOwnership(address)": {
        "details": "Transfers ownership of the contract to a new account (`newOwner`). Can only be called by the current owner."
      }
    },
    "version": 1
  },
  "userdoc": {
    "kind": "user",
    "methods": {},
    "version": 1
  }
}