{
  "contractName": "ERC1155Rarible",
  "abi": [
    {
      "anonymous": false,
      "inputs": [
        {
          "indexed": true,
          "internalType": "address",
          "name": "account",
          "type": "address"
        },
        {
          "indexed": true,
          "internalType": "address",
          "name": "operator",
          "type": "address"
        },
        {
          "indexed": false,
          "internalType": "bool",
          "name": "approved",
          "type": "bool"
        }
      ],
      "name": "ApprovalForAll",
      "type": "event"
    },
    {
      "anonymous": false,
      "inputs": [
        {
          "indexed": false,
          "internalType": "address",
          "name": "owner",
          "type": "address"
        },
        {
          "indexed": false,
          "internalType": "string",
          "name": "name",
          "type": "string"
        },
        {
          "indexed": false,
          "internalType": "string",
          "name": "symbol",
          "type": "string"
        }
      ],
      "name": "CreateERC1155Rarible",
      "type": "event"
    },
    {
      "anonymous": false,
      "inputs": [
        {
          "indexed": false,
          "internalType": "uint256",
          "name": "",
          "type": "uint256"
        },
        {
          "components": [
            {
              "internalType": "address payable",
              "name": "account",
              "type": "address"
            },
            {
              "internalType": "uint96",
              "name": "value",
              "type": "uint96"
            }
          ],
          "indexed": false,
          "internalType": "struct LibPart.Part[]",
          "name": "",
          "type": "tuple[]"
        }
      ],
      "name": "Creators",
      "type": "event"
    },
    {
      "anonymous": false,
      "inputs": [
        {
          "indexed": true,
          "internalType": "address",
          "name": "operator",
          "type": "address"
        },
        {
          "indexed": false,
          "internalType": "bool",
          "name": "hasApproval",
          "type": "bool"
        }
      ],
      "name": "DefaultApproval",
      "type": "event"
    },
    {
      "anonymous": false,
      "inputs": [
        {
          "indexed": false,
          "internalType": "uint256",
          "name": "tokenId",
          "type": "uint256"
        },
        {
          "indexed": false,
          "internalType": "string",
          "name": "uri",
          "type": "string"
        },
        {
          "components": [
            {
              "internalType": "address payable",
              "name": "account",
              "type": "address"
            },
            {
              "internalType": "uint96",
              "name": "value",
              "type": "uint96"
            }
          ],
          "indexed": false,
          "internalType": "struct LibPart.Part[]",
          "name": "creators",
          "type": "tuple[]"
        },
        {
          "indexed": false,
          "internalType": "uint256",
          "name": "value",
          "type": "uint256"
        }
      ],
      "name": "Mint",
      "type": "event"
    },
    {
      "anonymous": false,
      "inputs": [
        {
          "indexed": true,
          "internalType": "address",
          "name": "previousOwner",
          "type": "address"
        },
        {
          "indexed": true,
          "internalType": "address",
          "name": "newOwner",
          "type": "address"
        }
      ],
      "name": "OwnershipTransferred",
      "type": "event"
    },
    {
      "anonymous": false,
      "inputs": [
        {
          "indexed": false,
          "internalType": "uint256",
          "name": "tokenId",
          "type": "uint256"
        },
        {
          "components": [
            {
              "internalType": "address payable",
              "name": "account",
              "type": "address"
            },
            {
              "internalType": "uint96",
              "name": "value",
              "type": "uint96"
            }
          ],
          "indexed": false,
          "internalType": "struct LibPart.Part[]",
          "name": "royalties",
          "type": "tuple[]"
        }
      ],
      "name": "RoyaltiesSet",
      "type": "event"
    },
    {
      "anonymous": false,
      "inputs": [
        {
          "indexed": false,
          "internalType": "uint256",
          "name": "",
          "type": "uint256"
        },
        {
          "indexed": false,
          "internalType": "uint256",
          "name": "",
          "type": "uint256"
        }
      ],
      "name": "Supply",
      "type": "event"
    },
    {
      "anonymous": false,
      "inputs": [
        {
          "indexed": true,
          "internalType": "address",
          "name": "operator",
          "type": "address"
        },
        {
          "indexed": true,
          "internalType": "address",
          "name": "from",
          "type": "address"
        },
        {
          "indexed": true,
          "internalType": "address",
          "name": "to",
          "type": "address"
        },
        {
          "indexed": false,
          "internalType": "uint256[]",
          "name": "ids",
          "type": "uint256[]"
        },
        {
          "indexed": false,
          "internalType": "uint256[]",
          "name": "values",
          "type": "uint256[]"
        }
      ],
      "name": "TransferBatch",
      "type": "event"
    },
    {
      "anonymous": false,
      "inputs": [
        {
          "indexed": true,
          "internalType": "address",
          "name": "operator",
          "type": "address"
        },
        {
          "indexed": true,
          "internalType": "address",
          "name": "from",
          "type": "address"
        },
        {
          "indexed": true,
          "internalType": "address",
          "name": "to",
          "type": "address"
        },
        {
          "indexed": false,
          "internalType": "uint256",
          "name": "id",
          "type": "uint256"
        },
        {
          "indexed": false,
          "internalType": "uint256",
          "name": "value",
          "type": "uint256"
        }
      ],
      "name": "TransferSingle",
      "type": "event"
    },
    {
      "anonymous": false,
      "inputs": [
        {
          "indexed": false,
          "internalType": "string",
          "name": "value",
          "type": "string"
        },
        {
          "indexed": true,
          "internalType": "uint256",
          "name": "id",
          "type": "uint256"
        }
      ],
      "name": "URI",
      "type": "event"
    },
    {
      "inputs": [
        {
          "internalType": "address",
          "name": "account",
          "type": "address"
        },
        {
          "internalType": "uint256",
          "name": "id",
          "type": "uint256"
        }
      ],
      "name": "balanceOf",
      "outputs": [
        {
          "internalType": "uint256",
          "name": "",
          "type": "uint256"
        }
      ],
      "stateMutability": "view",
      "type": "function"
    },
    {
      "inputs": [
        {
          "internalType": "address[]",
          "name": "accounts",
          "type": "address[]"
        },
        {
          "internalType": "uint256[]",
          "name": "ids",
          "type": "uint256[]"
        }
      ],
      "name": "balanceOfBatch",
      "outputs": [
        {
          "internalType": "uint256[]",
          "name": "",
          "type": "uint256[]"
        }
      ],
      "stateMutability": "view",
      "type": "function"
    },
    {
      "inputs": [],
      "name": "baseURI",
      "outputs": [
        {
          "internalType": "string",
          "name": "",
          "type": "string"
        }
      ],
      "stateMutability": "view",
      "type": "function"
    },
    {
      "inputs": [
        {
          "internalType": "address",
          "name": "account",
          "type": "address"
        },
        {
          "internalType": "uint256",
          "name": "id",
          "type": "uint256"
        },
        {
          "internalType": "uint256",
          "name": "value",
          "type": "uint256"
        }
      ],
      "name": "burn",
      "outputs": [],
      "stateMutability": "nonpayable",
      "type": "function"
    },
    {
      "inputs": [
        {
          "internalType": "address",
          "name": "account",
          "type": "address"
        },
        {
          "internalType": "uint256[]",
          "name": "ids",
          "type": "uint256[]"
        },
        {
          "internalType": "uint256[]",
          "name": "values",
          "type": "uint256[]"
        }
      ],
      "name": "burnBatch",
      "outputs": [],
      "stateMutability": "nonpayable",
      "type": "function"
    },
    {
      "inputs": [],
      "name": "contractURI",
      "outputs": [
        {
          "internalType": "string",
          "name": "",
          "type": "string"
        }
      ],
      "stateMutability": "view",
      "type": "function"
    },
    {
      "inputs": [
        {
          "internalType": "uint256",
          "name": "",
          "type": "uint256"
        },
        {
          "internalType": "uint256",
          "name": "",
          "type": "uint256"
        }
      ],
      "name": "creators",
      "outputs": [
        {
          "internalType": "address payable",
          "name": "account",
          "type": "address"
        },
        {
          "internalType": "uint96",
          "name": "value",
          "type": "uint96"
        }
      ],
      "stateMutability": "view",
      "type": "function"
    },
    {
      "inputs": [
        {
          "internalType": "uint256",
          "name": "_id",
          "type": "uint256"
        }
      ],
      "name": "getCreators",
      "outputs": [
        {
          "components": [
            {
              "internalType": "address payable",
              "name": "account",
              "type": "address"
            },
            {
              "internalType": "uint96",
              "name": "value",
              "type": "uint96"
            }
          ],
          "internalType": "struct LibPart.Part[]",
          "name": "",
          "type": "tuple[]"
        }
      ],
      "stateMutability": "view",
      "type": "function"
    },
    {
      "inputs": [
        {
          "internalType": "uint256",
          "name": "id",
          "type": "uint256"
        }
      ],
      "name": "getRoyalties",
      "outputs": [
        {
          "components": [
            {
              "internalType": "address payable",
              "name": "account",
              "type": "address"
            },
            {
              "internalType": "uint96",
              "name": "value",
              "type": "uint96"
            }
          ],
          "internalType": "struct LibPart.Part[]",
          "name": "",
          "type": "tuple[]"
        }
      ],
      "stateMutability": "view",
      "type": "function"
    },
    {
      "inputs": [
        {
          "internalType": "address",
          "name": "_owner",
          "type": "address"
        },
        {
          "internalType": "address",
          "name": "_operator",
          "type": "address"
        }
      ],
      "name": "isApprovedForAll",
      "outputs": [
        {
          "internalType": "bool",
          "name": "",
          "type": "bool"
        }
      ],
      "stateMutability": "view",
      "type": "function"
    },
    {
      "inputs": [
        {
          "components": [
            {
              "internalType": "uint256",
              "name": "tokenId",
              "type": "uint256"
            },
            {
              "internalType": "string",
              "name": "uri",
              "type": "string"
            },
            {
              "internalType": "uint256",
              "name": "supply",
              "type": "uint256"
            },
            {
              "components": [
                {
                  "internalType": "address payable",
                  "name": "account",
                  "type": "address"
                },
                {
                  "internalType": "uint96",
                  "name": "value",
                  "type": "uint96"
                }
              ],
              "internalType": "struct LibPart.Part[]",
              "name": "creators",
              "type": "tuple[]"
            },
            {
              "components": [
                {
                  "internalType": "address payable",
                  "name": "account",
                  "type": "address"
                },
                {
                  "internalType": "uint96",
                  "name": "value",
                  "type": "uint96"
                }
              ],
              "internalType": "struct LibPart.Part[]",
              "name": "royalties",
              "type": "tuple[]"
            },
            {
              "internalType": "bytes[]",
              "name": "signatures",
              "type": "bytes[]"
            }
          ],
          "internalType": "struct LibERC1155LazyMint.Mint1155Data",
          "name": "data",
          "type": "tuple"
        },
        {
          "internalType": "address",
          "name": "to",
          "type": "address"
        },
        {
          "internalType": "uint256",
          "name": "_amount",
          "type": "uint256"
        }
      ],
      "name": "mintAndTransfer",
      "outputs": [],
      "stateMutability": "nonpayable",
      "type": "function"
    },
    {
      "inputs": [],
      "name": "name",
      "outputs": [
        {
          "internalType": "string",
          "name": "",
          "type": "string"
        }
      ],
      "stateMutability": "view",
      "type": "function"
    },
    {
      "inputs": [],
      "name": "owner",
      "outputs": [
        {
          "internalType": "address",
          "name": "",
          "type": "address"
        }
      ],
      "stateMutability": "view",
      "type": "function"
    },
    {
      "inputs": [],
      "name": "renounceOwnership",
      "outputs": [],
      "stateMutability": "nonpayable",
      "type": "function"
    },
    {
      "inputs": [
        {
          "internalType": "uint256",
          "name": "",
          "type": "uint256"
        },
        {
          "internalType": "uint256",
          "name": "",
          "type": "uint256"
        }
      ],
      "name": "royalties",
      "outputs": [
        {
          "internalType": "address payable",
          "name": "account",
          "type": "address"
        },
        {
          "internalType": "uint96",
          "name": "value",
          "type": "uint96"
        }
      ],
      "stateMutability": "view",
      "type": "function"
    },
    {
      "inputs": [
        {
          "internalType": "address",
          "name": "from",
          "type": "address"
        },
        {
          "internalType": "address",
          "name": "to",
          "type": "address"
        },
        {
          "internalType": "uint256[]",
          "name": "ids",
          "type": "uint256[]"
        },
        {
          "internalType": "uint256[]",
          "name": "amounts",
          "type": "uint256[]"
        },
        {
          "internalType": "bytes",
          "name": "data",
          "type": "bytes"
        }
      ],
      "name": "safeBatchTransferFrom",
      "outputs": [],
      "stateMutability": "nonpayable",
      "type": "function"
    },
    {
      "inputs": [
        {
          "internalType": "address",
          "name": "from",
          "type": "address"
        },
        {
          "internalType": "address",
          "name": "to",
          "type": "address"
        },
        {
          "internalType": "uint256",
          "name": "id",
          "type": "uint256"
        },
        {
          "internalType": "uint256",
          "name": "amount",
          "type": "uint256"
        },
        {
          "internalType": "bytes",
          "name": "data",
          "type": "bytes"
        }
      ],
      "name": "safeTransferFrom",
      "outputs": [],
      "stateMutability": "nonpayable",
      "type": "function"
    },
    {
      "inputs": [
        {
          "internalType": "address",
          "name": "operator",
          "type": "address"
        },
        {
          "internalType": "bool",
          "name": "approved",
          "type": "bool"
        }
      ],
      "name": "setApprovalForAll",
      "outputs": [],
      "stateMutability": "nonpayable",
      "type": "function"
    },
    {
      "inputs": [
        {
          "internalType": "address",
          "name": "operator",
          "type": "address"
        },
        {
          "internalType": "bool",
          "name": "hasApproval",
          "type": "bool"
        }
      ],
      "name": "setDefaultApproval",
      "outputs": [],
      "stateMutability": "nonpayable",
      "type": "function"
    },
    {
      "inputs": [
        {
          "internalType": "bytes4",
          "name": "interfaceId",
          "type": "bytes4"
        }
      ],
      "name": "supportsInterface",
      "outputs": [
        {
          "internalType": "bool",
          "name": "",
          "type": "bool"
        }
      ],
      "stateMutability": "view",
      "type": "function"
    },
    {
      "inputs": [],
      "name": "symbol",
      "outputs": [
        {
          "internalType": "string",
          "name": "",
          "type": "string"
        }
      ],
      "stateMutability": "view",
      "type": "function"
    },
    {
      "inputs": [
        {
          "components": [
            {
              "internalType": "uint256",
              "name": "tokenId",
              "type": "uint256"
            },
            {
              "internalType": "string",
              "name": "uri",
              "type": "string"
            },
            {
              "internalType": "uint256",
              "name": "supply",
              "type": "uint256"
            },
            {
              "components": [
                {
                  "internalType": "address payable",
                  "name": "account",
                  "type": "address"
                },
                {
                  "internalType": "uint96",
                  "name": "value",
                  "type": "uint96"
                }
              ],
              "internalType": "struct LibPart.Part[]",
              "name": "creators",
              "type": "tuple[]"
            },
            {
              "components": [
                {
                  "internalType": "address payable",
                  "name": "account",
                  "type": "address"
                },
                {
                  "internalType": "uint96",
                  "name": "value",
                  "type": "uint96"
                }
              ],
              "internalType": "struct LibPart.Part[]",
              "name": "royalties",
              "type": "tuple[]"
            },
            {
              "internalType": "bytes[]",
              "name": "signatures",
              "type": "bytes[]"
            }
          ],
          "internalType": "struct LibERC1155LazyMint.Mint1155Data",
          "name": "data",
          "type": "tuple"
        },
        {
          "internalType": "address",
          "name": "from",
          "type": "address"
        },
        {
          "internalType": "address",
          "name": "to",
          "type": "address"
        },
        {
          "internalType": "uint256",
          "name": "amount",
          "type": "uint256"
        }
      ],
      "name": "transferFromOrMint",
      "outputs": [],
      "stateMutability": "nonpayable",
      "type": "function"
    },
    {
      "inputs": [
        {
          "internalType": "address",
          "name": "newOwner",
          "type": "address"
        }
      ],
      "name": "transferOwnership",
      "outputs": [],
      "stateMutability": "nonpayable",
      "type": "function"
    },
    {
      "inputs": [
        {
          "internalType": "uint256",
          "name": "id",
          "type": "uint256"
        }
      ],
      "name": "uri",
      "outputs": [
        {
          "internalType": "string",
          "name": "",
          "type": "string"
        }
      ],
      "stateMutability": "view",
      "type": "function"
    },
    {
      "inputs": [
        {
          "internalType": "string",
          "name": "_name",
          "type": "string"
        },
        {
          "internalType": "string",
          "name": "_symbol",
          "type": "string"
        },
        {
          "internalType": "string",
          "name": "baseURI",
          "type": "string"
        },
        {
          "internalType": "string",
          "name": "contractURI",
          "type": "string"
        }
      ],
      "name": "__ERC1155Rarible_init",
      "outputs": [],
      "stateMutability": "nonpayable",
      "type": "function"
    }
  ],
  "bytecode": "0x608060405234801561001057600080fd5b50616f2680620000216000396000f3fe608060405234801561001057600080fd5b50600436106101725760003560e01c8063891be974116100de578063bb3bafd611610097578063f242432a11610071578063f242432a14610471578063f2fde38b1461048d578063f5298aca146104a9578063ffc4e0a7146104c557610172565b8063bb3bafd6146103f3578063e8a3d48514610423578063e985e9c51461044157610172565b8063891be974146103095780638924af74146103395780638da5cb5b1461036a57806395d89b411461038857806398d0b4fb146103a6578063a22cb465146103d757610172565b806318054c371161013057806318054c371461025d5780632eb2c2d6146102795780634e1273f4146102955780636b20c454146102c55780636c0360eb146102e1578063715018a6146102ff57610172565b8062fdd58e1461017757806301ffc9a7146101a757806306fdde03146101d75780630e89341c146101f55780630eaead6714610225578063148dbc4f14610241575b600080fd5b610191600480360381019061018c9190615e31565b6104e1565b60405161019e919061678c565b60405180910390f35b6101c160048036038101906101bc9190615f28565b6105c1565b6040516101ce919061664f565b60405180910390f35b6101df610629565b6040516101ec919061666a565b60405180910390f35b61020f600480360381019061020a91906160f6565b6106c8565b60405161021c919061666a565b60405180910390f35b61023f600480360381019061023a919061608f565b6106da565b005b61025b60048036038101906102569190615f51565b6109cf565b005b61027760048036038101906102729190615df5565b610b7f565b005b610293600480360381019061028e9190615c28565b610c3c565b005b6102af60048036038101906102aa9190615ebc565b6110c7565b6040516102bc919061662d565b60405180910390f35b6102df60048036038101906102da9190615d76565b6111d9565b005b6102e961128c565b6040516102f6919061666a565b60405180910390f35b61030761132f565b005b610323600480360381019061031e91906160f6565b61149f565b604051610330919061660b565b60405180910390f35b610353600480360381019061034e919061611f565b6115a2565b6040516103619291906165e2565b60405180910390f35b610372611618565b60405161037f9190616582565b60405180910390f35b610390611642565b60405161039d919061666a565b60405180910390f35b6103c060048036038101906103bb919061611f565b6116e1565b6040516103ce9291906165e2565b60405180910390f35b6103f160048036038101906103ec9190615df5565b611757565b005b61040d600480360381019061040891906160f6565b6118f0565b60405161041a919061660b565b60405180910390f35b61042b6119f3565b604051610438919061666a565b60405180910390f35b61045b60048036038101906104569190615bec565b611a92565b604051610468919061664f565b60405180910390f35b61048b60048036038101906104869190615ce7565b611aa6565b005b6104a760048036038101906104a29190615bc3565b611e1b565b005b6104c360048036038101906104be9190615e6d565b612010565b005b6104df60048036038101906104da9190616014565b6120c3565b005b60008073ffffffffffffffffffffffffffffffffffffffff168373ffffffffffffffffffffffffffffffffffffffff161415610568576040517f08c379a000000000000000000000000000000000000000000000000000000000815260040180806020018281038252602b815260200180616ca2602b913960400191505060405180910390fd5b6097600083815260200190815260200160002060008473ffffffffffffffffffffffffffffffffffffffff1673ffffffffffffffffffffffffffffffffffffffff16815260200190815260200160002054905092915050565b600060656000837bffffffffffffffffffffffffffffffffffffffffffffffffffffffff19167bffffffffffffffffffffffffffffffffffffffffffffffffffffffff1916815260200190815260200160002060009054906101000a900460ff169050919050565b6102628054600181600116156101000203166002900480601f0160208091040260200160405190810160405280929190818152602001828054600181600116156101000203166002900480156106c05780601f10610695576101008083540402835291602001916106c0565b820191906000526020600020905b8154815290600101906020018083116106a357829003601f168201915b505050505081565b60606106d382612137565b9050919050565b600060608460000151901c905060006106f16123ab565b90508073ffffffffffffffffffffffffffffffffffffffff168273ffffffffffffffffffffffffffffffffffffffff16148061073357506107328282611a92565b5b610772576040517f08c379a00000000000000000000000000000000000000000000000000000000081526004016107699061670c565b60405180910390fd5b600083116107b5576040517f08c379a00000000000000000000000000000000000000000000000000000000081526004016107ac906166ec565b60405180910390fd5b60006101fc6000876000015181526020019081526020016000205414156109a95784606001516000815181106107e757fe5b60200260200101516000015173ffffffffffffffffffffffffffffffffffffffff168273ffffffffffffffffffffffffffffffffffffffff1614610860576040517f08c379a0000000000000000000000000000000000000000000000000000000008152600401610857906166cc565b60405180910390fd5b60008560400151116108a7576040517f08c379a000000000000000000000000000000000000000000000000000000000815260040161089e9061668c565b60405180910390fd5b8460a0015151856060015151146108bd57600080fd5b60006108c8866123b3565b905060005b86606001515181101561095e576000876060015182815181106108ec57fe5b60200260200101516000015190508373ffffffffffffffffffffffffffffffffffffffff168173ffffffffffffffffffffffffffffffffffffffff16146109505761094f81848a60a00151858151811061094257fe5b6020026020010151612631565b5b5080806001019150506108cd565b5061097186600001518760400151612641565b610983866000015187608001516126b8565b61099586600001518760600151612903565b6109a786600001518760200151612b9d565b505b6109c88486600001518560405180602001604052806000815250612c6f565b5050505050565b600060019054906101000a900460ff16806109ee57506109ed612c81565b5b80610a04575060008054906101000a900460ff16155b610a59576040517f08c379a000000000000000000000000000000000000000000000000000000000815260040180806020018281038252602e815260200180616db9602e913960400191505060405180910390fd5b60008060019054906101000a900460ff161590508015610aa9576001600060016101000a81548160ff02191690831515021790555060016000806101000a81548160ff0219169083151502179055505b610ab1612c92565b610ab9612e39565b610ac1612f47565b610ac9613055565b610ad1613153565b610ae9604051806020016040528060008152506132c5565b610af2826133ed565b610afa613514565b610b02613612565b610b0c8585613720565b610b1583613850565b7fcc215b7682459c30faa0e854780165d503a7d62d22a9aaaad6334585dc63343e610b3e6123ab565b8686604051610b4f9392919061659d565b60405180910390a18015610b785760008060016101000a81548160ff0219169083151502179055505b5050505050565b610b876123ab565b73ffffffffffffffffffffffffffffffffffffffff16610ba5611618565b73ffffffffffffffffffffffffffffffffffffffff1614610c2e576040517f08c379a00000000000000000000000000000000000000000000000000000000081526004018080602001828103825260208152602001807f4f776e61626c653a2063616c6c6572206973206e6f7420746865206f776e657281525060200191505060405180910390fd5b610c38828261386b565b5050565b8151835114610c96576040517f08c379a0000000000000000000000000000000000000000000000000000000008152600401808060200182810382526028815260200180616ea86028913960400191505060405180910390fd5b600073ffffffffffffffffffffffffffffffffffffffff168473ffffffffffffffffffffffffffffffffffffffff161415610d1c576040517f08c379a0000000000000000000000000000000000000000000000000000000008152600401808060200182810382526025815260200180616d626025913960400191505060405180910390fd5b610d246123ab565b73ffffffffffffffffffffffffffffffffffffffff168573ffffffffffffffffffffffffffffffffffffffff161480610d6a5750610d6985610d646123ab565b611a92565b5b610dbf576040517f08c379a0000000000000000000000000000000000000000000000000000000008152600401808060200182810382526032815260200180616d876032913960400191505060405180910390fd5b6000610dc96123ab565b9050610dd9818787878787613916565b60005b8451811015610faa576000858281518110610df357fe5b602002602001015190506000858381518110610e0b57fe5b60200260200101519050610e92816040518060600160405280602a8152602001616e2c602a91396097600086815260200190815260200160002060008d73ffffffffffffffffffffffffffffffffffffffff1673ffffffffffffffffffffffffffffffffffffffff1681526020019081526020016000205461391e9092919063ffffffff16565b6097600084815260200190815260200160002060008b73ffffffffffffffffffffffffffffffffffffffff1673ffffffffffffffffffffffffffffffffffffffff16815260200190815260200160002081905550610f49816097600085815260200190815260200160002060008b73ffffffffffffffffffffffffffffffffffffffff1673ffffffffffffffffffffffffffffffffffffffff168152602001908152602001600020546139d890919063ffffffff16565b6097600084815260200190815260200160002060008a73ffffffffffffffffffffffffffffffffffffffff1673ffffffffffffffffffffffffffffffffffffffff168152602001908152602001600020819055505050806001019050610ddc565b508473ffffffffffffffffffffffffffffffffffffffff168673ffffffffffffffffffffffffffffffffffffffff168273ffffffffffffffffffffffffffffffffffffffff167f4a39dc06d4c0dbc64b70af90fd698a233a518aa5d07e595d983b8c0526c8f7fb8787604051808060200180602001838103835285818151815260200191508051906020019060200280838360005b8381101561105a57808201518184015260208101905061103f565b50505050905001838103825284818151815260200191508051906020019060200280838360005b8381101561109c578082015181840152602081019050611081565b5050505090500194505050505060405180910390a46110bf818787878787613a60565b505050505050565b60608151835114611123576040517f08c379a0000000000000000000000000000000000000000000000000000000008152600401808060200182810382526029815260200180616e7f6029913960400191505060405180910390fd5b6000835167ffffffffffffffff8111801561113d57600080fd5b5060405190808252806020026020018201604052801561116c5781602001602082028036833780820191505090505b50905060005b84518110156111ce576111ab85828151811061118a57fe5b602002602001015185838151811061119e57fe5b60200260200101516104e1565b8282815181106111b757fe5b602002602001018181525050806001019050611172565b508091505092915050565b6111e16123ab565b73ffffffffffffffffffffffffffffffffffffffff168373ffffffffffffffffffffffffffffffffffffffff1614806112275750611226836112216123ab565b611a92565b5b61127c576040517f08c379a0000000000000000000000000000000000000000000000000000000008152600401808060200182810382526029815260200180616d176029913960400191505060405180910390fd5b611287838383613def565b505050565b606061012f8054600181600116156101000203166002900480601f0160208091040260200160405190810160405280929190818152602001828054600181600116156101000203166002900480156113255780601f106112fa57610100808354040283529160200191611325565b820191906000526020600020905b81548152906001019060200180831161130857829003601f168201915b5050505050905090565b6113376123ab565b73ffffffffffffffffffffffffffffffffffffffff16611355611618565b73ffffffffffffffffffffffffffffffffffffffff16146113de576040517f08c379a00000000000000000000000000000000000000000000000000000000081526004018080602001828103825260208152602001807f4f776e61626c653a2063616c6c6572206973206e6f7420746865206f776e657281525060200191505060405180910390fd5b600073ffffffffffffffffffffffffffffffffffffffff16603360009054906101000a900473ffffffffffffffffffffffffffffffffffffffff1673ffffffffffffffffffffffffffffffffffffffff167f8be0079c531659141344cd1fd0a4f28419497f9722a3daafe3b4186f6b6457e060405160405180910390a36000603360006101000a81548173ffffffffffffffffffffffffffffffffffffffff021916908373ffffffffffffffffffffffffffffffffffffffff160217905550565b60606101fb6000838152602001908152602001600020805480602002602001604051908101604052809291908181526020016000905b82821015611597578382906000526020600020016040518060400160405290816000820160009054906101000a900473ffffffffffffffffffffffffffffffffffffffff1673ffffffffffffffffffffffffffffffffffffffff1673ffffffffffffffffffffffffffffffffffffffff1681526020016000820160149054906101000a90046bffffffffffffffffffffffff166bffffffffffffffffffffffff166bffffffffffffffffffffffff1681525050815260200190600101906114d5565b505050509050919050565b6101fa60205281600052604060002081815481106115bf57600080fd5b90600052602060002001600091509150508060000160009054906101000a900473ffffffffffffffffffffffffffffffffffffffff16908060000160149054906101000a90046bffffffffffffffffffffffff16905082565b6000603360009054906101000a900473ffffffffffffffffffffffffffffffffffffffff16905090565b6102638054600181600116156101000203166002900480601f0160208091040260200160405190810160405280929190818152602001828054600181600116156101000203166002900480156116d95780601f106116ae576101008083540402835291602001916116d9565b820191906000526020600020905b8154815290600101906020018083116116bc57829003601f168201915b505050505081565b6101fb60205281600052604060002081815481106116fe57600080fd5b90600052602060002001600091509150508060000160009054906101000a900473ffffffffffffffffffffffffffffffffffffffff16908060000160149054906101000a90046bffffffffffffffffffffffff16905082565b8173ffffffffffffffffffffffffffffffffffffffff166117766123ab565b73ffffffffffffffffffffffffffffffffffffffff1614156117e3576040517f08c379a0000000000000000000000000000000000000000000000000000000008152600401808060200182810382526029815260200180616e566029913960400191505060405180910390fd5b80609860006117f06123ab565b73ffffffffffffffffffffffffffffffffffffffff1673ffffffffffffffffffffffffffffffffffffffff16815260200190815260200160002060008473ffffffffffffffffffffffffffffffffffffffff1673ffffffffffffffffffffffffffffffffffffffff16815260200190815260200160002060006101000a81548160ff0219169083151502179055508173ffffffffffffffffffffffffffffffffffffffff1661189d6123ab565b73ffffffffffffffffffffffffffffffffffffffff167f17307eab39ab6107e8899845ad3d59bd9653f200f220920489ca2b5937696c318360405180821515815260200191505060405180910390a35050565b60606101fa6000838152602001908152602001600020805480602002602001604051908101604052809291908181526020016000905b828210156119e8578382906000526020600020016040518060400160405290816000820160009054906101000a900473ffffffffffffffffffffffffffffffffffffffff1673ffffffffffffffffffffffffffffffffffffffff1673ffffffffffffffffffffffffffffffffffffffff1681526020016000820160149054906101000a90046bffffffffffffffffffffffff166bffffffffffffffffffffffff166bffffffffffffffffffffffff168152505081526020019060010190611926565b505050509050919050565b6102308054600181600116156101000203166002900480601f016020809104026020016040519081016040528092919081815260200182805460018160011615610100020316600290048015611a8a5780601f10611a5f57610100808354040283529160200191611a8a565b820191906000526020600020905b815481529060010190602001808311611a6d57829003601f168201915b505050505081565b6000611a9e838361412a565b905092915050565b600073ffffffffffffffffffffffffffffffffffffffff168473ffffffffffffffffffffffffffffffffffffffff161415611b2c576040517f08c379a0000000000000000000000000000000000000000000000000000000008152600401808060200182810382526025815260200180616d626025913960400191505060405180910390fd5b611b346123ab565b73ffffffffffffffffffffffffffffffffffffffff168573ffffffffffffffffffffffffffffffffffffffff161480611b7a5750611b7985611b746123ab565b611a92565b5b611bcf576040517f08c379a0000000000000000000000000000000000000000000000000000000008152600401808060200182810382526029815260200180616d176029913960400191505060405180910390fd5b6000611bd96123ab565b9050611bf9818787611bea88614192565b611bf388614192565b87613916565b611c76836040518060600160405280602a8152602001616e2c602a91396097600088815260200190815260200160002060008a73ffffffffffffffffffffffffffffffffffffffff1673ffffffffffffffffffffffffffffffffffffffff1681526020019081526020016000205461391e9092919063ffffffff16565b6097600086815260200190815260200160002060008873ffffffffffffffffffffffffffffffffffffffff1673ffffffffffffffffffffffffffffffffffffffff16815260200190815260200160002081905550611d2d836097600087815260200190815260200160002060008873ffffffffffffffffffffffffffffffffffffffff1673ffffffffffffffffffffffffffffffffffffffff168152602001908152602001600020546139d890919063ffffffff16565b6097600086815260200190815260200160002060008773ffffffffffffffffffffffffffffffffffffffff1673ffffffffffffffffffffffffffffffffffffffff168152602001908152602001600020819055508473ffffffffffffffffffffffffffffffffffffffff168673ffffffffffffffffffffffffffffffffffffffff168273ffffffffffffffffffffffffffffffffffffffff167fc3d58168c5ae7397731d063d5bbf3d657854427343f4c083240f7aacaa2d0f628787604051808381526020018281526020019250505060405180910390a4611e13818787878787614203565b505050505050565b611e236123ab565b73ffffffffffffffffffffffffffffffffffffffff16611e41611618565b73ffffffffffffffffffffffffffffffffffffffff1614611eca576040517f08c379a00000000000000000000000000000000000000000000000000000000081526004018080602001828103825260208152602001807f4f776e61626c653a2063616c6c6572206973206e6f7420746865206f776e657281525060200191505060405180910390fd5b600073ffffffffffffffffffffffffffffffffffffffff168173ffffffffffffffffffffffffffffffffffffffff161415611f50576040517f08c379a0000000000000000000000000000000000000000000000000000000008152600401808060200182810382526026815260200180616ccd6026913960400191505060405180910390fd5b8073ffffffffffffffffffffffffffffffffffffffff16603360009054906101000a900473ffffffffffffffffffffffffffffffffffffffff1673ffffffffffffffffffffffffffffffffffffffff167f8be0079c531659141344cd1fd0a4f28419497f9722a3daafe3b4186f6b6457e060405160405180910390a380603360006101000a81548173ffffffffffffffffffffffffffffffffffffffff021916908373ffffffffffffffffffffffffffffffffffffffff16021790555050565b6120186123ab565b73ffffffffffffffffffffffffffffffffffffffff168373ffffffffffffffffffffffffffffffffffffffff16148061205e575061205d836120586123ab565b611a92565b5b6120b3576040517f08c379a0000000000000000000000000000000000000000000000000000000008152600401808060200182810382526029815260200180616d176029913960400191505060405180910390fd5b6120be838383614510565b505050565b60006120d38486600001516104e1565b905060008290506000821461211a576000839050838310156120f3578290505b612113868689600001518460405180602001604052806000815250611aa6565b8084039150505b600081111561212f5761212e8685836106da565b5b505050505050565b6060600061012e60008481526020019081526020016000208054600181600116156101000203166002900480601f0160208091040260200160405190810160405280929190818152602001828054600181600116156101000203166002900480156121e35780601f106121b8576101008083540402835291602001916121e3565b820191906000526020600020905b8154815290600101906020018083116121c657829003601f168201915b5050505050905060006121f461128c565b905060008151141561220a5781925050506123a6565b6000825111156122db5780826040516020018083805190602001908083835b6020831061224c5780518252602082019150602081019050602083039250612229565b6001836020036101000a03801982511681845116808217855250505050505090500182805190602001908083835b6020831061229d578051825260208201915060208101905060208303925061227a565b6001836020036101000a03801982511681845116808217855250505050505090500192505050604051602081830303815290604052925050506123a6565b806122e58561472c565b6040516020018083805190602001908083835b6020831061231b57805182526020820191506020810190506020830392506122f8565b6001836020036101000a03801982511681845116808217855250505050505090500182805190602001908083835b6020831061236c5780518252602082019150602081019050602083039250612349565b6001836020036101000a03801982511681845116808217855250505050505090500192505050604051602081830303815290604052925050505b919050565b600033905090565b60008082608001515167ffffffffffffffff811180156123d257600080fd5b506040519080825280602002602001820160405280156124015781602001602082028036833780820191505090505b50905060005b836080015151811015612459576124348460800151828151811061242757fe5b6020026020010151614873565b82828151811061244057fe5b6020026020010181815250508080600101915050612407565b50600083606001515167ffffffffffffffff8111801561247857600080fd5b506040519080825280602002602001820160405280156124a75781602001602082028036833780820191505090505b50905060005b8460600151518110156124ff576124da856060015182815181106124cd57fe5b6020026020010151614873565b8282815181106124e657fe5b60200260200101818152505080806001019150506124ad565b507ffb988707ebb338694f318760b0fd5cfe756d00a2ade251fda110b80c336a3c7f846000015185604001518660200151805190602001208460405160200180828051906020019060200280838360005b8381101561256b578082015181840152602081019050612550565b50505050905001915050604051602081830303815290604052805190602001208660405160200180828051906020019060200280838360005b838110156125bf5780820151818401526020810190506125a4565b50505050905001915050604051602081830303815290604052805190602001206040516020018087815260200186815260200185815260200184815260200183815260200182815260200196505050505050506040516020818303038152906040528051906020012092505050919050565b61263c8383836148ff565b505050565b60006101fc6000848152602001908152602001600020541461266257600080fd5b806101fc6000848152602001908152602001600020819055507f5e2aa66efd74cce82b21852e317e5490d9ecc9e6bb953ae24d90851258cc2f5c82826040516126ac9291906167d7565b60405180910390a15050565b60005b81518110156128f457600073ffffffffffffffffffffffffffffffffffffffff168282815181106126e857fe5b60200260200101516000015173ffffffffffffffffffffffffffffffffffffffff16141561277e576040517f08c379a000000000000000000000000000000000000000000000000000000000815260040180806020018281038252601b8152602001807f526563697069656e742073686f756c642062652070726573656e74000000000081525060200191505060405180910390fd5b600082828151811061278c57fe5b6020026020010151602001516bffffffffffffffffffffffff16141561281a576040517f08c379a00000000000000000000000000000000000000000000000000000000081526004018080602001828103825260208152602001807f526f79616c74792076616c75652073686f756c6420626520706f73697469766581525060200191505060405180910390fd5b6101fa600084815260200190815260200160002082828151811061283a57fe5b60200260200101519080600181540180825580915050600190039060005260206000200160009091909190915060008201518160000160006101000a81548173ffffffffffffffffffffffffffffffffffffffff021916908373ffffffffffffffffffffffffffffffffffffffff16021790555060208201518160000160146101000a8154816bffffffffffffffffffffffff02191690836bffffffffffffffffffffffff160217905550505080806001019150506126bb565b506128ff8282614c77565b5050565b60006101fb600084815260200190815260200160002090506000805b8351811015612b1957600073ffffffffffffffffffffffffffffffffffffffff1684828151811061294c57fe5b60200260200101516000015173ffffffffffffffffffffffffffffffffffffffff1614156129af576040517f08c379a00000000000000000000000000000000000000000000000000000000081526004016129a69061674c565b60405180910390fd5b60008482815181106129bd57fe5b6020026020010151602001516bffffffffffffffffffffffff161415612a18576040517f08c379a0000000000000000000000000000000000000000000000000000000008152600401612a0f906166ac565b60405180910390fd5b82848281518110612a2557fe5b60200260200101519080600181540180825580915050600190039060005260206000200160009091909190915060008201518160000160006101000a81548173ffffffffffffffffffffffffffffffffffffffff021916908373ffffffffffffffffffffffffffffffffffffffff16021790555060208201518160000160146101000a8154816bffffffffffffffffffffffff02191690836bffffffffffffffffffffffff1602179055505050612b0a848281518110612ae157fe5b6020026020010151602001516bffffffffffffffffffffffff16836139d890919063ffffffff16565b9150808060010191505061291f565b506127108114612b5e576040517f08c379a0000000000000000000000000000000000000000000000000000000008152600401612b559061676c565b60405180910390fd5b7f841ffb90d4cabdd1f16034f3fa831d79060febbb8167bdd54a49269365bdf78f8484604051612b8f9291906167a7565b60405180910390a150505050565b8061012e60008481526020019081526020016000209080519060200190612bc5929190615639565b50817f6bb7ff708619ba0610cba295a58592e0451dee2622938c8755667688daf3529b612bf184612137565b6040518080602001828103825283818151815260200191508051906020019080838360005b83811015612c31578082015181840152602081019050612c16565b50505050905090810190601f168015612c5e5780820380516001836020036101000a031916815260200191505b509250505060405180910390a25050565b612c7b84848484614cb4565b50505050565b6000612c8c30614d62565b15905090565b600060019054906101000a900460ff1680612cb15750612cb0612c81565b5b80612cc7575060008054906101000a900460ff16155b612d1c576040517f08c379a000000000000000000000000000000000000000000000000000000000815260040180806020018281038252602e815260200180616db9602e913960400191505060405180910390fd5b60008060019054906101000a900460ff161590508015612d6c576001600060016101000a81548160ff02191690831515021790555060016000806101000a81548160ff0219169083151502179055505b6000612d766123ab565b905080603360006101000a81548173ffffffffffffffffffffffffffffffffffffffff021916908373ffffffffffffffffffffffffffffffffffffffff1602179055508073ffffffffffffffffffffffffffffffffffffffff16600073ffffffffffffffffffffffffffffffffffffffff167f8be0079c531659141344cd1fd0a4f28419497f9722a3daafe3b4186f6b6457e060405160405180910390a3508015612e365760008060016101000a81548160ff0219169083151502179055505b50565b600060019054906101000a900460ff1680612e585750612e57612c81565b5b80612e6e575060008054906101000a900460ff16155b612ec3576040517f08c379a000000000000000000000000000000000000000000000000000000000815260040180806020018281038252602e815260200180616db9602e913960400191505060405180910390fd5b60008060019054906101000a900460ff161590508015612f13576001600060016101000a81548160ff02191690831515021790555060016000806101000a81548160ff0219169083151502179055505b612f23636db15a0f60e01b614d75565b8015612f445760008060016101000a81548160ff0219169083151502179055505b50565b600060019054906101000a900460ff1680612f665750612f65612c81565b5b80612f7c575060008054906101000a900460ff16155b612fd1576040517f08c379a000000000000000000000000000000000000000000000000000000000815260040180806020018281038252602e815260200180616db9602e913960400191505060405180910390fd5b60008060019054906101000a900460ff161590508015613021576001600060016101000a81548160ff02191690831515021790555060016000806101000a81548160ff0219169083151502179055505b6130316301ffc9a760e01b614d75565b80156130525760008060016101000a81548160ff0219169083151502179055505b50565b600060019054906101000a900460ff16806130745750613073612c81565b5b8061308a575060008054906101000a900460ff16155b6130df576040517f08c379a000000000000000000000000000000000000000000000000000000000815260040180806020018281038252602e815260200180616db9602e913960400191505060405180910390fd5b60008060019054906101000a900460ff16159050801561312f576001600060016101000a81548160ff02191690831515021790555060016000806101000a81548160ff0219169083151502179055505b80156131505760008060016101000a81548160ff0219169083151502179055505b50565b600060019054906101000a900460ff16806131725750613171612c81565b5b80613188575060008054906101000a900460ff16155b6131dd576040517f08c379a000000000000000000000000000000000000000000000000000000000815260040180806020018281038252602e815260200180616db9602e913960400191505060405180910390fd5b60008060019054906101000a900460ff16159050801561322d576001600060016101000a81548160ff02191690831515021790555060016000806101000a81548160ff0219169083151502179055505b6132a16040518060400160405280600881526020017f4d696e74313135350000000000000000000000000000000000000000000000008152506040518060400160405280600181526020017f3100000000000000000000000000000000000000000000000000000000000000815250614e7e565b80156132c25760008060016101000a81548160ff0219169083151502179055505b50565b600060019054906101000a900460ff16806132e457506132e3612c81565b5b806132fa575060008054906101000a900460ff16155b61334f576040517f08c379a000000000000000000000000000000000000000000000000000000000815260040180806020018281038252602e815260200180616db9602e913960400191505060405180910390fd5b60008060019054906101000a900460ff16159050801561339f576001600060016101000a81548160ff02191690831515021790555060016000806101000a81548160ff0219169083151502179055505b6133a882614fa8565b6133b863d9b67a2660e01b614d75565b6133c8630e89341c60e01b614d75565b80156133e95760008060016101000a81548160ff0219169083151502179055505b5050565b600060019054906101000a900460ff168061340c575061340b612c81565b5b80613422575060008054906101000a900460ff16155b613477576040517f08c379a000000000000000000000000000000000000000000000000000000000815260040180806020018281038252602e815260200180616db9602e913960400191505060405180910390fd5b60008060019054906101000a900460ff1615905080156134c7576001600060016101000a81548160ff02191690831515021790555060016000806101000a81548160ff0219169083151502179055505b8161023090805190602001906134de929190615639565b506134ef63e8a3d48560e01b614d75565b80156135105760008060016101000a81548160ff0219169083151502179055505b5050565b600060019054906101000a900460ff16806135335750613532612c81565b5b80613549575060008054906101000a900460ff16155b61359e576040517f08c379a000000000000000000000000000000000000000000000000000000000815260040180806020018281038252602e815260200180616db9602e913960400191505060405180910390fd5b60008060019054906101000a900460ff1615905080156135ee576001600060016101000a81548160ff02191690831515021790555060016000806101000a81548160ff0219169083151502179055505b801561360f5760008060016101000a81548160ff0219169083151502179055505b50565b600060019054906101000a900460ff16806136315750613630612c81565b5b80613647575060008054906101000a900460ff16155b61369c576040517f08c379a000000000000000000000000000000000000000000000000000000000815260040180806020018281038252602e815260200180616db9602e913960400191505060405180910390fd5b60008060019054906101000a900460ff1615905080156136ec576001600060016101000a81548160ff02191690831515021790555060016000806101000a81548160ff0219169083151502179055505b6136fc6344c74bcc60e01b614d75565b801561371d5760008060016101000a81548160ff0219169083151502179055505b50565b600060019054906101000a900460ff168061373f575061373e612c81565b5b80613755575060008054906101000a900460ff16155b6137aa576040517f08c379a000000000000000000000000000000000000000000000000000000000815260040180806020018281038252602e815260200180616db9602e913960400191505060405180910390fd5b60008060019054906101000a900460ff1615905080156137fa576001600060016101000a81548160ff02191690831515021790555060016000806101000a81548160ff0219169083151502179055505b826102629080519060200190613811929190615639565b50816102639080519060200190613829929190615639565b50801561384b5760008060016101000a81548160ff0219169083151502179055505b505050565b8061012f9080519060200190613867929190615639565b5050565b8060c960008473ffffffffffffffffffffffffffffffffffffffff1673ffffffffffffffffffffffffffffffffffffffff16815260200190815260200160002060006101000a81548160ff0219169083151502179055508173ffffffffffffffffffffffffffffffffffffffff167f270dbb8ba4292910ae92862466486be25c355c837270a3d8824b36a8bc7c653b8260405180821515815260200191505060405180910390a25050565b505050505050565b60008383111582906139cb576040517f08c379a00000000000000000000000000000000000000000000000000000000081526004018080602001828103825283818151815260200191508051906020019080838360005b83811015613990578082015181840152602081019050613975565b50505050905090810190601f1680156139bd5780820380516001836020036101000a031916815260200191505b509250505060405180910390fd5b5082840390509392505050565b600080828401905083811015613a56576040517f08c379a000000000000000000000000000000000000000000000000000000000815260040180806020018281038252601b8152602001807f536166654d6174683a206164646974696f6e206f766572666c6f77000000000081525060200191505060405180910390fd5b8091505092915050565b613a7f8473ffffffffffffffffffffffffffffffffffffffff16614d62565b15613de7578373ffffffffffffffffffffffffffffffffffffffff1663bc197c8187878686866040518663ffffffff1660e01b8152600401808673ffffffffffffffffffffffffffffffffffffffff1681526020018573ffffffffffffffffffffffffffffffffffffffff168152602001806020018060200180602001848103845287818151815260200191508051906020019060200280838360005b83811015613b37578082015181840152602081019050613b1c565b50505050905001848103835286818151815260200191508051906020019060200280838360005b83811015613b79578082015181840152602081019050613b5e565b50505050905001848103825285818151815260200191508051906020019080838360005b83811015613bb8578082015181840152602081019050613b9d565b50505050905090810190601f168015613be55780820380516001836020036101000a031916815260200191505b5098505050505050505050602060405180830381600087803b158015613c0a57600080fd5b505af1925050508015613c3e57506040513d6020811015613c2a57600080fd5b810190808051906020019092919050505060015b613d4857613c4a616b05565b80613c555750613cf7565b806040517f08c379a00000000000000000000000000000000000000000000000000000000081526004018080602001828103825283818151815260200191508051906020019080838360005b83811015613cbc578082015181840152602081019050613ca1565b50505050905090810190601f168015613ce95780820380516001836020036101000a031916815260200191505b509250505060405180910390fd5b6040517f08c379a0000000000000000000000000000000000000000000000000000000008152600401808060200182810382526034815260200180616c466034913960400191505060405180910390fd5b63bc197c8160e01b7bffffffffffffffffffffffffffffffffffffffffffffffffffffffff1916817bffffffffffffffffffffffffffffffffffffffffffffffffffffffff191614613de5576040517f08c379a0000000000000000000000000000000000000000000000000000000008152600401808060200182810382526028815260200180616c7a6028913960400191505060405180910390fd5b505b505050505050565b600073ffffffffffffffffffffffffffffffffffffffff168373ffffffffffffffffffffffffffffffffffffffff161415613e75576040517f08c379a0000000000000000000000000000000000000000000000000000000008152600401808060200182810382526023815260200180616e096023913960400191505060405180910390fd5b8051825114613ecf576040517f08c379a0000000000000000000000000000000000000000000000000000000008152600401808060200182810382526028815260200180616ea86028913960400191505060405180910390fd5b6000613ed96123ab565b9050613ef981856000868660405180602001604052806000815250613916565b60005b835181101561401c57613fa8838281518110613f1457fe5b6020026020010151604051806060016040528060248152602001616cf36024913960976000888681518110613f4557fe5b6020026020010151815260200190815260200160002060008973ffffffffffffffffffffffffffffffffffffffff1673ffffffffffffffffffffffffffffffffffffffff1681526020019081526020016000205461391e9092919063ffffffff16565b60976000868481518110613fb857fe5b6020026020010151815260200190815260200160002060008773ffffffffffffffffffffffffffffffffffffffff1673ffffffffffffffffffffffffffffffffffffffff168152602001908152602001600020819055508080600101915050613efc565b50600073ffffffffffffffffffffffffffffffffffffffff168473ffffffffffffffffffffffffffffffffffffffff168273ffffffffffffffffffffffffffffffffffffffff167f4a39dc06d4c0dbc64b70af90fd698a233a518aa5d07e595d983b8c0526c8f7fb8686604051808060200180602001838103835285818151815260200191508051906020019060200280838360005b838110156140cd5780820151818401526020810190506140b2565b50505050905001838103825284818151815260200191508051906020019060200280838360005b8381101561410f5780820151818401526020810190506140f4565b5050505090500194505050505060405180910390a450505050565b600060c960008373ffffffffffffffffffffffffffffffffffffffff1673ffffffffffffffffffffffffffffffffffffffff16815260200190815260200160002060009054906101000a900460ff168061418a57506141898383614fc2565b5b905092915050565b60606000600167ffffffffffffffff811180156141ae57600080fd5b506040519080825280602002602001820160405280156141dd5781602001602082028036833780820191505090505b50905082816000815181106141ee57fe5b60200260200101818152505080915050919050565b6142228473ffffffffffffffffffffffffffffffffffffffff16614d62565b15614508578373ffffffffffffffffffffffffffffffffffffffff1663f23a6e6187878686866040518663ffffffff1660e01b8152600401808673ffffffffffffffffffffffffffffffffffffffff1681526020018573ffffffffffffffffffffffffffffffffffffffff16815260200184815260200183815260200180602001828103825283818151815260200191508051906020019080838360005b838110156142db5780820151818401526020810190506142c0565b50505050905090810190601f1680156143085780820380516001836020036101000a031916815260200191505b509650505050505050602060405180830381600087803b15801561432b57600080fd5b505af192505050801561435f57506040513d602081101561434b57600080fd5b810190808051906020019092919050505060015b6144695761436b616b05565b806143765750614418565b806040517f08c379a00000000000000000000000000000000000000000000000000000000081526004018080602001828103825283818151815260200191508051906020019080838360005b838110156143dd5780820151818401526020810190506143c2565b50505050905090810190601f16801561440a5780820380516001836020036101000a031916815260200191505b509250505060405180910390fd5b6040517f08c379a0000000000000000000000000000000000000000000000000000000008152600401808060200182810382526034815260200180616c466034913960400191505060405180910390fd5b63f23a6e6160e01b7bffffffffffffffffffffffffffffffffffffffffffffffffffffffff1916817bffffffffffffffffffffffffffffffffffffffffffffffffffffffff191614614506576040517f08c379a0000000000000000000000000000000000000000000000000000000008152600401808060200182810382526028815260200180616c7a6028913960400191505060405180910390fd5b505b505050505050565b600073ffffffffffffffffffffffffffffffffffffffff168373ffffffffffffffffffffffffffffffffffffffff161415614596576040517f08c379a0000000000000000000000000000000000000000000000000000000008152600401808060200182810382526023815260200180616e096023913960400191505060405180910390fd5b60006145a06123ab565b90506145d0818560006145b287614192565b6145bb87614192565b60405180602001604052806000815250613916565b61464d82604051806060016040528060248152602001616cf3602491396097600087815260200190815260200160002060008873ffffffffffffffffffffffffffffffffffffffff1673ffffffffffffffffffffffffffffffffffffffff1681526020019081526020016000205461391e9092919063ffffffff16565b6097600085815260200190815260200160002060008673ffffffffffffffffffffffffffffffffffffffff1673ffffffffffffffffffffffffffffffffffffffff16815260200190815260200160002081905550600073ffffffffffffffffffffffffffffffffffffffff168473ffffffffffffffffffffffffffffffffffffffff168273ffffffffffffffffffffffffffffffffffffffff167fc3d58168c5ae7397731d063d5bbf3d657854427343f4c083240f7aacaa2d0f628686604051808381526020018281526020019250505060405180910390a450505050565b60606000821415614774576040518060400160405280600181526020017f3000000000000000000000000000000000000000000000000000000000000000815250905061486e565b600082905060005b6000821461479e578080600101915050600a828161479657fe5b04915061477c565b60008167ffffffffffffffff811180156147b757600080fd5b506040519080825280601f01601f1916602001820160405280156147ea5781602001600182028036833780820191505090505b50905060006001830390508593505b6000841461486657600a848161480b57fe5b0660300160f81b8282806001900393508151811061482557fe5b60200101907effffffffffffffffffffffffffffffffffffffffffffffffffffffffffffff1916908160001a905350600a848161485e57fe5b0493506147f9565b819450505050505b919050565b60007f397e04204c1e1a60ee8724b71f8244e10ab5f2e9009854d80f602bda21b59ebb82600001518360200151604051602001808481526020018373ffffffffffffffffffffffffffffffffffffffff168152602001826bffffffffffffffffffffffff1681526020019350505050604051602081830303815290604052805190602001209050919050565b600061490a83615056565b905061492b8473ffffffffffffffffffffffffffffffffffffffff16614d62565b15614b5257631626ba7e60e01b7bffffffffffffffffffffffffffffffffffffffffffffffffffffffff19168473ffffffffffffffffffffffffffffffffffffffff16631626ba7e83856040518363ffffffff1660e01b81526004018083815260200180602001828103825283818151815260200191508051906020019080838360005b838110156149ca5780820151818401526020810190506149af565b50505050905090810190601f1680156149f75780820380516001836020036101000a031916815260200191505b50935050505060206040518083038186803b158015614a1557600080fd5b505afa158015614a29573d6000803e3d6000fd5b505050506040513d6020811015614a3f57600080fd5b81019080805190602001909291905050507bffffffffffffffffffffffffffffffffffffffffffffffffffffffff1916146040518060400160405280601c81526020017f7369676e617475726520766572696669636174696f6e206572726f720000000081525090614b4c576040517f08c379a00000000000000000000000000000000000000000000000000000000081526004018080602001828103825283818151815260200191508051906020019080838360005b83811015614b11578082015181840152602081019050614af6565b50505050905090810190601f168015614b3e5780820380516001836020036101000a031916815260200191505b509250505060405180910390fd5b50614c71565b8373ffffffffffffffffffffffffffffffffffffffff16614b7c83836150bd90919063ffffffff16565b73ffffffffffffffffffffffffffffffffffffffff16146040518060400160405280601c81526020017f7369676e617475726520766572696669636174696f6e206572726f720000000081525090614c6f576040517f08c379a00000000000000000000000000000000000000000000000000000000081526004018080602001828103825283818151815260200191508051906020019080838360005b83811015614c34578082015181840152602081019050614c19565b50505050905090810190601f168015614c615780820380516001836020036101000a031916815260200191505b509250505060405180910390fd5b505b50505050565b7f3fa96d7b6bcbfe71ef171666d84db3cf52fa2d1c8afdb1cc8e486177f208b7df8282604051614ca89291906167a7565b60405180910390a15050565b6000614cdd6101fd600086815260200190815260200160002054846139d890919063ffffffff16565b90506101fc600085815260200190815260200160002054811115614d36576040517f08c379a0000000000000000000000000000000000000000000000000000000008152600401614d2d9061672c565b60405180910390fd5b806101fd600086815260200190815260200160002081905550614d5b8585858561516a565b5050505050565b600080823b905060008111915050919050565b63ffffffff60e01b817bffffffffffffffffffffffffffffffffffffffffffffffffffffffff19161415614e11576040517f08c379a000000000000000000000000000000000000000000000000000000000815260040180806020018281038252601c8152602001807f4552433136353a20696e76616c696420696e746572666163652069640000000081525060200191505060405180910390fd5b600160656000837bffffffffffffffffffffffffffffffffffffffffffffffffffffffff19167bffffffffffffffffffffffffffffffffffffffffffffffffffffffff1916815260200190815260200160002060006101000a81548160ff02191690831515021790555050565b600060019054906101000a900460ff1680614e9d5750614e9c612c81565b5b80614eb3575060008054906101000a900460ff16155b614f08576040517f08c379a000000000000000000000000000000000000000000000000000000000815260040180806020018281038252602e815260200180616db9602e913960400191505060405180910390fd5b60008060019054906101000a900460ff161590508015614f58576001600060016101000a81548160ff02191690831515021790555060016000806101000a81548160ff0219169083151502179055505b6000838051906020012090506000838051906020012090508161016281905550806101638190555050508015614fa35760008060016101000a81548160ff0219169083151502179055505b505050565b8060999080519060200190614fbe929190615639565b5050565b6000609860008473ffffffffffffffffffffffffffffffffffffffff1673ffffffffffffffffffffffffffffffffffffffff16815260200190815260200160002060008373ffffffffffffffffffffffffffffffffffffffff1673ffffffffffffffffffffffffffffffffffffffff16815260200190815260200160002060009054906101000a900460ff16905092915050565b600061506061536d565b8260405160200180807f190100000000000000000000000000000000000000000000000000000000000081525060020183815260200182815260200192505050604051602081830303815290604052805190602001209050919050565b60006041825114615136576040517f08c379a000000000000000000000000000000000000000000000000000000000815260040180806020018281038252601f8152602001807f45434453413a20696e76616c6964207369676e6174757265206c656e6774680081525060200191505060405180910390fd5b60008060006020850151925060408501519150606085015160001a905061515f868285856153ad565b935050505092915050565b600073ffffffffffffffffffffffffffffffffffffffff168473ffffffffffffffffffffffffffffffffffffffff1614156151f0576040517f08c379a0000000000000000000000000000000000000000000000000000000008152600401808060200182810382526021815260200180616ed06021913960400191505060405180910390fd5b60006151fa6123ab565b905061521b8160008761520c88614192565b61521588614192565b87613916565b61527e836097600087815260200190815260200160002060008873ffffffffffffffffffffffffffffffffffffffff1673ffffffffffffffffffffffffffffffffffffffff168152602001908152602001600020546139d890919063ffffffff16565b6097600086815260200190815260200160002060008773ffffffffffffffffffffffffffffffffffffffff1673ffffffffffffffffffffffffffffffffffffffff168152602001908152602001600020819055508473ffffffffffffffffffffffffffffffffffffffff16600073ffffffffffffffffffffffffffffffffffffffff168273ffffffffffffffffffffffffffffffffffffffff167fc3d58168c5ae7397731d063d5bbf3d657854427343f4c083240f7aacaa2d0f628787604051808381526020018281526020019250505060405180910390a461536681600087878787614203565b5050505050565b60006153a87f8b73c3c69bb8fe3d512ecc4cf759cc79239f7b179b0ffacaa9a75d522b39400f61539b6155ac565b6153a36155b7565b6155c2565b905090565b60007f7fffffffffffffffffffffffffffffff5d576e7357a4501ddfe92f46681b20a08260001c111561542b576040517f08c379a0000000000000000000000000000000000000000000000000000000008152600401808060200182810382526022815260200180616d406022913960400191505060405180910390fd5b601b8460ff1614806154405750601c8460ff16145b615495576040517f08c379a0000000000000000000000000000000000000000000000000000000008152600401808060200182810382526022815260200180616de76022913960400191505060405180910390fd5b600060018686868660405160008152602001604052604051808581526020018460ff1681526020018381526020018281526020019450505050506020604051602081039080840390855afa1580156154f1573d6000803e3d6000fd5b505050602060405103519050600073ffffffffffffffffffffffffffffffffffffffff168173ffffffffffffffffffffffffffffffffffffffff1614156155a0576040517f08c379a00000000000000000000000000000000000000000000000000000000081526004018080602001828103825260188152602001807f45434453413a20696e76616c6964207369676e6174757265000000000000000081525060200191505060405180910390fd5b80915050949350505050565b600061016254905090565b600061016354905090565b60008383836155cf615631565b30604051602001808681526020018581526020018481526020018381526020018273ffffffffffffffffffffffffffffffffffffffff168152602001955050505050506040516020818303038152906040528051906020012090509392505050565b600046905090565b828054600181600116156101000203166002900490600052602060002090601f01602090048101928261566f57600085556156b6565b82601f1061568857805160ff19168380011785556156b6565b828001600101855582156156b6579182015b828111156156b557825182559160200191906001019061569a565b5b5090506156c391906156c7565b5090565b5b808211156156e05760008160009055506001016156c8565b5090565b60006156f76156f284616831565b616800565b9050808382526020820190508285602086028201111561571657600080fd5b60005b85811015615746578161572c8882615901565b845260208401935060208301925050600181019050615719565b5050509392505050565b600061576361575e8461685d565b616800565b9050808382526020820190508260005b858110156157a3578135850161578988826159fd565b845260208401935060208301925050600181019050615773565b5050509392505050565b60006157c06157bb84616889565b616800565b905080838252602082019050828560408602820111156157df57600080fd5b60005b8581101561580f57816157f58882615b4d565b8452602084019350604083019250506001810190506157e2565b5050509392505050565b600061582c615827846168b5565b616800565b9050808382526020820190508285602086028201111561584b57600080fd5b60005b8581101561587b57816158618882615b99565b84526020840193506020830192505060018101905061584e565b5050509392505050565b6000615898615893846168e1565b616800565b9050828152602081018484840111156158b057600080fd5b6158bb848285616aa3565b509392505050565b60006158d66158d184616911565b616800565b9050828152602081018484840111156158ee57600080fd5b6158f9848285616aa3565b509392505050565b60008135905061591081616bbb565b92915050565b60008135905061592581616bd2565b92915050565b600082601f83011261593c57600080fd5b813561594c8482602086016156e4565b91505092915050565b600082601f83011261596657600080fd5b8135615976848260208601615750565b91505092915050565b600082601f83011261599057600080fd5b81356159a08482602086016157ad565b91505092915050565b600082601f8301126159ba57600080fd5b81356159ca848260208601615819565b91505092915050565b6000813590506159e281616be9565b92915050565b6000813590506159f781616c00565b92915050565b600082601f830112615a0e57600080fd5b8135615a1e848260208601615885565b91505092915050565b600082601f830112615a3857600080fd5b8135615a488482602086016158c3565b91505092915050565b600060c08284031215615a6357600080fd5b615a6d60c0616800565b90506000615a7d84828501615b99565b600083015250602082013567ffffffffffffffff811115615a9d57600080fd5b615aa984828501615a27565b6020830152506040615abd84828501615b99565b604083015250606082013567ffffffffffffffff811115615add57600080fd5b615ae98482850161597f565b606083015250608082013567ffffffffffffffff811115615b0957600080fd5b615b158482850161597f565b60808301525060a082013567ffffffffffffffff811115615b3557600080fd5b615b4184828501615955565b60a08301525092915050565b600060408284031215615b5f57600080fd5b615b696040616800565b90506000615b7984828501615916565b6000830152506020615b8d84828501615bae565b60208301525092915050565b600081359050615ba881616c17565b92915050565b600081359050615bbd81616c2e565b92915050565b600060208284031215615bd557600080fd5b6000615be384828501615901565b91505092915050565b60008060408385031215615bff57600080fd5b6000615c0d85828601615901565b9250506020615c1e85828601615901565b9150509250929050565b600080600080600060a08688031215615c4057600080fd5b6000615c4e88828901615901565b9550506020615c5f88828901615901565b945050604086013567ffffffffffffffff811115615c7c57600080fd5b615c88888289016159a9565b935050606086013567ffffffffffffffff811115615ca557600080fd5b615cb1888289016159a9565b925050608086013567ffffffffffffffff811115615cce57600080fd5b615cda888289016159fd565b9150509295509295909350565b600080600080600060a08688031215615cff57600080fd5b6000615d0d88828901615901565b9550506020615d1e88828901615901565b9450506040615d2f88828901615b99565b9350506060615d4088828901615b99565b925050608086013567ffffffffffffffff811115615d5d57600080fd5b615d69888289016159fd565b9150509295509295909350565b600080600060608486031215615d8b57600080fd5b6000615d9986828701615901565b935050602084013567ffffffffffffffff811115615db657600080fd5b615dc2868287016159a9565b925050604084013567ffffffffffffffff811115615ddf57600080fd5b615deb868287016159a9565b9150509250925092565b60008060408385031215615e0857600080fd5b6000615e1685828601615901565b9250506020615e27858286016159d3565b9150509250929050565b60008060408385031215615e4457600080fd5b6000615e5285828601615901565b9250506020615e6385828601615b99565b9150509250929050565b600080600060608486031215615e8257600080fd5b6000615e9086828701615901565b9350506020615ea186828701615b99565b9250506040615eb286828701615b99565b9150509250925092565b60008060408385031215615ecf57600080fd5b600083013567ffffffffffffffff811115615ee957600080fd5b615ef58582860161592b565b925050602083013567ffffffffffffffff811115615f1257600080fd5b615f1e858286016159a9565b9150509250929050565b600060208284031215615f3a57600080fd5b6000615f48848285016159e8565b91505092915050565b60008060008060808587031215615f6757600080fd5b600085013567ffffffffffffffff811115615f8157600080fd5b615f8d87828801615a27565b945050602085013567ffffffffffffffff811115615faa57600080fd5b615fb687828801615a27565b935050604085013567ffffffffffffffff811115615fd357600080fd5b615fdf87828801615a27565b925050606085013567ffffffffffffffff811115615ffc57600080fd5b61600887828801615a27565b91505092959194509250565b6000806000806080858703121561602a57600080fd5b600085013567ffffffffffffffff81111561604457600080fd5b61605087828801615a51565b945050602061606187828801615901565b935050604061607287828801615901565b925050606061608387828801615b99565b91505092959194509250565b6000806000606084860312156160a457600080fd5b600084013567ffffffffffffffff8111156160be57600080fd5b6160ca86828701615a51565b93505060206160db86828701615901565b92505060406160ec86828701615b99565b9150509250925092565b60006020828403121561610857600080fd5b600061611684828501615b99565b91505092915050565b6000806040838503121561613257600080fd5b600061614085828601615b99565b925050602061615185828601615b99565b9150509250929050565b60006161678383616517565b60408301905092915050565b600061617f8383616546565b60208301905092915050565b61619481616a6d565b82525050565b6161a3816169e1565b82525050565b6161b2816169e1565b82525050565b6161c1816169cf565b82525050565b60006161d282616961565b6161dc818561699c565b93506161e783616941565b8060005b838110156162185781516161ff888261615b565b975061620a83616982565b9250506001810190506161eb565b5085935050505092915050565b60006162308261696c565b61623a81856169ad565b935061624583616951565b8060005b8381101561627657815161625d8882616173565b97506162688361698f565b925050600181019050616249565b5085935050505092915050565b61628c816169f3565b82525050565b600061629d82616977565b6162a781856169be565b93506162b7818560208601616ab2565b6162c081616ae7565b840191505092915050565b60006162d86010836169be565b91507f737570706c7920696e636f7272656374000000000000000000000000000000006000830152602082019050919050565b60006163186020836169be565b91507f43726561746f722073686172652073686f756c6420626520706f7369746976656000830152602082019050919050565b60006163586011836169be565b91507f746f6b656e496420696e636f72726563740000000000000000000000000000006000830152602082019050919050565b60006163986010836169be565b91507f616d6f756e7420696e636f7272656374000000000000000000000000000000006000830152602082019050919050565b60006163d86028836169be565b91507f455243313135353a207472616e736665722063616c6c6572206973206e6f742060008301527f617070726f7665640000000000000000000000000000000000000000000000006020830152604082019050919050565b600061643e6010836169be565b91507f6d6f7265207468616e20737570706c79000000000000000000000000000000006000830152602082019050919050565b600061647e6019836169be565b91507f4163636f756e742073686f756c642062652070726573656e74000000000000006000830152602082019050919050565b60006164be602e836169be565b91507f746f74616c20616d6f756e74206f662063726561746f7273207368617265207360008301527f686f756c642062652031303030300000000000000000000000000000000000006020830152604082019050919050565b60408201600082015161652d600085018261619a565b5060208201516165406020850182616564565b50505050565b61654f81616a4b565b82525050565b61655e81616a4b565b82525050565b61656d81616a55565b82525050565b61657c81616a55565b82525050565b600060208201905061659760008301846161b8565b92915050565b60006060820190506165b2600083018661618b565b81810360208301526165c48185616292565b905081810360408301526165d88184616292565b9050949350505050565b60006040820190506165f760008301856161a9565b6166046020830184616573565b9392505050565b6000602082019050818103600083015261662581846161c7565b905092915050565b600060208201905081810360008301526166478184616225565b905092915050565b60006020820190506166646000830184616283565b92915050565b600060208201905081810360008301526166848184616292565b905092915050565b600060208201905081810360008301526166a5816162cb565b9050919050565b600060208201905081810360008301526166c58161630b565b9050919050565b600060208201905081810360008301526166e58161634b565b9050919050565b600060208201905081810360008301526167058161638b565b9050919050565b60006020820190508181036000830152616725816163cb565b9050919050565b6000602082019050818103600083015261674581616431565b9050919050565b6000602082019050818103600083015261676581616471565b9050919050565b60006020820190508181036000830152616785816164b1565b9050919050565b60006020820190506167a16000830184616555565b92915050565b60006040820190506167bc6000830185616555565b81810360208301526167ce81846161c7565b90509392505050565b60006040820190506167ec6000830185616555565b6167f96020830184616555565b9392505050565b6000604051905081810181811067ffffffffffffffff8211171561682757616826616ae5565b5b8060405250919050565b600067ffffffffffffffff82111561684c5761684b616ae5565b5b602082029050602081019050919050565b600067ffffffffffffffff82111561687857616877616ae5565b5b602082029050602081019050919050565b600067ffffffffffffffff8211156168a4576168a3616ae5565b5b602082029050602081019050919050565b600067ffffffffffffffff8211156168d0576168cf616ae5565b5b602082029050602081019050919050565b600067ffffffffffffffff8211156168fc576168fb616ae5565b5b601f19601f8301169050602081019050919050565b600067ffffffffffffffff82111561692c5761692b616ae5565b5b601f19601f8301169050602081019050919050565b6000819050602082019050919050565b6000819050602082019050919050565b600081519050919050565b600081519050919050565b600081519050919050565b6000602082019050919050565b6000602082019050919050565b600082825260208201905092915050565b600082825260208201905092915050565b600082825260208201905092915050565b60006169da82616a2b565b9050919050565b60006169ec82616a2b565b9050919050565b60008115159050919050565b60007fffffffff0000000000000000000000000000000000000000000000000000000082169050919050565b600073ffffffffffffffffffffffffffffffffffffffff82169050919050565b6000819050919050565b60006bffffffffffffffffffffffff82169050919050565b6000616a7882616a7f565b9050919050565b6000616a8a82616a91565b9050919050565b6000616a9c82616a2b565b9050919050565b82818337600083830152505050565b60005b83811015616ad0578082015181840152602081019050616ab5565b83811115616adf576000848401525b50505050565bfe5b6000601f19601f8301169050919050565b60008160e01c9050919050565b600060443d1015616b1557616bb8565b60046000803e616b26600051616af8565b6308c379a08114616b375750616bb8565b60405160043d036004823e80513d602482011167ffffffffffffffff82111715616b6357505050616bb8565b808201805167ffffffffffffffff811115616b82575050505050616bb8565b8060208301013d8501811115616b9d57505050505050616bb8565b616ba682616ae7565b60208401016040528296505050505050505b90565b616bc4816169cf565b8114616bcf57600080fd5b50565b616bdb816169e1565b8114616be657600080fd5b50565b616bf2816169f3565b8114616bfd57600080fd5b50565b616c09816169ff565b8114616c1457600080fd5b50565b616c2081616a4b565b8114616c2b57600080fd5b50565b616c3781616a55565b8114616c4257600080fd5b5056fe455243313135353a207472616e7366657220746f206e6f6e2045524331313535526563656976657220696d706c656d656e746572455243313135353a204552433131353552656365697665722072656a656374656420746f6b656e73455243313135353a2062616c616e636520717565727920666f7220746865207a65726f20616464726573734f776e61626c653a206e6577206f776e657220697320746865207a65726f2061646472657373455243313135353a206275726e20616d6f756e7420657863656564732062616c616e6365455243313135353a2063616c6c6572206973206e6f74206f776e6572206e6f7220617070726f76656445434453413a20696e76616c6964207369676e6174757265202773272076616c7565455243313135353a207472616e7366657220746f20746865207a65726f2061646472657373455243313135353a207472616e736665722063616c6c6572206973206e6f74206f776e6572206e6f7220617070726f766564496e697469616c697a61626c653a20636f6e747261637420697320616c726561647920696e697469616c697a656445434453413a20696e76616c6964207369676e6174757265202776272076616c7565455243313135353a206275726e2066726f6d20746865207a65726f2061646472657373455243313135353a20696e73756666696369656e742062616c616e636520666f72207472616e73666572455243313135353a2073657474696e6720617070726f76616c2073746174757320666f722073656c66455243313135353a206163636f756e747320616e6420696473206c656e677468206d69736d61746368455243313135353a2069647320616e6420616d6f756e7473206c656e677468206d69736d61746368455243313135353a206d696e7420746f20746865207a65726f2061646472657373a264697066735822122017ee3c71db3a574937c10b7516f1e23939164c8ec3b9a46d34d1b92f4bb8d60664736f6c63430007060033",
  "immutableReferences": {},
  "source": "// SPDX-License-Identifier: MIT\n\npragma solidity >=0.6.2 <0.8.0;\npragma abicoder v2;\n\nimport \"./ERC1155Base.sol\";\n\ncontract ERC1155Rarible is ERC1155Base {\n    event CreateERC1155Rarible(address owner, string name, string symbol);\n\n    function __ERC1155Rarible_init(string memory _name, string memory _symbol, string memory baseURI, string memory contractURI) external initializer {\n        __Ownable_init_unchained();\n        __ERC1155Lazy_init_unchained();\n        __ERC165_init_unchained();\n        __Context_init_unchained();\n        __Mint1155Validator_init_unchained();\n        __ERC1155_init_unchained(\"\");\n        __HasContractURI_init_unchained(contractURI);\n        __ERC1155Burnable_init_unchained();\n        __RoyaltiesV2Upgradeable_init_unchained();\n        __ERC1155Base_init_unchained(_name, _symbol);\n        _setBaseURI(baseURI);\n        emit CreateERC1155Rarible(_msgSender(), _name, _symbol);\n    }\n    uint256[50] private __gap;\n}\n",
  "sourcePath": "D:/Posao - Stefan/Stefan - razno/Gitcoin/Hackathon - Rarible/Nfticketizegraph/contracts/erc-1155/ERC1155Rarible.sol",
  "compiler": {
    "name": "solc",
    "version": "0.7.6+commit.7338295f.Emscripten.clang"
  },
  "schemaVersion": "3.4.1",
  "updatedAt": "2021-07-04T17:19:50.038Z",
  "devdoc": {
    "kind": "dev",
    "methods": {
      "balanceOf(address,uint256)": {
        "details": "See {IERC1155-balanceOf}. Requirements: - `account` cannot be the zero address."
      },
      "balanceOfBatch(address[],uint256[])": {
        "details": "See {IERC1155-balanceOfBatch}. Requirements: - `accounts` and `ids` must have the same length."
      },
      "baseURI()": {
        "details": "Returns the base URI set via {_setBaseURI}. This will be automatically added as a prefix in {tokenURI} to each token's URI, or to the token ID if no specific URI is set for that token ID."
      },
      "owner()": {
        "details": "Returns the address of the current owner."
      },
      "renounceOwnership()": {
        "details": "Leaves the contract without owner. It will not be possible to call `onlyOwner` functions anymore. Can only be called by the current owner. NOTE: Renouncing ownership will leave the contract without an owner, thereby removing any functionality that is only available to the owner."
      },
      "safeBatchTransferFrom(address,address,uint256[],uint256[],bytes)": {
        "details": "See {IERC1155-safeBatchTransferFrom}."
      },
      "safeTransferFrom(address,address,uint256,uint256,bytes)": {
        "details": "See {IERC1155-safeTransferFrom}."
      },
      "setApprovalForAll(address,bool)": {
        "details": "See {IERC1155-setApprovalForAll}."
      },
      "supportsInterface(bytes4)": {
        "details": "See {IERC165-supportsInterface}. Time complexity O(1), guaranteed to always use less than 30 000 gas."
      },
      "transferOwnership(address)": {
        "details": "Transfers ownership of the contract to a new account (`newOwner`). Can only be called by the current owner."
      }
    },
    "version": 1
  },
  "userdoc": {
    "kind": "user",
    "methods": {},
    "version": 1
  }
}