{
  "contractName": "ERC721Rarible",
  "abi": [
    {
      "anonymous": false,
      "inputs": [
        {
          "indexed": true,
          "internalType": "address",
          "name": "owner",
          "type": "address"
        },
        {
          "indexed": true,
          "internalType": "address",
          "name": "approved",
          "type": "address"
        },
        {
          "indexed": true,
          "internalType": "uint256",
          "name": "tokenId",
          "type": "uint256"
        }
      ],
      "name": "Approval",
      "type": "event"
    },
    {
      "anonymous": false,
      "inputs": [
        {
          "indexed": true,
          "internalType": "address",
          "name": "owner",
          "type": "address"
        },
        {
          "indexed": true,
          "internalType": "address",
          "name": "operator",
          "type": "address"
        },
        {
          "indexed": false,
          "internalType": "bool",
          "name": "approved",
          "type": "bool"
        }
      ],
      "name": "ApprovalForAll",
      "type": "event"
    },
    {
      "anonymous": false,
      "inputs": [
        {
          "indexed": false,
          "internalType": "address",
          "name": "owner",
          "type": "address"
        },
        {
          "indexed": false,
          "internalType": "string",
          "name": "name",
          "type": "string"
        },
        {
          "indexed": false,
          "internalType": "string",
          "name": "symbol",
          "type": "string"
        }
      ],
      "name": "CreateERC721Rarible",
      "type": "event"
    },
    {
      "anonymous": false,
      "inputs": [
        {
          "indexed": false,
          "internalType": "uint256",
          "name": "",
          "type": "uint256"
        },
        {
          "components": [
            {
              "internalType": "address payable",
              "name": "account",
              "type": "address"
            },
            {
              "internalType": "uint96",
              "name": "value",
              "type": "uint96"
            }
          ],
          "indexed": false,
          "internalType": "struct LibPart.Part[]",
          "name": "",
          "type": "tuple[]"
        }
      ],
      "name": "Creators",
      "type": "event"
    },
    {
      "anonymous": false,
      "inputs": [
        {
          "indexed": true,
          "internalType": "address",
          "name": "operator",
          "type": "address"
        },
        {
          "indexed": false,
          "internalType": "bool",
          "name": "hasApproval",
          "type": "bool"
        }
      ],
      "name": "DefaultApproval",
      "type": "event"
    },
    {
      "anonymous": false,
      "inputs": [
        {
          "indexed": false,
          "internalType": "uint256",
          "name": "tokenId",
          "type": "uint256"
        },
        {
          "indexed": false,
          "internalType": "string",
          "name": "uri",
          "type": "string"
        },
        {
          "components": [
            {
              "internalType": "address payable",
              "name": "account",
              "type": "address"
            },
            {
              "internalType": "uint96",
              "name": "value",
              "type": "uint96"
            }
          ],
          "indexed": false,
          "internalType": "struct LibPart.Part[]",
          "name": "creators",
          "type": "tuple[]"
        }
      ],
      "name": "Mint",
      "type": "event"
    },
    {
      "anonymous": false,
      "inputs": [
        {
          "indexed": true,
          "internalType": "address",
          "name": "previousOwner",
          "type": "address"
        },
        {
          "indexed": true,
          "internalType": "address",
          "name": "newOwner",
          "type": "address"
        }
      ],
      "name": "OwnershipTransferred",
      "type": "event"
    },
    {
      "anonymous": false,
      "inputs": [
        {
          "indexed": false,
          "internalType": "uint256",
          "name": "tokenId",
          "type": "uint256"
        },
        {
          "components": [
            {
              "internalType": "address payable",
              "name": "account",
              "type": "address"
            },
            {
              "internalType": "uint96",
              "name": "value",
              "type": "uint96"
            }
          ],
          "indexed": false,
          "internalType": "struct LibPart.Part[]",
          "name": "royalties",
          "type": "tuple[]"
        }
      ],
      "name": "RoyaltiesSet",
      "type": "event"
    },
    {
      "anonymous": false,
      "inputs": [
        {
          "indexed": true,
          "internalType": "address",
          "name": "from",
          "type": "address"
        },
        {
          "indexed": true,
          "internalType": "address",
          "name": "to",
          "type": "address"
        },
        {
          "indexed": true,
          "internalType": "uint256",
          "name": "tokenId",
          "type": "uint256"
        }
      ],
      "name": "Transfer",
      "type": "event"
    },
    {
      "inputs": [
        {
          "internalType": "address",
          "name": "to",
          "type": "address"
        },
        {
          "internalType": "uint256",
          "name": "tokenId",
          "type": "uint256"
        }
      ],
      "name": "approve",
      "outputs": [],
      "stateMutability": "nonpayable",
      "type": "function"
    },
    {
      "inputs": [
        {
          "internalType": "address",
          "name": "owner",
          "type": "address"
        }
      ],
      "name": "balanceOf",
      "outputs": [
        {
          "internalType": "uint256",
          "name": "",
          "type": "uint256"
        }
      ],
      "stateMutability": "view",
      "type": "function"
    },
    {
      "inputs": [],
      "name": "baseURI",
      "outputs": [
        {
          "internalType": "string",
          "name": "",
          "type": "string"
        }
      ],
      "stateMutability": "view",
      "type": "function"
    },
    {
      "inputs": [
        {
          "internalType": "uint256",
          "name": "tokenId",
          "type": "uint256"
        }
      ],
      "name": "burn",
      "outputs": [],
      "stateMutability": "nonpayable",
      "type": "function"
    },
    {
      "inputs": [],
      "name": "contractURI",
      "outputs": [
        {
          "internalType": "string",
          "name": "",
          "type": "string"
        }
      ],
      "stateMutability": "view",
      "type": "function"
    },
    {
      "inputs": [
        {
          "internalType": "uint256",
          "name": "tokenId",
          "type": "uint256"
        }
      ],
      "name": "getApproved",
      "outputs": [
        {
          "internalType": "address",
          "name": "",
          "type": "address"
        }
      ],
      "stateMutability": "view",
      "type": "function"
    },
    {
      "inputs": [
        {
          "internalType": "uint256",
          "name": "_id",
          "type": "uint256"
        }
      ],
      "name": "getCreators",
      "outputs": [
        {
          "components": [
            {
              "internalType": "address payable",
              "name": "account",
              "type": "address"
            },
            {
              "internalType": "uint96",
              "name": "value",
              "type": "uint96"
            }
          ],
          "internalType": "struct LibPart.Part[]",
          "name": "",
          "type": "tuple[]"
        }
      ],
      "stateMutability": "view",
      "type": "function"
    },
    {
      "inputs": [
        {
          "internalType": "uint256",
          "name": "id",
          "type": "uint256"
        }
      ],
      "name": "getRoyalties",
      "outputs": [
        {
          "components": [
            {
              "internalType": "address payable",
              "name": "account",
              "type": "address"
            },
            {
              "internalType": "uint96",
              "name": "value",
              "type": "uint96"
            }
          ],
          "internalType": "struct LibPart.Part[]",
          "name": "",
          "type": "tuple[]"
        }
      ],
      "stateMutability": "view",
      "type": "function"
    },
    {
      "inputs": [
        {
          "internalType": "address",
          "name": "owner",
          "type": "address"
        },
        {
          "internalType": "address",
          "name": "operator",
          "type": "address"
        }
      ],
      "name": "isApprovedForAll",
      "outputs": [
        {
          "internalType": "bool",
          "name": "",
          "type": "bool"
        }
      ],
      "stateMutability": "view",
      "type": "function"
    },
    {
      "inputs": [
        {
          "components": [
            {
              "internalType": "uint256",
              "name": "tokenId",
              "type": "uint256"
            },
            {
              "internalType": "string",
              "name": "uri",
              "type": "string"
            },
            {
              "components": [
                {
                  "internalType": "address payable",
                  "name": "account",
                  "type": "address"
                },
                {
                  "internalType": "uint96",
                  "name": "value",
                  "type": "uint96"
                }
              ],
              "internalType": "struct LibPart.Part[]",
              "name": "creators",
              "type": "tuple[]"
            },
            {
              "components": [
                {
                  "internalType": "address payable",
                  "name": "account",
                  "type": "address"
                },
                {
                  "internalType": "uint96",
                  "name": "value",
                  "type": "uint96"
                }
              ],
              "internalType": "struct LibPart.Part[]",
              "name": "royalties",
              "type": "tuple[]"
            },
            {
              "internalType": "bytes[]",
              "name": "signatures",
              "type": "bytes[]"
            }
          ],
          "internalType": "struct LibERC721LazyMint.Mint721Data",
          "name": "data",
          "type": "tuple"
        },
        {
          "internalType": "address",
          "name": "to",
          "type": "address"
        }
      ],
      "name": "mintAndTransfer",
      "outputs": [],
      "stateMutability": "nonpayable",
      "type": "function"
    },
    {
      "inputs": [],
      "name": "name",
      "outputs": [
        {
          "internalType": "string",
          "name": "",
          "type": "string"
        }
      ],
      "stateMutability": "view",
      "type": "function"
    },
    {
      "inputs": [],
      "name": "owner",
      "outputs": [
        {
          "internalType": "address",
          "name": "",
          "type": "address"
        }
      ],
      "stateMutability": "view",
      "type": "function"
    },
    {
      "inputs": [
        {
          "internalType": "uint256",
          "name": "tokenId",
          "type": "uint256"
        }
      ],
      "name": "ownerOf",
      "outputs": [
        {
          "internalType": "address",
          "name": "",
          "type": "address"
        }
      ],
      "stateMutability": "view",
      "type": "function"
    },
    {
      "inputs": [],
      "name": "renounceOwnership",
      "outputs": [],
      "stateMutability": "nonpayable",
      "type": "function"
    },
    {
      "inputs": [
        {
          "internalType": "uint256",
          "name": "",
          "type": "uint256"
        },
        {
          "internalType": "uint256",
          "name": "",
          "type": "uint256"
        }
      ],
      "name": "royalties",
      "outputs": [
        {
          "internalType": "address payable",
          "name": "account",
          "type": "address"
        },
        {
          "internalType": "uint96",
          "name": "value",
          "type": "uint96"
        }
      ],
      "stateMutability": "view",
      "type": "function"
    },
    {
      "inputs": [
        {
          "internalType": "address",
          "name": "from",
          "type": "address"
        },
        {
          "internalType": "address",
          "name": "to",
          "type": "address"
        },
        {
          "internalType": "uint256",
          "name": "tokenId",
          "type": "uint256"
        }
      ],
      "name": "safeTransferFrom",
      "outputs": [],
      "stateMutability": "nonpayable",
      "type": "function"
    },
    {
      "inputs": [
        {
          "internalType": "address",
          "name": "from",
          "type": "address"
        },
        {
          "internalType": "address",
          "name": "to",
          "type": "address"
        },
        {
          "internalType": "uint256",
          "name": "tokenId",
          "type": "uint256"
        },
        {
          "internalType": "bytes",
          "name": "_data",
          "type": "bytes"
        }
      ],
      "name": "safeTransferFrom",
      "outputs": [],
      "stateMutability": "nonpayable",
      "type": "function"
    },
    {
      "inputs": [
        {
          "internalType": "address",
          "name": "operator",
          "type": "address"
        },
        {
          "internalType": "bool",
          "name": "approved",
          "type": "bool"
        }
      ],
      "name": "setApprovalForAll",
      "outputs": [],
      "stateMutability": "nonpayable",
      "type": "function"
    },
    {
      "inputs": [
        {
          "internalType": "address",
          "name": "operator",
          "type": "address"
        },
        {
          "internalType": "bool",
          "name": "hasApproval",
          "type": "bool"
        }
      ],
      "name": "setDefaultApproval",
      "outputs": [],
      "stateMutability": "nonpayable",
      "type": "function"
    },
    {
      "inputs": [
        {
          "internalType": "bytes4",
          "name": "interfaceId",
          "type": "bytes4"
        }
      ],
      "name": "supportsInterface",
      "outputs": [
        {
          "internalType": "bool",
          "name": "",
          "type": "bool"
        }
      ],
      "stateMutability": "view",
      "type": "function"
    },
    {
      "inputs": [],
      "name": "symbol",
      "outputs": [
        {
          "internalType": "string",
          "name": "",
          "type": "string"
        }
      ],
      "stateMutability": "view",
      "type": "function"
    },
    {
      "inputs": [
        {
          "internalType": "uint256",
          "name": "index",
          "type": "uint256"
        }
      ],
      "name": "tokenByIndex",
      "outputs": [
        {
          "internalType": "uint256",
          "name": "",
          "type": "uint256"
        }
      ],
      "stateMutability": "view",
      "type": "function"
    },
    {
      "inputs": [
        {
          "internalType": "address",
          "name": "owner",
          "type": "address"
        },
        {
          "internalType": "uint256",
          "name": "index",
          "type": "uint256"
        }
      ],
      "name": "tokenOfOwnerByIndex",
      "outputs": [
        {
          "internalType": "uint256",
          "name": "",
          "type": "uint256"
        }
      ],
      "stateMutability": "view",
      "type": "function"
    },
    {
      "inputs": [
        {
          "internalType": "uint256",
          "name": "tokenId",
          "type": "uint256"
        }
      ],
      "name": "tokenURI",
      "outputs": [
        {
          "internalType": "string",
          "name": "",
          "type": "string"
        }
      ],
      "stateMutability": "view",
      "type": "function"
    },
    {
      "inputs": [],
      "name": "totalSupply",
      "outputs": [
        {
          "internalType": "uint256",
          "name": "",
          "type": "uint256"
        }
      ],
      "stateMutability": "view",
      "type": "function"
    },
    {
      "inputs": [
        {
          "internalType": "address",
          "name": "from",
          "type": "address"
        },
        {
          "internalType": "address",
          "name": "to",
          "type": "address"
        },
        {
          "internalType": "uint256",
          "name": "tokenId",
          "type": "uint256"
        }
      ],
      "name": "transferFrom",
      "outputs": [],
      "stateMutability": "nonpayable",
      "type": "function"
    },
    {
      "inputs": [
        {
          "components": [
            {
              "internalType": "uint256",
              "name": "tokenId",
              "type": "uint256"
            },
            {
              "internalType": "string",
              "name": "uri",
              "type": "string"
            },
            {
              "components": [
                {
                  "internalType": "address payable",
                  "name": "account",
                  "type": "address"
                },
                {
                  "internalType": "uint96",
                  "name": "value",
                  "type": "uint96"
                }
              ],
              "internalType": "struct LibPart.Part[]",
              "name": "creators",
              "type": "tuple[]"
            },
            {
              "components": [
                {
                  "internalType": "address payable",
                  "name": "account",
                  "type": "address"
                },
                {
                  "internalType": "uint96",
                  "name": "value",
                  "type": "uint96"
                }
              ],
              "internalType": "struct LibPart.Part[]",
              "name": "royalties",
              "type": "tuple[]"
            },
            {
              "internalType": "bytes[]",
              "name": "signatures",
              "type": "bytes[]"
            }
          ],
          "internalType": "struct LibERC721LazyMint.Mint721Data",
          "name": "data",
          "type": "tuple"
        },
        {
          "internalType": "address",
          "name": "from",
          "type": "address"
        },
        {
          "internalType": "address",
          "name": "to",
          "type": "address"
        }
      ],
      "name": "transferFromOrMint",
      "outputs": [],
      "stateMutability": "nonpayable",
      "type": "function"
    },
    {
      "inputs": [
        {
          "internalType": "address",
          "name": "newOwner",
          "type": "address"
        }
      ],
      "name": "transferOwnership",
      "outputs": [],
      "stateMutability": "nonpayable",
      "type": "function"
    },
    {
      "inputs": [
        {
          "internalType": "uint256",
          "name": "_id",
          "type": "uint256"
        },
        {
          "internalType": "address",
          "name": "_from",
          "type": "address"
        },
        {
          "internalType": "address",
          "name": "_to",
          "type": "address"
        }
      ],
      "name": "updateAccount",
      "outputs": [],
      "stateMutability": "nonpayable",
      "type": "function"
    },
    {
      "inputs": [
        {
          "internalType": "string",
          "name": "_name",
          "type": "string"
        },
        {
          "internalType": "string",
          "name": "_symbol",
          "type": "string"
        },
        {
          "internalType": "string",
          "name": "baseURI",
          "type": "string"
        },
        {
          "internalType": "string",
          "name": "contractURI",
          "type": "string"
        }
      ],
      "name": "__ERC721Rarible_init",
      "outputs": [],
      "stateMutability": "nonpayable",
      "type": "function"
    }
  ],
  "bytecode": "0x608060405234801561001057600080fd5b5061688d80620000216000396000f3fe608060405234801561001057600080fd5b50600436106101da5760003560e01c806370a0823111610104578063a22cb465116100a2578063e07f231911610071578063e07f231914610578578063e8a3d48514610594578063e985e9c5146105b2578063f2fde38b146105e2576101da565b8063a22cb465146104e0578063b88d4fde146104fc578063bb3bafd614610518578063c87b56dd14610548576101da565b8063891be974116100de578063891be974146104435780638924af74146104735780638da5cb5b146104a457806395d89b41146104c2576101da565b806370a08231146103ed578063715018a61461041d578063832fbb2914610427576101da565b806323b872dd1161017c57806342966c681161014b57806342966c68146103535780634f6ccce71461036f5780636352211e1461039f5780636c0360eb146103cf576101da565b806323b872dd146102cf5780632a839963146102eb5780632f745c591461030757806342842e0e14610337576101da565b8063095ea7b3116101b8578063095ea7b31461025d57806318054c371461027957806318160ddd1461029557806322a775b6146102b3576101da565b806301ffc9a7146101df57806306fdde031461020f578063081812fc1461022d575b600080fd5b6101f960048036038101906101f49190615ab5565b6105fe565b60405161020691906160dd565b60405180910390f35b610217610666565b60405161022491906160f8565b60405180910390f35b61024760048036038101906102429190615c5c565b610708565b6040516102549190616032565b60405180910390f35b61027760048036038101906102729190615a79565b6107a3565b005b610293600480360381019061028e9190615a3d565b6108e7565b005b61029d6109a4565b6040516102aa91906161da565b60405180910390f35b6102cd60048036038101906102c89190615ba1565b6109b5565b005b6102e960048036038101906102e49190615973565b610bda565b005b61030560048036038101906103009190615ade565b610c50565b005b610321600480360381019061031c9190615a79565b610de8565b60405161032e91906161da565b60405180910390f35b610351600480360381019061034c9190615973565b610e43565b005b61036d60048036038101906103689190615c5c565b610e63565b005b61038960048036038101906103849190615c5c565b610ed5565b60405161039691906161da565b60405180910390f35b6103b960048036038101906103b49190615c5c565b610ef8565b6040516103c69190616032565b60405180910390f35b6103d7610f2f565b6040516103e491906160f8565b60405180910390f35b6104076004803603810190610402919061590e565b610fd1565b60405161041491906161da565b60405180910390f35b6104256110a6565b005b610441600480360381019061043c9190615bf5565b611216565b005b61045d60048036038101906104589190615c5c565b61124c565b60405161046a91906160bb565b60405180910390f35b61048d60048036038101906104889190615cd4565b61134f565b60405161049b929190616092565b60405180910390f35b6104ac6113c5565b6040516104b99190616032565b60405180910390f35b6104ca6113ef565b6040516104d791906160f8565b60405180910390f35b6104fa60048036038101906104f59190615a3d565b611491565b005b610516600480360381019061051191906159c2565b611647565b005b610532600480360381019061052d9190615c5c565b6116bf565b60405161053f91906160bb565b60405180910390f35b610562600480360381019061055d9190615c5c565b6117c2565b60405161056f91906160f8565b60405180910390f35b610592600480360381019061058d9190615c85565b611a93565b005b61059c611b18565b6040516105a991906160f8565b60405180910390f35b6105cc60048036038101906105c79190615937565b611bb7565b6040516105d991906160dd565b60405180910390f35b6105fc60048036038101906105f7919061590e565b611bcb565b005b600060656000837bffffffffffffffffffffffffffffffffffffffffffffffffffffffff19167bffffffffffffffffffffffffffffffffffffffffffffffffffffffff1916815260200190815260200160002060009054906101000a900460ff169050919050565b6060609c8054600181600116156101000203166002900480601f0160208091040260200160405190810160405280929190818152602001828054600181600116156101000203166002900480156106fe5780601f106106d3576101008083540402835291602001916106fe565b820191906000526020600020905b8154815290600101906020018083116106e157829003601f168201915b5050505050905090565b600061071382611dc0565b610768576040517f08c379a000000000000000000000000000000000000000000000000000000000815260040180806020018281038252602c815260200180616726602c913960400191505060405180910390fd5b609a600083815260200190815260200160002060009054906101000a900473ffffffffffffffffffffffffffffffffffffffff169050919050565b60006107ae82610ef8565b90508073ffffffffffffffffffffffffffffffffffffffff168373ffffffffffffffffffffffffffffffffffffffff161415610835576040517f08c379a00000000000000000000000000000000000000000000000000000000081526004018080602001828103825260218152602001806167d66021913960400191505060405180910390fd5b8073ffffffffffffffffffffffffffffffffffffffff16610854611ddd565b73ffffffffffffffffffffffffffffffffffffffff16148061088357506108828161087d611ddd565b611de5565b5b6108d8576040517f08c379a00000000000000000000000000000000000000000000000000000000081526004018080602001828103825260388152602001806166296038913960400191505060405180910390fd5b6108e28383611e79565b505050565b6108ef611ddd565b73ffffffffffffffffffffffffffffffffffffffff1661090d6113c5565b73ffffffffffffffffffffffffffffffffffffffff1614610996576040517f08c379a00000000000000000000000000000000000000000000000000000000081526004018080602001828103825260208152602001807f4f776e61626c653a2063616c6c6572206973206e6f7420746865206f776e657281525060200191505060405180910390fd5b6109a08282611f32565b5050565b60006109b06098611fdd565b905090565b600060608360000151901c905060006109cc611ddd565b905083604001516000815181106109df57fe5b60200260200101516000015173ffffffffffffffffffffffffffffffffffffffff168273ffffffffffffffffffffffffffffffffffffffff1614610a58576040517f08c379a0000000000000000000000000000000000000000000000000000000008152600401610a4f9061613a565b60405180910390fd5b83608001515184604001515114610a6e57600080fd5b8073ffffffffffffffffffffffffffffffffffffffff168273ffffffffffffffffffffffffffffffffffffffff161480610aae5750610aad8282611bb7565b5b610aed576040517f08c379a0000000000000000000000000000000000000000000000000000000008152600401610ae49061619a565b60405180910390fd5b6000610af885611ff2565b905060005b856040015151811015610b8e57600086604001518281518110610b1c57fe5b60200260200101516000015190508373ffffffffffffffffffffffffffffffffffffffff168173ffffffffffffffffffffffffffffffffffffffff1614610b8057610b7f818489608001518581518110610b7257fe5b6020026020010151612264565b5b508080600101915050610afd565b50610b9d848660000151612274565b610baf85600001518660600151612468565b610bc1856000015186604001516126b3565b610bd38560000151866020015161294d565b5050505050565b610beb610be5611ddd565b826129d7565b610c40576040517f08c379a00000000000000000000000000000000000000000000000000000000081526004018080602001828103825260318152602001806167f76031913960400191505060405180910390fd5b610c4b8383836129eb565b505050565b600060019054906101000a900460ff1680610c6f5750610c6e612c2e565b5b80610c85575060008054906101000a900460ff16155b610cda576040517f08c379a000000000000000000000000000000000000000000000000000000000815260040180806020018281038252602e8152602001806166b4602e913960400191505060405180910390fd5b60008060019054906101000a900460ff161590508015610d2a576001600060016101000a81548160ff02191690831515021790555060016000806101000a81548160ff0219169083151502179055505b610d3383612c3f565b610d3b612c59565b610d43612d67565b610d4b612e75565b610d53612f73565b610d5b613081565b610d63613228565b610d6b613326565b610d7482613498565b610d7e85856135bf565b7ff05e55f0a9d205977ca8cc02236338b6a361376f404cf0b3019b2111964a01fd610da7611ddd565b8686604051610db89392919061604d565b60405180910390a18015610de15760008060016101000a81548160ff0219169083151502179055505b5050505050565b6000610e3b82609760008673ffffffffffffffffffffffffffffffffffffffff1673ffffffffffffffffffffffffffffffffffffffff16815260200190815260200160002061371d90919063ffffffff16565b905092915050565b610e5e83838360405180602001604052806000815250611647565b505050565b610e74610e6e611ddd565b826129d7565b610ec9576040517f08c379a00000000000000000000000000000000000000000000000000000000081526004018080602001828103825260308152602001806168286030913960400191505060405180910390fd5b610ed281613737565b50565b600080610eec83609861387190919063ffffffff16565b50905080915050919050565b6000610f288260405180606001604052806029815260200161668b60299139609861389d9092919063ffffffff16565b9050919050565b6060609f8054600181600116156101000203166002900480601f016020809104026020016040519081016040528092919081815260200182805460018160011615610100020316600290048015610fc75780601f10610f9c57610100808354040283529160200191610fc7565b820191906000526020600020905b815481529060010190602001808311610faa57829003601f168201915b5050505050905090565b60008073ffffffffffffffffffffffffffffffffffffffff168273ffffffffffffffffffffffffffffffffffffffff161415611058576040517f08c379a000000000000000000000000000000000000000000000000000000000815260040180806020018281038252602a815260200180616661602a913960400191505060405180910390fd5b61109f609760008473ffffffffffffffffffffffffffffffffffffffff1673ffffffffffffffffffffffffffffffffffffffff1681526020019081526020016000206138bc565b9050919050565b6110ae611ddd565b73ffffffffffffffffffffffffffffffffffffffff166110cc6113c5565b73ffffffffffffffffffffffffffffffffffffffff1614611155576040517f08c379a00000000000000000000000000000000000000000000000000000000081526004018080602001828103825260208152602001807f4f776e61626c653a2063616c6c6572206973206e6f7420746865206f776e657281525060200191505060405180910390fd5b600073ffffffffffffffffffffffffffffffffffffffff16603360009054906101000a900473ffffffffffffffffffffffffffffffffffffffff1673ffffffffffffffffffffffffffffffffffffffff167f8be0079c531659141344cd1fd0a4f28419497f9722a3daafe3b4186f6b6457e060405160405180910390a36000603360006101000a81548173ffffffffffffffffffffffffffffffffffffffff021916908373ffffffffffffffffffffffffffffffffffffffff160217905550565b6112238360000151611dc0565b1561123c5761123782828560000151610e43565b611247565b61124683826109b5565b5b505050565b60606101c76000838152602001908152602001600020805480602002602001604051908101604052809291908181526020016000905b82821015611344578382906000526020600020016040518060400160405290816000820160009054906101000a900473ffffffffffffffffffffffffffffffffffffffff1673ffffffffffffffffffffffffffffffffffffffff1673ffffffffffffffffffffffffffffffffffffffff1681526020016000820160149054906101000a90046bffffffffffffffffffffffff166bffffffffffffffffffffffff166bffffffffffffffffffffffff168152505081526020019060010190611282565b505050509050919050565b6101c6602052816000526040600020818154811061136c57600080fd5b90600052602060002001600091509150508060000160009054906101000a900473ffffffffffffffffffffffffffffffffffffffff16908060000160149054906101000a90046bffffffffffffffffffffffff16905082565b6000603360009054906101000a900473ffffffffffffffffffffffffffffffffffffffff16905090565b6060609d8054600181600116156101000203166002900480601f0160208091040260200160405190810160405280929190818152602001828054600181600116156101000203166002900480156114875780601f1061145c57610100808354040283529160200191611487565b820191906000526020600020905b81548152906001019060200180831161146a57829003601f168201915b5050505050905090565b611499611ddd565b73ffffffffffffffffffffffffffffffffffffffff168273ffffffffffffffffffffffffffffffffffffffff16141561153a576040517f08c379a00000000000000000000000000000000000000000000000000000000081526004018080602001828103825260198152602001807f4552433732313a20617070726f766520746f2063616c6c65720000000000000081525060200191505060405180910390fd5b80609b6000611547611ddd565b73ffffffffffffffffffffffffffffffffffffffff1673ffffffffffffffffffffffffffffffffffffffff16815260200190815260200160002060008473ffffffffffffffffffffffffffffffffffffffff1673ffffffffffffffffffffffffffffffffffffffff16815260200190815260200160002060006101000a81548160ff0219169083151502179055508173ffffffffffffffffffffffffffffffffffffffff166115f4611ddd565b73ffffffffffffffffffffffffffffffffffffffff167f17307eab39ab6107e8899845ad3d59bd9653f200f220920489ca2b5937696c318360405180821515815260200191505060405180910390a35050565b611658611652611ddd565b836129d7565b6116ad576040517f08c379a00000000000000000000000000000000000000000000000000000000081526004018080602001828103825260318152602001806167f76031913960400191505060405180910390fd5b6116b9848484846138d1565b50505050565b60606101c66000838152602001908152602001600020805480602002602001604051908101604052809291908181526020016000905b828210156117b7578382906000526020600020016040518060400160405290816000820160009054906101000a900473ffffffffffffffffffffffffffffffffffffffff1673ffffffffffffffffffffffffffffffffffffffff1673ffffffffffffffffffffffffffffffffffffffff1681526020016000820160149054906101000a90046bffffffffffffffffffffffff166bffffffffffffffffffffffff166bffffffffffffffffffffffff1681525050815260200190600101906116f5565b505050509050919050565b60606117cd82611dc0565b611822576040517f08c379a000000000000000000000000000000000000000000000000000000000815260040180806020018281038252602f8152602001806167a7602f913960400191505060405180910390fd5b6000609e60008481526020019081526020016000208054600181600116156101000203166002900480601f0160208091040260200160405190810160405280929190818152602001828054600181600116156101000203166002900480156118cb5780601f106118a0576101008083540402835291602001916118cb565b820191906000526020600020905b8154815290600101906020018083116118ae57829003601f168201915b5050505050905060006118dc610f2f565b90506000815114156118f2578192505050611a8e565b6000825111156119c35780826040516020018083805190602001908083835b602083106119345780518252602082019150602081019050602083039250611911565b6001836020036101000a03801982511681845116808217855250505050505090500182805190602001908083835b602083106119855780518252602082019150602081019050602083039250611962565b6001836020036101000a0380198251168184511680821785525050505050509050019250505060405160208183030381529060405292505050611a8e565b806119cd85613943565b6040516020018083805190602001908083835b60208310611a0357805182526020820191506020810190506020830392506119e0565b6001836020036101000a03801982511681845116808217855250505050505090500182805190602001908083835b60208310611a545780518252602082019150602081019050602083039250611a31565b6001836020036101000a03801982511681845116808217855250505050505090500192505050604051602081830303815290604052925050505b919050565b8173ffffffffffffffffffffffffffffffffffffffff16611ab2611ddd565b73ffffffffffffffffffffffffffffffffffffffff1614611b08576040517f08c379a0000000000000000000000000000000000000000000000000000000008152600401611aff9061615a565b60405180910390fd5b611b13838383613a8a565b505050565b6101fa8054600181600116156101000203166002900480601f016020809104026020016040519081016040528092919081815260200182805460018160011615610100020316600290048015611baf5780601f10611b8457610100808354040283529160200191611baf565b820191906000526020600020905b815481529060010190602001808311611b9257829003601f168201915b505050505081565b6000611bc38383613bb1565b905092915050565b611bd3611ddd565b73ffffffffffffffffffffffffffffffffffffffff16611bf16113c5565b73ffffffffffffffffffffffffffffffffffffffff1614611c7a576040517f08c379a00000000000000000000000000000000000000000000000000000000081526004018080602001828103825260208152602001807f4f776e61626c653a2063616c6c6572206973206e6f7420746865206f776e657281525060200191505060405180910390fd5b600073ffffffffffffffffffffffffffffffffffffffff168173ffffffffffffffffffffffffffffffffffffffff161415611d00576040517f08c379a000000000000000000000000000000000000000000000000000000000815260040180806020018281038252602681526020018061656b6026913960400191505060405180910390fd5b8073ffffffffffffffffffffffffffffffffffffffff16603360009054906101000a900473ffffffffffffffffffffffffffffffffffffffff1673ffffffffffffffffffffffffffffffffffffffff167f8be0079c531659141344cd1fd0a4f28419497f9722a3daafe3b4186f6b6457e060405160405180910390a380603360006101000a81548173ffffffffffffffffffffffffffffffffffffffff021916908373ffffffffffffffffffffffffffffffffffffffff16021790555050565b6000611dd6826098613c1990919063ffffffff16565b9050919050565b600033905090565b6000609b60008473ffffffffffffffffffffffffffffffffffffffff1673ffffffffffffffffffffffffffffffffffffffff16815260200190815260200160002060008373ffffffffffffffffffffffffffffffffffffffff1673ffffffffffffffffffffffffffffffffffffffff16815260200190815260200160002060009054906101000a900460ff16905092915050565b81609a600083815260200190815260200160002060006101000a81548173ffffffffffffffffffffffffffffffffffffffff021916908373ffffffffffffffffffffffffffffffffffffffff160217905550808273ffffffffffffffffffffffffffffffffffffffff16611eec83610ef8565b73ffffffffffffffffffffffffffffffffffffffff167f8c5be1e5ebec7d5bd14f71427d1e84f3dd0314c0f7b2291e5b200ac8c7c3b92560405160405180910390a45050565b8060c960008473ffffffffffffffffffffffffffffffffffffffff1673ffffffffffffffffffffffffffffffffffffffff16815260200190815260200160002060006101000a81548160ff0219169083151502179055508173ffffffffffffffffffffffffffffffffffffffff167f270dbb8ba4292910ae92862466486be25c355c837270a3d8824b36a8bc7c653b8260405180821515815260200191505060405180910390a25050565b6000611feb82600001613c33565b9050919050565b60008082606001515167ffffffffffffffff8111801561201157600080fd5b506040519080825280602002602001820160405280156120405781602001602082028036833780820191505090505b50905060005b836060015151811015612098576120738460600151828151811061206657fe5b6020026020010151613c44565b82828151811061207f57fe5b6020026020010181815250508080600101915050612046565b50600083604001515167ffffffffffffffff811180156120b757600080fd5b506040519080825280602002602001820160405280156120e65781602001602082028036833780820191505090505b50905060005b84604001515181101561213e576121198560400151828151811061210c57fe5b6020026020010151613c44565b82828151811061212557fe5b60200260200101818152505080806001019150506120ec565b507ff64326045af5fd7e15297ba939f85b550474d3899daa47d2bc1ffbdb9ced344e84600001518560200151805190602001208360405160200180828051906020019060200280838360005b838110156121a557808201518184015260208101905061218a565b50505050905001915050604051602081830303815290604052805190602001208560405160200180828051906020019060200280838360005b838110156121f95780820151818401526020810190506121de565b505050509050019150506040516020818303038152906040528051906020012060405160200180868152602001858152602001848152602001838152602001828152602001955050505050506040516020818303038152906040528051906020012092505050919050565b61226f838383613cd0565b505050565b600073ffffffffffffffffffffffffffffffffffffffff168273ffffffffffffffffffffffffffffffffffffffff161415612317576040517f08c379a00000000000000000000000000000000000000000000000000000000081526004018080602001828103825260208152602001807f4552433732313a206d696e7420746f20746865207a65726f206164647265737381525060200191505060405180910390fd5b61232081611dc0565b15612393576040517f08c379a000000000000000000000000000000000000000000000000000000000815260040180806020018281038252601c8152602001807f4552433732313a20746f6b656e20616c7265616479206d696e7465640000000081525060200191505060405180910390fd5b61239f60008383614048565b6123f081609760008573ffffffffffffffffffffffffffffffffffffffff1673ffffffffffffffffffffffffffffffffffffffff16815260200190815260200160002061404d90919063ffffffff16565b50612407818360986140679092919063ffffffff16565b50808273ffffffffffffffffffffffffffffffffffffffff16600073ffffffffffffffffffffffffffffffffffffffff167fddf252ad1be2c89b69c2b068fc378daa952ba7f163c4a11628f55a4df523b3ef60405160405180910390a45050565b60005b81518110156126a457600073ffffffffffffffffffffffffffffffffffffffff1682828151811061249857fe5b60200260200101516000015173ffffffffffffffffffffffffffffffffffffffff16141561252e576040517f08c379a000000000000000000000000000000000000000000000000000000000815260040180806020018281038252601b8152602001807f526563697069656e742073686f756c642062652070726573656e74000000000081525060200191505060405180910390fd5b600082828151811061253c57fe5b6020026020010151602001516bffffffffffffffffffffffff1614156125ca576040517f08c379a00000000000000000000000000000000000000000000000000000000081526004018080602001828103825260208152602001807f526f79616c74792076616c75652073686f756c6420626520706f73697469766581525060200191505060405180910390fd5b6101c660008481526020019081526020016000208282815181106125ea57fe5b60200260200101519080600181540180825580915050600190039060005260206000200160009091909190915060008201518160000160006101000a81548173ffffffffffffffffffffffffffffffffffffffff021916908373ffffffffffffffffffffffffffffffffffffffff16021790555060208201518160000160146101000a8154816bffffffffffffffffffffffff02191690836bffffffffffffffffffffffff1602179055505050808060010191505061246b565b506126af828261409c565b5050565b60006101c7600084815260200190815260200160002090506000805b83518110156128c957600073ffffffffffffffffffffffffffffffffffffffff168482815181106126fc57fe5b60200260200101516000015173ffffffffffffffffffffffffffffffffffffffff16141561275f576040517f08c379a00000000000000000000000000000000000000000000000000000000081526004016127569061617a565b60405180910390fd5b600084828151811061276d57fe5b6020026020010151602001516bffffffffffffffffffffffff1614156127c8576040517f08c379a00000000000000000000000000000000000000000000000000000000081526004016127bf9061611a565b60405180910390fd5b828482815181106127d557fe5b60200260200101519080600181540180825580915050600190039060005260206000200160009091909190915060008201518160000160006101000a81548173ffffffffffffffffffffffffffffffffffffffff021916908373ffffffffffffffffffffffffffffffffffffffff16021790555060208201518160000160146101000a8154816bffffffffffffffffffffffff02191690836bffffffffffffffffffffffff16021790555050506128ba84828151811061289157fe5b6020026020010151602001516bffffffffffffffffffffffff16836140d990919063ffffffff16565b915080806001019150506126cf565b50612710811461290e576040517f08c379a0000000000000000000000000000000000000000000000000000000008152600401612905906161ba565b60405180910390fd5b7f841ffb90d4cabdd1f16034f3fa831d79060febbb8167bdd54a49269365bdf78f848460405161293f9291906161f5565b60405180910390a150505050565b61295682611dc0565b6129ab576040517f08c379a000000000000000000000000000000000000000000000000000000000815260040180806020018281038252602c815260200180616752602c913960400191505060405180910390fd5b80609e600084815260200190815260200160002090805190602001906129d292919061547c565b505050565b60006129e38383614161565b905092915050565b8273ffffffffffffffffffffffffffffffffffffffff16612a0b82610ef8565b73ffffffffffffffffffffffffffffffffffffffff1614612a77576040517f08c379a000000000000000000000000000000000000000000000000000000000815260040180806020018281038252602981526020018061677e6029913960400191505060405180910390fd5b600073ffffffffffffffffffffffffffffffffffffffff168273ffffffffffffffffffffffffffffffffffffffff161415612afd576040517f08c379a00000000000000000000000000000000000000000000000000000000081526004018080602001828103825260248152602001806165916024913960400191505060405180910390fd5b612b08838383614048565b612b13600082611e79565b612b6481609760008673ffffffffffffffffffffffffffffffffffffffff1673ffffffffffffffffffffffffffffffffffffffff1681526020019081526020016000206141c990919063ffffffff16565b50612bb681609760008573ffffffffffffffffffffffffffffffffffffffff1673ffffffffffffffffffffffffffffffffffffffff16815260200190815260200160002061404d90919063ffffffff16565b50612bcd818360986140679092919063ffffffff16565b50808273ffffffffffffffffffffffffffffffffffffffff168473ffffffffffffffffffffffffffffffffffffffff167fddf252ad1be2c89b69c2b068fc378daa952ba7f163c4a11628f55a4df523b3ef60405160405180910390a4505050565b6000612c39306141e3565b15905090565b80609f9080519060200190612c5592919061547c565b5050565b600060019054906101000a900460ff1680612c785750612c77612c2e565b5b80612c8e575060008054906101000a900460ff16155b612ce3576040517f08c379a000000000000000000000000000000000000000000000000000000000815260040180806020018281038252602e8152602001806166b4602e913960400191505060405180910390fd5b60008060019054906101000a900460ff161590508015612d33576001600060016101000a81548160ff02191690831515021790555060016000806101000a81548160ff0219169083151502179055505b612d43638486f69f60e01b6141f6565b8015612d645760008060016101000a81548160ff0219169083151502179055505b50565b600060019054906101000a900460ff1680612d865750612d85612c2e565b5b80612d9c575060008054906101000a900460ff16155b612df1576040517f08c379a000000000000000000000000000000000000000000000000000000000815260040180806020018281038252602e8152602001806166b4602e913960400191505060405180910390fd5b60008060019054906101000a900460ff161590508015612e41576001600060016101000a81548160ff02191690831515021790555060016000806101000a81548160ff0219169083151502179055505b612e516344c74bcc60e01b6141f6565b8015612e725760008060016101000a81548160ff0219169083151502179055505b50565b600060019054906101000a900460ff1680612e945750612e93612c2e565b5b80612eaa575060008054906101000a900460ff16155b612eff576040517f08c379a000000000000000000000000000000000000000000000000000000000815260040180806020018281038252602e8152602001806166b4602e913960400191505060405180910390fd5b60008060019054906101000a900460ff161590508015612f4f576001600060016101000a81548160ff02191690831515021790555060016000806101000a81548160ff0219169083151502179055505b8015612f705760008060016101000a81548160ff0219169083151502179055505b50565b600060019054906101000a900460ff1680612f925750612f91612c2e565b5b80612fa8575060008054906101000a900460ff16155b612ffd576040517f08c379a000000000000000000000000000000000000000000000000000000000815260040180806020018281038252602e8152602001806166b4602e913960400191505060405180910390fd5b60008060019054906101000a900460ff16159050801561304d576001600060016101000a81548160ff02191690831515021790555060016000806101000a81548160ff0219169083151502179055505b61305d6301ffc9a760e01b6141f6565b801561307e5760008060016101000a81548160ff0219169083151502179055505b50565b600060019054906101000a900460ff16806130a0575061309f612c2e565b5b806130b6575060008054906101000a900460ff16155b61310b576040517f08c379a000000000000000000000000000000000000000000000000000000000815260040180806020018281038252602e8152602001806166b4602e913960400191505060405180910390fd5b60008060019054906101000a900460ff16159050801561315b576001600060016101000a81548160ff02191690831515021790555060016000806101000a81548160ff0219169083151502179055505b6000613165611ddd565b905080603360006101000a81548173ffffffffffffffffffffffffffffffffffffffff021916908373ffffffffffffffffffffffffffffffffffffffff1602179055508073ffffffffffffffffffffffffffffffffffffffff16600073ffffffffffffffffffffffffffffffffffffffff167f8be0079c531659141344cd1fd0a4f28419497f9722a3daafe3b4186f6b6457e060405160405180910390a35080156132255760008060016101000a81548160ff0219169083151502179055505b50565b600060019054906101000a900460ff16806132475750613246612c2e565b5b8061325d575060008054906101000a900460ff16155b6132b2576040517f08c379a000000000000000000000000000000000000000000000000000000000815260040180806020018281038252602e8152602001806166b4602e913960400191505060405180910390fd5b60008060019054906101000a900460ff161590508015613302576001600060016101000a81548160ff02191690831515021790555060016000806101000a81548160ff0219169083151502179055505b80156133235760008060016101000a81548160ff0219169083151502179055505b50565b600060019054906101000a900460ff16806133455750613344612c2e565b5b8061335b575060008054906101000a900460ff16155b6133b0576040517f08c379a000000000000000000000000000000000000000000000000000000000815260040180806020018281038252602e8152602001806166b4602e913960400191505060405180910390fd5b60008060019054906101000a900460ff161590508015613400576001600060016101000a81548160ff02191690831515021790555060016000806101000a81548160ff0219169083151502179055505b6134746040518060400160405280600781526020017f4d696e74373231000000000000000000000000000000000000000000000000008152506040518060400160405280600181526020017f31000000000000000000000000000000000000000000000000000000000000008152506142ff565b80156134955760008060016101000a81548160ff0219169083151502179055505b50565b600060019054906101000a900460ff16806134b757506134b6612c2e565b5b806134cd575060008054906101000a900460ff16155b613522576040517f08c379a000000000000000000000000000000000000000000000000000000000815260040180806020018281038252602e8152602001806166b4602e913960400191505060405180910390fd5b60008060019054906101000a900460ff161590508015613572576001600060016101000a81548160ff02191690831515021790555060016000806101000a81548160ff0219169083151502179055505b816101fa908051906020019061358992919061547c565b5061359a63e8a3d48560e01b6141f6565b80156135bb5760008060016101000a81548160ff0219169083151502179055505b5050565b600060019054906101000a900460ff16806135de57506135dd612c2e565b5b806135f4575060008054906101000a900460ff16155b613649576040517f08c379a000000000000000000000000000000000000000000000000000000000815260040180806020018281038252602e8152602001806166b4602e913960400191505060405180910390fd5b60008060019054906101000a900460ff161590508015613699576001600060016101000a81548160ff02191690831515021790555060016000806101000a81548160ff0219169083151502179055505b82609c90805190602001906136af92919061547c565b5081609d90805190602001906136c692919061547c565b506136d76380ac58cd60e01b6141f6565b6136e7635b5e139f60e01b6141f6565b6136f763780e9d6360e01b6141f6565b80156137185760008060016101000a81548160ff0219169083151502179055505b505050565b600061372c8360000183614409565b60001c905092915050565b600061374282610ef8565b905061375081600084614048565b61375b600083611e79565b6000609e6000848152602001908152602001600020805460018160011615610100020316600290049050146137aa57609e600083815260200190815260200160002060006137a9919061550a565b5b6137fb82609760008473ffffffffffffffffffffffffffffffffffffffff1673ffffffffffffffffffffffffffffffffffffffff1681526020019081526020016000206141c990919063ffffffff16565b5061381082609861448c90919063ffffffff16565b5081600073ffffffffffffffffffffffffffffffffffffffff168273ffffffffffffffffffffffffffffffffffffffff167fddf252ad1be2c89b69c2b068fc378daa952ba7f163c4a11628f55a4df523b3ef60405160405180910390a45050565b60008060008061388486600001866144a6565b915091508160001c8160001c9350935050509250929050565b60006138b0846000018460001b8461453f565b60001c90509392505050565b60006138ca82600001614635565b9050919050565b6138dc8484846129eb565b6138e884848484614646565b61393d576040517f08c379a00000000000000000000000000000000000000000000000000000000081526004018080602001828103825260328152602001806165396032913960400191505060405180910390fd5b50505050565b6060600082141561398b576040518060400160405280600181526020017f30000000000000000000000000000000000000000000000000000000000000008152509050613a85565b600082905060005b600082146139b5578080600101915050600a82816139ad57fe5b049150613993565b60008167ffffffffffffffff811180156139ce57600080fd5b506040519080825280601f01601f191660200182016040528015613a015781602001600182028036833780820191505090505b50905060006001830390508593505b60008414613a7d57600a8481613a2257fe5b0660300160f81b82828060019003935081518110613a3c57fe5b60200101907effffffffffffffffffffffffffffffffffffffffffffffffffffffffffffff1916908160001a905350600a8481613a7557fe5b049350613a10565b819450505050505b919050565b60006101c6600085815260200190815260200160002080549050905060005b81811015613baa578373ffffffffffffffffffffffffffffffffffffffff166101c660008781526020019081526020016000208281548110613ae757fe5b9060005260206000200160000160009054906101000a900473ffffffffffffffffffffffffffffffffffffffff1673ffffffffffffffffffffffffffffffffffffffff161415613b9d57826101c660008781526020019081526020016000208281548110613b5157fe5b9060005260206000200160000160006101000a81548173ffffffffffffffffffffffffffffffffffffffff021916908373ffffffffffffffffffffffffffffffffffffffff1602179055505b8080600101915050613aa9565b5050505050565b600060c960008373ffffffffffffffffffffffffffffffffffffffff1673ffffffffffffffffffffffffffffffffffffffff16815260200190815260200160002060009054906101000a900460ff1680613c115750613c108383611de5565b5b905092915050565b6000613c2b836000018360001b61485f565b905092915050565b600081600001805490509050919050565b60007f397e04204c1e1a60ee8724b71f8244e10ab5f2e9009854d80f602bda21b59ebb82600001518360200151604051602001808481526020018373ffffffffffffffffffffffffffffffffffffffff168152602001826bffffffffffffffffffffffff1681526020019350505050604051602081830303815290604052805190602001209050919050565b6000613cdb83614882565b9050613cfc8473ffffffffffffffffffffffffffffffffffffffff166141e3565b15613f2357631626ba7e60e01b7bffffffffffffffffffffffffffffffffffffffffffffffffffffffff19168473ffffffffffffffffffffffffffffffffffffffff16631626ba7e83856040518363ffffffff1660e01b81526004018083815260200180602001828103825283818151815260200191508051906020019080838360005b83811015613d9b578082015181840152602081019050613d80565b50505050905090810190601f168015613dc85780820380516001836020036101000a031916815260200191505b50935050505060206040518083038186803b158015613de657600080fd5b505afa158015613dfa573d6000803e3d6000fd5b505050506040513d6020811015613e1057600080fd5b81019080805190602001909291905050507bffffffffffffffffffffffffffffffffffffffffffffffffffffffff1916146040518060400160405280601c81526020017f7369676e617475726520766572696669636174696f6e206572726f720000000081525090613f1d576040517f08c379a00000000000000000000000000000000000000000000000000000000081526004018080602001828103825283818151815260200191508051906020019080838360005b83811015613ee2578082015181840152602081019050613ec7565b50505050905090810190601f168015613f0f5780820380516001836020036101000a031916815260200191505b509250505060405180910390fd5b50614042565b8373ffffffffffffffffffffffffffffffffffffffff16613f4d83836148e990919063ffffffff16565b73ffffffffffffffffffffffffffffffffffffffff16146040518060400160405280601c81526020017f7369676e617475726520766572696669636174696f6e206572726f720000000081525090614040576040517f08c379a00000000000000000000000000000000000000000000000000000000081526004018080602001828103825283818151815260200191508051906020019080838360005b83811015614005578082015181840152602081019050613fea565b50505050905090810190601f1680156140325780820380516001836020036101000a031916815260200191505b509250505060405180910390fd5b505b50505050565b505050565b600061405f836000018360001b614996565b905092915050565b6000614093846000018460001b8473ffffffffffffffffffffffffffffffffffffffff1660001b614a06565b90509392505050565b7f3fa96d7b6bcbfe71ef171666d84db3cf52fa2d1c8afdb1cc8e486177f208b7df82826040516140cd9291906161f5565b60405180910390a15050565b600080828401905083811015614157576040517f08c379a000000000000000000000000000000000000000000000000000000000815260040180806020018281038252601b8152602001807f536166654d6174683a206164646974696f6e206f766572666c6f77000000000081525060200191505060405180910390fd5b8091505092915050565b600060c960008473ffffffffffffffffffffffffffffffffffffffff1673ffffffffffffffffffffffffffffffffffffffff16815260200190815260200160002060009054906101000a900460ff16806141c157506141c08383614ae2565b5b905092915050565b60006141db836000018360001b614bd6565b905092915050565b600080823b905060008111915050919050565b63ffffffff60e01b817bffffffffffffffffffffffffffffffffffffffffffffffffffffffff19161415614292576040517f08c379a000000000000000000000000000000000000000000000000000000000815260040180806020018281038252601c8152602001807f4552433136353a20696e76616c696420696e746572666163652069640000000081525060200191505060405180910390fd5b600160656000837bffffffffffffffffffffffffffffffffffffffffffffffffffffffff19167bffffffffffffffffffffffffffffffffffffffffffffffffffffffff1916815260200190815260200160002060006101000a81548160ff02191690831515021790555050565b600060019054906101000a900460ff168061431e575061431d612c2e565b5b80614334575060008054906101000a900460ff16155b614389576040517f08c379a000000000000000000000000000000000000000000000000000000000815260040180806020018281038252602e8152602001806166b4602e913960400191505060405180910390fd5b60008060019054906101000a900460ff1615905080156143d9576001600060016101000a81548160ff02191690831515021790555060016000806101000a81548160ff0219169083151502179055505b6143e38383614cbe565b80156144045760008060016101000a81548160ff0219169083151502179055505b505050565b60008183600001805490501161446a576040517f08c379a00000000000000000000000000000000000000000000000000000000081526004018080602001828103825260228152602001806165176022913960400191505060405180910390fd5b82600001828154811061447957fe5b9060005260206000200154905092915050565b600061449e836000018360001b614de8565b905092915050565b60008082846000018054905011614508576040517f08c379a00000000000000000000000000000000000000000000000000000000081526004018080602001828103825260228152602001806167046022913960400191505060405180910390fd5b600084600001848154811061451957fe5b906000526020600020906002020190508060000154816001015492509250509250929050565b60008084600101600085815260200190815260200160002054905060008114158390614606576040517f08c379a00000000000000000000000000000000000000000000000000000000081526004018080602001828103825283818151815260200191508051906020019080838360005b838110156145cb5780820151818401526020810190506145b0565b50505050905090810190601f1680156145f85780820380516001836020036101000a031916815260200191505b509250505060405180910390fd5b5084600001600182038154811061461957fe5b9060005260206000209060020201600101549150509392505050565b600081600001805490509050919050565b60006146678473ffffffffffffffffffffffffffffffffffffffff166141e3565b6146745760019050614857565b60006147de63150b7a0260e01b614689611ddd565b888787604051602401808573ffffffffffffffffffffffffffffffffffffffff1681526020018473ffffffffffffffffffffffffffffffffffffffff16815260200183815260200180602001828103825283818151815260200191508051906020019080838360005b8381101561470d5780820151818401526020810190506146f2565b50505050905090810190601f16801561473a5780820380516001836020036101000a031916815260200191505b5095505050505050604051602081830303815290604052907bffffffffffffffffffffffffffffffffffffffffffffffffffffffff19166020820180517bffffffffffffffffffffffffffffffffffffffffffffffffffffffff8381831617835250505050604051806060016040528060328152602001616539603291398773ffffffffffffffffffffffffffffffffffffffff16614f019092919063ffffffff16565b905060008180602001905160208110156147f757600080fd5b8101908080519060200190929190505050905063150b7a0260e01b7bffffffffffffffffffffffffffffffffffffffffffffffffffffffff1916817bffffffffffffffffffffffffffffffffffffffffffffffffffffffff191614925050505b949350505050565b600080836001016000848152602001908152602001600020541415905092915050565b600061488c614f19565b8260405160200180807f190100000000000000000000000000000000000000000000000000000000000081525060020183815260200182815260200192505050604051602081830303815290604052805190602001209050919050565b60006041825114614962576040517f08c379a000000000000000000000000000000000000000000000000000000000815260040180806020018281038252601f8152602001807f45434453413a20696e76616c6964207369676e6174757265206c656e6774680081525060200191505060405180910390fd5b60008060006020850151925060408501519150606085015160001a905061498b86828585614f59565b935050505092915050565b60006149a28383615158565b6149fb578260000182908060018154018082558091505060019003906000526020600020016000909190919091505582600001805490508360010160008481526020019081526020016000208190555060019050614a00565b600090505b92915050565b6000808460010160008581526020019081526020016000205490506000811415614aad57846000016040518060400160405280868152602001858152509080600181540180825580915050600190039060005260206000209060020201600090919091909150600082015181600001556020820151816001015550508460000180549050856001016000868152602001908152602001600020819055506001915050614adb565b82856000016001830381548110614ac057fe5b90600052602060002090600202016001018190555060009150505b9392505050565b6000614aed82611dc0565b614b42576040517f08c379a000000000000000000000000000000000000000000000000000000000815260040180806020018281038252602c8152602001806165fd602c913960400191505060405180910390fd5b6000614b4d83610ef8565b90508073ffffffffffffffffffffffffffffffffffffffff168473ffffffffffffffffffffffffffffffffffffffff161480614bbc57508373ffffffffffffffffffffffffffffffffffffffff16614ba484610708565b73ffffffffffffffffffffffffffffffffffffffff16145b80614bcd5750614bcc8185611de5565b5b91505092915050565b60008083600101600084815260200190815260200160002054905060008114614cb25760006001820390506000600186600001805490500390506000866000018281548110614c2157fe5b9060005260206000200154905080876000018481548110614c3e57fe5b9060005260206000200181905550600183018760010160008381526020019081526020016000208190555086600001805480614c7657fe5b60019003818190600052602060002001600090559055866001016000878152602001908152602001600020600090556001945050505050614cb8565b60009150505b92915050565b600060019054906101000a900460ff1680614cdd5750614cdc612c2e565b5b80614cf3575060008054906101000a900460ff16155b614d48576040517f08c379a000000000000000000000000000000000000000000000000000000000815260040180806020018281038252602e8152602001806166b4602e913960400191505060405180910390fd5b60008060019054906101000a900460ff161590508015614d98576001600060016101000a81548160ff02191690831515021790555060016000806101000a81548160ff0219169083151502179055505b6000838051906020012090506000838051906020012090508161012e819055508061012f8190555050508015614de35760008060016101000a81548160ff0219169083151502179055505b505050565b60008083600101600084815260200190815260200160002054905060008114614ef55760006001820390506000600186600001805490500390506000866000018281548110614e3357fe5b9060005260206000209060020201905080876000018481548110614e5357fe5b9060005260206000209060020201600082015481600001556001820154816001015590505060018301876001016000836000015481526020019081526020016000208190555086600001805480614ea657fe5b6001900381819060005260206000209060020201600080820160009055600182016000905550509055866001016000878152602001908152602001600020600090556001945050505050614efb565b60009150505b92915050565b6060614f10848460008561517b565b90509392505050565b6000614f547f8b73c3c69bb8fe3d512ecc4cf759cc79239f7b179b0ffacaa9a75d522b39400f614f47615323565b614f4f61532e565b615339565b905090565b60007f7fffffffffffffffffffffffffffffff5d576e7357a4501ddfe92f46681b20a08260001c1115614fd7576040517f08c379a00000000000000000000000000000000000000000000000000000000081526004018080602001828103825260228152602001806165b56022913960400191505060405180910390fd5b601b8460ff161480614fec5750601c8460ff16145b615041576040517f08c379a00000000000000000000000000000000000000000000000000000000081526004018080602001828103825260228152602001806166e26022913960400191505060405180910390fd5b600060018686868660405160008152602001604052604051808581526020018460ff1681526020018381526020018281526020019450505050506020604051602081039080840390855afa15801561509d573d6000803e3d6000fd5b505050602060405103519050600073ffffffffffffffffffffffffffffffffffffffff168173ffffffffffffffffffffffffffffffffffffffff16141561514c576040517f08c379a00000000000000000000000000000000000000000000000000000000081526004018080602001828103825260188152602001807f45434453413a20696e76616c6964207369676e6174757265000000000000000081525060200191505060405180910390fd5b80915050949350505050565b600080836001016000848152602001908152602001600020541415905092915050565b6060824710156151d6576040517f08c379a00000000000000000000000000000000000000000000000000000000081526004018080602001828103825260268152602001806165d76026913960400191505060405180910390fd5b6151df856141e3565b615251576040517f08c379a000000000000000000000000000000000000000000000000000000000815260040180806020018281038252601d8152602001807f416464726573733a2063616c6c20746f206e6f6e2d636f6e747261637400000081525060200191505060405180910390fd5b6000808673ffffffffffffffffffffffffffffffffffffffff1685876040518082805190602001908083835b602083106152a0578051825260208201915060208101905060208303925061527d565b6001836020036101000a03801982511681845116808217855250505050505090500191505060006040518083038185875af1925050503d8060008114615302576040519150601f19603f3d011682016040523d82523d6000602084013e615307565b606091505b50915091506153178282866153a8565b92505050949350505050565b600061012e54905090565b600061012f54905090565b6000838383615346615474565b30604051602001808681526020018581526020018481526020018381526020018273ffffffffffffffffffffffffffffffffffffffff168152602001955050505050506040516020818303038152906040528051906020012090509392505050565b606083156153b85782905061546d565b6000835111156153cb5782518084602001fd5b816040517f08c379a00000000000000000000000000000000000000000000000000000000081526004018080602001828103825283818151815260200191508051906020019080838360005b83811015615432578082015181840152602081019050615417565b50505050905090810190601f16801561545f5780820380516001836020036101000a031916815260200191505b509250505060405180910390fd5b9392505050565b600046905090565b828054600181600116156101000203166002900490600052602060002090601f0160209004810192826154b257600085556154f9565b82601f106154cb57805160ff19168380011785556154f9565b828001600101855582156154f9579182015b828111156154f85782518255916020019190600101906154dd565b5b5090506155069190615552565b5090565b50805460018160011615610100020316600290046000825580601f10615530575061554f565b601f01602090049060005260206000209081019061554e9190615552565b5b50565b5b8082111561556b576000816000905550600101615553565b5090565b600061558261557d84616256565b616225565b9050808382526020820190508260005b858110156155c257813585016155a8888261575c565b845260208401935060208301925050600181019050615592565b5050509392505050565b60006155df6155da84616282565b616225565b905080838252602082019050828560408602820111156155fe57600080fd5b60005b8581101561562e57816156148882615898565b845260208401935060408301925050600181019050615601565b5050509392505050565b600061564b615646846162ae565b616225565b90508281526020810184848401111561566357600080fd5b61566e848285616437565b509392505050565b6000615689615684846162de565b616225565b9050828152602081018484840111156156a157600080fd5b6156ac848285616437565b509392505050565b6000813590506156c38161648c565b92915050565b6000813590506156d8816164a3565b92915050565b600082601f8301126156ef57600080fd5b81356156ff84826020860161556f565b91505092915050565b600082601f83011261571957600080fd5b81356157298482602086016155cc565b91505092915050565b600081359050615741816164ba565b92915050565b600081359050615756816164d1565b92915050565b600082601f83011261576d57600080fd5b813561577d848260208601615638565b91505092915050565b600082601f83011261579757600080fd5b81356157a7848260208601615676565b91505092915050565b600060a082840312156157c257600080fd5b6157cc60a0616225565b905060006157dc848285016158e4565b600083015250602082013567ffffffffffffffff8111156157fc57600080fd5b61580884828501615786565b602083015250604082013567ffffffffffffffff81111561582857600080fd5b61583484828501615708565b604083015250606082013567ffffffffffffffff81111561585457600080fd5b61586084828501615708565b606083015250608082013567ffffffffffffffff81111561588057600080fd5b61588c848285016156de565b60808301525092915050565b6000604082840312156158aa57600080fd5b6158b46040616225565b905060006158c4848285016156c9565b60008301525060206158d8848285016158f9565b60208301525092915050565b6000813590506158f3816164e8565b92915050565b600081359050615908816164ff565b92915050565b60006020828403121561592057600080fd5b600061592e848285016156b4565b91505092915050565b6000806040838503121561594a57600080fd5b6000615958858286016156b4565b9250506020615969858286016156b4565b9150509250929050565b60008060006060848603121561598857600080fd5b6000615996868287016156b4565b93505060206159a7868287016156b4565b92505060406159b8868287016158e4565b9150509250925092565b600080600080608085870312156159d857600080fd5b60006159e6878288016156b4565b94505060206159f7878288016156b4565b9350506040615a08878288016158e4565b925050606085013567ffffffffffffffff811115615a2557600080fd5b615a318782880161575c565b91505092959194509250565b60008060408385031215615a5057600080fd5b6000615a5e858286016156b4565b9250506020615a6f85828601615732565b9150509250929050565b60008060408385031215615a8c57600080fd5b6000615a9a858286016156b4565b9250506020615aab858286016158e4565b9150509250929050565b600060208284031215615ac757600080fd5b6000615ad584828501615747565b91505092915050565b60008060008060808587031215615af457600080fd5b600085013567ffffffffffffffff811115615b0e57600080fd5b615b1a87828801615786565b945050602085013567ffffffffffffffff811115615b3757600080fd5b615b4387828801615786565b935050604085013567ffffffffffffffff811115615b6057600080fd5b615b6c87828801615786565b925050606085013567ffffffffffffffff811115615b8957600080fd5b615b9587828801615786565b91505092959194509250565b60008060408385031215615bb457600080fd5b600083013567ffffffffffffffff811115615bce57600080fd5b615bda858286016157b0565b9250506020615beb858286016156b4565b9150509250929050565b600080600060608486031215615c0a57600080fd5b600084013567ffffffffffffffff811115615c2457600080fd5b615c30868287016157b0565b9350506020615c41868287016156b4565b9250506040615c52868287016156b4565b9150509250925092565b600060208284031215615c6e57600080fd5b6000615c7c848285016158e4565b91505092915050565b600080600060608486031215615c9a57600080fd5b6000615ca8868287016158e4565b9350506020615cb9868287016156b4565b9250506040615cca868287016156b4565b9150509250925092565b60008060408385031215615ce757600080fd5b6000615cf5858286016158e4565b9250506020615d06858286016158e4565b9150509250929050565b6000615d1c8383615fd6565b60408301905092915050565b615d3181616401565b82525050565b615d4081616375565b82525050565b615d4f81616375565b82525050565b615d5e81616363565b82525050565b6000615d6f8261631e565b615d798185616341565b9350615d848361630e565b8060005b83811015615db5578151615d9c8882615d10565b9750615da783616334565b925050600181019050615d88565b5085935050505092915050565b615dcb81616387565b82525050565b6000615ddc82616329565b615de68185616352565b9350615df6818560208601616446565b615dff8161647b565b840191505092915050565b6000615e17602083616352565b91507f43726561746f722073686172652073686f756c6420626520706f7369746976656000830152602082019050919050565b6000615e57601183616352565b91507f746f6b656e496420696e636f72726563740000000000000000000000000000006000830152602082019050919050565b6000615e97600b83616352565b91507f6e6f7420616c6c6f7765640000000000000000000000000000000000000000006000830152602082019050919050565b6000615ed7601983616352565b91507f4163636f756e742073686f756c642062652070726573656e74000000000000006000830152602082019050919050565b6000615f17603183616352565b91507f4552433732313a207472616e736665722063616c6c6572206973206e6f74206f60008301527f776e6572206e6f7220617070726f7665640000000000000000000000000000006020830152604082019050919050565b6000615f7d602e83616352565b91507f746f74616c20616d6f756e74206f662063726561746f7273207368617265207360008301527f686f756c642062652031303030300000000000000000000000000000000000006020830152604082019050919050565b604082016000820151615fec6000850182615d37565b506020820151615fff6020850182616014565b50505050565b61600e816163df565b82525050565b61601d816163e9565b82525050565b61602c816163e9565b82525050565b60006020820190506160476000830184615d55565b92915050565b60006060820190506160626000830186615d28565b81810360208301526160748185615dd1565b905081810360408301526160888184615dd1565b9050949350505050565b60006040820190506160a76000830185615d46565b6160b46020830184616023565b9392505050565b600060208201905081810360008301526160d58184615d64565b905092915050565b60006020820190506160f26000830184615dc2565b92915050565b600060208201905081810360008301526161128184615dd1565b905092915050565b6000602082019050818103600083015261613381615e0a565b9050919050565b6000602082019050818103600083015261615381615e4a565b9050919050565b6000602082019050818103600083015261617381615e8a565b9050919050565b6000602082019050818103600083015261619381615eca565b9050919050565b600060208201905081810360008301526161b381615f0a565b9050919050565b600060208201905081810360008301526161d381615f70565b9050919050565b60006020820190506161ef6000830184616005565b92915050565b600060408201905061620a6000830185616005565b818103602083015261621c8184615d64565b90509392505050565b6000604051905081810181811067ffffffffffffffff8211171561624c5761624b616479565b5b8060405250919050565b600067ffffffffffffffff82111561627157616270616479565b5b602082029050602081019050919050565b600067ffffffffffffffff82111561629d5761629c616479565b5b602082029050602081019050919050565b600067ffffffffffffffff8211156162c9576162c8616479565b5b601f19601f8301169050602081019050919050565b600067ffffffffffffffff8211156162f9576162f8616479565b5b601f19601f8301169050602081019050919050565b6000819050602082019050919050565b600081519050919050565b600081519050919050565b6000602082019050919050565b600082825260208201905092915050565b600082825260208201905092915050565b600061636e826163bf565b9050919050565b6000616380826163bf565b9050919050565b60008115159050919050565b60007fffffffff0000000000000000000000000000000000000000000000000000000082169050919050565b600073ffffffffffffffffffffffffffffffffffffffff82169050919050565b6000819050919050565b60006bffffffffffffffffffffffff82169050919050565b600061640c82616413565b9050919050565b600061641e82616425565b9050919050565b6000616430826163bf565b9050919050565b82818337600083830152505050565b60005b83811015616464578082015181840152602081019050616449565b83811115616473576000848401525b50505050565bfe5b6000601f19601f8301169050919050565b61649581616363565b81146164a057600080fd5b50565b6164ac81616375565b81146164b757600080fd5b50565b6164c381616387565b81146164ce57600080fd5b50565b6164da81616393565b81146164e557600080fd5b50565b6164f1816163df565b81146164fc57600080fd5b50565b616508816163e9565b811461651357600080fd5b5056fe456e756d657261626c655365743a20696e646578206f7574206f6620626f756e64734552433732313a207472616e7366657220746f206e6f6e20455243373231526563656976657220696d706c656d656e7465724f776e61626c653a206e6577206f776e657220697320746865207a65726f20616464726573734552433732313a207472616e7366657220746f20746865207a65726f206164647265737345434453413a20696e76616c6964207369676e6174757265202773272076616c7565416464726573733a20696e73756666696369656e742062616c616e636520666f722063616c6c4552433732313a206f70657261746f7220717565727920666f72206e6f6e6578697374656e7420746f6b656e4552433732313a20617070726f76652063616c6c6572206973206e6f74206f776e6572206e6f7220617070726f76656420666f7220616c6c4552433732313a2062616c616e636520717565727920666f7220746865207a65726f20616464726573734552433732313a206f776e657220717565727920666f72206e6f6e6578697374656e7420746f6b656e496e697469616c697a61626c653a20636f6e747261637420697320616c726561647920696e697469616c697a656445434453413a20696e76616c6964207369676e6174757265202776272076616c7565456e756d657261626c654d61703a20696e646578206f7574206f6620626f756e64734552433732313a20617070726f76656420717565727920666f72206e6f6e6578697374656e7420746f6b656e4552433732314d657461646174613a2055524920736574206f66206e6f6e6578697374656e7420746f6b656e4552433732313a207472616e73666572206f6620746f6b656e2074686174206973206e6f74206f776e4552433732314d657461646174613a2055524920717565727920666f72206e6f6e6578697374656e7420746f6b656e4552433732313a20617070726f76616c20746f2063757272656e74206f776e65724552433732313a207472616e736665722063616c6c6572206973206e6f74206f776e6572206e6f7220617070726f7665644552433732314275726e61626c653a2063616c6c6572206973206e6f74206f776e6572206e6f7220617070726f766564a2646970667358221220d366e8da77740bd9c20a23c095b1fc08d9abec90d23e35460a8eef9e9922e1c664736f6c63430007060033",
  "immutableReferences": {},
  "source": "// SPDX-License-Identifier: MIT\n\npragma solidity >=0.6.2 <0.8.0;\npragma abicoder v2;\n\nimport \"./ERC721Base.sol\";\n\ncontract ERC721Rarible is ERC721Base {\n\n    event CreateERC721Rarible(address owner, string name, string symbol);\n\n    function __ERC721Rarible_init(string memory _name, string memory _symbol, string memory baseURI, string memory contractURI) external initializer {\n        _setBaseURI(baseURI);\n        __ERC721Lazy_init_unchained();\n        __RoyaltiesV2Upgradeable_init_unchained();\n        __Context_init_unchained();\n        __ERC165_init_unchained();\n        __Ownable_init_unchained();\n        __ERC721Burnable_init_unchained();\n        __Mint721Validator_init_unchained();\n        __HasContractURI_init_unchained(contractURI);\n        __ERC721_init_unchained(_name, _symbol);\n        emit CreateERC721Rarible(_msgSender(), _name, _symbol);\n    }\n    uint256[50] private __gap;\n}\n",
  "sourcePath": "D:/Posao - Stefan/Stefan - razno/Gitcoin/Hackathon - Rarible/Nfticketizegraph/contracts/erc-721/ERC721Rarible.sol",
  "compiler": {
    "name": "solc",
    "version": "0.7.6+commit.7338295f.Emscripten.clang"
  },
  "schemaVersion": "3.4.1",
  "updatedAt": "2021-07-04T17:19:50.173Z",
  "devdoc": {
    "kind": "dev",
    "methods": {
      "approve(address,uint256)": {
        "details": "See {IERC721-approve}."
      },
      "balanceOf(address)": {
        "details": "See {IERC721-balanceOf}."
      },
      "baseURI()": {
        "details": "Returns the base URI set via {_setBaseURI}. This will be automatically added as a prefix in {tokenURI} to each token's URI, or to the token ID if no specific URI is set for that token ID."
      },
      "burn(uint256)": {
        "details": "Burns `tokenId`. See {ERC721-_burn}. Requirements: - The caller must own `tokenId` or be an approved operator."
      },
      "getApproved(uint256)": {
        "details": "See {IERC721-getApproved}."
      },
      "name()": {
        "details": "See {IERC721Metadata-name}."
      },
      "owner()": {
        "details": "Returns the address of the current owner."
      },
      "ownerOf(uint256)": {
        "details": "See {IERC721-ownerOf}."
      },
      "renounceOwnership()": {
        "details": "Leaves the contract without owner. It will not be possible to call `onlyOwner` functions anymore. Can only be called by the current owner. NOTE: Renouncing ownership will leave the contract without an owner, thereby removing any functionality that is only available to the owner."
      },
      "safeTransferFrom(address,address,uint256)": {
        "details": "See {IERC721-safeTransferFrom}."
      },
      "safeTransferFrom(address,address,uint256,bytes)": {
        "details": "See {IERC721-safeTransferFrom}."
      },
      "setApprovalForAll(address,bool)": {
        "details": "See {IERC721-setApprovalForAll}."
      },
      "supportsInterface(bytes4)": {
        "details": "See {IERC165-supportsInterface}. Time complexity O(1), guaranteed to always use less than 30 000 gas."
      },
      "symbol()": {
        "details": "See {IERC721Metadata-symbol}."
      },
      "tokenByIndex(uint256)": {
        "details": "See {IERC721Enumerable-tokenByIndex}."
      },
      "tokenOfOwnerByIndex(address,uint256)": {
        "details": "See {IERC721Enumerable-tokenOfOwnerByIndex}."
      },
      "tokenURI(uint256)": {
        "details": "See {IERC721Metadata-tokenURI}."
      },
      "totalSupply()": {
        "details": "See {IERC721Enumerable-totalSupply}."
      },
      "transferFrom(address,address,uint256)": {
        "details": "See {IERC721-transferFrom}."
      },
      "transferOwnership(address)": {
        "details": "Transfers ownership of the contract to a new account (`newOwner`). Can only be called by the current owner."
      }
    },
    "version": 1
  },
  "userdoc": {
    "kind": "user",
    "methods": {},
    "version": 1
  }
}