{
  "contractName": "ERC721RaribleUser",
  "abi": [
    {
      "anonymous": false,
      "inputs": [
        {
          "indexed": true,
          "internalType": "address",
          "name": "owner",
          "type": "address"
        },
        {
          "indexed": true,
          "internalType": "address",
          "name": "approved",
          "type": "address"
        },
        {
          "indexed": true,
          "internalType": "uint256",
          "name": "tokenId",
          "type": "uint256"
        }
      ],
      "name": "Approval",
      "type": "event"
    },
    {
      "anonymous": false,
      "inputs": [
        {
          "indexed": true,
          "internalType": "address",
          "name": "owner",
          "type": "address"
        },
        {
          "indexed": true,
          "internalType": "address",
          "name": "operator",
          "type": "address"
        },
        {
          "indexed": false,
          "internalType": "bool",
          "name": "approved",
          "type": "bool"
        }
      ],
      "name": "ApprovalForAll",
      "type": "event"
    },
    {
      "anonymous": false,
      "inputs": [
        {
          "indexed": false,
          "internalType": "address",
          "name": "owner",
          "type": "address"
        },
        {
          "indexed": false,
          "internalType": "string",
          "name": "name",
          "type": "string"
        },
        {
          "indexed": false,
          "internalType": "string",
          "name": "symbol",
          "type": "string"
        }
      ],
      "name": "CreateERC721RaribleUser",
      "type": "event"
    },
    {
      "anonymous": false,
      "inputs": [
        {
          "indexed": false,
          "internalType": "uint256",
          "name": "",
          "type": "uint256"
        },
        {
          "components": [
            {
              "internalType": "address payable",
              "name": "account",
              "type": "address"
            },
            {
              "internalType": "uint96",
              "name": "value",
              "type": "uint96"
            }
          ],
          "indexed": false,
          "internalType": "struct LibPart.Part[]",
          "name": "",
          "type": "tuple[]"
        }
      ],
      "name": "Creators",
      "type": "event"
    },
    {
      "anonymous": false,
      "inputs": [
        {
          "indexed": false,
          "internalType": "uint256",
          "name": "tokenId",
          "type": "uint256"
        },
        {
          "indexed": false,
          "internalType": "string",
          "name": "uri",
          "type": "string"
        },
        {
          "components": [
            {
              "internalType": "address payable",
              "name": "account",
              "type": "address"
            },
            {
              "internalType": "uint96",
              "name": "value",
              "type": "uint96"
            }
          ],
          "indexed": false,
          "internalType": "struct LibPart.Part[]",
          "name": "creators",
          "type": "tuple[]"
        }
      ],
      "name": "Mint",
      "type": "event"
    },
    {
      "anonymous": false,
      "inputs": [
        {
          "indexed": true,
          "internalType": "address",
          "name": "previousOwner",
          "type": "address"
        },
        {
          "indexed": true,
          "internalType": "address",
          "name": "newOwner",
          "type": "address"
        }
      ],
      "name": "OwnershipTransferred",
      "type": "event"
    },
    {
      "anonymous": false,
      "inputs": [
        {
          "indexed": false,
          "internalType": "uint256",
          "name": "tokenId",
          "type": "uint256"
        },
        {
          "components": [
            {
              "internalType": "address payable",
              "name": "account",
              "type": "address"
            },
            {
              "internalType": "uint96",
              "name": "value",
              "type": "uint96"
            }
          ],
          "indexed": false,
          "internalType": "struct LibPart.Part[]",
          "name": "royalties",
          "type": "tuple[]"
        }
      ],
      "name": "RoyaltiesSet",
      "type": "event"
    },
    {
      "anonymous": false,
      "inputs": [
        {
          "indexed": true,
          "internalType": "address",
          "name": "from",
          "type": "address"
        },
        {
          "indexed": true,
          "internalType": "address",
          "name": "to",
          "type": "address"
        },
        {
          "indexed": true,
          "internalType": "uint256",
          "name": "tokenId",
          "type": "uint256"
        }
      ],
      "name": "Transfer",
      "type": "event"
    },
    {
      "inputs": [
        {
          "internalType": "address",
          "name": "to",
          "type": "address"
        },
        {
          "internalType": "uint256",
          "name": "tokenId",
          "type": "uint256"
        }
      ],
      "name": "approve",
      "outputs": [],
      "stateMutability": "nonpayable",
      "type": "function"
    },
    {
      "inputs": [
        {
          "internalType": "address",
          "name": "owner",
          "type": "address"
        }
      ],
      "name": "balanceOf",
      "outputs": [
        {
          "internalType": "uint256",
          "name": "",
          "type": "uint256"
        }
      ],
      "stateMutability": "view",
      "type": "function"
    },
    {
      "inputs": [],
      "name": "baseURI",
      "outputs": [
        {
          "internalType": "string",
          "name": "",
          "type": "string"
        }
      ],
      "stateMutability": "view",
      "type": "function"
    },
    {
      "inputs": [
        {
          "internalType": "uint256",
          "name": "tokenId",
          "type": "uint256"
        }
      ],
      "name": "burn",
      "outputs": [],
      "stateMutability": "nonpayable",
      "type": "function"
    },
    {
      "inputs": [],
      "name": "contractURI",
      "outputs": [
        {
          "internalType": "string",
          "name": "",
          "type": "string"
        }
      ],
      "stateMutability": "view",
      "type": "function"
    },
    {
      "inputs": [
        {
          "internalType": "uint256",
          "name": "tokenId",
          "type": "uint256"
        }
      ],
      "name": "getApproved",
      "outputs": [
        {
          "internalType": "address",
          "name": "",
          "type": "address"
        }
      ],
      "stateMutability": "view",
      "type": "function"
    },
    {
      "inputs": [
        {
          "internalType": "uint256",
          "name": "_id",
          "type": "uint256"
        }
      ],
      "name": "getCreators",
      "outputs": [
        {
          "components": [
            {
              "internalType": "address payable",
              "name": "account",
              "type": "address"
            },
            {
              "internalType": "uint96",
              "name": "value",
              "type": "uint96"
            }
          ],
          "internalType": "struct LibPart.Part[]",
          "name": "",
          "type": "tuple[]"
        }
      ],
      "stateMutability": "view",
      "type": "function"
    },
    {
      "inputs": [
        {
          "internalType": "uint256",
          "name": "id",
          "type": "uint256"
        }
      ],
      "name": "getRoyalties",
      "outputs": [
        {
          "components": [
            {
              "internalType": "address payable",
              "name": "account",
              "type": "address"
            },
            {
              "internalType": "uint96",
              "name": "value",
              "type": "uint96"
            }
          ],
          "internalType": "struct LibPart.Part[]",
          "name": "",
          "type": "tuple[]"
        }
      ],
      "stateMutability": "view",
      "type": "function"
    },
    {
      "inputs": [
        {
          "internalType": "address",
          "name": "owner",
          "type": "address"
        },
        {
          "internalType": "address",
          "name": "operator",
          "type": "address"
        }
      ],
      "name": "isApprovedForAll",
      "outputs": [
        {
          "internalType": "bool",
          "name": "",
          "type": "bool"
        }
      ],
      "stateMutability": "view",
      "type": "function"
    },
    {
      "inputs": [],
      "name": "name",
      "outputs": [
        {
          "internalType": "string",
          "name": "",
          "type": "string"
        }
      ],
      "stateMutability": "view",
      "type": "function"
    },
    {
      "inputs": [],
      "name": "owner",
      "outputs": [
        {
          "internalType": "address",
          "name": "",
          "type": "address"
        }
      ],
      "stateMutability": "view",
      "type": "function"
    },
    {
      "inputs": [
        {
          "internalType": "uint256",
          "name": "tokenId",
          "type": "uint256"
        }
      ],
      "name": "ownerOf",
      "outputs": [
        {
          "internalType": "address",
          "name": "",
          "type": "address"
        }
      ],
      "stateMutability": "view",
      "type": "function"
    },
    {
      "inputs": [],
      "name": "renounceOwnership",
      "outputs": [],
      "stateMutability": "nonpayable",
      "type": "function"
    },
    {
      "inputs": [
        {
          "internalType": "uint256",
          "name": "",
          "type": "uint256"
        },
        {
          "internalType": "uint256",
          "name": "",
          "type": "uint256"
        }
      ],
      "name": "royalties",
      "outputs": [
        {
          "internalType": "address payable",
          "name": "account",
          "type": "address"
        },
        {
          "internalType": "uint96",
          "name": "value",
          "type": "uint96"
        }
      ],
      "stateMutability": "view",
      "type": "function"
    },
    {
      "inputs": [
        {
          "internalType": "address",
          "name": "from",
          "type": "address"
        },
        {
          "internalType": "address",
          "name": "to",
          "type": "address"
        },
        {
          "internalType": "uint256",
          "name": "tokenId",
          "type": "uint256"
        }
      ],
      "name": "safeTransferFrom",
      "outputs": [],
      "stateMutability": "nonpayable",
      "type": "function"
    },
    {
      "inputs": [
        {
          "internalType": "address",
          "name": "from",
          "type": "address"
        },
        {
          "internalType": "address",
          "name": "to",
          "type": "address"
        },
        {
          "internalType": "uint256",
          "name": "tokenId",
          "type": "uint256"
        },
        {
          "internalType": "bytes",
          "name": "_data",
          "type": "bytes"
        }
      ],
      "name": "safeTransferFrom",
      "outputs": [],
      "stateMutability": "nonpayable",
      "type": "function"
    },
    {
      "inputs": [
        {
          "internalType": "address",
          "name": "operator",
          "type": "address"
        },
        {
          "internalType": "bool",
          "name": "approved",
          "type": "bool"
        }
      ],
      "name": "setApprovalForAll",
      "outputs": [],
      "stateMutability": "nonpayable",
      "type": "function"
    },
    {
      "inputs": [
        {
          "internalType": "bytes4",
          "name": "interfaceId",
          "type": "bytes4"
        }
      ],
      "name": "supportsInterface",
      "outputs": [
        {
          "internalType": "bool",
          "name": "",
          "type": "bool"
        }
      ],
      "stateMutability": "view",
      "type": "function"
    },
    {
      "inputs": [],
      "name": "symbol",
      "outputs": [
        {
          "internalType": "string",
          "name": "",
          "type": "string"
        }
      ],
      "stateMutability": "view",
      "type": "function"
    },
    {
      "inputs": [
        {
          "internalType": "uint256",
          "name": "index",
          "type": "uint256"
        }
      ],
      "name": "tokenByIndex",
      "outputs": [
        {
          "internalType": "uint256",
          "name": "",
          "type": "uint256"
        }
      ],
      "stateMutability": "view",
      "type": "function"
    },
    {
      "inputs": [
        {
          "internalType": "address",
          "name": "owner",
          "type": "address"
        },
        {
          "internalType": "uint256",
          "name": "index",
          "type": "uint256"
        }
      ],
      "name": "tokenOfOwnerByIndex",
      "outputs": [
        {
          "internalType": "uint256",
          "name": "",
          "type": "uint256"
        }
      ],
      "stateMutability": "view",
      "type": "function"
    },
    {
      "inputs": [
        {
          "internalType": "uint256",
          "name": "tokenId",
          "type": "uint256"
        }
      ],
      "name": "tokenURI",
      "outputs": [
        {
          "internalType": "string",
          "name": "",
          "type": "string"
        }
      ],
      "stateMutability": "view",
      "type": "function"
    },
    {
      "inputs": [],
      "name": "totalSupply",
      "outputs": [
        {
          "internalType": "uint256",
          "name": "",
          "type": "uint256"
        }
      ],
      "stateMutability": "view",
      "type": "function"
    },
    {
      "inputs": [
        {
          "internalType": "address",
          "name": "from",
          "type": "address"
        },
        {
          "internalType": "address",
          "name": "to",
          "type": "address"
        },
        {
          "internalType": "uint256",
          "name": "tokenId",
          "type": "uint256"
        }
      ],
      "name": "transferFrom",
      "outputs": [],
      "stateMutability": "nonpayable",
      "type": "function"
    },
    {
      "inputs": [
        {
          "components": [
            {
              "internalType": "uint256",
              "name": "tokenId",
              "type": "uint256"
            },
            {
              "internalType": "string",
              "name": "uri",
              "type": "string"
            },
            {
              "components": [
                {
                  "internalType": "address payable",
                  "name": "account",
                  "type": "address"
                },
                {
                  "internalType": "uint96",
                  "name": "value",
                  "type": "uint96"
                }
              ],
              "internalType": "struct LibPart.Part[]",
              "name": "creators",
              "type": "tuple[]"
            },
            {
              "components": [
                {
                  "internalType": "address payable",
                  "name": "account",
                  "type": "address"
                },
                {
                  "internalType": "uint96",
                  "name": "value",
                  "type": "uint96"
                }
              ],
              "internalType": "struct LibPart.Part[]",
              "name": "royalties",
              "type": "tuple[]"
            },
            {
              "internalType": "bytes[]",
              "name": "signatures",
              "type": "bytes[]"
            }
          ],
          "internalType": "struct LibERC721LazyMint.Mint721Data",
          "name": "data",
          "type": "tuple"
        },
        {
          "internalType": "address",
          "name": "from",
          "type": "address"
        },
        {
          "internalType": "address",
          "name": "to",
          "type": "address"
        }
      ],
      "name": "transferFromOrMint",
      "outputs": [],
      "stateMutability": "nonpayable",
      "type": "function"
    },
    {
      "inputs": [
        {
          "internalType": "address",
          "name": "newOwner",
          "type": "address"
        }
      ],
      "name": "transferOwnership",
      "outputs": [],
      "stateMutability": "nonpayable",
      "type": "function"
    },
    {
      "inputs": [
        {
          "internalType": "uint256",
          "name": "_id",
          "type": "uint256"
        },
        {
          "internalType": "address",
          "name": "_from",
          "type": "address"
        },
        {
          "internalType": "address",
          "name": "_to",
          "type": "address"
        }
      ],
      "name": "updateAccount",
      "outputs": [],
      "stateMutability": "nonpayable",
      "type": "function"
    },
    {
      "inputs": [
        {
          "internalType": "string",
          "name": "_name",
          "type": "string"
        },
        {
          "internalType": "string",
          "name": "_symbol",
          "type": "string"
        },
        {
          "internalType": "string",
          "name": "baseURI",
          "type": "string"
        },
        {
          "internalType": "string",
          "name": "contractURI",
          "type": "string"
        },
        {
          "internalType": "address[]",
          "name": "operators",
          "type": "address[]"
        }
      ],
      "name": "__ERC721RaribleUser_init",
      "outputs": [],
      "stateMutability": "nonpayable",
      "type": "function"
    },
    {
      "inputs": [
        {
          "components": [
            {
              "internalType": "uint256",
              "name": "tokenId",
              "type": "uint256"
            },
            {
              "internalType": "string",
              "name": "uri",
              "type": "string"
            },
            {
              "components": [
                {
                  "internalType": "address payable",
                  "name": "account",
                  "type": "address"
                },
                {
                  "internalType": "uint96",
                  "name": "value",
                  "type": "uint96"
                }
              ],
              "internalType": "struct LibPart.Part[]",
              "name": "creators",
              "type": "tuple[]"
            },
            {
              "components": [
                {
                  "internalType": "address payable",
                  "name": "account",
                  "type": "address"
                },
                {
                  "internalType": "uint96",
                  "name": "value",
                  "type": "uint96"
                }
              ],
              "internalType": "struct LibPart.Part[]",
              "name": "royalties",
              "type": "tuple[]"
            },
            {
              "internalType": "bytes[]",
              "name": "signatures",
              "type": "bytes[]"
            }
          ],
          "internalType": "struct LibERC721LazyMint.Mint721Data",
          "name": "data",
          "type": "tuple"
        },
        {
          "internalType": "address",
          "name": "to",
          "type": "address"
        }
      ],
      "name": "mintAndTransfer",
      "outputs": [],
      "stateMutability": "nonpayable",
      "type": "function"
    }
  ],
  "bytecode": "0x608060405234801561001057600080fd5b5061682880620000216000396000f3fe608060405234801561001057600080fd5b50600436106101cf5760003560e01c8063715018a611610104578063b88d4fde116100a2578063e07f231911610071578063e07f231914610551578063e8a3d4851461056d578063e985e9c51461058b578063f2fde38b146105bb576101cf565b8063b88d4fde146104b9578063bb3bafd6146104d5578063c4552e2414610505578063c87b56dd14610521576101cf565b80638924af74116100de5780638924af74146104305780638da5cb5b1461046157806395d89b411461047f578063a22cb4651461049d576101cf565b8063715018a6146103da578063832fbb29146103e4578063891be97414610400576101cf565b80632f745c59116101715780634f6ccce71161014b5780634f6ccce71461032c5780636352211e1461035c5780636c0360eb1461038c57806370a08231146103aa576101cf565b80632f745c59146102c457806342842e0e146102f457806342966c6814610310576101cf565b8063095ea7b3116101ad578063095ea7b31461025257806318160ddd1461026e57806322a775b61461028c57806323b872dd146102a8576101cf565b806301ffc9a7146101d457806306fdde0314610204578063081812fc14610222575b600080fd5b6101ee60048036038101906101e99190615998565b6105d7565b6040516101fb919061602c565b60405180910390f35b61020c61063f565b6040516102199190616047565b60405180910390f35b61023c60048036038101906102379190615b6b565b6106e1565b6040516102499190615f81565b60405180910390f35b61026c6004803603810190610267919061595c565b61077c565b005b6102766108c0565b6040516102839190616149565b60405180910390f35b6102a660048036038101906102a19190615ab0565b6108d1565b005b6102c260048036038101906102bd9190615856565b610970565b005b6102de60048036038101906102d9919061595c565b6109e6565b6040516102eb9190616149565b60405180910390f35b61030e60048036038101906103099190615856565b610a41565b005b61032a60048036038101906103259190615b6b565b610a61565b005b61034660048036038101906103419190615b6b565b610ad3565b6040516103539190616149565b60405180910390f35b61037660048036038101906103719190615b6b565b610af6565b6040516103839190615f81565b60405180910390f35b610394610b2d565b6040516103a19190616047565b60405180910390f35b6103c460048036038101906103bf91906157f1565b610bcf565b6040516103d19190616149565b60405180910390f35b6103e2610ca4565b005b6103fe60048036038101906103f99190615b04565b610e14565b005b61041a60048036038101906104159190615b6b565b610e4a565b604051610427919061600a565b60405180910390f35b61044a60048036038101906104459190615be3565b610f4d565b604051610458929190615fe1565b60405180910390f35b610469610fc3565b6040516104769190615f81565b60405180910390f35b610487610fed565b6040516104949190616047565b60405180910390f35b6104b760048036038101906104b29190615920565b61108f565b005b6104d360048036038101906104ce91906158a5565b611245565b005b6104ef60048036038101906104ea9190615b6b565b6112bd565b6040516104fc919061600a565b60405180910390f35b61051f600480360381019061051a91906159c1565b6113c0565b005b61053b60048036038101906105369190615b6b565b611591565b6040516105489190616047565b60405180910390f35b61056b60048036038101906105669190615b94565b611862565b005b6105756118e7565b6040516105829190616047565b60405180910390f35b6105a560048036038101906105a0919061581a565b611986565b6040516105b2919061602c565b60405180910390f35b6105d560048036038101906105d091906157f1565b611a1a565b005b600060656000837bffffffffffffffffffffffffffffffffffffffffffffffffffffffff19167bffffffffffffffffffffffffffffffffffffffffffffffffffffffff1916815260200190815260200160002060009054906101000a900460ff169050919050565b6060609c8054600181600116156101000203166002900480601f0160208091040260200160405190810160405280929190818152602001828054600181600116156101000203166002900480156106d75780601f106106ac576101008083540402835291602001916106d7565b820191906000526020600020905b8154815290600101906020018083116106ba57829003601f168201915b5050505050905090565b60006106ec82611c0f565b610741576040517f08c379a000000000000000000000000000000000000000000000000000000000815260040180806020018281038252602c8152602001806166c1602c913960400191505060405180910390fd5b609a600083815260200190815260200160002060009054906101000a900473ffffffffffffffffffffffffffffffffffffffff169050919050565b600061078782610af6565b90508073ffffffffffffffffffffffffffffffffffffffff168373ffffffffffffffffffffffffffffffffffffffff16141561080e576040517f08c379a00000000000000000000000000000000000000000000000000000000081526004018080602001828103825260218152602001806167716021913960400191505060405180910390fd5b8073ffffffffffffffffffffffffffffffffffffffff1661082d611c2c565b73ffffffffffffffffffffffffffffffffffffffff16148061085c575061085b81610856611c2c565b611986565b5b6108b1576040517f08c379a00000000000000000000000000000000000000000000000000000000081526004018080602001828103825260388152602001806165c46038913960400191505060405180910390fd5b6108bb8383611c34565b505050565b60006108cc6098611ced565b905090565b81604001516000815181106108e257fe5b60200260200101516000015173ffffffffffffffffffffffffffffffffffffffff1661090c610fc3565b73ffffffffffffffffffffffffffffffffffffffff1614610962576040517f08c379a000000000000000000000000000000000000000000000000000000000815260040161095990616069565b60405180910390fd5b61096c8282611d02565b5050565b61098161097b611c2c565b82611f27565b6109d6576040517f08c379a00000000000000000000000000000000000000000000000000000000081526004018080602001828103825260318152602001806167926031913960400191505060405180910390fd5b6109e183838361201b565b505050565b6000610a3982609760008673ffffffffffffffffffffffffffffffffffffffff1673ffffffffffffffffffffffffffffffffffffffff16815260200190815260200160002061225e90919063ffffffff16565b905092915050565b610a5c83838360405180602001604052806000815250611245565b505050565b610a72610a6c611c2c565b82611f27565b610ac7576040517f08c379a00000000000000000000000000000000000000000000000000000000081526004018080602001828103825260308152602001806167c36030913960400191505060405180910390fd5b610ad081612278565b50565b600080610aea8360986123b290919063ffffffff16565b50905080915050919050565b6000610b26826040518060600160405280602981526020016166266029913960986123de9092919063ffffffff16565b9050919050565b6060609f8054600181600116156101000203166002900480601f016020809104026020016040519081016040528092919081815260200182805460018160011615610100020316600290048015610bc55780601f10610b9a57610100808354040283529160200191610bc5565b820191906000526020600020905b815481529060010190602001808311610ba857829003601f168201915b5050505050905090565b60008073ffffffffffffffffffffffffffffffffffffffff168273ffffffffffffffffffffffffffffffffffffffff161415610c56576040517f08c379a000000000000000000000000000000000000000000000000000000000815260040180806020018281038252602a8152602001806165fc602a913960400191505060405180910390fd5b610c9d609760008473ffffffffffffffffffffffffffffffffffffffff1673ffffffffffffffffffffffffffffffffffffffff1681526020019081526020016000206123fd565b9050919050565b610cac611c2c565b73ffffffffffffffffffffffffffffffffffffffff16610cca610fc3565b73ffffffffffffffffffffffffffffffffffffffff1614610d53576040517f08c379a00000000000000000000000000000000000000000000000000000000081526004018080602001828103825260208152602001807f4f776e61626c653a2063616c6c6572206973206e6f7420746865206f776e657281525060200191505060405180910390fd5b600073ffffffffffffffffffffffffffffffffffffffff16603360009054906101000a900473ffffffffffffffffffffffffffffffffffffffff1673ffffffffffffffffffffffffffffffffffffffff167f8be0079c531659141344cd1fd0a4f28419497f9722a3daafe3b4186f6b6457e060405160405180910390a36000603360006101000a81548173ffffffffffffffffffffffffffffffffffffffff021916908373ffffffffffffffffffffffffffffffffffffffff160217905550565b610e218360000151611c0f565b15610e3a57610e3582828560000151610a41565b610e45565b610e4483826108d1565b5b505050565b60606101946000838152602001908152602001600020805480602002602001604051908101604052809291908181526020016000905b82821015610f42578382906000526020600020016040518060400160405290816000820160009054906101000a900473ffffffffffffffffffffffffffffffffffffffff1673ffffffffffffffffffffffffffffffffffffffff1673ffffffffffffffffffffffffffffffffffffffff1681526020016000820160149054906101000a90046bffffffffffffffffffffffff166bffffffffffffffffffffffff166bffffffffffffffffffffffff168152505081526020019060010190610e80565b505050509050919050565b6101936020528160005260406000208181548110610f6a57600080fd5b90600052602060002001600091509150508060000160009054906101000a900473ffffffffffffffffffffffffffffffffffffffff16908060000160149054906101000a90046bffffffffffffffffffffffff16905082565b6000603360009054906101000a900473ffffffffffffffffffffffffffffffffffffffff16905090565b6060609d8054600181600116156101000203166002900480601f0160208091040260200160405190810160405280929190818152602001828054600181600116156101000203166002900480156110855780601f1061105a57610100808354040283529160200191611085565b820191906000526020600020905b81548152906001019060200180831161106857829003601f168201915b5050505050905090565b611097611c2c565b73ffffffffffffffffffffffffffffffffffffffff168273ffffffffffffffffffffffffffffffffffffffff161415611138576040517f08c379a00000000000000000000000000000000000000000000000000000000081526004018080602001828103825260198152602001807f4552433732313a20617070726f766520746f2063616c6c65720000000000000081525060200191505060405180910390fd5b80609b6000611145611c2c565b73ffffffffffffffffffffffffffffffffffffffff1673ffffffffffffffffffffffffffffffffffffffff16815260200190815260200160002060008473ffffffffffffffffffffffffffffffffffffffff1673ffffffffffffffffffffffffffffffffffffffff16815260200190815260200160002060006101000a81548160ff0219169083151502179055508173ffffffffffffffffffffffffffffffffffffffff166111f2611c2c565b73ffffffffffffffffffffffffffffffffffffffff167f17307eab39ab6107e8899845ad3d59bd9653f200f220920489ca2b5937696c318360405180821515815260200191505060405180910390a35050565b611256611250611c2c565b83611f27565b6112ab576040517f08c379a00000000000000000000000000000000000000000000000000000000081526004018080602001828103825260318152602001806167926031913960400191505060405180910390fd5b6112b784848484612412565b50505050565b60606101936000838152602001908152602001600020805480602002602001604051908101604052809291908181526020016000905b828210156113b5578382906000526020600020016040518060400160405290816000820160009054906101000a900473ffffffffffffffffffffffffffffffffffffffff1673ffffffffffffffffffffffffffffffffffffffff1673ffffffffffffffffffffffffffffffffffffffff1681526020016000820160149054906101000a90046bffffffffffffffffffffffff166bffffffffffffffffffffffff166bffffffffffffffffffffffff1681525050815260200190600101906112f3565b505050509050919050565b600060019054906101000a900460ff16806113df57506113de612484565b5b806113f5575060008054906101000a900460ff16155b61144a576040517f08c379a000000000000000000000000000000000000000000000000000000000815260040180806020018281038252602e81526020018061664f602e913960400191505060405180910390fd5b60008060019054906101000a900460ff16159050801561149a576001600060016101000a81548160ff02191690831515021790555060016000806101000a81548160ff0219169083151502179055505b6114a384612495565b6114ab6124af565b6114b36125bd565b6114bb6126bb565b6114c36127c9565b6114cb612970565b6114d3612a6e565b6114dc83612be0565b6114e4612d07565b6114ee8686612e15565b60005b82518110156115255761151883828151811061150957fe5b6020026020010151600161108f565b80806001019150506114f1565b507fd901a467fa419f379a67636a1de44cc2ed772beb43a0c05fa1ddcad5d59e991361154f611c2c565b878760405161156093929190615f9c565b60405180910390a180156115895760008060016101000a81548160ff0219169083151502179055505b505050505050565b606061159c82611c0f565b6115f1576040517f08c379a000000000000000000000000000000000000000000000000000000000815260040180806020018281038252602f815260200180616742602f913960400191505060405180910390fd5b6000609e60008481526020019081526020016000208054600181600116156101000203166002900480601f01602080910402602001604051908101604052809291908181526020018280546001816001161561010002031660029004801561169a5780601f1061166f5761010080835404028352916020019161169a565b820191906000526020600020905b81548152906001019060200180831161167d57829003601f168201915b5050505050905060006116ab610b2d565b90506000815114156116c157819250505061185d565b6000825111156117925780826040516020018083805190602001908083835b6020831061170357805182526020820191506020810190506020830392506116e0565b6001836020036101000a03801982511681845116808217855250505050505090500182805190602001908083835b602083106117545780518252602082019150602081019050602083039250611731565b6001836020036101000a038019825116818451168082178552505050505050905001925050506040516020818303038152906040529250505061185d565b8061179c85612f73565b6040516020018083805190602001908083835b602083106117d257805182526020820191506020810190506020830392506117af565b6001836020036101000a03801982511681845116808217855250505050505090500182805190602001908083835b602083106118235780518252602082019150602081019050602083039250611800565b6001836020036101000a03801982511681845116808217855250505050505090500192505050604051602081830303815290604052925050505b919050565b8173ffffffffffffffffffffffffffffffffffffffff16611881611c2c565b73ffffffffffffffffffffffffffffffffffffffff16146118d7576040517f08c379a00000000000000000000000000000000000000000000000000000000081526004016118ce906160c9565b60405180910390fd5b6118e28383836130ba565b505050565b6101c78054600181600116156101000203166002900480601f01602080910402602001604051908101604052809291908181526020018280546001816001161561010002031660029004801561197e5780601f106119535761010080835404028352916020019161197e565b820191906000526020600020905b81548152906001019060200180831161196157829003601f168201915b505050505081565b6000609b60008473ffffffffffffffffffffffffffffffffffffffff1673ffffffffffffffffffffffffffffffffffffffff16815260200190815260200160002060008373ffffffffffffffffffffffffffffffffffffffff1673ffffffffffffffffffffffffffffffffffffffff16815260200190815260200160002060009054906101000a900460ff16905092915050565b611a22611c2c565b73ffffffffffffffffffffffffffffffffffffffff16611a40610fc3565b73ffffffffffffffffffffffffffffffffffffffff1614611ac9576040517f08c379a00000000000000000000000000000000000000000000000000000000081526004018080602001828103825260208152602001807f4f776e61626c653a2063616c6c6572206973206e6f7420746865206f776e657281525060200191505060405180910390fd5b600073ffffffffffffffffffffffffffffffffffffffff168173ffffffffffffffffffffffffffffffffffffffff161415611b4f576040517f08c379a00000000000000000000000000000000000000000000000000000000081526004018080602001828103825260268152602001806165066026913960400191505060405180910390fd5b8073ffffffffffffffffffffffffffffffffffffffff16603360009054906101000a900473ffffffffffffffffffffffffffffffffffffffff1673ffffffffffffffffffffffffffffffffffffffff167f8be0079c531659141344cd1fd0a4f28419497f9722a3daafe3b4186f6b6457e060405160405180910390a380603360006101000a81548173ffffffffffffffffffffffffffffffffffffffff021916908373ffffffffffffffffffffffffffffffffffffffff16021790555050565b6000611c258260986131e190919063ffffffff16565b9050919050565b600033905090565b81609a600083815260200190815260200160002060006101000a81548173ffffffffffffffffffffffffffffffffffffffff021916908373ffffffffffffffffffffffffffffffffffffffff160217905550808273ffffffffffffffffffffffffffffffffffffffff16611ca783610af6565b73ffffffffffffffffffffffffffffffffffffffff167f8c5be1e5ebec7d5bd14f71427d1e84f3dd0314c0f7b2291e5b200ac8c7c3b92560405160405180910390a45050565b6000611cfb826000016131fb565b9050919050565b600060608360000151901c90506000611d19611c2c565b90508360400151600081518110611d2c57fe5b60200260200101516000015173ffffffffffffffffffffffffffffffffffffffff168273ffffffffffffffffffffffffffffffffffffffff1614611da5576040517f08c379a0000000000000000000000000000000000000000000000000000000008152600401611d9c906160a9565b60405180910390fd5b83608001515184604001515114611dbb57600080fd5b8073ffffffffffffffffffffffffffffffffffffffff168273ffffffffffffffffffffffffffffffffffffffff161480611dfb5750611dfa8282611986565b5b611e3a576040517f08c379a0000000000000000000000000000000000000000000000000000000008152600401611e3190616109565b60405180910390fd5b6000611e458561320c565b905060005b856040015151811015611edb57600086604001518281518110611e6957fe5b60200260200101516000015190508373ffffffffffffffffffffffffffffffffffffffff168173ffffffffffffffffffffffffffffffffffffffff1614611ecd57611ecc818489608001518581518110611ebf57fe5b602002602001015161347e565b5b508080600101915050611e4a565b50611eea84866000015161348e565b611efc85600001518660600151613682565b611f0e856000015186604001516138cd565b611f2085600001518660200151613b67565b5050505050565b6000611f3282611c0f565b611f87576040517f08c379a000000000000000000000000000000000000000000000000000000000815260040180806020018281038252602c815260200180616598602c913960400191505060405180910390fd5b6000611f9283610af6565b90508073ffffffffffffffffffffffffffffffffffffffff168473ffffffffffffffffffffffffffffffffffffffff16148061200157508373ffffffffffffffffffffffffffffffffffffffff16611fe9846106e1565b73ffffffffffffffffffffffffffffffffffffffff16145b8061201257506120118185611986565b5b91505092915050565b8273ffffffffffffffffffffffffffffffffffffffff1661203b82610af6565b73ffffffffffffffffffffffffffffffffffffffff16146120a7576040517f08c379a00000000000000000000000000000000000000000000000000000000081526004018080602001828103825260298152602001806167196029913960400191505060405180910390fd5b600073ffffffffffffffffffffffffffffffffffffffff168273ffffffffffffffffffffffffffffffffffffffff16141561212d576040517f08c379a000000000000000000000000000000000000000000000000000000000815260040180806020018281038252602481526020018061652c6024913960400191505060405180910390fd5b612138838383613bf1565b612143600082611c34565b61219481609760008673ffffffffffffffffffffffffffffffffffffffff1673ffffffffffffffffffffffffffffffffffffffff168152602001908152602001600020613bf690919063ffffffff16565b506121e681609760008573ffffffffffffffffffffffffffffffffffffffff1673ffffffffffffffffffffffffffffffffffffffff168152602001908152602001600020613c1090919063ffffffff16565b506121fd81836098613c2a9092919063ffffffff16565b50808273ffffffffffffffffffffffffffffffffffffffff168473ffffffffffffffffffffffffffffffffffffffff167fddf252ad1be2c89b69c2b068fc378daa952ba7f163c4a11628f55a4df523b3ef60405160405180910390a4505050565b600061226d8360000183613c5f565b60001c905092915050565b600061228382610af6565b905061229181600084613bf1565b61229c600083611c34565b6000609e6000848152602001908152602001600020805460018160011615610100020316600290049050146122eb57609e600083815260200190815260200160002060006122ea91906152c9565b5b61233c82609760008473ffffffffffffffffffffffffffffffffffffffff1673ffffffffffffffffffffffffffffffffffffffff168152602001908152602001600020613bf690919063ffffffff16565b50612351826098613ce290919063ffffffff16565b5081600073ffffffffffffffffffffffffffffffffffffffff168273ffffffffffffffffffffffffffffffffffffffff167fddf252ad1be2c89b69c2b068fc378daa952ba7f163c4a11628f55a4df523b3ef60405160405180910390a45050565b6000806000806123c58660000186613cfc565b915091508160001c8160001c9350935050509250929050565b60006123f1846000018460001b84613d95565b60001c90509392505050565b600061240b82600001613e8b565b9050919050565b61241d84848461201b565b61242984848484613e9c565b61247e576040517f08c379a00000000000000000000000000000000000000000000000000000000081526004018080602001828103825260328152602001806164d46032913960400191505060405180910390fd5b50505050565b600061248f306140b5565b15905090565b80609f90805190602001906124ab929190615311565b5050565b600060019054906101000a900460ff16806124ce57506124cd612484565b5b806124e4575060008054906101000a900460ff16155b612539576040517f08c379a000000000000000000000000000000000000000000000000000000000815260040180806020018281038252602e81526020018061664f602e913960400191505060405180910390fd5b60008060019054906101000a900460ff161590508015612589576001600060016101000a81548160ff02191690831515021790555060016000806101000a81548160ff0219169083151502179055505b612599638486f69f60e01b6140c8565b80156125ba5760008060016101000a81548160ff0219169083151502179055505b50565b600060019054906101000a900460ff16806125dc57506125db612484565b5b806125f2575060008054906101000a900460ff16155b612647576040517f08c379a000000000000000000000000000000000000000000000000000000000815260040180806020018281038252602e81526020018061664f602e913960400191505060405180910390fd5b60008060019054906101000a900460ff161590508015612697576001600060016101000a81548160ff02191690831515021790555060016000806101000a81548160ff0219169083151502179055505b80156126b85760008060016101000a81548160ff0219169083151502179055505b50565b600060019054906101000a900460ff16806126da57506126d9612484565b5b806126f0575060008054906101000a900460ff16155b612745576040517f08c379a000000000000000000000000000000000000000000000000000000000815260040180806020018281038252602e81526020018061664f602e913960400191505060405180910390fd5b60008060019054906101000a900460ff161590508015612795576001600060016101000a81548160ff02191690831515021790555060016000806101000a81548160ff0219169083151502179055505b6127a56301ffc9a760e01b6140c8565b80156127c65760008060016101000a81548160ff0219169083151502179055505b50565b600060019054906101000a900460ff16806127e857506127e7612484565b5b806127fe575060008054906101000a900460ff16155b612853576040517f08c379a000000000000000000000000000000000000000000000000000000000815260040180806020018281038252602e81526020018061664f602e913960400191505060405180910390fd5b60008060019054906101000a900460ff1615905080156128a3576001600060016101000a81548160ff02191690831515021790555060016000806101000a81548160ff0219169083151502179055505b60006128ad611c2c565b905080603360006101000a81548173ffffffffffffffffffffffffffffffffffffffff021916908373ffffffffffffffffffffffffffffffffffffffff1602179055508073ffffffffffffffffffffffffffffffffffffffff16600073ffffffffffffffffffffffffffffffffffffffff167f8be0079c531659141344cd1fd0a4f28419497f9722a3daafe3b4186f6b6457e060405160405180910390a350801561296d5760008060016101000a81548160ff0219169083151502179055505b50565b600060019054906101000a900460ff168061298f575061298e612484565b5b806129a5575060008054906101000a900460ff16155b6129fa576040517f08c379a000000000000000000000000000000000000000000000000000000000815260040180806020018281038252602e81526020018061664f602e913960400191505060405180910390fd5b60008060019054906101000a900460ff161590508015612a4a576001600060016101000a81548160ff02191690831515021790555060016000806101000a81548160ff0219169083151502179055505b8015612a6b5760008060016101000a81548160ff0219169083151502179055505b50565b600060019054906101000a900460ff1680612a8d5750612a8c612484565b5b80612aa3575060008054906101000a900460ff16155b612af8576040517f08c379a000000000000000000000000000000000000000000000000000000000815260040180806020018281038252602e81526020018061664f602e913960400191505060405180910390fd5b60008060019054906101000a900460ff161590508015612b48576001600060016101000a81548160ff02191690831515021790555060016000806101000a81548160ff0219169083151502179055505b612bbc6040518060400160405280600781526020017f4d696e74373231000000000000000000000000000000000000000000000000008152506040518060400160405280600181526020017f31000000000000000000000000000000000000000000000000000000000000008152506141d1565b8015612bdd5760008060016101000a81548160ff0219169083151502179055505b50565b600060019054906101000a900460ff1680612bff5750612bfe612484565b5b80612c15575060008054906101000a900460ff16155b612c6a576040517f08c379a000000000000000000000000000000000000000000000000000000000815260040180806020018281038252602e81526020018061664f602e913960400191505060405180910390fd5b60008060019054906101000a900460ff161590508015612cba576001600060016101000a81548160ff02191690831515021790555060016000806101000a81548160ff0219169083151502179055505b816101c79080519060200190612cd1929190615311565b50612ce263e8a3d48560e01b6140c8565b8015612d035760008060016101000a81548160ff0219169083151502179055505b5050565b600060019054906101000a900460ff1680612d265750612d25612484565b5b80612d3c575060008054906101000a900460ff16155b612d91576040517f08c379a000000000000000000000000000000000000000000000000000000000815260040180806020018281038252602e81526020018061664f602e913960400191505060405180910390fd5b60008060019054906101000a900460ff161590508015612de1576001600060016101000a81548160ff02191690831515021790555060016000806101000a81548160ff0219169083151502179055505b612df16344c74bcc60e01b6140c8565b8015612e125760008060016101000a81548160ff0219169083151502179055505b50565b600060019054906101000a900460ff1680612e345750612e33612484565b5b80612e4a575060008054906101000a900460ff16155b612e9f576040517f08c379a000000000000000000000000000000000000000000000000000000000815260040180806020018281038252602e81526020018061664f602e913960400191505060405180910390fd5b60008060019054906101000a900460ff161590508015612eef576001600060016101000a81548160ff02191690831515021790555060016000806101000a81548160ff0219169083151502179055505b82609c9080519060200190612f05929190615311565b5081609d9080519060200190612f1c929190615311565b50612f2d6380ac58cd60e01b6140c8565b612f3d635b5e139f60e01b6140c8565b612f4d63780e9d6360e01b6140c8565b8015612f6e5760008060016101000a81548160ff0219169083151502179055505b505050565b60606000821415612fbb576040518060400160405280600181526020017f300000000000000000000000000000000000000000000000000000000000000081525090506130b5565b600082905060005b60008214612fe5578080600101915050600a8281612fdd57fe5b049150612fc3565b60008167ffffffffffffffff81118015612ffe57600080fd5b506040519080825280601f01601f1916602001820160405280156130315781602001600182028036833780820191505090505b50905060006001830390508593505b600084146130ad57600a848161305257fe5b0660300160f81b8282806001900393508151811061306c57fe5b60200101907effffffffffffffffffffffffffffffffffffffffffffffffffffffffffffff1916908160001a905350600a84816130a557fe5b049350613040565b819450505050505b919050565b6000610193600085815260200190815260200160002080549050905060005b818110156131da578373ffffffffffffffffffffffffffffffffffffffff166101936000878152602001908152602001600020828154811061311757fe5b9060005260206000200160000160009054906101000a900473ffffffffffffffffffffffffffffffffffffffff1673ffffffffffffffffffffffffffffffffffffffff1614156131cd57826101936000878152602001908152602001600020828154811061318157fe5b9060005260206000200160000160006101000a81548173ffffffffffffffffffffffffffffffffffffffff021916908373ffffffffffffffffffffffffffffffffffffffff1602179055505b80806001019150506130d9565b5050505050565b60006131f3836000018360001b6142db565b905092915050565b600081600001805490509050919050565b60008082606001515167ffffffffffffffff8111801561322b57600080fd5b5060405190808252806020026020018201604052801561325a5781602001602082028036833780820191505090505b50905060005b8360600151518110156132b25761328d8460600151828151811061328057fe5b60200260200101516142fe565b82828151811061329957fe5b6020026020010181815250508080600101915050613260565b50600083604001515167ffffffffffffffff811180156132d157600080fd5b506040519080825280602002602001820160405280156133005781602001602082028036833780820191505090505b50905060005b846040015151811015613358576133338560400151828151811061332657fe5b60200260200101516142fe565b82828151811061333f57fe5b6020026020010181815250508080600101915050613306565b507ff64326045af5fd7e15297ba939f85b550474d3899daa47d2bc1ffbdb9ced344e84600001518560200151805190602001208360405160200180828051906020019060200280838360005b838110156133bf5780820151818401526020810190506133a4565b50505050905001915050604051602081830303815290604052805190602001208560405160200180828051906020019060200280838360005b838110156134135780820151818401526020810190506133f8565b505050509050019150506040516020818303038152906040528051906020012060405160200180868152602001858152602001848152602001838152602001828152602001955050505050506040516020818303038152906040528051906020012092505050919050565b61348983838361438a565b505050565b600073ffffffffffffffffffffffffffffffffffffffff168273ffffffffffffffffffffffffffffffffffffffff161415613531576040517f08c379a00000000000000000000000000000000000000000000000000000000081526004018080602001828103825260208152602001807f4552433732313a206d696e7420746f20746865207a65726f206164647265737381525060200191505060405180910390fd5b61353a81611c0f565b156135ad576040517f08c379a000000000000000000000000000000000000000000000000000000000815260040180806020018281038252601c8152602001807f4552433732313a20746f6b656e20616c7265616479206d696e7465640000000081525060200191505060405180910390fd5b6135b960008383613bf1565b61360a81609760008573ffffffffffffffffffffffffffffffffffffffff1673ffffffffffffffffffffffffffffffffffffffff168152602001908152602001600020613c1090919063ffffffff16565b5061362181836098613c2a9092919063ffffffff16565b50808273ffffffffffffffffffffffffffffffffffffffff16600073ffffffffffffffffffffffffffffffffffffffff167fddf252ad1be2c89b69c2b068fc378daa952ba7f163c4a11628f55a4df523b3ef60405160405180910390a45050565b60005b81518110156138be57600073ffffffffffffffffffffffffffffffffffffffff168282815181106136b257fe5b60200260200101516000015173ffffffffffffffffffffffffffffffffffffffff161415613748576040517f08c379a000000000000000000000000000000000000000000000000000000000815260040180806020018281038252601b8152602001807f526563697069656e742073686f756c642062652070726573656e74000000000081525060200191505060405180910390fd5b600082828151811061375657fe5b6020026020010151602001516bffffffffffffffffffffffff1614156137e4576040517f08c379a00000000000000000000000000000000000000000000000000000000081526004018080602001828103825260208152602001807f526f79616c74792076616c75652073686f756c6420626520706f73697469766581525060200191505060405180910390fd5b610193600084815260200190815260200160002082828151811061380457fe5b60200260200101519080600181540180825580915050600190039060005260206000200160009091909190915060008201518160000160006101000a81548173ffffffffffffffffffffffffffffffffffffffff021916908373ffffffffffffffffffffffffffffffffffffffff16021790555060208201518160000160146101000a8154816bffffffffffffffffffffffff02191690836bffffffffffffffffffffffff16021790555050508080600101915050613685565b506138c98282614702565b5050565b6000610194600084815260200190815260200160002090506000805b8351811015613ae357600073ffffffffffffffffffffffffffffffffffffffff1684828151811061391657fe5b60200260200101516000015173ffffffffffffffffffffffffffffffffffffffff161415613979576040517f08c379a0000000000000000000000000000000000000000000000000000000008152600401613970906160e9565b60405180910390fd5b600084828151811061398757fe5b6020026020010151602001516bffffffffffffffffffffffff1614156139e2576040517f08c379a00000000000000000000000000000000000000000000000000000000081526004016139d990616089565b60405180910390fd5b828482815181106139ef57fe5b60200260200101519080600181540180825580915050600190039060005260206000200160009091909190915060008201518160000160006101000a81548173ffffffffffffffffffffffffffffffffffffffff021916908373ffffffffffffffffffffffffffffffffffffffff16021790555060208201518160000160146101000a8154816bffffffffffffffffffffffff02191690836bffffffffffffffffffffffff1602179055505050613ad4848281518110613aab57fe5b6020026020010151602001516bffffffffffffffffffffffff168361473f90919063ffffffff16565b915080806001019150506138e9565b506127108114613b28576040517f08c379a0000000000000000000000000000000000000000000000000000000008152600401613b1f90616129565b60405180910390fd5b7f841ffb90d4cabdd1f16034f3fa831d79060febbb8167bdd54a49269365bdf78f8484604051613b59929190616164565b60405180910390a150505050565b613b7082611c0f565b613bc5576040517f08c379a000000000000000000000000000000000000000000000000000000000815260040180806020018281038252602c8152602001806166ed602c913960400191505060405180910390fd5b80609e60008481526020019081526020016000209080519060200190613bec929190615311565b505050565b505050565b6000613c08836000018360001b6147c7565b905092915050565b6000613c22836000018360001b6148af565b905092915050565b6000613c56846000018460001b8473ffffffffffffffffffffffffffffffffffffffff1660001b61491f565b90509392505050565b600081836000018054905011613cc0576040517f08c379a00000000000000000000000000000000000000000000000000000000081526004018080602001828103825260228152602001806164b26022913960400191505060405180910390fd5b826000018281548110613ccf57fe5b9060005260206000200154905092915050565b6000613cf4836000018360001b6149fb565b905092915050565b60008082846000018054905011613d5e576040517f08c379a000000000000000000000000000000000000000000000000000000000815260040180806020018281038252602281526020018061669f6022913960400191505060405180910390fd5b6000846000018481548110613d6f57fe5b906000526020600020906002020190508060000154816001015492509250509250929050565b60008084600101600085815260200190815260200160002054905060008114158390613e5c576040517f08c379a00000000000000000000000000000000000000000000000000000000081526004018080602001828103825283818151815260200191508051906020019080838360005b83811015613e21578082015181840152602081019050613e06565b50505050905090810190601f168015613e4e5780820380516001836020036101000a031916815260200191505b509250505060405180910390fd5b50846000016001820381548110613e6f57fe5b9060005260206000209060020201600101549150509392505050565b600081600001805490509050919050565b6000613ebd8473ffffffffffffffffffffffffffffffffffffffff166140b5565b613eca57600190506140ad565b600061403463150b7a0260e01b613edf611c2c565b888787604051602401808573ffffffffffffffffffffffffffffffffffffffff1681526020018473ffffffffffffffffffffffffffffffffffffffff16815260200183815260200180602001828103825283818151815260200191508051906020019080838360005b83811015613f63578082015181840152602081019050613f48565b50505050905090810190601f168015613f905780820380516001836020036101000a031916815260200191505b5095505050505050604051602081830303815290604052907bffffffffffffffffffffffffffffffffffffffffffffffffffffffff19166020820180517bffffffffffffffffffffffffffffffffffffffffffffffffffffffff83818316178352505050506040518060600160405280603281526020016164d4603291398773ffffffffffffffffffffffffffffffffffffffff16614b149092919063ffffffff16565b9050600081806020019051602081101561404d57600080fd5b8101908080519060200190929190505050905063150b7a0260e01b7bffffffffffffffffffffffffffffffffffffffffffffffffffffffff1916817bffffffffffffffffffffffffffffffffffffffffffffffffffffffff191614925050505b949350505050565b600080823b905060008111915050919050565b63ffffffff60e01b817bffffffffffffffffffffffffffffffffffffffffffffffffffffffff19161415614164576040517f08c379a000000000000000000000000000000000000000000000000000000000815260040180806020018281038252601c8152602001807f4552433136353a20696e76616c696420696e746572666163652069640000000081525060200191505060405180910390fd5b600160656000837bffffffffffffffffffffffffffffffffffffffffffffffffffffffff19167bffffffffffffffffffffffffffffffffffffffffffffffffffffffff1916815260200190815260200160002060006101000a81548160ff02191690831515021790555050565b600060019054906101000a900460ff16806141f057506141ef612484565b5b80614206575060008054906101000a900460ff16155b61425b576040517f08c379a000000000000000000000000000000000000000000000000000000000815260040180806020018281038252602e81526020018061664f602e913960400191505060405180910390fd5b60008060019054906101000a900460ff1615905080156142ab576001600060016101000a81548160ff02191690831515021790555060016000806101000a81548160ff0219169083151502179055505b6142b58383614b2c565b80156142d65760008060016101000a81548160ff0219169083151502179055505b505050565b600080836001016000848152602001908152602001600020541415905092915050565b60007f397e04204c1e1a60ee8724b71f8244e10ab5f2e9009854d80f602bda21b59ebb82600001518360200151604051602001808481526020018373ffffffffffffffffffffffffffffffffffffffff168152602001826bffffffffffffffffffffffff1681526020019350505050604051602081830303815290604052805190602001209050919050565b600061439583614c54565b90506143b68473ffffffffffffffffffffffffffffffffffffffff166140b5565b156145dd57631626ba7e60e01b7bffffffffffffffffffffffffffffffffffffffffffffffffffffffff19168473ffffffffffffffffffffffffffffffffffffffff16631626ba7e83856040518363ffffffff1660e01b81526004018083815260200180602001828103825283818151815260200191508051906020019080838360005b8381101561445557808201518184015260208101905061443a565b50505050905090810190601f1680156144825780820380516001836020036101000a031916815260200191505b50935050505060206040518083038186803b1580156144a057600080fd5b505afa1580156144b4573d6000803e3d6000fd5b505050506040513d60208110156144ca57600080fd5b81019080805190602001909291905050507bffffffffffffffffffffffffffffffffffffffffffffffffffffffff1916146040518060400160405280601c81526020017f7369676e617475726520766572696669636174696f6e206572726f7200000000815250906145d7576040517f08c379a00000000000000000000000000000000000000000000000000000000081526004018080602001828103825283818151815260200191508051906020019080838360005b8381101561459c578082015181840152602081019050614581565b50505050905090810190601f1680156145c95780820380516001836020036101000a031916815260200191505b509250505060405180910390fd5b506146fc565b8373ffffffffffffffffffffffffffffffffffffffff166146078383614cbb90919063ffffffff16565b73ffffffffffffffffffffffffffffffffffffffff16146040518060400160405280601c81526020017f7369676e617475726520766572696669636174696f6e206572726f7200000000815250906146fa576040517f08c379a00000000000000000000000000000000000000000000000000000000081526004018080602001828103825283818151815260200191508051906020019080838360005b838110156146bf5780820151818401526020810190506146a4565b50505050905090810190601f1680156146ec5780820380516001836020036101000a031916815260200191505b509250505060405180910390fd5b505b50505050565b7f3fa96d7b6bcbfe71ef171666d84db3cf52fa2d1c8afdb1cc8e486177f208b7df8282604051614733929190616164565b60405180910390a15050565b6000808284019050838110156147bd576040517f08c379a000000000000000000000000000000000000000000000000000000000815260040180806020018281038252601b8152602001807f536166654d6174683a206164646974696f6e206f766572666c6f77000000000081525060200191505060405180910390fd5b8091505092915050565b600080836001016000848152602001908152602001600020549050600081146148a3576000600182039050600060018660000180549050039050600086600001828154811061481257fe5b906000526020600020015490508087600001848154811061482f57fe5b906000526020600020018190555060018301876001016000838152602001908152602001600020819055508660000180548061486757fe5b600190038181906000526020600020016000905590558660010160008781526020019081526020016000206000905560019450505050506148a9565b60009150505b92915050565b60006148bb8383614d68565b614914578260000182908060018154018082558091505060019003906000526020600020016000909190919091505582600001805490508360010160008481526020019081526020016000208190555060019050614919565b600090505b92915050565b60008084600101600085815260200190815260200160002054905060008114156149c6578460000160405180604001604052808681526020018581525090806001815401808255809150506001900390600052602060002090600202016000909190919091506000820151816000015560208201518160010155505084600001805490508560010160008681526020019081526020016000208190555060019150506149f4565b828560000160018303815481106149d957fe5b90600052602060002090600202016001018190555060009150505b9392505050565b60008083600101600084815260200190815260200160002054905060008114614b085760006001820390506000600186600001805490500390506000866000018281548110614a4657fe5b9060005260206000209060020201905080876000018481548110614a6657fe5b9060005260206000209060020201600082015481600001556001820154816001015590505060018301876001016000836000015481526020019081526020016000208190555086600001805480614ab957fe5b6001900381819060005260206000209060020201600080820160009055600182016000905550509055866001016000878152602001908152602001600020600090556001945050505050614b0e565b60009150505b92915050565b6060614b238484600085614d8b565b90509392505050565b600060019054906101000a900460ff1680614b4b5750614b4a612484565b5b80614b61575060008054906101000a900460ff16155b614bb6576040517f08c379a000000000000000000000000000000000000000000000000000000000815260040180806020018281038252602e81526020018061664f602e913960400191505060405180910390fd5b60008060019054906101000a900460ff161590508015614c06576001600060016101000a81548160ff02191690831515021790555060016000806101000a81548160ff0219169083151502179055505b6000838051906020012090506000838051906020012090508160fb819055508060fc8190555050508015614c4f5760008060016101000a81548160ff0219169083151502179055505b505050565b6000614c5e614f33565b8260405160200180807f190100000000000000000000000000000000000000000000000000000000000081525060020183815260200182815260200192505050604051602081830303815290604052805190602001209050919050565b60006041825114614d34576040517f08c379a000000000000000000000000000000000000000000000000000000000815260040180806020018281038252601f8152602001807f45434453413a20696e76616c6964207369676e6174757265206c656e6774680081525060200191505060405180910390fd5b60008060006020850151925060408501519150606085015160001a9050614d5d86828585614f73565b935050505092915050565b600080836001016000848152602001908152602001600020541415905092915050565b606082471015614de6576040517f08c379a00000000000000000000000000000000000000000000000000000000081526004018080602001828103825260268152602001806165726026913960400191505060405180910390fd5b614def856140b5565b614e61576040517f08c379a000000000000000000000000000000000000000000000000000000000815260040180806020018281038252601d8152602001807f416464726573733a2063616c6c20746f206e6f6e2d636f6e747261637400000081525060200191505060405180910390fd5b6000808673ffffffffffffffffffffffffffffffffffffffff1685876040518082805190602001908083835b60208310614eb05780518252602082019150602081019050602083039250614e8d565b6001836020036101000a03801982511681845116808217855250505050505090500191505060006040518083038185875af1925050503d8060008114614f12576040519150601f19603f3d011682016040523d82523d6000602084013e614f17565b606091505b5091509150614f27828286615172565b92505050949350505050565b6000614f6e7f8b73c3c69bb8fe3d512ecc4cf759cc79239f7b179b0ffacaa9a75d522b39400f614f6161523e565b614f69615248565b615252565b905090565b60007f7fffffffffffffffffffffffffffffff5d576e7357a4501ddfe92f46681b20a08260001c1115614ff1576040517f08c379a00000000000000000000000000000000000000000000000000000000081526004018080602001828103825260228152602001806165506022913960400191505060405180910390fd5b601b8460ff1614806150065750601c8460ff16145b61505b576040517f08c379a000000000000000000000000000000000000000000000000000000000815260040180806020018281038252602281526020018061667d6022913960400191505060405180910390fd5b600060018686868660405160008152602001604052604051808581526020018460ff1681526020018381526020018281526020019450505050506020604051602081039080840390855afa1580156150b7573d6000803e3d6000fd5b505050602060405103519050600073ffffffffffffffffffffffffffffffffffffffff168173ffffffffffffffffffffffffffffffffffffffff161415615166576040517f08c379a00000000000000000000000000000000000000000000000000000000081526004018080602001828103825260188152602001807f45434453413a20696e76616c6964207369676e6174757265000000000000000081525060200191505060405180910390fd5b80915050949350505050565b6060831561518257829050615237565b6000835111156151955782518084602001fd5b816040517f08c379a00000000000000000000000000000000000000000000000000000000081526004018080602001828103825283818151815260200191508051906020019080838360005b838110156151fc5780820151818401526020810190506151e1565b50505050905090810190601f1680156152295780820380516001836020036101000a031916815260200191505b509250505060405180910390fd5b9392505050565b600060fb54905090565b600060fc54905090565b600083838361525f6152c1565b30604051602001808681526020018581526020018481526020018381526020018273ffffffffffffffffffffffffffffffffffffffff168152602001955050505050506040516020818303038152906040528051906020012090509392505050565b600046905090565b50805460018160011615610100020316600290046000825580601f106152ef575061530e565b601f01602090049060005260206000209081019061530d919061539f565b5b50565b828054600181600116156101000203166002900490600052602060002090601f016020900481019282615347576000855561538e565b82601f1061536057805160ff191683800117855561538e565b8280016001018555821561538e579182015b8281111561538d578251825591602001919060010190615372565b5b50905061539b919061539f565b5090565b5b808211156153b85760008160009055506001016153a0565b5090565b60006153cf6153ca846161c5565b616194565b905080838252602082019050828560208602820111156153ee57600080fd5b60005b8581101561541e5781615404888261556d565b8452602084019350602083019250506001810190506153f1565b5050509392505050565b600061543b615436846161f1565b616194565b9050808382526020820190508260005b8581101561547b5781358501615461888261563f565b84526020840193506020830192505060018101905061544b565b5050509392505050565b60006154986154938461621d565b616194565b905080838252602082019050828560408602820111156154b757600080fd5b60005b858110156154e757816154cd888261577b565b8452602084019350604083019250506001810190506154ba565b5050509392505050565b60006155046154ff84616249565b616194565b90508281526020810184848401111561551c57600080fd5b6155278482856163d2565b509392505050565b600061554261553d84616279565b616194565b90508281526020810184848401111561555a57600080fd5b6155658482856163d2565b509392505050565b60008135905061557c81616427565b92915050565b6000813590506155918161643e565b92915050565b600082601f8301126155a857600080fd5b81356155b88482602086016153bc565b91505092915050565b600082601f8301126155d257600080fd5b81356155e2848260208601615428565b91505092915050565b600082601f8301126155fc57600080fd5b813561560c848260208601615485565b91505092915050565b60008135905061562481616455565b92915050565b6000813590506156398161646c565b92915050565b600082601f83011261565057600080fd5b81356156608482602086016154f1565b91505092915050565b600082601f83011261567a57600080fd5b813561568a84826020860161552f565b91505092915050565b600060a082840312156156a557600080fd5b6156af60a0616194565b905060006156bf848285016157c7565b600083015250602082013567ffffffffffffffff8111156156df57600080fd5b6156eb84828501615669565b602083015250604082013567ffffffffffffffff81111561570b57600080fd5b615717848285016155eb565b604083015250606082013567ffffffffffffffff81111561573757600080fd5b615743848285016155eb565b606083015250608082013567ffffffffffffffff81111561576357600080fd5b61576f848285016155c1565b60808301525092915050565b60006040828403121561578d57600080fd5b6157976040616194565b905060006157a784828501615582565b60008301525060206157bb848285016157dc565b60208301525092915050565b6000813590506157d681616483565b92915050565b6000813590506157eb8161649a565b92915050565b60006020828403121561580357600080fd5b60006158118482850161556d565b91505092915050565b6000806040838503121561582d57600080fd5b600061583b8582860161556d565b925050602061584c8582860161556d565b9150509250929050565b60008060006060848603121561586b57600080fd5b60006158798682870161556d565b935050602061588a8682870161556d565b925050604061589b868287016157c7565b9150509250925092565b600080600080608085870312156158bb57600080fd5b60006158c98782880161556d565b94505060206158da8782880161556d565b93505060406158eb878288016157c7565b925050606085013567ffffffffffffffff81111561590857600080fd5b6159148782880161563f565b91505092959194509250565b6000806040838503121561593357600080fd5b60006159418582860161556d565b925050602061595285828601615615565b9150509250929050565b6000806040838503121561596f57600080fd5b600061597d8582860161556d565b925050602061598e858286016157c7565b9150509250929050565b6000602082840312156159aa57600080fd5b60006159b88482850161562a565b91505092915050565b600080600080600060a086880312156159d957600080fd5b600086013567ffffffffffffffff8111156159f357600080fd5b6159ff88828901615669565b955050602086013567ffffffffffffffff811115615a1c57600080fd5b615a2888828901615669565b945050604086013567ffffffffffffffff811115615a4557600080fd5b615a5188828901615669565b935050606086013567ffffffffffffffff811115615a6e57600080fd5b615a7a88828901615669565b925050608086013567ffffffffffffffff811115615a9757600080fd5b615aa388828901615597565b9150509295509295909350565b60008060408385031215615ac357600080fd5b600083013567ffffffffffffffff811115615add57600080fd5b615ae985828601615693565b9250506020615afa8582860161556d565b9150509250929050565b600080600060608486031215615b1957600080fd5b600084013567ffffffffffffffff811115615b3357600080fd5b615b3f86828701615693565b9350506020615b508682870161556d565b9250506040615b618682870161556d565b9150509250925092565b600060208284031215615b7d57600080fd5b6000615b8b848285016157c7565b91505092915050565b600080600060608486031215615ba957600080fd5b6000615bb7868287016157c7565b9350506020615bc88682870161556d565b9250506040615bd98682870161556d565b9150509250925092565b60008060408385031215615bf657600080fd5b6000615c04858286016157c7565b9250506020615c15858286016157c7565b9150509250929050565b6000615c2b8383615f25565b60408301905092915050565b615c408161639c565b82525050565b615c4f81616310565b82525050565b615c5e81616310565b82525050565b615c6d816162fe565b82525050565b6000615c7e826162b9565b615c8881856162dc565b9350615c93836162a9565b8060005b83811015615cc4578151615cab8882615c1f565b9750615cb6836162cf565b925050600181019050615c97565b5085935050505092915050565b615cda81616322565b82525050565b6000615ceb826162c4565b615cf581856162ed565b9350615d058185602086016163e1565b615d0e81616416565b840191505092915050565b6000615d266017836162ed565b91507f6d696e746572206973206e6f7420746865206f776e65720000000000000000006000830152602082019050919050565b6000615d666020836162ed565b91507f43726561746f722073686172652073686f756c6420626520706f7369746976656000830152602082019050919050565b6000615da66011836162ed565b91507f746f6b656e496420696e636f72726563740000000000000000000000000000006000830152602082019050919050565b6000615de6600b836162ed565b91507f6e6f7420616c6c6f7765640000000000000000000000000000000000000000006000830152602082019050919050565b6000615e266019836162ed565b91507f4163636f756e742073686f756c642062652070726573656e74000000000000006000830152602082019050919050565b6000615e666031836162ed565b91507f4552433732313a207472616e736665722063616c6c6572206973206e6f74206f60008301527f776e6572206e6f7220617070726f7665640000000000000000000000000000006020830152604082019050919050565b6000615ecc602e836162ed565b91507f746f74616c20616d6f756e74206f662063726561746f7273207368617265207360008301527f686f756c642062652031303030300000000000000000000000000000000000006020830152604082019050919050565b604082016000820151615f3b6000850182615c46565b506020820151615f4e6020850182615f63565b50505050565b615f5d8161637a565b82525050565b615f6c81616384565b82525050565b615f7b81616384565b82525050565b6000602082019050615f966000830184615c64565b92915050565b6000606082019050615fb16000830186615c37565b8181036020830152615fc38185615ce0565b90508181036040830152615fd78184615ce0565b9050949350505050565b6000604082019050615ff66000830185615c55565b6160036020830184615f72565b9392505050565b600060208201905081810360008301526160248184615c73565b905092915050565b60006020820190506160416000830184615cd1565b92915050565b600060208201905081810360008301526160618184615ce0565b905092915050565b6000602082019050818103600083015261608281615d19565b9050919050565b600060208201905081810360008301526160a281615d59565b9050919050565b600060208201905081810360008301526160c281615d99565b9050919050565b600060208201905081810360008301526160e281615dd9565b9050919050565b6000602082019050818103600083015261610281615e19565b9050919050565b6000602082019050818103600083015261612281615e59565b9050919050565b6000602082019050818103600083015261614281615ebf565b9050919050565b600060208201905061615e6000830184615f54565b92915050565b60006040820190506161796000830185615f54565b818103602083015261618b8184615c73565b90509392505050565b6000604051905081810181811067ffffffffffffffff821117156161bb576161ba616414565b5b8060405250919050565b600067ffffffffffffffff8211156161e0576161df616414565b5b602082029050602081019050919050565b600067ffffffffffffffff82111561620c5761620b616414565b5b602082029050602081019050919050565b600067ffffffffffffffff82111561623857616237616414565b5b602082029050602081019050919050565b600067ffffffffffffffff82111561626457616263616414565b5b601f19601f8301169050602081019050919050565b600067ffffffffffffffff82111561629457616293616414565b5b601f19601f8301169050602081019050919050565b6000819050602082019050919050565b600081519050919050565b600081519050919050565b6000602082019050919050565b600082825260208201905092915050565b600082825260208201905092915050565b60006163098261635a565b9050919050565b600061631b8261635a565b9050919050565b60008115159050919050565b60007fffffffff0000000000000000000000000000000000000000000000000000000082169050919050565b600073ffffffffffffffffffffffffffffffffffffffff82169050919050565b6000819050919050565b60006bffffffffffffffffffffffff82169050919050565b60006163a7826163ae565b9050919050565b60006163b9826163c0565b9050919050565b60006163cb8261635a565b9050919050565b82818337600083830152505050565b60005b838110156163ff5780820151818401526020810190506163e4565b8381111561640e576000848401525b50505050565bfe5b6000601f19601f8301169050919050565b616430816162fe565b811461643b57600080fd5b50565b61644781616310565b811461645257600080fd5b50565b61645e81616322565b811461646957600080fd5b50565b6164758161632e565b811461648057600080fd5b50565b61648c8161637a565b811461649757600080fd5b50565b6164a381616384565b81146164ae57600080fd5b5056fe456e756d657261626c655365743a20696e646578206f7574206f6620626f756e64734552433732313a207472616e7366657220746f206e6f6e20455243373231526563656976657220696d706c656d656e7465724f776e61626c653a206e6577206f776e657220697320746865207a65726f20616464726573734552433732313a207472616e7366657220746f20746865207a65726f206164647265737345434453413a20696e76616c6964207369676e6174757265202773272076616c7565416464726573733a20696e73756666696369656e742062616c616e636520666f722063616c6c4552433732313a206f70657261746f7220717565727920666f72206e6f6e6578697374656e7420746f6b656e4552433732313a20617070726f76652063616c6c6572206973206e6f74206f776e6572206e6f7220617070726f76656420666f7220616c6c4552433732313a2062616c616e636520717565727920666f7220746865207a65726f20616464726573734552433732313a206f776e657220717565727920666f72206e6f6e6578697374656e7420746f6b656e496e697469616c697a61626c653a20636f6e747261637420697320616c726561647920696e697469616c697a656445434453413a20696e76616c6964207369676e6174757265202776272076616c7565456e756d657261626c654d61703a20696e646578206f7574206f6620626f756e64734552433732313a20617070726f76656420717565727920666f72206e6f6e6578697374656e7420746f6b656e4552433732314d657461646174613a2055524920736574206f66206e6f6e6578697374656e7420746f6b656e4552433732313a207472616e73666572206f6620746f6b656e2074686174206973206e6f74206f776e4552433732314d657461646174613a2055524920717565727920666f72206e6f6e6578697374656e7420746f6b656e4552433732313a20617070726f76616c20746f2063757272656e74206f776e65724552433732313a207472616e736665722063616c6c6572206973206e6f74206f776e6572206e6f7220617070726f7665644552433732314275726e61626c653a2063616c6c6572206973206e6f74206f776e6572206e6f7220617070726f766564a264697066735822122023eeb18eed2469afd96091419f646216c04624873be0212ad39158a47aa92bf264736f6c63430007060033",
  "immutableReferences": {},
  "source": "// SPDX-License-Identifier: MIT\n\npragma solidity >=0.6.2 <0.8.0;\npragma abicoder v2;\n\nimport \"@openzeppelin/contracts-upgradeable/access/OwnableUpgradeable.sol\";\nimport \"@openzeppelin/contracts-upgradeable/token/ERC721/ERC721BurnableUpgradeable.sol\";\nimport \"./ERC721Lazy.sol\";\nimport \"../HasContractURI.sol\";\n\ncontract ERC721RaribleUser is OwnableUpgradeable, ERC721BurnableUpgradeable, ERC721Lazy, HasContractURI {\n\n    event CreateERC721RaribleUser(address owner, string name, string symbol);\n\n    function __ERC721RaribleUser_init(string memory _name, string memory _symbol, string memory baseURI, string memory contractURI, address[] memory operators) external initializer {\n        _setBaseURI(baseURI);\n        __ERC721Lazy_init_unchained();\n        __Context_init_unchained();\n        __ERC165_init_unchained();\n        __Ownable_init_unchained();\n        __ERC721Burnable_init_unchained();\n        __Mint721Validator_init_unchained();\n        __HasContractURI_init_unchained(contractURI);\n        __RoyaltiesV2Upgradeable_init_unchained();\n        __ERC721_init_unchained(_name, _symbol);\n        for(uint i = 0; i < operators.length; i++) {\n            setApprovalForAll(operators[i], true);\n        }\n        emit CreateERC721RaribleUser(_msgSender(), _name, _symbol);\n    }\n\n    function mintAndTransfer(LibERC721LazyMint.Mint721Data memory data, address to) public override virtual {\n        require(owner() == data.creators[0].account, \"minter is not the owner\");\n        super.mintAndTransfer(data, to);\n    }\n    uint256[50] private __gap;\n}\n",
  "sourcePath": "D:/Posao - Stefan/Stefan - razno/Gitcoin/Hackathon - Rarible/Nfticketizegraph/contracts/erc-721/ERC721RaribleUser.sol",
  "compiler": {
    "name": "solc",
    "version": "0.7.6+commit.7338295f.Emscripten.clang"
  },
  "schemaVersion": "3.4.1",
  "updatedAt": "2021-07-04T17:19:50.184Z",
  "devdoc": {
    "kind": "dev",
    "methods": {
      "approve(address,uint256)": {
        "details": "See {IERC721-approve}."
      },
      "balanceOf(address)": {
        "details": "See {IERC721-balanceOf}."
      },
      "baseURI()": {
        "details": "Returns the base URI set via {_setBaseURI}. This will be automatically added as a prefix in {tokenURI} to each token's URI, or to the token ID if no specific URI is set for that token ID."
      },
      "burn(uint256)": {
        "details": "Burns `tokenId`. See {ERC721-_burn}. Requirements: - The caller must own `tokenId` or be an approved operator."
      },
      "getApproved(uint256)": {
        "details": "See {IERC721-getApproved}."
      },
      "isApprovedForAll(address,address)": {
        "details": "See {IERC721-isApprovedForAll}."
      },
      "name()": {
        "details": "See {IERC721Metadata-name}."
      },
      "owner()": {
        "details": "Returns the address of the current owner."
      },
      "ownerOf(uint256)": {
        "details": "See {IERC721-ownerOf}."
      },
      "renounceOwnership()": {
        "details": "Leaves the contract without owner. It will not be possible to call `onlyOwner` functions anymore. Can only be called by the current owner. NOTE: Renouncing ownership will leave the contract without an owner, thereby removing any functionality that is only available to the owner."
      },
      "safeTransferFrom(address,address,uint256)": {
        "details": "See {IERC721-safeTransferFrom}."
      },
      "safeTransferFrom(address,address,uint256,bytes)": {
        "details": "See {IERC721-safeTransferFrom}."
      },
      "setApprovalForAll(address,bool)": {
        "details": "See {IERC721-setApprovalForAll}."
      },
      "supportsInterface(bytes4)": {
        "details": "See {IERC165-supportsInterface}. Time complexity O(1), guaranteed to always use less than 30 000 gas."
      },
      "symbol()": {
        "details": "See {IERC721Metadata-symbol}."
      },
      "tokenByIndex(uint256)": {
        "details": "See {IERC721Enumerable-tokenByIndex}."
      },
      "tokenOfOwnerByIndex(address,uint256)": {
        "details": "See {IERC721Enumerable-tokenOfOwnerByIndex}."
      },
      "tokenURI(uint256)": {
        "details": "See {IERC721Metadata-tokenURI}."
      },
      "totalSupply()": {
        "details": "See {IERC721Enumerable-totalSupply}."
      },
      "transferFrom(address,address,uint256)": {
        "details": "See {IERC721-transferFrom}."
      },
      "transferOwnership(address)": {
        "details": "Transfers ownership of the contract to a new account (`newOwner`). Can only be called by the current owner."
      }
    },
    "version": 1
  },
  "userdoc": {
    "kind": "user",
    "methods": {},
    "version": 1
  }
}