{
  "contractName": "NFTicketize",
  "abi": [
    {
      "inputs": [],
      "stateMutability": "nonpayable",
      "type": "constructor"
    },
    {
      "anonymous": false,
      "inputs": [
        {
          "indexed": true,
          "internalType": "address",
          "name": "owner",
          "type": "address"
        },
        {
          "indexed": true,
          "internalType": "address",
          "name": "approved",
          "type": "address"
        },
        {
          "indexed": true,
          "internalType": "uint256",
          "name": "tokenId",
          "type": "uint256"
        }
      ],
      "name": "Approval",
      "type": "event"
    },
    {
      "anonymous": false,
      "inputs": [
        {
          "indexed": true,
          "internalType": "address",
          "name": "owner",
          "type": "address"
        },
        {
          "indexed": true,
          "internalType": "address",
          "name": "operator",
          "type": "address"
        },
        {
          "indexed": false,
          "internalType": "bool",
          "name": "approved",
          "type": "bool"
        }
      ],
      "name": "ApprovalForAll",
      "type": "event"
    },
    {
      "anonymous": false,
      "inputs": [
        {
          "indexed": false,
          "internalType": "uint256",
          "name": "id",
          "type": "uint256"
        },
        {
          "indexed": false,
          "internalType": "address",
          "name": "creator",
          "type": "address"
        },
        {
          "indexed": false,
          "internalType": "uint256",
          "name": "startDate",
          "type": "uint256"
        },
        {
          "indexed": false,
          "internalType": "string",
          "name": "metadataIpfsCid",
          "type": "string"
        }
      ],
      "name": "NewEvent",
      "type": "event"
    },
    {
      "anonymous": false,
      "inputs": [
        {
          "indexed": false,
          "internalType": "uint256",
          "name": "eventId",
          "type": "uint256"
        },
        {
          "indexed": false,
          "internalType": "uint256",
          "name": "ticketCategoryId",
          "type": "uint256"
        },
        {
          "indexed": false,
          "internalType": "uint256",
          "name": "id",
          "type": "uint256"
        },
        {
          "indexed": false,
          "internalType": "uint32",
          "name": "forBid",
          "type": "uint32"
        }
      ],
      "name": "NewTicket",
      "type": "event"
    },
    {
      "anonymous": false,
      "inputs": [
        {
          "indexed": false,
          "internalType": "uint256",
          "name": "eventId",
          "type": "uint256"
        },
        {
          "indexed": false,
          "internalType": "uint256",
          "name": "id",
          "type": "uint256"
        },
        {
          "indexed": false,
          "internalType": "uint32",
          "name": "currentMintTickets",
          "type": "uint32"
        },
        {
          "indexed": false,
          "internalType": "uint32",
          "name": "maxTickets",
          "type": "uint32"
        },
        {
          "indexed": false,
          "internalType": "uint256",
          "name": "ticketPrice",
          "type": "uint256"
        },
        {
          "indexed": false,
          "internalType": "uint256",
          "name": "resellTicketValue",
          "type": "uint256"
        },
        {
          "indexed": false,
          "internalType": "string",
          "name": "metadataIpfsCid",
          "type": "string"
        }
      ],
      "name": "NewTicketCategory",
      "type": "event"
    },
    {
      "anonymous": false,
      "inputs": [
        {
          "indexed": false,
          "internalType": "uint256",
          "name": "tokenId",
          "type": "uint256"
        },
        {
          "components": [
            {
              "internalType": "address payable",
              "name": "account",
              "type": "address"
            },
            {
              "internalType": "uint96",
              "name": "value",
              "type": "uint96"
            }
          ],
          "indexed": false,
          "internalType": "struct LibPart.Part[]",
          "name": "royalties",
          "type": "tuple[]"
        }
      ],
      "name": "RoyaltiesSet",
      "type": "event"
    },
    {
      "anonymous": false,
      "inputs": [
        {
          "indexed": true,
          "internalType": "address",
          "name": "from",
          "type": "address"
        },
        {
          "indexed": true,
          "internalType": "address",
          "name": "to",
          "type": "address"
        },
        {
          "indexed": true,
          "internalType": "uint256",
          "name": "tokenId",
          "type": "uint256"
        }
      ],
      "name": "Transfer",
      "type": "event"
    },
    {
      "anonymous": false,
      "inputs": [
        {
          "indexed": false,
          "internalType": "uint256",
          "name": "eventId",
          "type": "uint256"
        },
        {
          "indexed": false,
          "internalType": "uint256",
          "name": "ticketCategoryId",
          "type": "uint256"
        },
        {
          "indexed": false,
          "internalType": "uint256",
          "name": "id",
          "type": "uint256"
        },
        {
          "indexed": false,
          "internalType": "uint32",
          "name": "forBid",
          "type": "uint32"
        }
      ],
      "name": "UpdateTicket",
      "type": "event"
    },
    {
      "anonymous": false,
      "inputs": [
        {
          "indexed": false,
          "internalType": "uint256",
          "name": "eventId",
          "type": "uint256"
        },
        {
          "indexed": false,
          "internalType": "uint256",
          "name": "id",
          "type": "uint256"
        },
        {
          "indexed": false,
          "internalType": "uint32",
          "name": "currentMintTickets",
          "type": "uint32"
        },
        {
          "indexed": false,
          "internalType": "uint32",
          "name": "maxTickets",
          "type": "uint32"
        },
        {
          "indexed": false,
          "internalType": "uint256",
          "name": "ticketPrice",
          "type": "uint256"
        },
        {
          "indexed": false,
          "internalType": "uint256",
          "name": "resellTicketValue",
          "type": "uint256"
        },
        {
          "indexed": false,
          "internalType": "string",
          "name": "metadataIpfsCid",
          "type": "string"
        }
      ],
      "name": "UpdateTicketCategory",
      "type": "event"
    },
    {
      "inputs": [
        {
          "internalType": "address",
          "name": "to",
          "type": "address"
        },
        {
          "internalType": "uint256",
          "name": "tokenId",
          "type": "uint256"
        }
      ],
      "name": "approve",
      "outputs": [],
      "stateMutability": "nonpayable",
      "type": "function"
    },
    {
      "inputs": [
        {
          "internalType": "address",
          "name": "owner",
          "type": "address"
        }
      ],
      "name": "balanceOf",
      "outputs": [
        {
          "internalType": "uint256",
          "name": "",
          "type": "uint256"
        }
      ],
      "stateMutability": "view",
      "type": "function",
      "constant": true
    },
    {
      "inputs": [],
      "name": "baseURI",
      "outputs": [
        {
          "internalType": "string",
          "name": "",
          "type": "string"
        }
      ],
      "stateMutability": "view",
      "type": "function",
      "constant": true
    },
    {
      "inputs": [
        {
          "internalType": "uint256",
          "name": "",
          "type": "uint256"
        }
      ],
      "name": "events",
      "outputs": [
        {
          "internalType": "address payable",
          "name": "creator",
          "type": "address"
        },
        {
          "internalType": "uint256",
          "name": "startDate",
          "type": "uint256"
        },
        {
          "internalType": "string",
          "name": "metadataIpfsCid",
          "type": "string"
        },
        {
          "internalType": "bool",
          "name": "exist",
          "type": "bool"
        }
      ],
      "stateMutability": "view",
      "type": "function",
      "constant": true
    },
    {
      "inputs": [
        {
          "internalType": "uint256",
          "name": "tokenId",
          "type": "uint256"
        }
      ],
      "name": "getApproved",
      "outputs": [
        {
          "internalType": "address",
          "name": "",
          "type": "address"
        }
      ],
      "stateMutability": "view",
      "type": "function",
      "constant": true
    },
    {
      "inputs": [
        {
          "internalType": "uint256",
          "name": "id",
          "type": "uint256"
        }
      ],
      "name": "getRoyalties",
      "outputs": [
        {
          "components": [
            {
              "internalType": "address payable",
              "name": "account",
              "type": "address"
            },
            {
              "internalType": "uint96",
              "name": "value",
              "type": "uint96"
            }
          ],
          "internalType": "struct LibPart.Part[]",
          "name": "",
          "type": "tuple[]"
        }
      ],
      "stateMutability": "view",
      "type": "function",
      "constant": true
    },
    {
      "inputs": [
        {
          "internalType": "address",
          "name": "owner",
          "type": "address"
        },
        {
          "internalType": "address",
          "name": "operator",
          "type": "address"
        }
      ],
      "name": "isApprovedForAll",
      "outputs": [
        {
          "internalType": "bool",
          "name": "",
          "type": "bool"
        }
      ],
      "stateMutability": "view",
      "type": "function",
      "constant": true
    },
    {
      "inputs": [],
      "name": "name",
      "outputs": [
        {
          "internalType": "string",
          "name": "",
          "type": "string"
        }
      ],
      "stateMutability": "view",
      "type": "function",
      "constant": true
    },
    {
      "inputs": [
        {
          "internalType": "uint256",
          "name": "tokenId",
          "type": "uint256"
        }
      ],
      "name": "ownerOf",
      "outputs": [
        {
          "internalType": "address",
          "name": "",
          "type": "address"
        }
      ],
      "stateMutability": "view",
      "type": "function",
      "constant": true
    },
    {
      "inputs": [
        {
          "internalType": "uint256",
          "name": "",
          "type": "uint256"
        },
        {
          "internalType": "uint256",
          "name": "",
          "type": "uint256"
        }
      ],
      "name": "royalties",
      "outputs": [
        {
          "internalType": "address payable",
          "name": "account",
          "type": "address"
        },
        {
          "internalType": "uint96",
          "name": "value",
          "type": "uint96"
        }
      ],
      "stateMutability": "view",
      "type": "function",
      "constant": true
    },
    {
      "inputs": [
        {
          "internalType": "address",
          "name": "from",
          "type": "address"
        },
        {
          "internalType": "address",
          "name": "to",
          "type": "address"
        },
        {
          "internalType": "uint256",
          "name": "tokenId",
          "type": "uint256"
        }
      ],
      "name": "safeTransferFrom",
      "outputs": [],
      "stateMutability": "nonpayable",
      "type": "function"
    },
    {
      "inputs": [
        {
          "internalType": "address",
          "name": "from",
          "type": "address"
        },
        {
          "internalType": "address",
          "name": "to",
          "type": "address"
        },
        {
          "internalType": "uint256",
          "name": "tokenId",
          "type": "uint256"
        },
        {
          "internalType": "bytes",
          "name": "_data",
          "type": "bytes"
        }
      ],
      "name": "safeTransferFrom",
      "outputs": [],
      "stateMutability": "nonpayable",
      "type": "function"
    },
    {
      "inputs": [
        {
          "internalType": "address",
          "name": "operator",
          "type": "address"
        },
        {
          "internalType": "bool",
          "name": "approved",
          "type": "bool"
        }
      ],
      "name": "setApprovalForAll",
      "outputs": [],
      "stateMutability": "nonpayable",
      "type": "function"
    },
    {
      "inputs": [
        {
          "internalType": "bytes4",
          "name": "interfaceId",
          "type": "bytes4"
        }
      ],
      "name": "supportsInterface",
      "outputs": [
        {
          "internalType": "bool",
          "name": "",
          "type": "bool"
        }
      ],
      "stateMutability": "view",
      "type": "function",
      "constant": true
    },
    {
      "inputs": [],
      "name": "symbol",
      "outputs": [
        {
          "internalType": "string",
          "name": "",
          "type": "string"
        }
      ],
      "stateMutability": "view",
      "type": "function",
      "constant": true
    },
    {
      "inputs": [
        {
          "internalType": "uint256",
          "name": "",
          "type": "uint256"
        }
      ],
      "name": "ticketCategories",
      "outputs": [
        {
          "internalType": "uint256",
          "name": "eventId",
          "type": "uint256"
        },
        {
          "internalType": "uint32",
          "name": "currentMintTickets",
          "type": "uint32"
        },
        {
          "internalType": "uint32",
          "name": "maxTickets",
          "type": "uint32"
        },
        {
          "internalType": "uint256",
          "name": "ticketPrice",
          "type": "uint256"
        },
        {
          "internalType": "uint256",
          "name": "resellTicketValue",
          "type": "uint256"
        },
        {
          "internalType": "string",
          "name": "metadataIpfsCid",
          "type": "string"
        },
        {
          "internalType": "bool",
          "name": "exist",
          "type": "bool"
        }
      ],
      "stateMutability": "view",
      "type": "function",
      "constant": true
    },
    {
      "inputs": [
        {
          "internalType": "uint256",
          "name": "",
          "type": "uint256"
        }
      ],
      "name": "tickets",
      "outputs": [
        {
          "internalType": "uint256",
          "name": "eventId",
          "type": "uint256"
        },
        {
          "internalType": "uint256",
          "name": "ticketCategoryId",
          "type": "uint256"
        },
        {
          "internalType": "uint32",
          "name": "forBid",
          "type": "uint32"
        }
      ],
      "stateMutability": "view",
      "type": "function",
      "constant": true
    },
    {
      "inputs": [
        {
          "internalType": "uint256",
          "name": "index",
          "type": "uint256"
        }
      ],
      "name": "tokenByIndex",
      "outputs": [
        {
          "internalType": "uint256",
          "name": "",
          "type": "uint256"
        }
      ],
      "stateMutability": "view",
      "type": "function",
      "constant": true
    },
    {
      "inputs": [
        {
          "internalType": "address",
          "name": "owner",
          "type": "address"
        },
        {
          "internalType": "uint256",
          "name": "index",
          "type": "uint256"
        }
      ],
      "name": "tokenOfOwnerByIndex",
      "outputs": [
        {
          "internalType": "uint256",
          "name": "",
          "type": "uint256"
        }
      ],
      "stateMutability": "view",
      "type": "function",
      "constant": true
    },
    {
      "inputs": [
        {
          "internalType": "uint256",
          "name": "tokenId",
          "type": "uint256"
        }
      ],
      "name": "tokenURI",
      "outputs": [
        {
          "internalType": "string",
          "name": "",
          "type": "string"
        }
      ],
      "stateMutability": "view",
      "type": "function",
      "constant": true
    },
    {
      "inputs": [],
      "name": "totalSupply",
      "outputs": [
        {
          "internalType": "uint256",
          "name": "",
          "type": "uint256"
        }
      ],
      "stateMutability": "view",
      "type": "function",
      "constant": true
    },
    {
      "inputs": [
        {
          "internalType": "address",
          "name": "from",
          "type": "address"
        },
        {
          "internalType": "address",
          "name": "to",
          "type": "address"
        },
        {
          "internalType": "uint256",
          "name": "tokenId",
          "type": "uint256"
        }
      ],
      "name": "transferFrom",
      "outputs": [],
      "stateMutability": "nonpayable",
      "type": "function"
    },
    {
      "inputs": [
        {
          "internalType": "uint256",
          "name": "_startDate",
          "type": "uint256"
        },
        {
          "internalType": "string",
          "name": "_metadataIpfsCid",
          "type": "string"
        }
      ],
      "name": "createEvent",
      "outputs": [],
      "stateMutability": "nonpayable",
      "type": "function"
    },
    {
      "inputs": [
        {
          "internalType": "uint256",
          "name": "_eventId",
          "type": "uint256"
        },
        {
          "internalType": "uint32",
          "name": "_maxTickets",
          "type": "uint32"
        },
        {
          "internalType": "uint256",
          "name": "_ticketPrice",
          "type": "uint256"
        },
        {
          "internalType": "uint256",
          "name": "_resellTicketValue",
          "type": "uint256"
        },
        {
          "internalType": "string",
          "name": "_metadataIpfsCid",
          "type": "string"
        }
      ],
      "name": "createTicketCategory",
      "outputs": [],
      "stateMutability": "nonpayable",
      "type": "function"
    },
    {
      "inputs": [
        {
          "internalType": "uint256",
          "name": "_eventId",
          "type": "uint256"
        },
        {
          "internalType": "uint256",
          "name": "_ticketCategoryId",
          "type": "uint256"
        },
        {
          "internalType": "uint256[]",
          "name": "_tokenIdsForMint",
          "type": "uint256[]"
        }
      ],
      "name": "fillInformationsAboutTicket",
      "outputs": [],
      "stateMutability": "payable",
      "type": "function",
      "payable": true
    },
    {
      "inputs": [
        {
          "components": [
            {
              "internalType": "uint256",
              "name": "tokenId",
              "type": "uint256"
            },
            {
              "internalType": "string",
              "name": "uri",
              "type": "string"
            },
            {
              "components": [
                {
                  "internalType": "address payable",
                  "name": "account",
                  "type": "address"
                },
                {
                  "internalType": "uint96",
                  "name": "value",
                  "type": "uint96"
                }
              ],
              "internalType": "struct LibPart.Part[]",
              "name": "creators",
              "type": "tuple[]"
            },
            {
              "components": [
                {
                  "internalType": "address payable",
                  "name": "account",
                  "type": "address"
                },
                {
                  "internalType": "uint96",
                  "name": "value",
                  "type": "uint96"
                }
              ],
              "internalType": "struct LibPart.Part[]",
              "name": "royalties",
              "type": "tuple[]"
            },
            {
              "internalType": "bytes[]",
              "name": "signatures",
              "type": "bytes[]"
            }
          ],
          "internalType": "struct LibERC721LazyMint.Mint721Data",
          "name": "data",
          "type": "tuple"
        },
        {
          "internalType": "address",
          "name": "to",
          "type": "address"
        }
      ],
      "name": "mintAndTransfer",
      "outputs": [],
      "stateMutability": "nonpayable",
      "type": "function"
    },
    {
      "inputs": [
        {
          "components": [
            {
              "internalType": "uint256",
              "name": "tokenId",
              "type": "uint256"
            },
            {
              "internalType": "string",
              "name": "uri",
              "type": "string"
            },
            {
              "components": [
                {
                  "internalType": "address payable",
                  "name": "account",
                  "type": "address"
                },
                {
                  "internalType": "uint96",
                  "name": "value",
                  "type": "uint96"
                }
              ],
              "internalType": "struct LibPart.Part[]",
              "name": "creators",
              "type": "tuple[]"
            },
            {
              "components": [
                {
                  "internalType": "address payable",
                  "name": "account",
                  "type": "address"
                },
                {
                  "internalType": "uint96",
                  "name": "value",
                  "type": "uint96"
                }
              ],
              "internalType": "struct LibPart.Part[]",
              "name": "royalties",
              "type": "tuple[]"
            },
            {
              "internalType": "bytes[]",
              "name": "signatures",
              "type": "bytes[]"
            }
          ],
          "internalType": "struct LibERC721LazyMint.Mint721Data",
          "name": "_data",
          "type": "tuple"
        },
        {
          "internalType": "address",
          "name": "_from",
          "type": "address"
        },
        {
          "internalType": "address payable",
          "name": "_to",
          "type": "address"
        }
      ],
      "name": "transferFromOrMint",
      "outputs": [],
      "stateMutability": "nonpayable",
      "type": "function"
    },
    {
      "inputs": [
        {
          "internalType": "uint256",
          "name": "_tokenId",
          "type": "uint256"
        },
        {
          "internalType": "uint32",
          "name": "_value",
          "type": "uint32"
        }
      ],
      "name": "setTicketForBid",
      "outputs": [],
      "stateMutability": "nonpayable",
      "type": "function"
    }
  ],
  "bytecode": "0x60806040526000600d556000600f553480156200001b57600080fd5b506040518060400160405280600b81526020017f4e465469636b6574697a650000000000000000000000000000000000000000008152506040518060400160405280600881526020017f4e465449434b4554000000000000000000000000000000000000000000000000815250620000a06301ffc9a760e01b6200012260201b60201c565b8160069080519060200190620000b89291906200022b565b508060079080519060200190620000d19291906200022b565b50620000ea6380ac58cd60e01b6200012260201b60201c565b62000102635b5e139f60e01b6200012260201b60201c565b6200011a63780e9d6360e01b6200012260201b60201c565b5050620002e1565b63ffffffff60e01b817bffffffffffffffffffffffffffffffffffffffffffffffffffffffff19161415620001bf576040517f08c379a000000000000000000000000000000000000000000000000000000000815260040180806020018281038252601c8152602001807f4552433136353a20696e76616c696420696e746572666163652069640000000081525060200191505060405180910390fd5b6001600080837bffffffffffffffffffffffffffffffffffffffffffffffffffffffff19167bffffffffffffffffffffffffffffffffffffffffffffffffffffffff1916815260200190815260200160002060006101000a81548160ff02191690831515021790555050565b828054600181600116156101000203166002900490600052602060002090601f016020900481019282620002635760008555620002af565b82601f106200027e57805160ff1916838001178555620002af565b82800160010185558215620002af579182015b82811115620002ae57825182559160200191906001019062000291565b5b509050620002be9190620002c2565b5090565b5b80821115620002dd576000816000905550600101620002c3565b5090565b6155fe80620002f16000396000f3fe6080604052600436106101b75760003560e01c80636c0360eb116100ec578063a22cb4651161008a578063bb3bafd611610064578063bb3bafd614610649578063c87b56dd14610686578063cef2646d146106c3578063e985e9c514610706576101b7565b8063a22cb465146105db578063afc15adf14610604578063b88d4fde14610620576101b7565b80638924af74116100c65780638924af741461052057806391e66d311461055e57806395d89b4114610587578063a1d255e1146105b2576101b7565b80636c0360eb1461048f57806370a08231146104ba578063832fbb29146104f7576101b7565b806323b872dd116101595780634f6ccce7116101335780634f6ccce7146103ad57806350b44712146103ea578063584e3998146104295780636352211e14610452576101b7565b806323b872dd1461031e5780632f745c591461034757806342842e0e14610384576101b7565b8063095ea7b311610195578063095ea7b3146102615780630b7914301461028a57806318160ddd146102ca57806322a775b6146102f5576101b7565b806301ffc9a7146101bc57806306fdde03146101f9578063081812fc14610224575b600080fd5b3480156101c857600080fd5b506101e360048036038101906101de919061425b565b610743565b6040516101f09190614ba7565b60405180910390f35b34801561020557600080fd5b5061020e6107aa565b60405161021b9190614bc2565b60405180910390f35b34801561023057600080fd5b5061024b6004803603810190610246919061433f565b61084c565b6040516102589190614af5565b60405180910390f35b34801561026d57600080fd5b506102886004803603810190610283919061421f565b6108e7565b005b34801561029657600080fd5b506102b160048036038101906102ac919061433f565b610a2b565b6040516102c19493929190614b10565b60405180910390f35b3480156102d657600080fd5b506102df610b20565b6040516102ec9190614cd4565b60405180910390f35b34801561030157600080fd5b5061031c60048036038101906103179190614284565b610b31565b005b34801561032a57600080fd5b5061034560048036038101906103409190614119565b610b55565b005b34801561035357600080fd5b5061036e6004803603810190610369919061421f565b610bcb565b60405161037b9190614cd4565b60405180910390f35b34801561039057600080fd5b506103ab60048036038101906103a69190614119565b610c26565b005b3480156103b957600080fd5b506103d460048036038101906103cf919061433f565b610c46565b6040516103e19190614cd4565b60405180910390f35b3480156103f657600080fd5b50610411600480360381019061040c919061433f565b610c69565b60405161042093929190614e6b565b60405180910390f35b34801561043557600080fd5b50610450600480360381019061044b919061445f565b610ca3565b005b34801561045e57600080fd5b506104796004803603810190610474919061433f565b610db3565b6040516104869190614af5565b60405180910390f35b34801561049b57600080fd5b506104a4610dea565b6040516104b19190614bc2565b60405180910390f35b3480156104c657600080fd5b506104e160048036038101906104dc91906140b4565b610e8c565b6040516104ee9190614cd4565b60405180910390f35b34801561050357600080fd5b5061051e600480360381019061051991906142d8565b610f61565b005b34801561052c57600080fd5b50610547600480360381019061054291906143bc565b610ffa565b604051610555929190614b5c565b60405180910390f35b34801561056a57600080fd5b506105856004803603810190610580919061449b565b61106f565b005b34801561059357600080fd5b5061059c61141f565b6040516105a99190614bc2565b60405180910390f35b3480156105be57600080fd5b506105d960048036038101906105d49190614368565b6114c1565b005b3480156105e757600080fd5b5061060260048036038101906105fd91906141e3565b611626565b005b61061e600480360381019061061991906143f8565b6117dc565b005b34801561062c57600080fd5b5061064760048036038101906106429190614168565b611ef1565b005b34801561065557600080fd5b50610670600480360381019061066b919061433f565b611f69565b60405161067d9190614b85565b60405180910390f35b34801561069257600080fd5b506106ad60048036038101906106a8919061433f565b61206b565b6040516106ba9190614bc2565b60405180910390f35b3480156106cf57600080fd5b506106ea60048036038101906106e5919061433f565b61233c565b6040516106fd9796959493929190614f18565b60405180910390f35b34801561071257600080fd5b5061072d600480360381019061072891906140dd565b612443565b60405161073a9190614ba7565b60405180910390f35b6000806000837bffffffffffffffffffffffffffffffffffffffffffffffffffffffff19167bffffffffffffffffffffffffffffffffffffffffffffffffffffffff1916815260200190815260200160002060009054906101000a900460ff169050919050565b606060068054600181600116156101000203166002900480601f0160208091040260200160405190810160405280929190818152602001828054600181600116156101000203166002900480156108425780601f1061081757610100808354040283529160200191610842565b820191906000526020600020905b81548152906001019060200180831161082557829003601f168201915b5050505050905090565b6000610857826124d7565b6108ac576040517f08c379a000000000000000000000000000000000000000000000000000000000815260040180806020018281038252602c8152602001806154f3602c913960400191505060405180910390fd5b6004600083815260200190815260200160002060009054906101000a900473ffffffffffffffffffffffffffffffffffffffff169050919050565b60006108f282610db3565b90508073ffffffffffffffffffffffffffffffffffffffff168373ffffffffffffffffffffffffffffffffffffffff161415610979576040517f08c379a00000000000000000000000000000000000000000000000000000000081526004018080602001828103825260218152602001806155776021913960400191505060405180910390fd5b8073ffffffffffffffffffffffffffffffffffffffff166109986124f4565b73ffffffffffffffffffffffffffffffffffffffff1614806109c757506109c6816109c16124f4565b612443565b5b610a1c576040517f08c379a00000000000000000000000000000000000000000000000000000000081526004018080602001828103825260388152602001806154466038913960400191505060405180910390fd5b610a2683836124fc565b505050565b600c6020528060005260406000206000915090508060000160009054906101000a900473ffffffffffffffffffffffffffffffffffffffff1690806001015490806002018054600181600116156101000203166002900480601f016020809104026020016040519081016040528092919081815260200182805460018160011615610100020316600290048015610b035780601f10610ad857610100808354040283529160200191610b03565b820191906000526020600020905b815481529060010190602001808311610ae657829003601f168201915b5050505050908060030160009054906101000a900460ff16905084565b6000610b2c60026125b5565b905090565b610b3f8183600001516125ca565b610b51826000015183606001516127be565b5050565b610b66610b606124f4565b82612a08565b610bbb576040517f08c379a00000000000000000000000000000000000000000000000000000000081526004018080602001828103825260318152602001806155986031913960400191505060405180910390fd5b610bc6838383612afc565b505050565b6000610c1e82600160008673ffffffffffffffffffffffffffffffffffffffff1673ffffffffffffffffffffffffffffffffffffffff168152602001908152602001600020612d3f90919063ffffffff16565b905092915050565b610c4183838360405180602001604052806000815250611ef1565b505050565b600080610c5d836002612d5990919063ffffffff16565b50905080915050919050565b60106020528060005260406000206000915090508060000154908060010154908060020160009054906101000a900463ffffffff16905083565b60006010600084815260200190815260200160002060405180606001604052908160008201548152602001600182015481526020016002820160009054906101000a900463ffffffff1663ffffffff1663ffffffff1681525050905081816040019063ffffffff16908163ffffffff16815250508060106000858152602001908152602001600020600082015181600001556020820151816001015560408201518160020160006101000a81548163ffffffff021916908363ffffffff1602179055509050507f06f0da989accae54eb958826008bf8db38b34cfcc6b76e5e74837f99d24e73ed816000015182602001518585604051610da69493929190614e26565b60405180910390a1505050565b6000610de3826040518060600160405280602981526020016154a8602991396002612d859092919063ffffffff16565b9050919050565b606060098054600181600116156101000203166002900480601f016020809104026020016040519081016040528092919081815260200182805460018160011615610100020316600290048015610e825780601f10610e5757610100808354040283529160200191610e82565b820191906000526020600020905b815481529060010190602001808311610e6557829003601f168201915b5050505050905090565b60008073ffffffffffffffffffffffffffffffffffffffff168273ffffffffffffffffffffffffffffffffffffffff161415610f13576040517f08c379a000000000000000000000000000000000000000000000000000000000815260040180806020018281038252602a81526020018061547e602a913960400191505060405180910390fd5b610f5a600160008473ffffffffffffffffffffffffffffffffffffffff1673ffffffffffffffffffffffffffffffffffffffff168152602001908152602001600020612da4565b9050919050565b610f6e83600001516124d7565b15610f8757610f8282828560000151610c26565b610ff5565b3073ffffffffffffffffffffffffffffffffffffffff166322a775b684836040518363ffffffff1660e01b8152600401610fc2929190614ca4565b600060405180830381600087803b158015610fdc57600080fd5b505af1158015610ff0573d6000803e3d6000fd5b505050505b505050565b600a602052816000526040600020818154811061101657600080fd5b90600052602060002001600091509150508060000160009054906101000a900473ffffffffffffffffffffffffffffffffffffffff16908060000160149054906101000a90046bffffffffffffffffffffffff16905082565b84600c600082815260200190815260200160002060030160009054906101000a900460ff166110d3576040517f08c379a00000000000000000000000000000000000000000000000000000000081526004016110ca90614c64565b60405180910390fd5b856000600c60008381526020019081526020016000206040518060800160405290816000820160009054906101000a900473ffffffffffffffffffffffffffffffffffffffff1673ffffffffffffffffffffffffffffffffffffffff1673ffffffffffffffffffffffffffffffffffffffff16815260200160018201548152602001600282018054600181600116156101000203166002900480601f0160208091040260200160405190810160405280929190818152602001828054600181600116156101000203166002900480156111ed5780601f106111c2576101008083540402835291602001916111ed565b820191906000526020600020905b8154815290600101906020018083116111d057829003601f168201915b505050505081526020016003820160009054906101000a900460ff1615151515815250509050806000015173ffffffffffffffffffffffffffffffffffffffff163373ffffffffffffffffffffffffffffffffffffffff1614611285576040517f08c379a000000000000000000000000000000000000000000000000000000000815260040161127c90614c04565b60405180910390fd5b6000600f549050611294613acf565b898160000181815250506000816020019063ffffffff16908163ffffffff168152505088816040019063ffffffff16908163ffffffff16815250508781606001818152505086816080018181525050858160a0018190525060018160c001901515908115158152505080600e60008481526020019081526020016000206000820151816000015560208201518160010160006101000a81548163ffffffff021916908363ffffffff16021790555060408201518160010160046101000a81548163ffffffff021916908363ffffffff160217905550606082015181600201556080820151816003015560a0820151816004019080519060200190611399929190613b1a565b5060c08201518160050160006101000a81548160ff021916908315150217905550905050600f600081548092919060010191905055507f54a5ed645baa4fbcbc77989a189b3d5d9477e99c137f569cc205f255031aebf58a8360008c8c8c8c60405161140b9796959493929190614d6b565b60405180910390a150505050505050505050565b606060078054600181600116156101000203166002900480601f0160208091040260200160405190810160405280929190818152602001828054600181600116156101000203166002900480156114b75780601f1061148c576101008083540402835291602001916114b7565b820191906000526020600020905b81548152906001019060200180831161149a57829003601f168201915b5050505050905090565b6000600d5490506114d0613ba8565b33816000019073ffffffffffffffffffffffffffffffffffffffff16908173ffffffffffffffffffffffffffffffffffffffff168152505083816020018181525050828160400181905250600181606001901515908115158152505080600c600084815260200190815260200160002060008201518160000160006101000a81548173ffffffffffffffffffffffffffffffffffffffff021916908373ffffffffffffffffffffffffffffffffffffffff1602179055506020820151816001015560408201518160020190805190602001906115ad929190613b1a565b5060608201518160030160006101000a81548160ff021916908315150217905550905050600d600081548092919060010191905055507f4dbfa2164915d724b7563de7ec811eea5545dec52bafbf05aa172af5da90e586823386866040516116189493929190614cef565b60405180910390a150505050565b61162e6124f4565b73ffffffffffffffffffffffffffffffffffffffff168273ffffffffffffffffffffffffffffffffffffffff1614156116cf576040517f08c379a00000000000000000000000000000000000000000000000000000000081526004018080602001828103825260198152602001807f4552433732313a20617070726f766520746f2063616c6c65720000000000000081525060200191505060405180910390fd5b80600560006116dc6124f4565b73ffffffffffffffffffffffffffffffffffffffff1673ffffffffffffffffffffffffffffffffffffffff16815260200190815260200160002060008473ffffffffffffffffffffffffffffffffffffffff1673ffffffffffffffffffffffffffffffffffffffff16815260200190815260200160002060006101000a81548160ff0219169083151502179055508173ffffffffffffffffffffffffffffffffffffffff166117896124f4565b73ffffffffffffffffffffffffffffffffffffffff167f17307eab39ab6107e8899845ad3d59bd9653f200f220920489ca2b5937696c318360405180821515815260200191505060405180910390a35050565b82600c600082815260200190815260200160002060030160009054906101000a900460ff16611840576040517f08c379a000000000000000000000000000000000000000000000000000000000815260040161183790614c64565b60405180910390fd5b82600e600082815260200190815260200160002060050160009054906101000a900460ff166118a4576040517f08c379a000000000000000000000000000000000000000000000000000000000815260040161189b90614c84565b60405180910390fd5b848481600e600083815260200190815260200160002060000154146118fe576040517f08c379a00000000000000000000000000000000000000000000000000000000081526004016118f590614c84565b60405180910390fd5b866000600c60008381526020019081526020016000206040518060800160405290816000820160009054906101000a900473ffffffffffffffffffffffffffffffffffffffff1673ffffffffffffffffffffffffffffffffffffffff1673ffffffffffffffffffffffffffffffffffffffff16815260200160018201548152602001600282018054600181600116156101000203166002900480601f016020809104026020016040519081016040528092919081815260200182805460018160011615610100020316600290048015611a185780601f106119ed57610100808354040283529160200191611a18565b820191906000526020600020905b8154815290600101906020018083116119fb57829003601f168201915b505050505081526020016003820160009054906101000a900460ff1615151515815250509050806000015173ffffffffffffffffffffffffffffffffffffffff163373ffffffffffffffffffffffffffffffffffffffff161415611ab1576040517f08c379a0000000000000000000000000000000000000000000000000000000008152600401611aa890614be4565b60405180910390fd5b600e600089815260200190815260200160002060010160049054906101000a900463ffffffff1663ffffffff16600e60008a815260200190815260200160002060010160009054906101000a900463ffffffff1663ffffffff161115611b4c576040517f08c379a0000000000000000000000000000000000000000000000000000000008152600401611b4390614c24565b60405180910390fd5b6000600167ffffffffffffffff81118015611b6657600080fd5b50604051908082528060200260200182016040528015611ba057816020015b611b8d613be8565b815260200190600190039081611b855790505b5090506000600e60008b8152602001908152602001600020600301541115611cad57611bca613be8565b600c60008c815260200190815260200160002060000160009054906101000a900473ffffffffffffffffffffffffffffffffffffffff16816000019073ffffffffffffffffffffffffffffffffffffffff16908173ffffffffffffffffffffffffffffffffffffffff16815250506064600e60008c815260200190815260200160002060030154612710026bffffffffffffffffffffffff1681611c6a57fe5b0481602001906bffffffffffffffffffffffff1690816bffffffffffffffffffffffff16815250508082600081518110611ca057fe5b6020026020010181905250505b600080600c60008d815260200190815260200160002060000160009054906101000a900473ffffffffffffffffffffffffffffffffffffffff1673ffffffffffffffffffffffffffffffffffffffff1634604051611d0a90614ae0565b60006040518083038185875af1925050503d8060008114611d47576040519150601f19603f3d011682016040523d82523d6000602084013e611d4c565b606091505b509150915081611d91576040517f08c379a0000000000000000000000000000000000000000000000000000000008152600401611d8890614c44565b60405180910390fd5b600e60008c8152602001908152602001600020600201548a51023414611db657600080fd5b60005b8a51811015611ee257611ddf8b8281518110611dd157fe5b6020026020010151856127be565b611de7613c26565b8d8160000181815250508c8160200181815250506000816040019063ffffffff16908163ffffffff168152505080601060008e8581518110611e2557fe5b60200260200101518152602001908152602001600020600082015181600001556020820151816001015560408201518160020160006101000a81548163ffffffff021916908363ffffffff1602179055509050507fc254c33300fd50dacbf0912a3dec7083573a4c6ae859eb74787cc4b96b9d024d8e8e8e8581518110611ea857fe5b60200260200101516000604051611ec29493929190614de1565b60405180910390a1611ed48e8e612db9565b508080600101915050611db9565b50505050505050505050505050565b611f02611efc6124f4565b83612a08565b611f57576040517f08c379a00000000000000000000000000000000000000000000000000000000081526004018080602001828103825260318152602001806155986031913960400191505060405180910390fd5b611f6384848484612eeb565b50505050565b6060600a6000838152602001908152602001600020805480602002602001604051908101604052809291908181526020016000905b82821015612060578382906000526020600020016040518060400160405290816000820160009054906101000a900473ffffffffffffffffffffffffffffffffffffffff1673ffffffffffffffffffffffffffffffffffffffff1673ffffffffffffffffffffffffffffffffffffffff1681526020016000820160149054906101000a90046bffffffffffffffffffffffff166bffffffffffffffffffffffff166bffffffffffffffffffffffff168152505081526020019060010190611f9e565b505050509050919050565b6060612076826124d7565b6120cb576040517f08c379a000000000000000000000000000000000000000000000000000000000815260040180806020018281038252602f815260200180615548602f913960400191505060405180910390fd5b6000600860008481526020019081526020016000208054600181600116156101000203166002900480601f0160208091040260200160405190810160405280929190818152602001828054600181600116156101000203166002900480156121745780601f1061214957610100808354040283529160200191612174565b820191906000526020600020905b81548152906001019060200180831161215757829003601f168201915b505050505090506000612185610dea565b905060008151141561219b578192505050612337565b60008251111561226c5780826040516020018083805190602001908083835b602083106121dd57805182526020820191506020810190506020830392506121ba565b6001836020036101000a03801982511681845116808217855250505050505090500182805190602001908083835b6020831061222e578051825260208201915060208101905060208303925061220b565b6001836020036101000a0380198251168184511680821785525050505050509050019250505060405160208183030381529060405292505050612337565b8061227685612f5d565b6040516020018083805190602001908083835b602083106122ac5780518252602082019150602081019050602083039250612289565b6001836020036101000a03801982511681845116808217855250505050505090500182805190602001908083835b602083106122fd57805182526020820191506020810190506020830392506122da565b6001836020036101000a03801982511681845116808217855250505050505090500192505050604051602081830303815290604052925050505b919050565b600e6020528060005260406000206000915090508060000154908060010160009054906101000a900463ffffffff16908060010160049054906101000a900463ffffffff1690806002015490806003015490806004018054600181600116156101000203166002900480601f0160208091040260200160405190810160405280929190818152602001828054600181600116156101000203166002900480156124265780601f106123fb57610100808354040283529160200191612426565b820191906000526020600020905b81548152906001019060200180831161240957829003601f168201915b5050505050908060050160009054906101000a900460ff16905087565b6000600560008473ffffffffffffffffffffffffffffffffffffffff1673ffffffffffffffffffffffffffffffffffffffff16815260200190815260200160002060008373ffffffffffffffffffffffffffffffffffffffff1673ffffffffffffffffffffffffffffffffffffffff16815260200190815260200160002060009054906101000a900460ff16905092915050565b60006124ed8260026130a490919063ffffffff16565b9050919050565b600033905090565b816004600083815260200190815260200160002060006101000a81548173ffffffffffffffffffffffffffffffffffffffff021916908373ffffffffffffffffffffffffffffffffffffffff160217905550808273ffffffffffffffffffffffffffffffffffffffff1661256f83610db3565b73ffffffffffffffffffffffffffffffffffffffff167f8c5be1e5ebec7d5bd14f71427d1e84f3dd0314c0f7b2291e5b200ac8c7c3b92560405160405180910390a45050565b60006125c3826000016130be565b9050919050565b600073ffffffffffffffffffffffffffffffffffffffff168273ffffffffffffffffffffffffffffffffffffffff16141561266d576040517f08c379a00000000000000000000000000000000000000000000000000000000081526004018080602001828103825260208152602001807f4552433732313a206d696e7420746f20746865207a65726f206164647265737381525060200191505060405180910390fd5b612676816124d7565b156126e9576040517f08c379a000000000000000000000000000000000000000000000000000000000815260040180806020018281038252601c8152602001807f4552433732313a20746f6b656e20616c7265616479206d696e7465640000000081525060200191505060405180910390fd5b6126f5600083836130cf565b61274681600160008573ffffffffffffffffffffffffffffffffffffffff1673ffffffffffffffffffffffffffffffffffffffff1681526020019081526020016000206130d490919063ffffffff16565b5061275d818360026130ee9092919063ffffffff16565b50808273ffffffffffffffffffffffffffffffffffffffff16600073ffffffffffffffffffffffffffffffffffffffff167fddf252ad1be2c89b69c2b068fc378daa952ba7f163c4a11628f55a4df523b3ef60405160405180910390a45050565b60005b81518110156129f957600073ffffffffffffffffffffffffffffffffffffffff168282815181106127ee57fe5b60200260200101516000015173ffffffffffffffffffffffffffffffffffffffff161415612884576040517f08c379a000000000000000000000000000000000000000000000000000000000815260040180806020018281038252601b8152602001807f526563697069656e742073686f756c642062652070726573656e74000000000081525060200191505060405180910390fd5b600082828151811061289257fe5b6020026020010151602001516bffffffffffffffffffffffff161415612920576040517f08c379a00000000000000000000000000000000000000000000000000000000081526004018080602001828103825260208152602001807f526f79616c74792076616c75652073686f756c6420626520706f73697469766581525060200191505060405180910390fd5b600a600084815260200190815260200160002082828151811061293f57fe5b60200260200101519080600181540180825580915050600190039060005260206000200160009091909190915060008201518160000160006101000a81548173ffffffffffffffffffffffffffffffffffffffff021916908373ffffffffffffffffffffffffffffffffffffffff16021790555060208201518160000160146101000a8154816bffffffffffffffffffffffff02191690836bffffffffffffffffffffffff160217905550505080806001019150506127c1565b50612a048282613123565b5050565b6000612a13826124d7565b612a68576040517f08c379a000000000000000000000000000000000000000000000000000000000815260040180806020018281038252602c81526020018061541a602c913960400191505060405180910390fd5b6000612a7383610db3565b90508073ffffffffffffffffffffffffffffffffffffffff168473ffffffffffffffffffffffffffffffffffffffff161480612ae257508373ffffffffffffffffffffffffffffffffffffffff16612aca8461084c565b73ffffffffffffffffffffffffffffffffffffffff16145b80612af35750612af28185612443565b5b91505092915050565b8273ffffffffffffffffffffffffffffffffffffffff16612b1c82610db3565b73ffffffffffffffffffffffffffffffffffffffff1614612b88576040517f08c379a000000000000000000000000000000000000000000000000000000000815260040180806020018281038252602981526020018061551f6029913960400191505060405180910390fd5b600073ffffffffffffffffffffffffffffffffffffffff168273ffffffffffffffffffffffffffffffffffffffff161415612c0e576040517f08c379a00000000000000000000000000000000000000000000000000000000081526004018080602001828103825260248152602001806153d06024913960400191505060405180910390fd5b612c198383836130cf565b612c246000826124fc565b612c7581600160008673ffffffffffffffffffffffffffffffffffffffff1673ffffffffffffffffffffffffffffffffffffffff16815260200190815260200160002061316090919063ffffffff16565b50612cc781600160008573ffffffffffffffffffffffffffffffffffffffff1673ffffffffffffffffffffffffffffffffffffffff1681526020019081526020016000206130d490919063ffffffff16565b50612cde818360026130ee9092919063ffffffff16565b50808273ffffffffffffffffffffffffffffffffffffffff168473ffffffffffffffffffffffffffffffffffffffff167fddf252ad1be2c89b69c2b068fc378daa952ba7f163c4a11628f55a4df523b3ef60405160405180910390a4505050565b6000612d4e836000018361317a565b60001c905092915050565b600080600080612d6c86600001866131fd565b915091508160001c8160001c9350935050509250929050565b6000612d98846000018460001b84613296565b60001c90509392505050565b6000612db28260000161338c565b9050919050565b6001600e600083815260200190815260200160002060010160009054906101000a900463ffffffff1601600e600083815260200190815260200160002060010160006101000a81548163ffffffff021916908363ffffffff1602179055507faf98034c24425c884368b23a0ab3244e9ededc404a820522d2fc84c60ebdc6ce8282600e600085815260200190815260200160002060010160009054906101000a900463ffffffff16600e600086815260200190815260200160002060010160049054906101000a900463ffffffff16600e600087815260200190815260200160002060020154600e600088815260200190815260200160002060030154600e6000898152602001908152602001600020600401604051612edf9796959493929190614ea2565b60405180910390a15050565b612ef6848484612afc565b612f028484848461339d565b612f57576040517f08c379a000000000000000000000000000000000000000000000000000000000815260040180806020018281038252603281526020018061539e6032913960400191505060405180910390fd5b50505050565b60606000821415612fa5576040518060400160405280600181526020017f3000000000000000000000000000000000000000000000000000000000000000815250905061309f565b600082905060005b60008214612fcf578080600101915050600a8281612fc757fe5b049150612fad565b60008167ffffffffffffffff81118015612fe857600080fd5b506040519080825280601f01601f19166020018201604052801561301b5781602001600182028036833780820191505090505b50905060006001830390508593505b6000841461309757600a848161303c57fe5b0660300160f81b8282806001900393508151811061305657fe5b60200101907effffffffffffffffffffffffffffffffffffffffffffffffffffffffffffff1916908160001a905350600a848161308f57fe5b04935061302a565b819450505050505b919050565b60006130b6836000018360001b6135b6565b905092915050565b600081600001805490509050919050565b505050565b60006130e6836000018360001b6135d9565b905092915050565b600061311a846000018460001b8473ffffffffffffffffffffffffffffffffffffffff1660001b613649565b90509392505050565b7f3fa96d7b6bcbfe71ef171666d84db3cf52fa2d1c8afdb1cc8e486177f208b7df8282604051613154929190614d3b565b60405180910390a15050565b6000613172836000018360001b613725565b905092915050565b6000818360000180549050116131db576040517f08c379a000000000000000000000000000000000000000000000000000000000815260040180806020018281038252602281526020018061537c6022913960400191505060405180910390fd5b8260000182815481106131ea57fe5b9060005260206000200154905092915050565b6000808284600001805490501161325f576040517f08c379a00000000000000000000000000000000000000000000000000000000081526004018080602001828103825260228152602001806154d16022913960400191505060405180910390fd5b600084600001848154811061327057fe5b906000526020600020906002020190508060000154816001015492509250509250929050565b6000808460010160008581526020019081526020016000205490506000811415839061335d576040517f08c379a00000000000000000000000000000000000000000000000000000000081526004018080602001828103825283818151815260200191508051906020019080838360005b83811015613322578082015181840152602081019050613307565b50505050905090810190601f16801561334f5780820380516001836020036101000a031916815260200191505b509250505060405180910390fd5b5084600001600182038154811061337057fe5b9060005260206000209060020201600101549150509392505050565b600081600001805490509050919050565b60006133be8473ffffffffffffffffffffffffffffffffffffffff1661380d565b6133cb57600190506135ae565b600061353563150b7a0260e01b6133e06124f4565b888787604051602401808573ffffffffffffffffffffffffffffffffffffffff1681526020018473ffffffffffffffffffffffffffffffffffffffff16815260200183815260200180602001828103825283818151815260200191508051906020019080838360005b83811015613464578082015181840152602081019050613449565b50505050905090810190601f1680156134915780820380516001836020036101000a031916815260200191505b5095505050505050604051602081830303815290604052907bffffffffffffffffffffffffffffffffffffffffffffffffffffffff19166020820180517bffffffffffffffffffffffffffffffffffffffffffffffffffffffff838183161783525050505060405180606001604052806032815260200161539e603291398773ffffffffffffffffffffffffffffffffffffffff166138209092919063ffffffff16565b9050600081806020019051602081101561354e57600080fd5b8101908080519060200190929190505050905063150b7a0260e01b7bffffffffffffffffffffffffffffffffffffffffffffffffffffffff1916817bffffffffffffffffffffffffffffffffffffffffffffffffffffffff191614925050505b949350505050565b600080836001016000848152602001908152602001600020541415905092915050565b60006135e58383613838565b61363e578260000182908060018154018082558091505060019003906000526020600020016000909190919091505582600001805490508360010160008481526020019081526020016000208190555060019050613643565b600090505b92915050565b60008084600101600085815260200190815260200160002054905060008114156136f05784600001604051806040016040528086815260200185815250908060018154018082558091505060019003906000526020600020906002020160009091909190915060008201518160000155602082015181600101555050846000018054905085600101600086815260200190815260200160002081905550600191505061371e565b8285600001600183038154811061370357fe5b90600052602060002090600202016001018190555060009150505b9392505050565b60008083600101600084815260200190815260200160002054905060008114613801576000600182039050600060018660000180549050039050600086600001828154811061377057fe5b906000526020600020015490508087600001848154811061378d57fe5b90600052602060002001819055506001830187600101600083815260200190815260200160002081905550866000018054806137c557fe5b60019003818190600052602060002001600090559055866001016000878152602001908152602001600020600090556001945050505050613807565b60009150505b92915050565b600080823b905060008111915050919050565b606061382f848460008561385b565b90509392505050565b600080836001016000848152602001908152602001600020541415905092915050565b6060824710156138b6576040517f08c379a00000000000000000000000000000000000000000000000000000000081526004018080602001828103825260268152602001806153f46026913960400191505060405180910390fd5b6138bf8561380d565b613931576040517f08c379a000000000000000000000000000000000000000000000000000000000815260040180806020018281038252601d8152602001807f416464726573733a2063616c6c20746f206e6f6e2d636f6e747261637400000081525060200191505060405180910390fd5b6000808673ffffffffffffffffffffffffffffffffffffffff1685876040518082805190602001908083835b60208310613980578051825260208201915060208101905060208303925061395d565b6001836020036101000a03801982511681845116808217855250505050505090500191505060006040518083038185875af1925050503d80600081146139e2576040519150601f19603f3d011682016040523d82523d6000602084013e6139e7565b606091505b50915091506139f7828286613a03565b92505050949350505050565b60608315613a1357829050613ac8565b600083511115613a265782518084602001fd5b816040517f08c379a00000000000000000000000000000000000000000000000000000000081526004018080602001828103825283818151815260200191508051906020019080838360005b83811015613a8d578082015181840152602081019050613a72565b50505050905090810190601f168015613aba5780820380516001836020036101000a031916815260200191505b509250505060405180910390fd5b9392505050565b6040518060e0016040528060008152602001600063ffffffff168152602001600063ffffffff1681526020016000815260200160008152602001606081526020016000151581525090565b828054600181600116156101000203166002900490600052602060002090601f016020900481019282613b505760008555613b97565b82601f10613b6957805160ff1916838001178555613b97565b82800160010185558215613b97579182015b82811115613b96578251825591602001919060010190613b7b565b5b509050613ba49190613c4d565b5090565b6040518060800160405280600073ffffffffffffffffffffffffffffffffffffffff16815260200160008152602001606081526020016000151581525090565b6040518060400160405280600073ffffffffffffffffffffffffffffffffffffffff16815260200160006bffffffffffffffffffffffff1681525090565b60405180606001604052806000815260200160008152602001600063ffffffff1681525090565b5b80821115613c66576000816000905550600101613c4e565b5090565b6000613c7d613c7884614fbf565b614f8e565b9050808382526020820190508260005b85811015613cbd5781358501613ca38882613eed565b845260208401935060208301925050600181019050613c8d565b5050509392505050565b6000613cda613cd584614feb565b614f8e565b90508083825260208201905082856040860282011115613cf957600080fd5b60005b85811015613d295781613d0f8882614029565b845260208401935060408301925050600181019050613cfc565b5050509392505050565b6000613d46613d4184615017565b614f8e565b90508083825260208201905082856020860282011115613d6557600080fd5b60005b85811015613d955781613d7b8882614075565b845260208401935060208301925050600181019050613d68565b5050509392505050565b6000613db2613dad84615043565b614f8e565b905082815260208101848484011115613dca57600080fd5b613dd5848285615285565b509392505050565b6000613df0613deb84615073565b614f8e565b905082815260208101848484011115613e0857600080fd5b613e13848285615285565b509392505050565b600081359050613e2a816152da565b92915050565b600081359050613e3f816152f1565b92915050565b600082601f830112613e5657600080fd5b8135613e66848260208601613c6a565b91505092915050565b600082601f830112613e8057600080fd5b8135613e90848260208601613cc7565b91505092915050565b600082601f830112613eaa57600080fd5b8135613eba848260208601613d33565b91505092915050565b600081359050613ed281615308565b92915050565b600081359050613ee78161531f565b92915050565b600082601f830112613efe57600080fd5b8135613f0e848260208601613d9f565b91505092915050565b600082601f830112613f2857600080fd5b8135613f38848260208601613ddd565b91505092915050565b600060a08284031215613f5357600080fd5b613f5d60a0614f8e565b90506000613f6d84828501614075565b600083015250602082013567ffffffffffffffff811115613f8d57600080fd5b613f9984828501613f17565b602083015250604082013567ffffffffffffffff811115613fb957600080fd5b613fc584828501613e6f565b604083015250606082013567ffffffffffffffff811115613fe557600080fd5b613ff184828501613e6f565b606083015250608082013567ffffffffffffffff81111561401157600080fd5b61401d84828501613e45565b60808301525092915050565b60006040828403121561403b57600080fd5b6140456040614f8e565b9050600061405584828501613e30565b60008301525060206140698482850161409f565b60208301525092915050565b60008135905061408481615336565b92915050565b6000813590506140998161534d565b92915050565b6000813590506140ae81615364565b92915050565b6000602082840312156140c657600080fd5b60006140d484828501613e1b565b91505092915050565b600080604083850312156140f057600080fd5b60006140fe85828601613e1b565b925050602061410f85828601613e1b565b9150509250929050565b60008060006060848603121561412e57600080fd5b600061413c86828701613e1b565b935050602061414d86828701613e1b565b925050604061415e86828701614075565b9150509250925092565b6000806000806080858703121561417e57600080fd5b600061418c87828801613e1b565b945050602061419d87828801613e1b565b93505060406141ae87828801614075565b925050606085013567ffffffffffffffff8111156141cb57600080fd5b6141d787828801613eed565b91505092959194509250565b600080604083850312156141f657600080fd5b600061420485828601613e1b565b925050602061421585828601613ec3565b9150509250929050565b6000806040838503121561423257600080fd5b600061424085828601613e1b565b925050602061425185828601614075565b9150509250929050565b60006020828403121561426d57600080fd5b600061427b84828501613ed8565b91505092915050565b6000806040838503121561429757600080fd5b600083013567ffffffffffffffff8111156142b157600080fd5b6142bd85828601613f41565b92505060206142ce85828601613e1b565b9150509250929050565b6000806000606084860312156142ed57600080fd5b600084013567ffffffffffffffff81111561430757600080fd5b61431386828701613f41565b935050602061432486828701613e1b565b925050604061433586828701613e30565b9150509250925092565b60006020828403121561435157600080fd5b600061435f84828501614075565b91505092915050565b6000806040838503121561437b57600080fd5b600061438985828601614075565b925050602083013567ffffffffffffffff8111156143a657600080fd5b6143b285828601613f17565b9150509250929050565b600080604083850312156143cf57600080fd5b60006143dd85828601614075565b92505060206143ee85828601614075565b9150509250929050565b60008060006060848603121561440d57600080fd5b600061441b86828701614075565b935050602061442c86828701614075565b925050604084013567ffffffffffffffff81111561444957600080fd5b61445586828701613e99565b9150509250925092565b6000806040838503121561447257600080fd5b600061448085828601614075565b92505060206144918582860161408a565b9150509250929050565b600080600080600060a086880312156144b357600080fd5b60006144c188828901614075565b95505060206144d28882890161408a565b94505060406144e388828901614075565b93505060606144f488828901614075565b925050608086013567ffffffffffffffff81111561451157600080fd5b61451d88828901613f17565b9150509295509295909350565b600061453683836146d2565b905092915050565b600061454a8383614a66565b60408301905092915050565b61455f8161523d565b82525050565b61456e816151a1565b82525050565b61457d816151a1565b82525050565b61458c8161518f565b82525050565b600061459d826150d8565b6145a7818561511e565b9350836020820285016145b9856150a3565b8060005b858110156145f557848403895281516145d6858261452a565b94506145e183615104565b925060208a019950506001810190506145bd565b50829750879550505050505092915050565b6000614612826150e3565b61461c818561512f565b9350614627836150b3565b8060005b8381101561465857815161463f888261453e565b975061464a83615111565b92505060018101905061462b565b5085935050505092915050565b6000614670826150e3565b61467a8185615140565b9350614685836150b3565b8060005b838110156146b657815161469d888261453e565b97506146a883615111565b925050600181019050614689565b5085935050505092915050565b6146cc816151b3565b82525050565b60006146dd826150ee565b6146e78185615151565b93506146f7818560208601615294565b614700816152c9565b840191505092915050565b6147148161524f565b82525050565b6000614725826150f9565b61472f818561516d565b935061473f818560208601615294565b614748816152c9565b840191505092915050565b600061475e826150f9565b614768818561517e565b9350614778818560208601615294565b614781816152c9565b840191505092915050565b6000815460018116600081146147a957600181146147cf57614813565b607f60028304166147ba818761517e565b955060ff198316865260208601935050614813565b600282046147dd818761517e565b95506147e8856150c3565b60005b8281101561480a578154818901526001820191506020810190506147eb565b80880195505050505b505092915050565b600061482860168361517e565b91507f43616c6c6572206973206576656e74206f776e65722e000000000000000000006000830152602082019050919050565b600061486860108361517e565b91507f4e6f74206576656e74206f776e65722e000000000000000000000000000000006000830152602082019050919050565b60006148a860238361517e565b91507f5469636b65747320666f7220746869732063617465676f72792061726520736f60008301527f6c642e00000000000000000000000000000000000000000000000000000000006020830152604082019050919050565b600061490e60148361517e565b91507f4661696c656420746f2073656e642045746865720000000000000000000000006000830152602082019050919050565b600061494e60158361517e565b91507f4576656e7420646f6573206e6f742065786973742e00000000000000000000006000830152602082019050919050565b600061498e600083615162565b9150600082019050919050565b60006149a8601f8361517e565b91507f5469636b65742063617465676f727920646f6573206e6f742065786973742e006000830152602082019050919050565b600060a0830160008301516149f36000860182614a95565b5060208301518482036020860152614a0b828261471a565b91505060408301518482036040860152614a258282614607565b91505060608301518482036060860152614a3f8282614607565b91505060808301518482036080860152614a598282614592565b9150508091505092915050565b604082016000820151614a7c6000850182614565565b506020820151614a8f6020850182614ac2565b50505050565b614a9e8161520b565b82525050565b614aad8161520b565b82525050565b614abc81615215565b82525050565b614acb81615225565b82525050565b614ada81615225565b82525050565b6000614aeb82614981565b9150819050919050565b6000602082019050614b0a6000830184614583565b92915050565b6000608082019050614b256000830187614574565b614b326020830186614aa4565b8181036040830152614b448185614753565b9050614b5360608301846146c3565b95945050505050565b6000604082019050614b716000830185614574565b614b7e6020830184614ad1565b9392505050565b60006020820190508181036000830152614b9f8184614665565b905092915050565b6000602082019050614bbc60008301846146c3565b92915050565b60006020820190508181036000830152614bdc8184614753565b905092915050565b60006020820190508181036000830152614bfd8161481b565b9050919050565b60006020820190508181036000830152614c1d8161485b565b9050919050565b60006020820190508181036000830152614c3d8161489b565b9050919050565b60006020820190508181036000830152614c5d81614901565b9050919050565b60006020820190508181036000830152614c7d81614941565b9050919050565b60006020820190508181036000830152614c9d8161499b565b9050919050565b60006040820190508181036000830152614cbe81856149db565b9050614ccd6020830184614556565b9392505050565b6000602082019050614ce96000830184614aa4565b92915050565b6000608082019050614d046000830187614aa4565b614d116020830186614556565b614d1e6040830185614aa4565b8181036060830152614d308184614753565b905095945050505050565b6000604082019050614d506000830185614aa4565b8181036020830152614d628184614665565b90509392505050565b600060e082019050614d80600083018a614aa4565b614d8d6020830189614aa4565b614d9a604083018861470b565b614da76060830187614ab3565b614db46080830186614aa4565b614dc160a0830185614aa4565b81810360c0830152614dd38184614753565b905098975050505050505050565b6000608082019050614df66000830187614aa4565b614e036020830186614aa4565b614e106040830185614aa4565b614e1d606083018461470b565b95945050505050565b6000608082019050614e3b6000830187614aa4565b614e486020830186614aa4565b614e556040830185614aa4565b614e626060830184614ab3565b95945050505050565b6000606082019050614e806000830186614aa4565b614e8d6020830185614aa4565b614e9a6040830184614ab3565b949350505050565b600060e082019050614eb7600083018a614aa4565b614ec46020830189614aa4565b614ed16040830188614ab3565b614ede6060830187614ab3565b614eeb6080830186614aa4565b614ef860a0830185614aa4565b81810360c0830152614f0a818461478c565b905098975050505050505050565b600060e082019050614f2d600083018a614aa4565b614f3a6020830189614ab3565b614f476040830188614ab3565b614f546060830187614aa4565b614f616080830186614aa4565b81810360a0830152614f738185614753565b9050614f8260c08301846146c3565b98975050505050505050565b6000604051905081810181811067ffffffffffffffff82111715614fb557614fb46152c7565b5b8060405250919050565b600067ffffffffffffffff821115614fda57614fd96152c7565b5b602082029050602081019050919050565b600067ffffffffffffffff821115615006576150056152c7565b5b602082029050602081019050919050565b600067ffffffffffffffff821115615032576150316152c7565b5b602082029050602081019050919050565b600067ffffffffffffffff82111561505e5761505d6152c7565b5b601f19601f8301169050602081019050919050565b600067ffffffffffffffff82111561508e5761508d6152c7565b5b601f19601f8301169050602081019050919050565b6000819050602082019050919050565b6000819050602082019050919050565b60008190508160005260206000209050919050565b600081519050919050565b600081519050919050565b600081519050919050565b600081519050919050565b6000602082019050919050565b6000602082019050919050565b600082825260208201905092915050565b600082825260208201905092915050565b600082825260208201905092915050565b600082825260208201905092915050565b600081905092915050565b600082825260208201905092915050565b600082825260208201905092915050565b600061519a826151eb565b9050919050565b60006151ac826151eb565b9050919050565b60008115159050919050565b60007fffffffff0000000000000000000000000000000000000000000000000000000082169050919050565b600073ffffffffffffffffffffffffffffffffffffffff82169050919050565b6000819050919050565b600063ffffffff82169050919050565b60006bffffffffffffffffffffffff82169050919050565b600061524882615261565b9050919050565b600061525a82615215565b9050919050565b600061526c82615273565b9050919050565b600061527e826151eb565b9050919050565b82818337600083830152505050565b60005b838110156152b2578082015181840152602081019050615297565b838111156152c1576000848401525b50505050565bfe5b6000601f19601f8301169050919050565b6152e38161518f565b81146152ee57600080fd5b50565b6152fa816151a1565b811461530557600080fd5b50565b615311816151b3565b811461531c57600080fd5b50565b615328816151bf565b811461533357600080fd5b50565b61533f8161520b565b811461534a57600080fd5b50565b61535681615215565b811461536157600080fd5b50565b61536d81615225565b811461537857600080fd5b5056fe456e756d657261626c655365743a20696e646578206f7574206f6620626f756e64734552433732313a207472616e7366657220746f206e6f6e20455243373231526563656976657220696d706c656d656e7465724552433732313a207472616e7366657220746f20746865207a65726f2061646472657373416464726573733a20696e73756666696369656e742062616c616e636520666f722063616c6c4552433732313a206f70657261746f7220717565727920666f72206e6f6e6578697374656e7420746f6b656e4552433732313a20617070726f76652063616c6c6572206973206e6f74206f776e6572206e6f7220617070726f76656420666f7220616c6c4552433732313a2062616c616e636520717565727920666f7220746865207a65726f20616464726573734552433732313a206f776e657220717565727920666f72206e6f6e6578697374656e7420746f6b656e456e756d657261626c654d61703a20696e646578206f7574206f6620626f756e64734552433732313a20617070726f76656420717565727920666f72206e6f6e6578697374656e7420746f6b656e4552433732313a207472616e73666572206f6620746f6b656e2074686174206973206e6f74206f776e4552433732314d657461646174613a2055524920717565727920666f72206e6f6e6578697374656e7420746f6b656e4552433732313a20617070726f76616c20746f2063757272656e74206f776e65724552433732313a207472616e736665722063616c6c6572206973206e6f74206f776e6572206e6f7220617070726f766564a26469706673582212206ff729218c3909f8c07ecb23922ef255782b97f343fb4d8c8f8828c6a82d82e964736f6c63430007060033",
  "immutableReferences": {},
  "source": "// SPDX-License-Identifier: GNU General Public License v3.0\r\npragma solidity ^0.7.6;\r\npragma abicoder v2;\r\n\r\nimport \"@openzeppelin/contracts/token/ERC721/ERC721.sol\";\r\nimport \"@openzeppelin/contracts/utils/Counters.sol\";\r\nimport \"@rarible/royalties/contracts/impl/RoyaltiesV2Impl.sol\";\r\nimport \"@rarible/lazy-mint/contracts/erc-721/LibERC721LazyMint.sol\";\r\n\r\ncontract NFTicketize is ERC721 , RoyaltiesV2Impl  {\r\n\r\n    using Counters for Counters.Counter;\r\n    Counters.Counter private _tokenIds;\r\n\r\n    event NewEvent(uint256 id, address creator, uint256 startDate, string metadataIpfsCid);\r\n\r\n    event NewTicketCategory(uint256 eventId, uint256 id, uint32 currentMintTickets, uint32 maxTickets, uint256 ticketPrice, uint256 resellTicketValue, string metadataIpfsCid);\r\n    \r\n    event UpdateTicketCategory(uint256 eventId, uint256 id, uint32 currentMintTickets, uint32 maxTickets, uint256 ticketPrice, uint256 resellTicketValue, string metadataIpfsCid);\r\n    \r\n    event NewTicket(uint256 eventId, uint256 ticketCategoryId, uint256 id, uint32 forBid);\r\n\r\n    event UpdateTicket(uint256 eventId, uint256 ticketCategoryId, uint256 id, uint32 forBid);\r\n\r\n    struct Event {\r\n        address payable creator;\r\n        uint256 startDate;\r\n        string metadataIpfsCid;\r\n        bool exist;\r\n    }\r\n\r\n    struct TicketCategory {\r\n        uint256 eventId;\r\n        uint32 currentMintTickets;\r\n        uint32 maxTickets;\r\n        uint256 ticketPrice;\r\n        uint256 resellTicketValue;\r\n        string metadataIpfsCid;\r\n        bool exist;\r\n    }\r\n\r\n    struct Ticket {\r\n        uint256 eventId;\r\n        uint256 ticketCategoryId;\r\n        uint32 forBid;\r\n    }\r\n\r\n    mapping(uint256 => Event) public events;\r\n    uint256 eventCounter = 0;\r\n    \r\n    mapping(uint256 => TicketCategory) public ticketCategories;\r\n    uint256 ticketCategoryCounter = 0;\r\n\r\n    mapping(uint256 => Ticket) public tickets;\r\n\r\n    constructor() ERC721(\"NFTicketize\", \"NFTICKET\") {\r\n    \r\n    }\r\n\r\n    //Modifier to check if event exist\r\n    modifier eventExists(uint256 _eventId) {\r\n        require(events[_eventId].exist, \"Event does not exist.\");\r\n        _;\r\n    }\r\n\r\n    //Modified to check if ticket category exist \r\n    modifier ticketCategoryExist(uint256 _ticketCategory) {\r\n        require(ticketCategories[_ticketCategory].exist, \"Ticket category does not exist.\");\r\n        _;\r\n    }\r\n\r\n    //Modified to check if ticket category is for that event \r\n    modifier ticketCategoryEventExist(uint256 _eventId, uint256 _ticketCategory) {\r\n        require(ticketCategories[_ticketCategory].eventId == _eventId, \"Ticket category does not exist.\");\r\n        _;\r\n    }\r\n\r\n    // Modifier to check that the caller is the owner of event\r\n    modifier onlyEventOwner(uint256 _eventId) {\r\n        Event memory _event = events[_eventId];\r\n        require(msg.sender == _event.creator, \"Not event owner.\");\r\n        _;\r\n    }\r\n\r\n    // Modifier to check that the caller is not the owner of event\r\n    modifier isNotEventOwner(uint256 _eventId) {\r\n        Event memory _event = events[_eventId];\r\n        require(msg.sender != _event.creator, \"Caller is event owner.\");\r\n        _;\r\n    }\r\n\r\n    // Update ticket number\r\n    function updateTicketCategoryNewTicket(uint256 _eventId, uint256 _ticketCategoryId) internal {\r\n        ticketCategories[_ticketCategoryId].currentMintTickets = ticketCategories[_ticketCategoryId].currentMintTickets + 1;\r\n        emit UpdateTicketCategory(_eventId, _ticketCategoryId, ticketCategories[_ticketCategoryId].currentMintTickets, \r\n                ticketCategories[_ticketCategoryId].maxTickets,ticketCategories[_ticketCategoryId].ticketPrice, \r\n                ticketCategories[_ticketCategoryId].resellTicketValue, ticketCategories[_ticketCategoryId].metadataIpfsCid);\r\n    }\r\n    \r\n    // Create new event\r\n    function createEvent(uint256 _startDate, string memory _metadataIpfsCid) public {\r\n        uint256 currentEventCounter = eventCounter;\r\n        Event memory _event;\r\n        _event.creator = msg.sender;\r\n        _event.startDate = _startDate;\r\n        _event.metadataIpfsCid = _metadataIpfsCid;\r\n        _event.exist = true;\r\n        events[currentEventCounter] = _event;\r\n        eventCounter++;\r\n        \r\n        emit NewEvent(currentEventCounter, msg.sender, _startDate, _metadataIpfsCid);\r\n    }\r\n\r\n    // Create new ticket category\r\n    function createTicketCategory(uint256 _eventId, \r\n            uint32 _maxTickets, \r\n            uint256 _ticketPrice, \r\n            uint256 _resellTicketValue, \r\n            string memory _metadataIpfsCid\r\n    ) public \r\n            eventExists(_eventId) \r\n            onlyEventOwner(_eventId) {\r\n        uint256 currentTicketCategoryCounter = ticketCategoryCounter;\r\n        TicketCategory memory _ticketCategory;\r\n        _ticketCategory.eventId = _eventId;\r\n        _ticketCategory.currentMintTickets = 0;\r\n        _ticketCategory.maxTickets = _maxTickets;\r\n        _ticketCategory.ticketPrice = _ticketPrice;\r\n        _ticketCategory.resellTicketValue = _resellTicketValue;\r\n        _ticketCategory.metadataIpfsCid = _metadataIpfsCid;\r\n        _ticketCategory.exist = true;\r\n        ticketCategories[currentTicketCategoryCounter] = _ticketCategory;\r\n        ticketCategoryCounter++;\r\n        \r\n        emit NewTicketCategory(_eventId, currentTicketCategoryCounter, 0, _maxTickets, _ticketPrice, _resellTicketValue, _metadataIpfsCid);\r\n    }\r\n\r\n    function fillInformationsAboutTicket(\r\n            uint256 _eventId,\r\n            uint256 _ticketCategoryId,\r\n            uint256[] memory _tokenIdsForMint\r\n    ) external payable \r\n            eventExists(_eventId) \r\n            ticketCategoryExist(_ticketCategoryId)\r\n            ticketCategoryEventExist(_eventId, _ticketCategoryId)\r\n            isNotEventOwner(_eventId) {\r\n\r\n        // Check if there is tickets for sell\r\n        require(ticketCategories[_ticketCategoryId].currentMintTickets <= ticketCategories[_ticketCategoryId].maxTickets, \"Tickets for this category are sold.\");\r\n\r\n        LibPart.Part[] memory _royalties = new LibPart.Part[](1);\r\n        if (ticketCategories[_ticketCategoryId].resellTicketValue > 0) {\r\n            LibPart.Part memory _royalty;\r\n            _royalty.account = events[_eventId].creator;\r\n            _royalty.value = 10000 * uint96(ticketCategories[_ticketCategoryId].resellTicketValue) / 100;\r\n             _royalties[0] = _royalty;\r\n        }\r\n\r\n        (bool sent, bytes memory data) = events[_eventId].creator.call{value: msg.value}(\"\");\r\n        require(sent, \"Failed to send Ether\");\r\n\r\n        // Check is enough ETH sent\r\n        require(msg.value == _tokenIdsForMint.length * ticketCategories[_ticketCategoryId].ticketPrice);\r\n\r\n        for (uint counter = 0; counter < _tokenIdsForMint.length; counter++) {\r\n            //Save royalties for Rarible\r\n            _saveRoyalties(_tokenIdsForMint[counter], _royalties);\r\n\r\n            Ticket memory _ticket;\r\n            _ticket.eventId = _eventId;\r\n            _ticket.ticketCategoryId = _ticketCategoryId;\r\n            _ticket.forBid = 0;\r\n            tickets[_tokenIdsForMint[counter]] = _ticket;\r\n            emit NewTicket(_eventId, _ticketCategoryId, _tokenIdsForMint[counter], 0);\r\n            \r\n            //Update current tickets for ticketCategory\r\n            updateTicketCategoryNewTicket(_eventId, _ticketCategoryId);\r\n        }\r\n    }\r\n    \r\n     function mintAndTransfer(\r\n        LibERC721LazyMint.Mint721Data memory data,\r\n        address to\r\n    ) external {\r\n        _mint(to, data.tokenId);\r\n        _saveRoyalties(data.tokenId, data.royalties);\r\n    }\r\n    \r\n    function transferFromOrMint(\r\n        LibERC721LazyMint.Mint721Data memory _data,\r\n        address _from,\r\n        address payable _to\r\n    ) external {\r\n        if (_exists(_data.tokenId)) {\r\n            safeTransferFrom(_from, _to, _data.tokenId);\r\n        } else {\r\n            this.mintAndTransfer(_data, _to);\r\n        }\r\n    }\r\n\r\n    function setTicketForBid(uint256 _tokenId, uint32 _value) public {\r\n        Ticket memory _ticket = tickets[_tokenId];\r\n        _ticket.forBid = _value;\r\n        tickets[_tokenId] = _ticket;\r\n\r\n        emit UpdateTicket(_ticket.eventId, _ticket.ticketCategoryId, _tokenId, _value);\r\n    }\r\n}",
  "sourcePath": "D:/Posao - Stefan/Stefan - razno/Gitcoin/Hackathon - Rarible/Nfticketizegraph/contracts/NFTicketize.sol",
  "compiler": {
    "name": "solc",
    "version": "0.7.6+commit.7338295f.Emscripten.clang"
  },
  "schemaVersion": "3.4.1",
  "updatedAt": "2021-07-05T06:55:14.228Z",
  "networkType": "ethereum",
  "devdoc": {
    "kind": "dev",
    "methods": {
      "approve(address,uint256)": {
        "details": "See {IERC721-approve}."
      },
      "balanceOf(address)": {
        "details": "See {IERC721-balanceOf}."
      },
      "baseURI()": {
        "details": "Returns the base URI set via {_setBaseURI}. This will be automatically added as a prefix in {tokenURI} to each token's URI, or to the token ID if no specific URI is set for that token ID."
      },
      "getApproved(uint256)": {
        "details": "See {IERC721-getApproved}."
      },
      "isApprovedForAll(address,address)": {
        "details": "See {IERC721-isApprovedForAll}."
      },
      "name()": {
        "details": "See {IERC721Metadata-name}."
      },
      "ownerOf(uint256)": {
        "details": "See {IERC721-ownerOf}."
      },
      "safeTransferFrom(address,address,uint256)": {
        "details": "See {IERC721-safeTransferFrom}."
      },
      "safeTransferFrom(address,address,uint256,bytes)": {
        "details": "See {IERC721-safeTransferFrom}."
      },
      "setApprovalForAll(address,bool)": {
        "details": "See {IERC721-setApprovalForAll}."
      },
      "supportsInterface(bytes4)": {
        "details": "See {IERC165-supportsInterface}. Time complexity O(1), guaranteed to always use less than 30 000 gas."
      },
      "symbol()": {
        "details": "See {IERC721Metadata-symbol}."
      },
      "tokenByIndex(uint256)": {
        "details": "See {IERC721Enumerable-tokenByIndex}."
      },
      "tokenOfOwnerByIndex(address,uint256)": {
        "details": "See {IERC721Enumerable-tokenOfOwnerByIndex}."
      },
      "tokenURI(uint256)": {
        "details": "See {IERC721Metadata-tokenURI}."
      },
      "totalSupply()": {
        "details": "See {IERC721Enumerable-totalSupply}."
      },
      "transferFrom(address,address,uint256)": {
        "details": "See {IERC721-transferFrom}."
      }
    },
    "version": 1
  },
  "userdoc": {
    "kind": "user",
    "methods": {},
    "version": 1
  }
}